:020000040800F2
:100000004817012095020008BD2C0008512800085F
:10001000B92C0008BD0900088D3000080000000060
:10002000000000000000000000000000312D00086A
:10003000C109000800000000C12C0008612D000863
:10004000AF020008AF020008AF020008AF020008CC
:10005000AF020008AF020008AF020008AF020008BC
:10006000AF020008A10C0008A90C0008AF020008AC
:10007000AF020008AF020008AF020008AF0200089C
:10008000AF020008AF020008AF020008AF0200088C
:10009000AF020008AF020008AF020008B10C000870
:1000A000AF020008552E0008AF020008AF0200089A
:1000B000AF020008AF020008AF020008AF0200085C
:1000C000AF020008AF020008AF020008AF0200084C
:1000D000AF020008AF020008AF020008AF0200083C
:1000E000AF020008AF020008AF020008AF0200082C
:1000F000AF020008AF020008AF020008AF0200081C
:10010000AF020008AF020008AF020008AF0200080B
:10011000AF020008AF020008AF020008AF020008FB
:10012000AF020008AF020008AF020008AF020008EB
:10013000AF020008C5090008AF020008AF020008BE
:10014000AF020008AF020008AF020008AF020008CB
:10015000AF020008AF020008AF020008AF020008BB
:10016000AF020008AF020008AF020008AF020008AB
:10017000AF020008AF020008AF0200080000000054
:10018000AF020008AF020008AF020008AF0200088B
:10019000AF020008AF020008AF020008AF0200087B
:1001A000AF020008AF020008AF02000800F002F83A
:1001B00000F046F80AA090E8000C82448344AAF1BB
:1001C0000107DA4501D100F03BF8AFF2090EBAE8B9
:1001D0000F0013F0010F18BFFB1A43F0010318477B
:1001E0007836010098360100103A24BF78C878C1EB
:1001F000FAD8520724BF30C830C144BF04680C602D
:10020000704700000023002400250026103A28BF74
:1002100078C1FBD8520728BF30C148BF0B60704778
:10022000642900F05981732900F04283002070474F
:100230001FB512F0C4FB00F0A0F91FBD10B510BD32
:1002400000F086FB1146FFF7F3FF06F0ABFC00F071
:10025000A4FB03B4FFF7F2FF03BC00F0A7FB000010
:100260000B49D1F800C04A685CF8043B1068184498
:1002700042F8040B8C4528BFA1F1DC0C8A4228BF50
:10028000A1F1DC02C1F800C04A6020F000407047D4
:100290000C0100200948804709480047FEE7FEE7B7
:1002A000FEE7FEE7FEE7FEE7FEE7FEE7FEE7FEE726
:1002B00004480549054A064B70470000412E0008D6
:1002C000AD01000848110120481701204813012002
:1002D0004813012053EA020C00F069802DE9F04B2D
:1002E0004FF00006002B1FBFB3FA83F503FA05F4A5
:1002F00024FA05F65E4012BF1643B2FA82F502FAFE
:1003000005F4C5F120051EBF22FA05FC44EA0C04E1
:10031000203556EA044C4FEA144418BF641C4FF0D1
:1003200000084FF00009904271EB030C39D300290B
:1003300019BFB1FA81F701FA07F6B0FA80F700FAAF
:1003400007F6C7F120071EBF20FA07FC46EA0C0695
:100350002037B6FBF4FCA7EB0507103F07F01F0B97
:10036000CBF120062CFA06F60CFA0BFB44BFB34681
:100370000026202FA4BF5E464FF0000B5BEA060C60
:1003800008BF4FF0010B19EB0B0948EB0608ABFB5C
:10039000027C06FB02CC0BFB03CCC01B71EB0C01F7
:1003A000C1E70B46024641464846BDE8F08B13B50F
:1003B000084318BF4FF0FF300146AFF30080BDE89F
:1003C0001C4070470FB4044910B503AA029800F00E
:1003D00073FA10BC5DF814FB0C0500200FB41CB5BB
:1003E0000C0007AA009007D04142A14202D320444A
:1003F000401E01E04FF0FF30074B7B4469460190FF
:10040000069800F028FA0020002C01D0009908700E
:100410001CBC5DF814FB00007F0400002DE9F041D6
:100420000E460446002020622046E168884730B32B
:10043000252805D0D4E901219047206A401CF2E725
:10044000E168204600278847050018D0A5F1410043
:10045000192802D820354FF4006732462946204635
:100460002760FFF7DDFE40B1012804D0F61D26F01D
:1004700007060836D8E7361DD6E72846DAE7206AA9
:10048000BDE8F08170B50C460546012A05D02878F4
:10049000800600D5EA69002302E0012305E05B1C29
:1004A000934202D2E05C0028F9D1A869E618C01A8C
:1004B000A861286A184428622846AFF3008004E047
:1004C000D5E9012114F8010B9047B442F8D328462E
:1004D000AFF3008070BD00002DE9F0410646002416
:1004E00010687529314616A510D0AFF3008000289A
:1004F00002DA404213A507E031688A0701D512A548
:1005000002E0490704D511A5012401E0AFF3008002
:1005100000210A2206F1240709E0B0FBF2FCB0FB3F
:10052000F2F302FB1C00303078541846491C0028B6
:10053000F3D123462A463046BDE8F04100F02DB9FC
:10054000000000002D0000002B0000002000000033
:100550000B4910B5A1F17C020A4CC2E937123721D0
:1005600006E000EB104342F82130074B00FB03404C
:100570000B1EA1F10101F4DC10BD0120E8E7000031
:10058000AC000020E119D666CD0D010040EA010360
:1005900010B59B070FD1042A0DD310C808C9121F2C
:1005A0009C42F8D020BA19BA884201D9012010BD66
:1005B0004FF0FF3010BD1AB1D30703D0521C07E033
:1005C000002010BD10F8013B11F8014B1B1B07D197
:1005D00010F8013B11F8014B1B1B01D1921EF1D108
:1005E000184610BD10B5431C02E010F8011B71B194
:1005F0008107FAD14FF0013202C88C1A8C4314EAF9
:10060000C211F9D0C01A0A0603D0C01E10BDC01A0C
:1006100010BD0A0401D0801E10BD0902FCD0401E8E
:1006200010BD032A40F2308010F0030C00F015805A
:1006300011F8013BBCF1020F624498BF11F801CBE5
:1006400000F8013B38BF11F8013BA2F1040298BF4A
:1006500000F801CB38BF00F8013B11F0030300F0B4
:100660003D81083AC0F0088051F8043B083A51F83F
:1006700004CBA0E80810F5E7121D5CBF51F8043B5D
:1006800040F8043BAFF30080D20724BF11F8013BD0
:1006900011F801CB48BF11F8012B24BF00F8013B32
:1006A00000F801CB48BF00F8012B70474FF0000263
:1006B0000429C0F0128010F0030C00F01B80CCF174
:1006C000040CBCF1020F18BF00F8012BA8BF20F8E2
:1006D000022BA1EB0C0100F00DB85FEAC17C24BF36
:1006E00000F8012B00F8012B48BF00F8012B7047E0
:1006F0004FF0000200B5134694469646203922BFBB
:10070000A0E80C50A0E80C50B1F12001BFF4F7AF05
:10071000090728BFA0E80C5048BF0CC05DF804EBE7
:10072000890028BF40F8042B08BF704748BF20F855
:10073000022B11F0804F18BF00F8012B704710B545
:10074000044610F0030F08BF11F0030F40F01580AE
:100750004FF0013E121FC0F20E8051F8043BA3EB94
:100760000E0C2CEA030C1CEACE1C08BF40F8043B1C
:10077000F0D0A1F1040102F10402521E08DB11F8CD
:10078000013B00F8013B002BF7D11146FFF78EFF2C
:10079000204610BD7047704770472DE9F0470D4661
:1007A00099469246044600F124080168880604D55B
:1007B000E06921F01001216000E00120A84201DD84
:1007C000471B00E00027A1697A1902EB0900081A0B
:1007D000A0612078C00602D42046AFF30080002636
:1007E00008E0D4E901211AF806009047206A401C6D
:1007F000761C20624E45F4DB2078C0060AD52046E0
:10080000AFF3008006E0D4E9012130209047206A50
:10081000401C2062381EA7F10107F4DC07E0D4E990
:10082000012118F805009047206A401C2062281E0C
:10083000A5F10105F3DC2046AFF300802078000627
:1008400002D50220BDE8F0870120FBE701694A1CC0
:1008500002610878704700B58FB0CDE90131002101
:10086000059105497944CDE9031011466846FFF723
:10087000D5FD0FB000BD0000E5FFFFFFD1E900236B
:100880009A4202D2531C0B601070704710B5436936
:1008900013B1AFF3008001E0FFF7F4FD012010BDBC
:1008A000127800F124010A7000224A700122EDE75B
:1008B00011684FF0FF32E9E7074B70B50D467B44F6
:1008C000FFF7C9FF0446284600F03EF810B14FF08C
:1008D000FF3070BD204670BD8B40000010B5203A3F
:1008E000C0F00B80B1E81850A0E81850B1E81850DB
:1008F000A0E81850203ABFF4F5AF5FEA027C24BFAD
:10090000B1E81850A0E8185044BF18C918C0BDE895
:1009100010405FEA827C24BF51F8043B40F8043B5E
:1009200008BF7047D20728BF31F8023B48BF11F813
:10093000012B28BF20F8023B48BF00F8012B70476D
:100940000048704714010020007B00F080007047D1
:100950007546FFF7F5FFAE4605006946534620F0A1
:100960000700854618B020B5FFF7A2FCBDE820407F
:100970004FF000064FF000074FF000084FF0000B5B
:10098000AC46ACE8C009ACE8C009ACE8C009ACE8CA
:10099000C00921F007018D46704710B50446AFF33A
:1009A00000802046BDE81040FFF753BC01491820E5
:1009B000ABBEFEE72600020070470000FEE7000025
:1009C0007047000040F25860C2F2000000F0FEB92B
:1009D0000020704701F098B980B540F25860C2F22B
:1009E000000000F02DFE002080BD000080B5134601
:1009F0000A46014640F25860C2F2000000F0F4FCE2
:100A0000002818BF4FF0FF3080BD000080B51346AE
:100A10000A46014640F25860C2F2000001F000F8B8
:100A2000002818BF4FF0FF3080BD00002DE9F041D5
:100A3000D0F828E000F1180C5CF82E308C681D68A6
:100A4000002D03D400EB8E05ED6A1DB10220BDE838
:100A5000F08100BFD4E9005641F6FF779D605D68E4
:100A6000BD4335435D600D68EE0740F00581AE067D
:100A700000F10B81690703D5196841F08001196005
:100A8000196841F080511960BFF35F8F196841F018
:100A900000411960A468002194B341F6FF787646BE
:100AA000002A61D01F68354627F000571F601F6875
:100AB00047F080461E606E1C032E88BFEE1E5CF859
:100AC00026301D6825F080551D601D68002D61D4FD
:100AD00000EB8605ED6A002D5CD1D4E900570131A9
:100AE0009D605D6825EA08053D435D60BFF35F8F4B
:100AF0001D6845F000451D60A468002CD2D1B646A3
:100B00001F68002A27F0804718BF07F180471F6041
:100B10001A6842F000521A60C26B00EB8E03DA6270
:100B2000C0F828E0EFF3108272B6026C1144013174
:100B30000164002062B6BDE8F08100BF00EB8605CD
:100B4000ED6A3DBBD4E9005701319D605D6825EA3F
:100B500008053D435D60BFF35F8F1D6845F00045AC
:100B60001D60A468002CCAD01F68354627F00057C6
:100B70001F601F6827F080461E606E1C032E88BF12
:100B8000EE1E5CF826301D6825F080551D601D683E
:100B9000002DD3D5013100293FF458AF481E03285A
:100BA00001F0030039D321F0030100BF5CF82E20CF
:100BB000BFF35F8F136823F0004313600EF101024F
:100BC000032A88BFAEF103025CF82230BFF35F8FC7
:100BD0001F6827F000471F60531C032B88BFD31EDC
:100BE0005CF82320BFF35F8F176827F0004717607A
:100BF0005A1C032A88BFDA1E5CF82230BFF35F8FCD
:100C00001C6802F1010EBEF1030F88BFA2F1030EB2
:100C100024F0004204391A60C8D10CEB8E01002880
:100C20003FF414AF0968BFF35F8F0A68012822F010
:100C300000420A603FF40AAF0EF10101032988BFA8
:100C4000AEF103015CF82120BFF35F8F1368022827
:100C500023F0004313603FF4F9AE481C032888BF1B
:100C6000C81E5CF82000BFF35F8F016821F00041CF
:100C700001600220BDE8F0811E684F6926F440063D
:100C80003E431E60AE067FF5F5AE1E68096926F08C
:100C900040663143196069073FF5EEAEF0E60000AB
:100CA000082000F03DBF0000102000F039BF000018
:100CB000202000F035BF0000EFF3108072B600BFB7
:100CC000FEE70000B0B5044601F01EF8054640F20C
:100CD0000000C2F200000078611C18BF044400BF8D
:100CE00001F012F8401BA042FAD3B0BD80B500F06D
:100CF0000DF8000658BF80BD40F29410C2F200000B
:100D00004068BDE8804007F0A9BF0000D0F88C0023
:100D100070470000024600294FF0010008BF7047ED
:100D200012681368C3F3001381F82830136803F0C6
:100D300060034B62136820EA532381F82030136864
:100D4000C3F30043CB77136820EA53338B771368E0
:100D5000C3F300330B77136803F400638B611368EC
:100D600003F480434B61136820EA93534B74136878
:100D700020EAD35008741068C0B2C009C873106864
:100D800000F4602088601068C0F3802008719069CA
:100D9000C0F3400081F854009069C043C0B2C0095C
:100DA00081F84C00906900F0300008659069000CF3
:100DB00088649069C0F3800081F856009069C0F3A0
:100DC000C00081F85500002070470000B0B504460F
:100DD000006841F21405415949060BD541198A684A
:100DE000520607D54020C0F201000860204600F0FE
:100DF0007FFB20684159C9070AD041198A68D20788
:100E000006D04FF001100860204600F0FDFD20687C
:100E100041F214014258120426D501448A68120492
:100E200022D5D4F8880040F00800C4F888000A6889
:100E30000868920406D448F280621040C4F88C001E
:100E40000A600DE042F20002C0F27E021040C4F8D7
:100E50008C00886820F4C0308860E020C4F88400EA
:100E60002046FFF743FF2068816B09070AD5C06A57
:100E700000F06000C4F89400204600F0DFF9002084
:100E8000C4F8940043F61441C4F201010868000359
:100E900058BFB0BD4FF4002220460A60BDE8B04004
:100EA00000F0BCBD70B582B0002843D00446D0F835
:100EB000840028B92320C4F88400204600F022F9D9
:100EC0000020019043F64400C4F2020001684FF490
:100ED000805641F480410160006800F48040019038
:100EE000019843F60400C4F20100016821F40001F6
:100EF00001602168A26803681A430260006888598B
:100F000040F00100885100F0FFFE0546206881593D
:100F1000C90713D000F0F8FE401BB0F5FA7FF5D9F1
:100F20000120E0220421C4F88810C4F8842002B013
:100F300070BD00BF012002B070BD00BF016848F263
:100F40000F12CFF62072114001F59C410160056837
:100F50000120FFF7B7FE20684FF6417205608169F6
:100F600011408031816185690120FFF7ABFE206867
:100F700041F218018561425843F62373CFF6DE0330
:100F80001A4042F0087242F00402425045580120D3
:100F9000FFF798FE206800F580518D6142F28001D4
:100FA0004FF48055C0F2C121415146590120FFF74D
:100FB00089FE2068E268002146511160516091600D
:100FC000D160A261136800F5805C43F48013136064
:100FD00002F12803D36016684FF48C4546F44006AE
:100FE00016609162D16211635163E361936A43F4C5
:100FF0008013936202F150035363966A46F44006ED
:101000009662116551659165D1652362136D43F454
:101010008013136502F17803D365166D46F440061C
:1010200016659167D167C2F88010C2F884106362B8
:10103000936F43F480139367C2F88420936F43F453
:1010400040039367A162CCF8102022694FF000435F
:10105000116051609160D160C2E908111360556060
:10106000566826F00046566002F12806A264D66053
:101070009162D16211635163C2E912119362D56228
:10108000D06A20F00040D06202F15000E664506364
:10109000116551659165D165C2E91C1113655565EE
:1010A000566D26F000465665206502F17800D06541
:1010B0009167D167C2F88010C2F88410C2E9261186
:1010C0009367D567D36F23F00043D3676065C2F899
:1010D00084202166C4E91A11C4E91611CCF80C2049
:1010E000606848F240038288C4F202031A60006814
:1010F000102258600020C4F88810C4F8842002B080
:1011000070BD00002DE9F04385B0006848F2000191
:10111000C4F20201884203D005B0BDE8F08300BFED
:10112000002643F630000096C4F202000168002455
:1011300041F0007101600168C4F2020401F0007125
:1011400000910099009601686D4641F08061016050
:1011500001684FF0020801F080610091009900964B
:1011600001684FF0030941F00061016001680B273D
:1011700001F00061009100990096016841F00401BE
:101180000160016801F00401009100990096016876
:1011900041F001010160016801F001010091009935
:1011A0000096016841F002010160016801F002014E
:1011B000009100990096016841F0400101600068CB
:1011C000294600F04000009000983220009004F57D
:1011D0000060CDE90186CDF80C90049700F0ACFCDE
:1011E0008620CDE9000820462946CDE9026904970A
:1011F00000F0A2FC4FF40050CDE9000804F5806037
:101200002946CDE90269049700F096FC4FF420507E
:10121000CDE9000804F5C0502946CDE902690497DC
:1012200000F08AFC3D200521002200F02DFE3D202B
:1012300000F016FE05B0BDE8F08300007047000026
:101240002DE9F04F85B00029044671D0D4F8840010
:10125000232840F0C580D4F85CA004F1480858F871
:101260002A90E26ED9F800000191002868D4C2F1FA
:101270000400039004F17C0504F180004FF0000BA2
:10128000002602902BE000BFD9F80000D9F800102A
:10129000C0F30D40071F4FF0010B2167D9F808205C
:1012A0000299BBB22846C9F8202000F029F9D4E9F8
:1012B000180101303944C4E918010020C9F82000A0
:1012C0000AF10100032888BFAAF1030058F8209012
:1012D0000136D9F800108246B1F1FF3F39DD03989D
:1012E000864235D2BBF1000F32D1D9F80000C005DB
:1012F00005D5D9F81800A067D9F81C006067D9F89F
:101300000000800501D4286870B1D9F8000080057C
:1013100044BF0020C4E918006769D9F80000C0057F
:10132000B2D44FF0000BB9E74FF0000BC8E700BF95
:10133000D4F8880040F00100C4F8880050E000BFF5
:1013400000264FF0000BB618E66607D13BE000BF61
:101350005046E26E8246B618E66634D0A76E00208C
:101360000DF11009049016E0A06D00284FF48C4098
:1013700004BF44F20060C8F200006860BFF35F8FF2
:10138000286840F000402860781C032888BFF81EB9
:10139000013E07460CD058F82750286A0028E3D1B0
:1013A000484600F07DF8049818B12862A860DBE791
:1013B0000026E06EB04206D0206841F2080100220B
:1013C0004250C4E91A76BBF1010FC4F85CA007D102
:1013D000E06F019908600020E06705B0BDE8F08F7C
:1013E000012005B0BDE8F08FF0B581B0054600687A
:1013F0001C4603694FF4F86707EA821203F01C03E6
:1014000061F3CF22D1180131016100F07DFC064665
:10141000002700BF00F078FC801BB7EB104F09D10C
:1014200028680169C907F5D1406980B220600020B1
:1014300001B0F0BD012001B0F0BD00002DE9F04188
:101440000446006C40B3676C451E4FF0000803E093
:101450000746013D681C1FD004EB8700C16A781C59
:1014600000F00300002908BF0746F1D0E06807EB51
:10147000870150F8310000280ED404EB8706F06A8B
:1014800000F0CAFA781C00F00307C6F82C80C4E903
:101490001057013D681CDFD10020BDE8F08100003D
:1014A00010B582B0044642F66020C0F6010006F096
:1014B00043FA98B103462030206049F2FD40C0F65F
:1014C0000000186120684FF4C064009000200021E3
:1014D0004122019407F054FD02B010BD40F2941077
:1014E000C2F20000012101700020206002B010BD96
:1014F00040F29410C2F20000406807F0AFBB000059
:101500004FF0000C42F820CDA2F808C0D0F800C07F
:101510005381BCF1000F844618BFD1F800C0CCF84D
:1015200000200A60006868B917E000BF02890168FE
:101530001A440029028108BF70470A8908681A44C2
:101540000A8150B1028901681A44028129B10A89CD
:1015500008681A4400280A81E8D1704770B500294C
:101560006CD00446D0F88400102867D120680D465E
:10157000016848F20F12CFF6207211402A7C6B7C72
:10158000002AAA6808BF01F500011143002B6B690E
:10159000EA7F08BF41F480011943AB7F41EA024171
:1015A000AA69002B2B7F08BF41F4005111432A790F
:1015B00041EA033195F8203041EA8221002B6B6A21
:1015C000EA7B08BF41F40071194395F8283041EADD
:1015D000C21141EA0311016006680120FFF772FBA6
:1015E00020684FF641720660816995F84C3001EA37
:1015F000020CAA6C002B4FEA024208BF80322B6D0E
:1016000095F8556043EA0C0395F856101A4395F87F
:101610005450012E08BF42F00802012908BF42F0D1
:101620000402012D08BF42F0020282618569012097
:10163000FFF748FB20688561002070BD012070BD68
:10164000B0B504460068006920F01C0500F028FDD4
:101650004DF20031CFF6CE614EF2BF120144C0F21E
:10166000E402914204D845F0080520680561B0BD48
:101670004FF24011CFF6E95147F63F020144C0F264
:101680007D12914204D845F00C0520680561B0BD7B
:1016900047F60011CFF66C4145F600220144C0F236
:1016A00062229142E1D341F60071CFF60A2108444B
:1016B0004FF27F01C0F2FA2188428CBF45F010053D
:1016C00045F0040520680561B0BD00002DE9F04338
:1016D00083B00446D0F884000125102840F0E6804D
:1016E0002320C4F884002068A565C16B04F1480874
:1016F00041F40271C163D0F80C1141F4003141F0A2
:101700006001C0F80C11D0F8101141F40311C0F8B9
:1017100010110420A56EE06658F82570386A00287C
:101720004FF00000019003D04FF48C4012E000BF56
:1017300001A8FFF7B5FE0198002800F0BB803862D1
:10174000B860A16D4FF48C40002904BF44F20060E2
:10175000C8F200007860BFF35F8F386840F0004047
:1017600038606F1C032F88BFEF1E58F82750286A77
:1017700040B901A8FFF794FE0198002800F0A0806E
:101780002862A860A06D4FF48C4600284FF48C406E
:1017900004BF44F20060C8F200006860BFF35F8FCE
:1017A000286840F0004028607D1C032D88BFFD1E86
:1017B00058F82570386A40B901A8FFF771FE019802
:1017C000002800F07F803862B860A06D44F20069A4
:1017D000C8F20009002808BF4E467E60BFF35F8F45
:1017E000386840F0004038606F1C032F88BFEF1E40
:1017F00058F82750286A38B901A8FFF751FE019818
:10180000002865D02862A860A06D002818BF4FF49A
:101810008C49C5F80490BFF35F8F286840F0004002
:1018200028607D1C0020032D88BFFD1EE26E21680C
:10183000824205D041F2080200238B50C4E91A50BD
:10184000086840F0080008600D680120FFF73AFAC8
:1018500020680560016841F004010160056801200D
:10186000FFF730FA206841F218060560002502955E
:10187000815941F480118151805902900120FFF774
:1018800021FA02982168885188598A1940F4005039
:101890008851885940F002008851506840F4D03097
:1018A00040F0C10050602320C4F88400284603B0F3
:1018B000BDE8F0830420E26E21688242BAD1BFE71E
:1018C000032006E00220E26E21688242B2D1B7E72F
:1018D00001203D46E26E21688242B1D0AAE70000B5
:1018E00070B582B00446D0F88400232852D123205A
:1018F000C4F88400206841F2180681194A6845F648
:101900003E73CFF6FE731A404A60815921F40051AC
:101910008151815921F002018151016821F00401B6
:10192000016005680120FFF7CDF9206805600025FA
:101930000195815941F48011815180590190012014
:10194000FFF7C0F9019821688851086820F0080065
:1019500008600E680120FFF7B5F920680660A06CEA
:10196000416841F000414160E06C416841F0004154
:101970004160206D416841F000414160606D416807
:1019800041F0004141601020A565C4F8840028465C
:1019900002B070BD0125284602B070BD10B50446E6
:1019A000A1B1D4F8840023281CBF012010BD486BCE
:1019B0000122E0632046FFF739F878B1D4F88800B7
:1019C00040F00200C4F88800012010BDD4F888005F
:1019D00040F00100C4F88800012010BDBFF34F8F14
:1019E000A06A2168421C032A88BFC21E41F204007B
:1019F000A2620144086940074FF0000042BF042280
:101A00000A61086010BD000040F29410C2F20000AC
:101A1000806807F023B9000007F0D4BC70470000CD
:101A200070B5044600684FF4F865066905EA82124D
:101A300006F01C0661F3CF22911903319AB242617C
:101A4000016100F061F90546002600BF00F05CF975
:101A5000401BB6EB104F05D120680069C007F5D1D7
:101A6000002070BD012070BD10B582B0202823D0A9
:101A700010283BD0082836D141F20004C4F20204F9
:101A80002046082100F02CF901282CD140F27410D6
:101A9000C2F20000002100698DF807100DF1070166
:101AA0000022002310F086F9A4F540604FF4804135
:101AB00000F01CF902B010BD41F20000C4F20200B7
:101AC000202100F00DF901280DD140F27410C2F26E
:101AD0000000022100698DF807100DF107010022B6
:101AE000002310F067F902B010BD00BF41F2000002
:101AF000C4F20200102100F0F3F80128F3D140F203
:101B00007410C2F20000012100698DF807100DF178
:101B100007010022002310F04DF902B010BD0000B3
:101B200043F61441C4F201010A68024214BF08607E
:101B30007047FFF799BF00002DE9F04F82B000F128
:101B40003E4242F2004502F1FF77C4F202050A224A
:101B500043F6004E4FEAB726A84208BF0922C4F256
:101B6000010E092E38BF4FEAB722012500260027B3
:101B70004FF00008009208E008F101080437B8F1BE
:101B8000100F06F1020600F0A7800C6805FA08F9AC
:101B900014EA090FF0D0D1F804B003220BF0030CC3
:101BA000ACF10104B240012C6FEA020A10D882683D
:101BB000CC6802EA0A02B440224382604268CBF356
:101BC000001422EA090204FA08F42243426005E004
:101BD000BCF1030F02D14FF0030C20E0C2688C6807
:101BE00002EA0A02B4402243BCF1020FC26016D1DD
:101BF0006FF0030202EA58020244D2F820C007F054
:101C00001C050F230C69AB402CEA030304FA05F50D
:101C10002B431362D1F804B001250BF0030C0268CA
:101C20000CFA06F302EA0A021A431BF4403F026070
:101C3000A2D0002243F644030192C4F202031A68C0
:101C40004FF6084C42F480421A601A68CFF6FF7CC7
:101C500002F480420192019A28F00302724452F881
:101C60000C3007F00C050F24AC40A343009C04FA91
:101C700005F52B4342F80C30DEF808204B6842EAA9
:101C8000090543F60C4CDC0258BF22EA0905CEF8E0
:101C90000850C4F2010CDCF800209C0242EA09055D
:101CA00058BF22EA0905CCF80050DEF804209C0356
:101CB00042EA090558BF22EA0905CEF80450DEF8C9
:101CC0000020DB0342EA090558BF22EA0905CEF8E5
:101CD0000050012550E700BF02B0BDE8F08F0000C2
:101CE0000069084018BF012070470000426902EAFD
:101CF0000103914341EA034181617047002A08BF13
:101D0000090481617047000040F6AC60C2F2010036
:101D10000068704740F2000040F6AC61C2F200007B
:101D2000C2F2010100780A681044086070470000A0
:101D300080B543F60040C4F20200016841F400712E
:101D40000160016841F480610160016841F48071C3
:101D50000160032000F0C4F80F2000F005F800F047
:101D60005DF8002080BD0000B0B586B0002543F6C8
:101D700044010195C4F202010A68044642F00102DE
:101D80000A60096801A801F0010101910199694601
:101D900000F066F900F09EF94DF683614000C4F250
:101DA0001B31A0FB01014FF0FF3000EB914140F2ED
:101DB00008700022C2F20000C4F2010240F2E733D0
:101DC000C0E90021C0E902530561856100F08AFB8A
:101DD000054618B1284606B0B0BD00BF40F20870F5
:101DE000C2F2000000F0AEFB05460028F2D1192037
:101DF00000F036F80F2C0DD81920214600220025BE
:101E000000F042F840F20400C2F2000004602846EC
:101E100006B0B0BD0125284606B0B0BD82B0002096
:101E200043F640010190C4F202014A6842F4804244
:101E30004A604A6802F480420192019A0090086860
:101E4000002240F08050086008680F2100F08050A8
:101E5000009000986FF0010002B000F015B800008B
:101E6000002848BF7047C1B200F01F00012202FAEB
:101E700000F04EF20012CEF2000242EAD10121F04F
:101E8000030108607047000010B54EF60C5CCEF2FE
:101E9000000CDCF80030C3F3022E8EF00704042C93
:101EA00028BF0424BEF103034FF0FF3E0EFA04F4F2
:101EB00038BF0023A14399400EFA03F39A4311431C
:101EC00000F00F0200F160430901043A03F5644396
:101ED0006244002848BF02F10C03197010BD0000D5
:101EE0004EF60C51CEF200010A684FF6FF031A407D
:101EF00060F30A2242F0806040F0FD700860704795
:101F00002DE9F041002800F08B8043F60808C4F268
:101F100002080446D8F8F8030D4600F00F00884286
:101F200007D288F8F853D8F8F80300F00F00A84259
:101F300076D12068810717D5410705D5D8F800105C
:101F400041F4E051C8F80010010705D5D8F8001099
:101F500041F46041C8F80010D8F80010A26821F0E0
:101F6000F0011143C8F80010C0073FD1D8F8F803BA
:101F700000F00F00A84207D988F8F853D8F8F80302
:101F800000F00F00A8424BD12068410707D5D8F8D0
:101F90000010E26821F4E0511143C8F80010000776
:101FA00008D5D8F80000216920F4604040EAC1005B
:101FB000C8F8000000F0A2F8D8F8001042F6D812D5
:101FC000C1F30311C0F60102515C40F2240220FA71
:101FD00001F140F20400C2F200000068C2F2000207
:101FE0001160FFF7C1FE0020BDE8F0816068811E2E
:101FF000022907D258F8081C89015CBF0120BDE8FE
:10200000F08111E0012807D158F8081C89035CBF52
:102010000120BDE8F08107E058F8081C890703D4C7
:102020000120BDE8F08100BFD8F8001021F00301C5
:102030000843C8F80000FFF767FE064641F28837FC
:10204000D8F80000616800F00C00B0EB810F8DD073
:10205000FFF75AFE801BB842F2D90320BDE8F08199
:102060000F22026043F60802C4F20202136803F072
:1020700003034360136803F0F0038360136803F401
:10208000E053C360D2F800C04FF4E05303EADC032E
:102090000361D2F8F80300F00F00086070470000F9
:1020A00040F22400C2F200000068704740F22400B1
:1020B00043F60801C2F20000C4F202010068096898
:1020C00042F6E812C1F38221C0F60102515CC84019
:1020D0007047000040F2240043F60801C2F20000FD
:1020E000C4F202010068096842F6E812C1F3423105
:1020F000C0F60102515CC8407047000010B543F6BD
:102100000404C4F20204606800F00C0142F20040D2
:102110000829C0F2F40007D0042918BF10BD41F20D
:102120000020C0F27A0010BD216801F03F02216852
:1021300023684902C3F3881106D4A1FB00010023E0
:10214000FEF7C8F807E000BF41F20020C0F27A00B5
:102150004843B0FBF2F021680222C1F3014102EBD7
:102160004101B0FBF1F010BD2DE9F04182B0002833
:1021700068D00446007843F60006C007C4F20206A1
:102180000BD0B06800F00C00042840F09F8030684D
:10219000800302D56068002854D0207880071AD5C3
:1021A000B06810F00C0F09D0B06800F00C000828DF
:1021B00040F0A6807068400200F1A280306880077D
:1021C00002D5E06801283DD13068216920F0F8008F
:1021D00040EAC10030602078000737D420784007FB
:1021E0004CD4A56955B3B06800F00C00082840F045
:1021F000BB80012D26D07068E16900F480028A421C
:1022000020D1216A00F03F028A421BD147F6C071FB
:10221000626A0140B1EB821F14D1A16A4FF6FF73CD
:10222000C903994300F44032A1F580318A4209D1B3
:10223000E16A00F07060B0EB016F03D1002002B0E2
:10224000BDE8F081012002B0BDE8F081606900289E
:1022500040F20000C4F2472076D00121C0F8801E71
:10226000FFF752FD054600BF706F8007B6D4FFF739
:102270004BFD401B0228F7D9DDE000BF306C10F0A9
:1022800080580AD100200190306C40F080503064BA
:10229000306C00F080500190019847F20007C4F2C2
:1022A00000073868C00541D4386840F48070386051
:1022B000FFF72AFD054600BF3868C00536D4FFF792
:1022C00023FD401B0228F7D9B5E000BFB06800F03D
:1022D0000C00082803D1706840023FF558AF6068D1
:1022E000B0F5803F07D0B0F5A02F40F08D8030686A
:1022F00040F480203060306840F4803030608DE001
:10230000E068002852D00020C4F24720012101607B
:10231000FFF7FAFC054600BF306880073FF554AF71
:10232000FFF7F2FC401B0228F6D984E0A0680128E0
:1023300005D005284ED1306F40F004003067306F73
:1023400040F0010030674FE00021C0F8801EFFF729
:10235000DBFC0546706F80077FF540AFFFF7D4FCCC
:10236000401B0228F6D966E00027C4F24727002068
:102370003866FFF7C9FC022D05460BD13068800195
:102380005ED5FFF7C1FC401B02284FF00300F5D9D2
:1023900055E700BF306880017FF550AFFFF7B4FC10
:1023A000401B02284FF00300F4D948E70020C4F294
:1023B000472000210160FFF7A7FC05463068800731
:1023C0007FF509AFFFF7A0FC401B02284FF0030088
:1023D000F4D934E7316F002821F001013167316F02
:1023E00021F0040131674DD0FFF78EFC054641F224
:1023F000883700BF306F800756D4FFF785FC401B3D
:10240000B842F7D917E000BF3168002821F48031C5
:102410003160316821F4802131604FD0FFF774FCC6
:10242000054600BF306880033FF5B7AEFFF76CFC90
:10243000401B6428F6D9032002B0BDE8F08100BF3C
:1024400004F11C052FCD084340EA8210D9034FF652
:10245000FF729143A1F5803140EA05600843706046
:1024600001203866FFF750FC044600BF3068800149
:102470003FF5E4AEFFF748FC001B02284FF00300D5
:10248000F4D9DCE6FFF740FC054641F2883700BF8F
:10249000306F800708D5FFF737FC401BB8424FF07C
:1024A0000300F5D9CBE600BFB8F1000F7FF499AE79
:1024B000306C20F08050306493E600BFFFF724FCBE
:1024C000054600BF306880037FF567AEFFF71CFC50
:1024D000401B64284FF00300F4D9B0E670470000B9
:1024E00070470000002804BF0120704710B5044663
:1024F00090F83D0028B9002084F83C00204600F008
:102500001FF8022084F83D002068211D00F0A8FC7F
:10251000012084F8460084F83E0084F83F0084F8E7
:10252000400084F8410084F8420084F8430084F8B5
:10253000440084F8450084F83D00002010BD0000F0
:102540007047000090F83D1001291CBF0120704722
:10255000022180F83D10006841F2FF72C168C4F2A8
:102560000002904241F00101C1600DDC40F2FF71B8
:10257000C4F20001884215DCB0F1804F2AD040F24D
:102580000041C4F2000123E040F2FF31C4F2010136
:10259000884213DC41F60001C4F20001884219D0E0
:1025A000002113E040F60001C4F20001884211D07E
:1025B00040F60041C4F200010AE000BF44F200010D
:1025C000C4F20101884205D040F20041C4F2010189
:1025D000884206D1816801F00701062904BF002066
:1025E0007047016841F00101016000207047000060
:1025F0007047000010B5016804460869800744BFB1
:10260000C8685FEA807039D40869400744BFC86869
:102610005FEA40703ED40869000744BFC8685FEABB
:10262000007045D40869C00644BFC8685FEAC0604E
:102630004AD40869C0071CBFC8685FEAC07051D19E
:102640000869000644BFC8685FEA006052D40869A0
:10265000400644BFC8685FEA406053D408698006FA
:1026600046BFC8685FEA806010BD6FF02002204658
:102670000A61BDE81040FFF733BF00BF6FF00200F2
:102680000861012020778869800743D02046FFF742
:10269000AFFF45E06FF004000861022020778869F1
:1026A00010F4407F40D02046FFF7A2FF42E000BF79
:1026B0006FF00800086104202077C86980073DD0CA
:1026C0002046FFF795FF3FE06FF0100008610820FB
:1026D0002077C86910F4407F3AD02046FFF788FF82
:1026E0003CE000BF6FF001000861204600F03EF8BA
:1026F0002168A5E76FF0800008612046FFF7EEFE35
:102700002168A4E76FF040000861204600F038F827
:102710002168A3E7204600F025F8204600F024F8C1
:102720002168002020776FE7204600F01BF8204644
:1027300000F01AF82168002020776CE7204600F0AE
:1027400011F8204600F010F821680020207769E792
:10275000204600F007F8204600F006F82168002027
:10276000207766E77047000070470000006800218E
:10277000C4F20101884218BF7047FFF7CBBA0000CE
:1027800070470000002804BF0120704710B50446C0
:1027900090F83D0028B9002084F83C00204600F065
:1027A00021F8242084F83D002068C16821F40051FC
:1027B000C160204600F0F2FB2068016921F49041DD
:1027C0000161416921F02A014161C16841F4005170
:1027D000C16000202021206484F83D1084F83E1060
:1027E00010BD000080B586B0016844F60000C4F258
:1027F0000000814202D006B080BD00BF002143F638
:1028000030020191C4F20202136900F5E23043F490
:1028100080231361136903F480230193019B0191C9
:10282000136843F008031360126802F00802019273
:10283000019A4FF4407201920222CDE90221032154
:1028400004910721059101A9FFF776F906B080BD33
:10285000FEE7000010B582B00446002100686369FD
:10286000019101AA0121984700282DD420686369AD
:1028700001AA01219847002826D49DF804004007AA
:1028800002D4012002B010BD2068636901AA0021B2
:102890009847002818D40199C80407D401F40450BB
:1028A000B0F5045F14D1022002B010BD2068636946
:1028B00001AA1F219847002806D40198C10411D409
:1028C000062002B010BD00BF6FF0040002B010BDC2
:1028D000C8054FF0040058BF0520890448BF0320F5
:1028E00002B010BD00F01C001828DCD0142805D060
:1028F000082814BF0520032002B010BD042002B038
:1029000010BD0000F0B581B0044640680021009180
:1029100070B1A06980470546A0698047401BB0F5AB
:10292000FA6FF9D9012000256060284601B0F0BD9A
:10293000A068002818BF8047202000256F46002689
:10294000206004E06FF004050136202E0ED063698C
:10295000304612213A4698470028F3D4009800F0F8
:102960001F008642F0D10025266000E026681F2E59
:1029700088BF6FF00205002DD7D1236930460021B2
:102980004FF40042984700281ED4206863696A46C5
:102990000021984700281DD4A069804706466F464D
:1029A0006FF004059DF801000006B2D5A0698047CC
:1029B000801BB0F5FA7F13D82068636900213A467E
:1029C00098470028EED5B0E76FF00305284601B020
:1029D000F0BD00BF6FF00405284601B0F0BD00BF98
:1029E0006FF00105284601B0F0BD000080B598B138
:1029F000CA688AB18B687BB1D1F810C0BCF1000FF6
:102A00000AD0D1E900E1C0E90432C0E902E1C0F82E
:102A100018C0002080BD00BF4FF0FF3080BD000017
:102A200080B588B00B4802AF01900AA000F1040EF7
:102A30009EE80E50806987E80E50079001A800219B
:102A400006F062F940F25061C2F20001086008B07D
:102A500080BD00BF002B0108552D000800000000BC
:102A600000000000800000000000000000000000E6
:102A70002DE9F04786B0002743F63000CDE9047712
:102A80000097C4F20200016840F2004A41F01001D0
:102A900001600168C4F2020A01F01001009100997E
:102AA000009701680AF5806541F004010160016842
:102AB000002201F0040100910099009701684FF491
:102AC000807841F080010160016801F0800100918F
:102AD00000990097016841F001010160016801F06F
:102AE0000101009100990097016841F00201016025
:102AF000016801F00201009100990097016841F01E
:102B000008010160016801F0080100910099009737
:102B1000016841F04001016000684FF4807100F0ED
:102B20004000009000982846FFF7E8F850464FF420
:102B3000804100224FF48049FFF7E0F838200190EF
:102B40004FF4881001AECDE902070AF54060314626
:102B5000FEF7F2FF012428463146CDF80480CDE986
:102B600002470497FEF7E8FF50463146CDE901944D
:102B7000CDE90377FEF7E0FF092005210022FFF7EA
:102B800083F90920FFF76CF90A2005210022FFF7DD
:102B90007BF90A20FFF764F9172005210022FFF7CF
:102BA00073F91720FFF75CF906B0BDE8F087000065
:102BB00070B58AB040F2F8154AF6C000C2F20005BE
:102BC000C0F606206FF07F41002685E84300002014
:102BD00000210DF0BBFC95E8190029462A4641F872
:102BE0000C0F42F8103F2B4644F2A56043F8144FF7
:102BF00040F2216CC0F6000005F11804C0F6010C8B
:102C0000CDE900602046CDF808C005F05FFC204605
:102C100005F0FAFD95F84500400703D4204605F07D
:102C2000F9FD02E0204605F09FFE44F2F141C0F6B6
:102C30000001204605F01CFE09480DF1100C039020
:102C400007A0061D4ECED0E905508CE84E00CDE918
:102C5000085003A8214606F057F80AB070BD00BF1F
:102C6000122B0108F5440008FFFF000000000000DF
:102C700000010000000000000000000080B540F2EC
:102C8000507044F60001C2F20000C4F200010023BB
:102C90004FF00C0C4FF4E13280E80E00C0E9033332
:102CA000C0E905C3C361FFF76DFD002808BF80BD03
:102CB000BDE88040FEF700B8FEE70000FEE7000038
:102CC000EFF30980BFF36F8F154B1A681EF0100FDA
:102CD00008BF20ED108A20E9F04F10602DE90900AF
:102CE0004FF0500080F31188BFF34F8FBFF36F8F09
:102CF0000EF020FD4FF0000080F31188BDE80900C0
:102D000019680868B0E8F04F1EF0100F08BFB0EC6B
:102D1000108A80F30988BFF36F8F704700BF00BF30
:102D2000440200200000000000000000000000003D
:102D3000074B19680868B0E8F04F80F30988BFF3C3
:102D40006F8F4FF0000080F31188704700BF00BF05
:102D500044020020FFF72CFF012005F039FEFBE7BD
:102D600080B54FF0500080F31188BFF36F8FBFF331
:102D70004F8F0FF03FFC30B14EF60450CEF2000002
:102D80004FF080510160002080F3118880BD000069
:102D9000B0B592B0002443F64000CDE90A44CDE935
:102DA00008440594CDE90344CDE901440094C4F2FC
:102DB00002000168022541F080510160006800F0C6
:102DC00080500090009847F200000094C4F2000088
:102DD000016841F440410160006800F44040009007
:102DE0000098012006904FF4803007904FF4800047
:102DF0000D9004200E90A820CDE90F05072011901A
:102E000006A80C95FFF7B0F920B1EFF3108072B669
:102E1000FEE700BF0F20CDE901054FF4A05004905C
:102E20004FF48050059001A805210394FFF768F83E
:102E300020B1EFF3108072B6FEE700BF12B0B0BD54
:102E40004EF68850CEF20000016841F47001016036
:102E50007047000040F20870C2F20000FFF7CABBE2
:102E600010B540F6FF3E0368C4F2000E40F2004C7D
:102E70007045C4F2010C27DCB0F1804F31D040F234
:102E80000042C4F2000290422BD040F60002C4F28D
:102E90000002904225D041F6FF72C4F20002904237
:102EA00029DC70453CDCB0F1804F5FD040F200423D
:102EB000C4F20002904259D040F60002C4F200026F
:102EC000904253D056E000BF40F60042C4F20002E8
:102ED000904206D0604504D00022C4F20102904224
:102EE000D9D14A6823F07003134341F6FF72C4F24C
:102EF00000029042D5DD43F6FF72C4F20102904217
:102F000022DC42F20002C4F2000290422ED00022E3
:102F1000C4F20102904229D0604527D02AE000BFC8
:102F200040F60042C4F2000290421FD041F6000277
:102F3000C4F20002904219D041F60042C4F20002ED
:102F4000904213D016E000BF44F20002C4F2010226
:102F500090420BD044F60002C4F20102904205D028
:102F600044F20042C4F20102904203D1CA6823F441
:102F70004073134323F080024B69D1F800E08C6862
:102F80001A430260C46240F48062C0F828E06245DF
:102F900004BF096901630121416110BD10B50446F8
:102FA0000068D4E902C22369016921F44051114348
:102FB0000161626943EA0C01E3691143C268194384
:102FC00049F20C639A431143C1604169A26921F43B
:102FD000407141F20043114340F48062C4F20103A6
:102FE0009A42416102D1FFF775F801E0FFF75EF800
:102FF000E16963681922B1F5004FA0FB020123D1FA
:103000005A00DB0FFDF766F948F21F51C5F2EB11CC
:10301000A0FB01235A094FF69C73C0F6FF7303F11E
:10302000805302FB0300322303EBC000A0FB01012D
:103030004FF4F87000EA111000EB0210C1F34211D6
:1030400008442168886010BD9A009B0FFDF742F983
:1030500048F21F51C5F2EB11A0FB01235A094FF6AC
:103060009C73C0F6FF7302FB0300322303EB0010D6
:10307000A0FB0101F02000EA511000EB0210C1F3A7
:10308000431108442168886010BD0000FEE700007D
:103090002DE9F04104460D4678B942F61A3042F661
:1030A0002A4142F63743C0F60100C0F60101C0F6DE
:1030B00001034FF4DC72FDF785F907F005F9227F73
:1030C000002194F8018042F00102616025722277AC
:1030D000617007F023F9636A7BB120460421002266
:1030E0009847636A4BB12046002100229847636AE3
:1030F0001BB1204602210022984705F10F0003284A
:1031000004D243A151F820600EE000BF5DB142F649
:103110001A3042F63743C0F6010039A1C0F6010368
:103120007D22FDF74FF9002604F11007384607F01D
:1031300059F918B13846314607F04AF904F1140735
:10314000384607F04FF918B13846314607F040F9D4
:10315000B8F1040F40D8012000FA08F010F01A0F5F
:103160003AD0207F00F0FB014007217748BFBDE83F
:10317000F081206A78B942F61A3042F6104142F6E0
:103180003743C0F60100C0F60101C0F601034FF459
:10319000F372FDF717F9206AB8F1040118BF294648
:1031A0000268017102F10C05284607F069F960B95F
:1031B00042F61A3042F63743C0F6010017A1C0F6B6
:1031C000010340F2EF12FDF7FDF8002128462162CD
:1031D000BDE8F04107F050B9206A78B142F61A30E4
:1031E00042F63743C0F6010013A1C0F6010340F2D6
:1031F000F712BDE8F041FDF7E5B800BFBDE8F0818A
:10320000756E68616E646C6564206572726F7200C1
:10321000F52A0108F62A0108F42A0108696E617688
:103220006C6964206F705F636F6D706C657465644A
:103230005F73656D00000000636F6E6E2D3E6375F9
:103240007272656E745F6D7367203D3D204E554C04
:103250004C000000B0B540F26055C2F20005297D77
:10326000044651B1A868A04207D1286818B106F0F9
:10327000A9F8002028600020287595F82C0058B186
:10328000286AA04208D1A86918B106F09BF800206E
:10329000A861002085F82C0095F8440058B1A86B6F
:1032A000A04208D1286B18B106F08CF800202863E2
:1032B000002085F8440095F85C0058B1286DA042C4
:1032C00008D1A86C18B106F07DF80020A864002091
:1032D00085F85C0095F8740058B1A86EA04208D13A
:1032E000286E18B106F06EF800202866002085F8D8
:1032F000740095F88C0060B1D5F88000A04208D128
:10330000A86F18B106F05EF80020A867002085F8C5
:103310008C0095F8A40070B1D5F89800A0420AD1AD
:10332000D5F8900020B106F04DF80020C5F89000C7
:10333000002085F8A40095F8BC0070B1D5F8B00065
:10334000A0420AD1D5F8A80020B106F03BF8002031
:10335000C5F8A800002085F8BC0095F8D40070B12D
:10336000D5F8C800A0420AD1D5F8C00020B106F0B7
:1033700029F80020C5F8C000002085F8D40095F891
:10338000EC0078B1D5F8E000A04218BFB0BDD5F888
:10339000D80020B106F016F80020C5F8D8000020AB
:1033A00085F8EC00B0BD00002DE9F04F85B0002895
:1033B000CDE90112049000F08B804FF00A0B002A37
:1033C00000F0B08040F2605C00230122C2F2000CE9
:1033D00000204FF0000E4FF0000A4FF00A084FF0A7
:1033E0000A090A21039106E090463033F02B02F1DE
:1033F000020200F005830CEB0304257D1FFA88F11F
:103400000A29A2F1010608BF002D19D065B304995D
:1034100067680968B94204D1A168029FB94200F007
:103420003D81012D0ED15CF80310658A91B11FFA20
:103430008AFA554528BFB34688BFAA4614E000BFA4
:10344000B04611E0618A80B2814228BFB14688BF90
:10345000084609E01FFA8EFE0399754528BF3146DC
:10346000039188BFAE4600BF94F82C501FFA88F134
:103470000A2908BF002DB7D0002DB6D00499E669FF
:103480000968B14204D1216A029EB14200F0C382B0
:10349000012D0BD1A169648D81B11FFA8AFA5445BF
:1034A00028BF934688BFA2469FE700BF618D80B2C8
:1034B000814228BF914688BF084696E71FFA8EFED4
:1034C0000399744528BF1146039188BFA6468CE72F
:1034D00040F26056C2F20006337D012B00F09E8060
:1034E000002B40F0C58096F82C404FF000080A20D1
:1034F000002C00F0DB8003904FF00A0900204FF011
:103500000A0B00234FF0000C4FF0000E012C00F0CE
:10351000A380748D744528BF4FF0010988BFA6466B
:10352000DFE000BF40F2605C00200122C2F2000C2C
:1035300000274FF0000E00244FF00A084FF00A0950
:103540000A21039107E000BF90463030F02802F1D5
:10355000020200F055820CEB00031D7D1FFA88F675
:103560000A2EA2F1010608BF002D15D045B304991B
:10357000D1F800A059688A4500F09280012D0DD144
:103580005CF800105D8A89B1A4B2A54228BFB34699
:1035900088BF2C4614E000BFB04611E0598ABFB284
:1035A000B94228BFB14688BF0F4609E01FFA8EFE18
:1035B0000399754528BF3146039188BFAE4600BFC9
:1035C00093F82C501FFA88F10A2908BF002DBBD0B0
:1035D000002DBAD00499DE690968B14200F01B825F
:1035E000012D09D199695B8D71B1A4B2A34228BFA5
:1035F000934688BF1C46A8E7598DBFB2B94228BF81
:10360000914688BF0F46A0E71FFA8EFE03997345C7
:1036100028BF1146039188BF9E4696E73368B6F8E7
:1036200012C0002B18464FF0000E4FF0000B4FF069
:103630000A0918BF0A20039008BF4FF00A0B002B9D
:103640001CBF6346F44696F82C40012004B34FF0AB
:103650000A08012C7FF45DAFB569748DC5B39BB2C8
:103660009C4228BF4FF0010B88BF234639E000BFC2
:10367000B6F812E00A204FF0000903904FF00A0B51
:1036800000234FF0000C96F82C400120002CDED1D6
:103690004FF0010896F84440ACBB14E03246BAE162
:1036A000324610B205B0BDE8F08F00BF03904FF076
:1036B0000A094FF00A0B00234FF0000C4FF0000EE8
:1036C00096F84440FCB996F85C00002845D114E017
:1036D0001FFA8CFC039A644528BF0122039288BF1D
:1036E000A44696F84440B4FA84F56D09284209D0FE
:1036F0004FF0020896F85C0078BB96F8740000283A
:103700005FD148E00CB3012C0CD1346BB6F8420009
:1037100094B19BB2984228BF4FF0020B88BF03467A
:1037200013E000BFB6F84200704528BF4FF0020911
:1037300088BF864609E000BF1FFA8CFC039A6045EB
:1037400028BF0222039288BF844696F85C00B8F135
:103750000A0F08BF002819D058B301280CD1B46C47
:10376000B6F85A00E4B19BB2984228BF4FF0030B61
:1037700088BF03461DE000BFB6F85A00704528BF59
:103780004FF0030988BF864613E000BF4FF00308DF
:1037900096F87400A8B996F88C00002845D12EE060
:1037A0001FFA8CFC039A604528BF0322039288BF4E
:1037B000844696F87400B8F10A0F08BF002819D0A3
:1037C00058B301280CD1346EB6F87200E4B19BB244
:1037D000984228BF4FF0040B88BF03461DE000BF8E
:1037E000B6F87200704528BF4FF0040988BF8646BE
:1037F00013E000BF4FF0040896F88C00A8B996F8C3
:10380000A400002845D12EE01FFA8CFC039A6045E5
:1038100028BF0422039288BF844696F88C00B8F132
:103820000A0F08BF002819D058B301280CD1B46F73
:10383000B6F88A00E4B19BB2984228BF4FF0050B5E
:1038400088BF03461DE000BFB6F88A00704528BF58
:103850004FF0050988BF864613E000BF4FF005080A
:1038600096F8A400A8B996F8BC00002845D12EE02F
:103870001FFA8CFC039A604528BF0522039288BF7B
:10388000844696F8A400B8F10A0F08BF002819D0A2
:1038900058B301280CD1D6F89040B6F8A200DCB19C
:1038A0009BB2984228BF4FF0060B88BF03461CE02E
:1038B000B6F8A200704528BF4FF0060988BF8646BB
:1038C00013E000BF4FF0060896F8BC00A8B996F8C0
:1038D000D400002841D15BE01FFA8CFC039A6045BC
:1038E00028BF0622039288BF844696F8BC00B8F130
:1038F0000A0F08BF002819D038B301280CD1D6F818
:10390000A840B6F8BA00BCB19BB2984228BF4FF0AD
:10391000070B88BF034618E0B6F8BA00704528BF09
:103920004FF0070988BF86460FE000BF4FF0070839
:1039300096F8D40088B92BE01FFA8CFC039A6045F6
:1039400028BF0722039288BF844696F8D400B8F1B6
:103950000A0F08BF002819D038B301280CD1D6F8B7
:10396000C040B6F8D200BCB19BB2984228BF4FF01D
:10397000080B88BF034618E0B6F8D200704528BF90
:103980004FF0080988BF86460FE000BF4FF00808D7
:1039900096F8EC0010E000BF1FFA8CFC039A60451B
:1039A00028BF0822039288BF844696F8EC00B8F13D
:1039B0000A0F08BF002821D010B3012812D1D6F871
:1039C000D870B6F8EA00002F00F0A0809AB29042BA
:1039D00028BF4FF0090B01994FF6FF7288071AD4E0
:1039E00013E000BFB6F8EA00704528BF4FF00909A0
:1039F00001994FF6FF7288070DD406E04FF00908D1
:103A000001994FF6FF72880705D4C80708D11FFA3D
:103A100088F00A2804D110B205B0BDE8F08F00BFCD
:103A20000FFA88F40A2C19DA40F2605104EB4400D2
:103A3000C2F2000101EBC000007D002848D042F630
:103A40001A3043F24573C0F601003DA1C0F60103F0
:103A500040F28512FCF7B6FC3AE000BF0FFA89F09D
:103A6000092817DC40F2605100EB4000C2F200016F
:103A700051F8300060B142F61A3043F24573C0F697
:103A8000010029A1C0F6010340F26D12FCF79AFC77
:103A9000C8460AE0DDF80C800FFA88F00A2804DB3B
:103AA0000FFA8BF00928D846B5DC0FFA88F440F2FB
:103AB000605204EB4401C2F2000252F8310002EB02
:103AC000C10518B105F07EFC002028600020287593
:103AD0000498029B48B140F26052006804EB440134
:103AE000C2F2000202EBC101486040F2605104EBF7
:103AF0004400C2F2000101EBC0000021418283605A
:103B0000424610B205B0BDE8F08F00BF1FFA8CF23C
:103B10009042039828BF0920039001994FF6FF7245
:103B200088073FF578AF70E76172705F7461626C0F
:103B3000655B695D2E71203D3D204E554C4C00006B
:103B40006172705F7461626C655B695D2E73746134
:103B50007465203D3D204554484152505F535441C7
:103B600054455F454D505459000000002DE9F04F79
:103B700085B039B3466804463088B0F5807F1BD1E4
:103B80003079062818D17079042815D17088082852
:103B900012D18A465AF8040FD6F80E700D460497D3
:103BA00020B3B16906F10808814221D14FF0010B21
:103BB0004FF0010920E000BF204605B0BDE8F04FFE
:103BC00005F000BC42F61A3043F2287143F2457307
:103BD000C0F60100C0F60101C0F6010340F28A22DE
:103BE00005B0BDE8F04FFCF7EDBB00BF06F10808DB
:103BF0004FF002094FF0000B95F82C0006280CD06E
:103C000042F61A3043F24573C0F601002DA1C0F60A
:103C1000010340F2A912FCF7D5FBB7B33846294699
:103C200000F0E6FF88BB07F0F000E0282DD004A8E4
:103C300049462A46FFF7B8FB002826D481B249003E
:103C400040F2605211FA80F1C2F2000202EBC100B0
:103C5000022303758560D8F8003052F83170C360D4
:103C6000B8F8043000210382418277B1016005F188
:103C700026024FF4006C284639464346CDF800C072
:103C800000F0A4FC384605F09DFBF0888BF00101A4
:103C9000B0F5807018BF012008430CD105F1260152
:103CA00004A802270290284642460B46CDE900A808
:103CB000039700F0C1FA204605F084FB05B0BDE88B
:103CC000F08F00BF6E657469662D3E68776164642D
:103CD000725F6C656E203D3D204554485F485741FA
:103CE0004444525F4C454E0070B584B016460546BC
:103CF0000C4658B1E4B156B33068294600F078FF5D
:103D0000B0B342F6F013C0F6010347E042F61A30B2
:103D100043F2287143F24573C0F60100C0F6010179
:103D2000C0F6010340F21E32FCF74CFB002CE2D13E
:103D300042F61A3043F24573C0F6010081A1C0F685
:103D4000010340F21F32FCF73DFB002ED4D142F6B6
:103D50001A3043F2367143F24573C0F60100C0F6E3
:103D60000101C0F601034FF44872FCF72BFBC3E7D7
:103D7000306800F0F001E0291CD10123ADF80830D3
:103D80005E23010E020C8DF80A30C0F3062002AB50
:103D90008DF80B008DF80C208DF80D1005F1260222
:103DA0004FF4006628462146009600F00FFC40B212
:103DB00004B070BDD5E901124140114208D081B272
:103DC0004FF6A962914203D02E4656F80C0FA8B3C5
:103DD00040F2546CC2F2000C9CF8002040F2605E8D
:103DE00002EB4203C2F2000E0EEBC303197D02295F
:103DF00008D39968A94205D15968884202D128465A
:103E0000214692E09EF81410022909D3DEF808102A
:103E1000A94205D1DEF80410884201D1002280E0D9
:103E20009EF82C1002290DD3DEF82010A94209D1EA
:103E3000DEF81C10884205D1012272E0FC2040B25D
:103E400004B070BD9EF84410022909D3DEF8381082
:103E5000A94205D1DEF83410884201D1022260E087
:103E60009EF85C10022909D3DEF85010A94205D152
:103E7000DEF84C10884201D1032252E09EF8741003
:103E8000022909D3DEF86810A94205D1DEF86410D2
:103E9000884201D1042244E09EF88C10022909D303
:103EA000DEF88010A94205D1DEF87C10884201D1ED
:103EB000052236E09EF8A410022909D3DEF89810F6
:103EC000A94205D1DEF89410884201D1062228E0EB
:103ED0009EF8BC10022909D3DEF8B010A94205D122
:103EE000DEF8AC10884201D107221AE09EF8D41007
:103EF000022909D3DEF8C810A94205D1DEF8C410A2
:103F0000884201D108220CE09EF8EC10022911D35E
:103F1000DEF8E010A9420DD1DEF8DC10884209D1AC
:103F20000922284621468CF8002004B0BDE87040E4
:103F300000F00EB828463146224604B0BDE8704075
:103F400000F080B87120213D204E554C4C000000FF
:103F5000F0B585B040F2605302EB4202C2F20003BA
:103F600003EBC206374617F8142F0C46012A054604
:103F70000DD842F61A3043F24573C0F6010025A170
:103F8000C0F6010340F2EF22FCF71CFA3A78022A4D
:103F900032D1708AB0F58E7F12D942F6F6132A1DFF
:103FA000C0F60103301DCDE9002342F6F01205F101
:103FB00026014FF0010C0290C0F6010212E000BF92
:103FC000B0F5877F18D342F6F61E301D06F10C02BD
:103FD00005F126012B1D4FF0010CC0F6010ECDE9B5
:103FE000003E029028460B46CDF80CC000F024F9A4
:103FF000002804BF0320387005F1260206F10C03E7
:104000004FF4006728462146009700F0DFFA05B01C
:10401000F0BD00BF6172705F7461626C655B61725C
:10402000705F6964785D2E7374617465203E3D2015
:104030004554484152505F53544154455F53544195
:10404000424C45002DE9F04F85B00F460968054602
:1040500008462946914600F0CBFD28B1F02040B239
:1040600005B0BDE8F08F00BF3968F0200029F6D018
:1040700001F0F001E029F2D0384601212A46FFF78D
:1040800093F90646B0F1FF3F3EDD7F2E05F126088D
:104090000CD342F61A3043F24573C0F601005BA11F
:1040A000C0F6010340F2C132FCF78CF95FFA86FAE0
:1040B0004FEA4A0040F2605B50FA86F0C2F2000B11
:1040C0000BEBC000044614F8141F19B3B9F1000F2C
:1040D00068D00490FF2002293FD340F25460C2F21E
:1040E000000006700AEB4A000BEBC00000F10C0365
:1040F0004FF40067284649464246009700F066FAAA
:1041000005B0BDE8F08F00BF304640B205B0BDE855
:10411000F08F00BF04900AEB4A000BEBC00042F6A0
:10412000F6118560281DC0F6010142F6F0124FF02D
:10413000010C8DE88300C0F6010228464146434643
:1041400084F800C0CDF80CC000F076F8B9F1000F8B
:104150003FF485AF21780229BFD201297FF47FAFD8
:1041600042F61A3543F24577C0F601052BA6C0F694
:1041700001074C4660892189884208D1206830B106
:104180002846314640F2F1323B46FCF71BF9207BD2
:1041900040061DD42468002CECD1484605F0F8FAFE
:1041A0001DE000BF42F6F611281DC0F6010142F6DF
:1041B000F01201268DE88300C0F601022846414630
:1041C0004346039600F038F805B0BDE8F08F00BF15
:1041D0000E204FF420714A4604F076FF8146049881
:1041E000B9F1000F0CD004460068002818BF05F094
:1041F000E9F80020C4F8009040B205B0BDE8F08FA7
:10420000FF2040B205B0BDE8F08F00BF7479706543
:10421000206F766572666C6F770000006E6F20709D
:1042200061636B65742071756575657320616C6C75
:104230006F776564210000002DE9F04F81B01F46C3
:1042400090460646894678B942F61A3043F22871FC
:1042500043F24573C0F60100C0F60101C0F6010348
:1042600040F25742FCF7AEF80E201C214FF42072AA
:1042700004F0AEFD002859D004464089DDF834A092
:104280001B280CD842F61A3043F24573C0F60100E1
:1042900029A1C0F6010340F26342FCF793F8DDF870
:1042A0002CB06568504601F0E1FC96F82C10E880CF
:1042B00006290FD042F61A3043F2E76143F2457304
:1042C000C0F60100C0F60101C0F6010340F26A42E7
:1042D000FCF778F8B8882146A881386840F60607C8
:1042E000A860DBF800004A46C5F81200BBF80400DD
:1042F0004346E8820A980068C5F80E000C980068EA
:10430000A86140F20010C0F20800286040F20640A8
:10431000A8803046009700F059F9204605F052F881
:10432000002040B201B0BDE8F08F00BFFF2040B2D6
:1043300001B0BDE8F08F00BF636865636B207468EF
:10434000617420666972737420706275662063619F
:104350006E20686F6C64207374727563742065746A
:10436000686172705F6864720000000080B584B09C
:1043700042F6F61E021DC0F6010E00F12603CDE93D
:10438000002E42F6F0124FF0010C0291C0F601022D
:104390001946CDF80CC0FFF74FFF04B080BD0000F8
:1043A0002DE9F04F85B040F2605642F6F61942F61C
:1043B000F0140025C2F200064FF00108C0F6010912
:1043C000C0F601044FF0020B002704E08AF81450F5
:1043D0001837F02F3AD006EB070A9AF81400002895
:1043E000F6D0BAF812104A1C91B28B084A2BAAF8E0
:1043F000122003D8012809D1052907D3F059002834
:10440000E4D004F0DFFFF551E0E700BF012807D05A
:10441000042817D0032804BF04208AF81400D7E723
:10442000DAF808000AF1040200F12601031DCDE9C3
:104430000039029222460B46CDF80C80FFF7FCFEB5
:10444000C6E700BF8AF814B0C2E700BF05B0BDE8F8
:10445000F08F000070B5044640890F283DD3E07B03
:104460000D4618B995F830000130E07360680178A6
:104470008689CA0714D0012906D1417881B980788C
:104480005E280DD1102008E042F6F011C0F60101BF
:104490000622FCF77BF818B90820617B084360739B
:1044A000B6F5C16F10D0082E17D195F82D00000772
:1044B00013D520460E2105F08DF970B92046294606
:1044C00000F0DEFC002070BD95F82D00000704D53B
:1044D00020460E2105F07EF920B1204604F072FF3F
:1044E000002070BD20462946FFF740FB002070BD2C
:1044F000704700009AB00DF1040A0446504664214A
:10450000FCF7F6F840F29410C2F2000040F258674F
:104510004FF0000800F10C06C2F200070FF29C09F0
:1045200000254FF0000B0BE03846FDF7D9F9204687
:1045300004F070F9204604F09FF9642004F048FA72
:104540003046FEF787F994F82D1011F0040101D0E0
:104550000128E9DD0029F0D10228EEDB0238042829
:1045600006D212A151F820B059F8205003E000BF44
:10457000B8F1000F16D038465146FCF7CBFB384651
:104580005146CDE9065BFCF7E9FF3846FDF79EF89A
:10459000204604F0E9F9204604F09EF94FF00108A6
:1045A000CBE700BF4FF00008C7E700BF00080000DE
:1045B00000000000000800000000000000400000B3
:1045C0000040000000000000000000002DE9F04164
:1045D0000C460699804608461F46164601F046FBE3
:1045E000054620460E2104F0BDFB00281CBF6FF0DD
:1045F0000100BDE8F08160688581B98881803968F3
:104600000160B18841813168C0F8061098F82C002B
:10461000062809D042F61A30C0F6010006A113A3FD
:1046200040F23312FBF7CEFED8F818204046214660
:10463000BDE8F041104700BF6E657469662D3E68A5
:1046400077616464725F6C656E206D75737420624F
:1046500065203620666F722065746865726E6574B9
:104660005F6F757470757421000000002E2E2F4D41
:104670006964646C6577617265732F5468697264EC
:104680005F50617274792F4C7749502F7372632F8A
:104690006E657469662F65746865726E65742E63E5
:1046A000000000002DE9F041A2B0044630B970A02E
:1046B00079A17DA340F2DF12FBF784FE47F273403D
:1046C000E08543F6E94045F64921C0F60000C0F612
:1046D0000001C4E9050109A86421FCF709F848F2C2
:1046E000000140F2586648F20000CAF6E131C2F219
:1046F0000006C4F20200CDF81E104EF6CD7140F255
:104700006C4340F2CC37ADF822100DF11E014FF48E
:104710000002C2F20003C2F200074FF4C06586E84F
:104720008F0030467561FCF7BDFB40F29417C2F272
:104730000007804607F130003421FBF7D9FF212024
:10474000F8624FF44000386442F66020C0F6010081
:1047500003F062F80620716884F82C0008780322C0
:1047600084F82600487884F82700887884F82800A0
:10477000C87884F82900087984F82A00487994F8E0
:104780002D1084F82B0040F2DC50A08441F00A0088
:1047900084F82D00012000210DF04AF978600120F5
:1047A000002103220DF044F94649B86045A0061DDA
:1047B00000914ECED0E905500DF1040C8CE84E006E
:1047C000CDE905506846214604F09EFA07F10C0633
:1047D00040F21001C2F200013046FEF707F9304600
:1047E000FEF790F8B8F1000F06D0FCF765FA00204C
:1047F00022B0BDE8F08100BF3046FEF72BF801285B
:104800000ADC204604F038F8204604F003F80020C3
:1048100022B0BDE8F08100BF0338022806D830A1DD
:1048200051F8206031A151F8207003E04FF4804727
:104830004FF4006640F25865C2F200050DF12408FD
:1048400028464146FCF766FA28464146CDE90E76F1
:10485000FCF784FE2846FCF739FF204604F084F874
:10486000204604F039F8002022B0BDE8F08100BFF6
:10487000417373657274696F6E20222573222066FE
:1048800061696C6564206174206C696E65202564C3
:1048900020696E2025730A006E6574696620213DCB
:1048A000204E554C4C0000002E2E2F4C5749502FB7
:1048B0005461726765742F65746865726E6574699A
:1048C000662E63000C2B0108F94800080300000065
:1048D000000000005E010000000000000000000079
:1048E0000000000000080000000000000040000080
:1048F000000000000000000082B040F2941540F279
:1049000058680446C2F200050026C2F200080DF104
:10491000040900BF68684FF0FF3104F0C9F90028AE
:10492000F8D107E0226938462146904710B1384651
:1049300004F048FD287801960028EBD1404649460E
:10494000FCF77EFC019F002FECD1E3E700207047CD
:104950000A46032100F0EEB82DE9F04383B040F29F
:104960009476C2F20006B568894629783C2202EAAC
:104970008107142F044602D36089042806D22046FA
:1049800003B0BDE8F04304F01DBD00BF60680078CF
:1049900008283FD1706900F0F001E029EFD03168BC
:1049A00000F026F90028EAD120890828E7D307F18A
:1049B0000E082046414604F0D5F998B320893844C2
:1049C00081B28142DBD10E204FF4207204F000FA54
:1049D0000028D4D08046408907F10801814266D87A
:1049E000D8F8040029463A46FBF71BFE40463946F4
:1049F00004F0F0FE002855D042F61A3043F27C73E2
:104A0000C0F6010030A1C0F60103B622FBF7DAFCC4
:104A10004DE000BFA046404603B0BDE8F04304F0BF
:104A2000D1BC00BF2046414604F0D4FE90B142F60E
:104A30001A3043F27C73C0F6010031A1C0F60103C5
:104A4000C722FBF7BFFC204603B0BDE8F04304F0EB
:104A5000B9BC00BFA046D8F804404046394604F02F
:104A600081F90028D7D156F8140FD8F8041056F859
:104A7000042CC8600A610020FF220A7248810121CB
:104A800020706080CDE90001404631460022FF23BE
:104A9000CDF8089000F0CEFA404603B0BDE8F043F0
:104AA00004F090BC4046214604F02EFB40B1404645
:104AB00004F088FC204603B0BDE8F04304F082BC5B
:104AC000204604F07FFCC6E769636D705F696E7015
:104AD00075743A206D6F76696E6720722D3E706135
:104AE000796C6F616420746F2069636D70206865F4
:104AF00061646572206661696C65640A000000008B
:104B000069636D705F696E7075743A207265737455
:104B10006F72696E67206F726967696E616C207071
:104B20002D3E7061796C6F6164206661696C6564AB
:104B30000A0000002DE9F04184B090460E46074679
:104B4000222024214FF4207204F042F990B304464D
:104B5000408923280CD842F61A3043F27C73C0F601
:104B6000010016A1C0F6010340F26912FBF72AFC0E
:104B700065687F682E70002605F1080039461C2202
:104B800085F801806E60FBF74CFDF868039003A880
:104B900000F00AFE58B1074601206E80CDE90060A2
:104BA00003AA20460021FF23029700F043FA204683
:104BB00004F008FC04B0BDE8F08100BF63686563E1
:104BC0006B207468617420666972737420706275FA
:104BD000662063616E20686F6C642069636D70206D
:104BE0006D657373616765000A460B21FFF7A2BF0D
:104BF000421C022A3CBF0120704791F82D209207E9
:104C000002D54A68824201D100207047896842403B
:104C1000114205D1CA438843904204BF0120704726
:104C2000002070472DE9F04F8FB0D0F804B0044653
:104C30009BF8000000F00F00052840F0D18060894B
:104C4000132840F2D380BBF80600B1F82480174641
:104C50000D4601F00BF82189A1F11402110400F0B6
:104C6000D780A8F1140101EB5171C91000F4005371
:104C70006FF35F300C90C800CDE9075785B24FF055
:104C800014084FF0000A05930691CDE903B50B9285
:104C900097B20E2014214FF42072BD420A9738BFFC
:104CA0002F4604F095F8002800F0BF8006464089A2
:104CB00013280CD842F61A3043F2F173C0F6010003
:104CC00063A140F22532C0F60103FBF77BFB70685D
:104CD00059461422FBF7A5FC7068CDE90D760990C2
:104CE0001FB947E024684FF0000866891FFA88F56D
:104CF000AE420CD242F61A3043F2F173C0F6010014
:104D00005BA140F22D32C0F60103FBF75BFBA6EB83
:104D10000800B9B21FFA80FA514538BF8A46BAF185
:104D2000000FDFD0052002F0BFFD00287AD08146B9
:104D30006068514628440090002041224B46CDF83F
:104D400004A004F01DF9002868D08346204604F032
:104D50001FFD45F60520C0F60000C9E904040E98C1
:104D6000594604F02DF9A7EB0A073804BAD1DDF84B
:104D70000CB00D9FDDF81C900C9DB9F82400059B2C
:104D8000A0F1140128466FF35F3000F50052002BAC
:104D900018BF10460A9BD0449942B8BF104600F095
:104DA00065FF099EF08007F1140080B200F05EFFFD
:104DB0000027708077810E9ED9F81430089A4846F3
:104DC00031469847304604F0FDFA0B9A0D98121AB6
:104DD0001004069805440C95049D7FF458AF00E03C
:104DE000FA2778B20FB0BDE8F08F00BF42F61A3054
:104DF00043F2F173C0F601000EA1C0F601034FF4B7
:104E00003F72FBF7DFFAFA2778B20FB0BDE8F08FF8
:104E1000002778B20FB0BDE8F08F00BF05204946EB
:104E200002F0BCFA0E9804F0CDFAFF2778B20FB06A
:104E3000BDE8F08F6970345F6672616728293A2097
:104E40007062756620746F6F2073686F72740000F3
:104E500074686973206E6565647320612070627583
:104E60006620696E206F6E6520706965636521003C
:104E7000702D3E6C656E203E3D20706F66660000B2
:104E80002DE9F047456804462A7802F0F0004028F2
:104E900073D168880E463C2101EA820A00F0E6FEE2
:104EA00021890746884203D22046394604F0E4FBB4
:104EB0006089504561D3208987425ED8BAF1130FCB
:104EC0005BD9E968286940F29479C2F2000996F842
:104ED0002D20C9E9041000F0F001E02902F00101E1
:104EE00004D1A9BB4FF0000838E000BF59B1716888
:104EF00049B18842B04631D03146FFF779FEB0461D
:104F000060BB99F81400C0B27F284FF0000825D08C
:104F100040F23C30C2F20000076827B91EE000BF33
:104F20003F68002FDED0B7421CBF97F82D005FEA24
:104F3000C070F5D079680029F2D0D9F81400884201
:104F400004D03946FFF754FE0028E9D0B84605E002
:104F50007068B046002808BF4FF00008D9F810006C
:104F60003146FFF745FE40B9D9F8100000F0F000D7
:104F7000E02818BFB8F1000F06D1204604F022FA4D
:104F80000020BDE8F08700BFE8886FF0C00108424C
:104F900006D0204600F008F9002847D045680446AE
:104FA00028783C2101EA8000A9F80C0020465146EF
:104FB000C9E90086C9F8085004F00CFC687A012899
:104FC00008D006280CD0112810D1204631460BF00D
:104FD0008FFE22E020463146FFF7BEFC1DE000BFF9
:104FE0002046314607F0FAF917E000BFD9F814005F
:104FF0004146FFF7FDFD68B9D9F8140000F0F00054
:10500000E02807D02046514604F0BAFA2046022193
:10501000FFF79EFC204604F0D5F90020C9E9040002
:10502000C9E90000C9F80800A9F80C000020BDE893
:10503000F0870000B0B584B0DDF828C0DDE9084E87
:1050400042B129B10D68002D08BF0CF1040101E047
:105050000CF10401CDE9004ECDF808C000F002F8D3
:1050600004B0B0BD2DE9F04782B00446807B1F46F6
:105070001546012888460FD042F61A3043F2B17126
:1050800043F2BD73C0F60100C0F60101C0F6010392
:105090004FF45572FBF796F955B12046142103F0F1
:1050A00061FE68B1FE2040B202B0BDE8F08700BFEB
:1050B0006089142844D2FE2040B202B0BDE8F087D7
:1050C0006089DDE90A9A666813280CD842F61A301E
:1050D00043F2BD73C0F6010027A1C0F6010340F200
:1050E0008932FBF76FF928683772306145203070DC
:1050F000208986F809A086F8019000F0B7FD40F2FB
:10510000AC77C2F20007708038884FF00009A6F82B
:10511000069000F0ABFD42F6FC11C0F60101B08034
:105120003888B8F1000F18BF41460968013038804F
:10513000F160A6F80A900C99888C40B912E000BF83
:10514000606801AD006901900C99888C50B122898A
:10515000824207D920462A46FFF764FD40B202B0DA
:10516000BDE8F0874B69084621462A46984740B279
:1051700002B0BDE8F08700BF636865636B207468A8
:105180006174206669727374207062756620636151
:105190006E20686F6C64207374727563742069701C
:1051A0005F686472000000002DE9F04F85B0D0F810
:1051B0000490054699F8000000F00F00052840F023
:1051C0007081B9F8060000F051FDB9F802100446EC
:1051D000084600F04BFD064699F800003C2101EA24
:1051E0008007BE42C0F05D81284603F053FF40F2C5
:1051F0008432C2F200021188049008440A28039500
:1052000044D9D2F804B04FF000080296CDE9004727
:10521000BBF1000F3ED0D9F80C204FF0000A00215E
:10522000002700205E460CE00AF1010AC0B1F57FBC
:10523000C47FA5429CBF30463946336837461E4678
:1052400093B175699542EFD1B569D9F81040A5427F
:10525000EAD1B589B9F80440A542E5D1EDE700BF30
:1052600030463946E9E700BF40B100F0D7FA40F2D6
:105270008431C2F20001D1F804B080440498804522
:105280000ADABAF1010FC3DC06E000BFD2F804B0BD
:1052900014E000BF4FF0000BDDE90265DDE90047D7
:1052A000B8F1000F00F0FD8040F28430C2F200003F
:1052B0000088049908440A2800F2F380BBF1000F2B
:1052C00024D0D9F80C0004E0DBF800B0BBF1000FEB
:1052D0001CD0DBF814108142F6D1DBF81810D9F895
:1052E00010209142F0D1BBF80C10B9F80420914283
:1052F000EAD1B9F8060000F0B9FCC00427D1BBF828
:105300000E0000F0B3FCC0041BD120E0042002F02A
:10531000CBFA8346002873D0002040F28432CBE9D8
:105320000100C2F200025168CBF81C00CBE9050075
:10533000CBE903000F208BF81F00CBF80010C2F858
:1053400004B00BF1080049461422FBF76AF9B9F8DA
:1053500006004FEAC40910F02000A6EB070A0290ED
:105360000AD11FFA8AF010FA89F188B2884221D155
:105370004FF6EB7188421DD803984568688800F0A5
:1053800075FC29783C2202EA8102904212D3E98816
:10539000841A084600F06AFCC10003988BB240688A
:1053A0000022026013FA84F295B295428180C28095
:1053B00000F08080DBF80400039D002871D140F2EA
:1053C0008434C2F200046068834511D042F61A307A
:1053D00043F2F173C0F601000FF2AC31C0F60103E5
:1053E00040F2AB22FAF7EEFF6068584540F0948136
:1053F000DBF8000059466060042001F0CFFF50E068
:1054000040F2843AC2F2000ADAF804C0A3464FF030
:105410000008CDE9017600BFBCF1000F33D0D9F808
:105420000CE0002500210023002064460DE000BFB1
:1054300005F10105C0B1E77FC67FB7429CBF20469A
:10544000194622682346144692B167697745EFD121
:10545000A769D9F81060B742EAD1A789B9F8046002
:10546000B742E5D1EDE700BF20461946E9E700BFA6
:1054700020B100F0D3F9DAF804C0804404988045E4
:1054800001DA012DC8DC0498039DDDE90176804531
:1054900007DB04205C4602F007FA834600287FF40D
:1054A0003BAF284603F08EFF0025284605B0BDE837
:1054B000F08F00BFDBF80460029F012282EA5717D9
:1054C000E6B101974FF0000E0121002703E000BF75
:1054D00016681746B6B37268B2F804C0634515D3B0
:1054E0003FF468AFB2F806804345FFF463AF002F86
:1054F000EED0FC88644518BF7146E9E7039A05467B
:10550000CBF8042067BB012112E000BF002F06602A
:1055100000F0D480FA889342FFF44CAF65453FF623
:1055200049AF039E9A423E6018BF0021019A8AB992
:105530009BF81E20D2074FF0000218BF002913D09D
:1055400009E000BF039F9845176018BF0021019A2A
:10555000002AEDD039B1DBF8041021B14D68A988DB
:10556000090400F0A780002240F28431C2F2000159
:105570000888049B1844029B08804BB99BF81E10B6
:105580000AEB0900ABF81C0041F001008BF81E008B
:10559000002A4FF000053FF488AFDBF80400BBF8A9
:1055A0001C10476801F114043E680BF108013846ED
:1055B0001422FBF736F8A0B200F058FBFD807D8185
:1055C000DBF8045078805EB174683046142104F032
:1055D00001F92846314603F0F3FC2668002EF3D18A
:1055E00040F28431C2F2000151F8040F83451AD011
:1055F000002800F09180026801465A4513D0002A25
:1056000000F08A801068114658450CD0002800F040
:105610008380026801465A4505D0002A7CD0106874
:1056200011465845E4D1DBF80000086004205946D3
:1056300001F0B4FE284603F02DFD40F28436C2F29C
:1056400000063188044681420DD242F61A3043F2F8
:10565000F173C0F6010045A1C0F6010340F29B22A0
:10566000FAF7B0FE3188081B3080284605B0BDE847
:10567000F08F00BF4968C0888A8890427FF473AF7A
:10568000086838B34068C988828891427FF46BAF5C
:10569000016801B34968C0888A8890427FF463AF8B
:1056A0000868B8B14068C988828891424FF000020A
:1056B0007FF45AAF01680029DCD10CE065453FF664
:1056C00079AE039ACBF80420019A002A7FF442AF06
:1056D0002EE700BF084685421BD142F61A3043F23E
:1056E000F173C0F6010014A1C0F6010340F2E1120B
:1056F000FAF768FE286860B142F61A3043F2F17397
:10570000C0F6010010A1C0F6010340F2E312FAF75F
:1057100059FE012228E700BF42F61A3043F62A015B
:1057200043F2F173C0F60100C0F60101C0F60103B7
:1057300040F24512FAF746FE73616E697479206390
:105740006865636B0000000076616C696461746574
:105750005F646174616772616D3A6E6578745F70E1
:10576000627566213D4E554C4C00000069705F72B9
:10577000656173735F70627566636F756E74203EEA
:105780003D20636C656E00006E6F742066697273F5
:1057900074616C74686F756768206A7573742065CE
:1057A0006E7175657565640080B540F23C31C2F27A
:1057B000000100BF0968C9B191F82D2002F005036E
:1057C000052BF7D14B68002BF4D0D0F800C0D1F8EE
:1057D00008E083EA0C0313EA0E0F04D09207E9D421
:1057E000CA689445E6D1084680BD00BF40F240310A
:1057F000C2F200010A687AB192F82D1001F0050199
:10580000052909D1516839B10078B0F17F0118BF7D
:105810001146084680BD00BF002080BD2DE9F04F35
:1058200081B08846814681420BD142F61A3043F25C
:10583000F173C0F601004BA1C0F60103AB22FAF7E9
:10584000C1FDB8F1000F0FD0D8F8000048450BD0CB
:1058500042F61A3043F2F173C0F6010044A1C0F6DB
:105860000103AD22FAF7AEFDD9F80470786881889B
:1058700011B1002616E000BF01681422C9F8041017
:1058800009F10801FAF7CDFE38460121FFF7ACF91E
:10589000384603F0FFFB0646384603F093FDD9F87F
:1058A00004700FB342F61A3A43F2F175C0F6010ADA
:1058B0000FF2D00BC0F6010505E000BF384603F03B
:1058C00081FD274684B178680468384603F0E2FB1E
:1058D00010FA86F6B6F5803FF0D350465946CC22F2
:1058E0002B46FAF76FFDE9E740F28435C2F2000576
:1058F0006868484502D0B8F1000F23D04845D9F870
:10590000000008BF05F10408C8F80000042049465B
:1059100001F044FD2888B4B2A0420CD242F61A30FD
:1059200043F2F173C0F601001EA1C0F60103D222BA
:10593000FAF748FD2888811B2046298001B0BDE880
:10594000F08F00BF42F61A3043F62A0143F2F1739A
:10595000C0F60100C0F60101C0F6010340F2451295
:10596000FAF730FD7072657620213D206970720073
:10597000707265762D3E6E657874203D3D206970AD
:105980007200000070627566735F66726565642000
:105990002B20636C656E203C3D2030786666666621
:1059A0000000000069705F72656173735F706275FB
:1059B00066636F756E74203E3D2070627566735F1E
:1059C0006672656564000000B0B540F28430C2F2D2
:1059D00000004068002808BFB0BD002406E000BFFA
:1059E00005682146FFF71AFF28464DB1C17F0029FF
:1059F000F6D001390568C1770446002D2846F5D157
:105A0000B0BD000010B5044660B942F61A3043F24A
:105A1000F173C0F6010009A1C0F6010340F2CE22E5
:105A2000FAF7D0FC6069002818BF03F0CBFC052012
:105A30002146BDE8104001F0B1BC00BF7063722088
:105A4000213D204E554C4C00F0B58DB001AD0C46BB
:105A500028463021FAF74CFE24B3D4E90010019017
:105A600060890290F1B1D1E900020492498905F1FF
:105A70000C0205910392A8B1D0E900120792408967
:105A800005F118020890069261B1D1E900200A9050
:105A9000488905F124010B9009911AB1F42040B214
:105AA0000DB0F0BD208940F29417C2F20007C7E99B
:105AB0000C05204607F12C063C6603F069FE40F217
:105AC0005860C2F200003146FBF768FFB8684FF03B
:105AD000FF3103F0EDF80028F8D140F25860C2F22F
