:020000040800F2
:10000000901D0120C1010008093A000821350008AF
:10001000053A00081D100008CD3D00080000000052
:10002000000000000000000000000000813A00080D
:100030004912000800000000113A0008B13A000817
:10004000DB010008DB010008DB010008DB01000820
:10005000DB010008DB010008DB010008DB01000810
:10006000DB01000829150008DB010008DB0100089E
:10007000DB010008DB010008DB010008DB010008F0
:10008000DB010008DB010008DB010008DB010008E0
:10009000DB010008DB010008DB010008DB010008D0
:1000A000DB010008953B0008DB010008DB010008CC
:1000B000DB010008DB010008DB010008DB010008B0
:1000C000DB010008DB010008DB010008DB010008A0
:1000D000DB010008DB010008DB010008DB01000890
:1000E000DB010008DB010008DB010008DB01000880
:1000F000DB010008DB010008DB010008DB01000870
:10010000DB010008DB010008DB010008DB0100085F
:10011000DB010008DB010008DB010008DB0100084F
:10012000DB010008DB010008DB010008DB0100083F
:10013000DB0100084D120008DB010008DB010008AC
:10014000DB010008DB010008DB010008DB0100081F
:10015000DB010008DB010008DB010008DB0100080F
:10016000DB010008DB010008DB010008DB010008FF
:10017000DB010008DB010008DB01000800000000D3
:10018000DB010008DB010008DB010008DB010008DF
:10019000DB010008DB010008DB010008DB010008CF
:1001A000DB010008DB010008DB010008DFF80CD0F0
:1001B00000F0E6FC004800471D880008901D012063
:1001C0000648804706480047FEE7FEE7FEE7FEE7F1
:1001D000FEE7FEE7FEE7FEE7FEE7FEE7813B0008FD
:1001E000AD0100082DE9F05F0546002092469B46D0
:1001F00088460646814640241BE02846414647463D
:10020000224600F099FA53465A46C01A914110D33B
:1002100011461846224600F080FA2D1A67EB0108B5
:100220004F4622460120002100F077FA17EB000923
:100230004E41201EA4F10104DFDC484631462A4627
:100240004346BDE8F09F0000004870476871010810
:1002500010B50446FFF7F8FF0068005D00F00100EC
:1002600010BD00000649074A0868504343F23902AE
:10027000104408604008704701490860704700005A
:10028000000000206D4EC64110B5431A934209D2BA
:100290008318881803E010F8011D03F8011D521E91
:1002A000F9D210BD40EA01039B0703D009E008C959
:1002B000121F08C0042AFAD203E011F8013B00F82B
:1002C000013B521EF9D210BDD2B201E000F8012B61
:1002D000491EFBD270470022F6E710B513460A46C6
:1002E00004461946FFF7F0FF204610BD421C10F8E7
:1002F000011B0029FBD1801A704710B5002200E0D5
:10030000521C835C8C5CA34201D1002BF8D1D8B283
:10031000E1B2401A10BD30B504460020034600E0AB
:100320005B1C934203D2E05CCD5C401BF8D030BD37
:100330000FB400B58DB010A909900B9000914FF04B
:10034000FF300A9000200C90054806900548079061
:100350006A4609A80F9900F005FA0DB05DF814FB84
:10036000810700089F0700082DE9FF4F087883B038
:100370009946FF2805D0491C2D2804D000240020D0
:1003800008E000200BE00124F9E700EB800003EB1C
:100390004000491C0B78FF2BF7D104B140420023E9
:1003A0000293147819461D462D2C01D02B2C04D114
:1003B000521C2D2C13D000240294AA461478FF2C32
:1003C0000FD00A25A3FB057801FB05814FF0000C37
:1003D00003FB0C11521CE3194AEB0101EEE7012467
:1003E000EAE7814453EA010002D019F5C87F06DA32
:1003F00003980021C0E9001107B0BDE8F08F002587
:10040000AE4E2F46DFF8B882184600F061FBCDE90A
:100410000001B9F1000002DAC9F1000400E004466D
:100420000023A74A1AEB030B42EB045A12E0E00741
:1004300007D02A4633463846414600F068FA074658
:1004400088462A4633461046194600F060FA0546AB
:100450000E466410002CEAD1DDE90001B9F1000F6D
:100460005A46534606DA00F0C4FA3A46434600F0CC
:10047000C0FA05E000F04BFA3A46434600F047FA6E
:10048000029A0AB181F00041039AC2E90001B3E780
:100490002DE9FF4F1F468DB0D7E901464FF0FF38D9
:1004A0002E2045464FF000090B90B9696D1C0E983F
:1004B0008847396A824688470028F6D1BAF1FF3F5B
:1004C0000AD024F4D064002E11DDBAF12B0F08D02D
:1004D000BAF12D0F0BD102E0404611B08DE744F484
:1004E0008064B9696D1C0E9888478246761E6946FD
:1004F000600501D52D2000E02B208DF8000001F1D2
:10050000010B0DF1200809E0B9696D1C0E988847B0
:1005100082460F9844F40074761E0560002E02DDBA
:10052000BAF1300FF0D00B998A453ED144F08004E7
:1005300006E00F99681CA9F1010944F400740860F1
:10054000B9696D1C761E0E98884782463028F0D017
:100550002BE00B998A4505D1200603D444F0800492
:10056000761E18E0504616F001FA08B30DF113029A
:10057000761EAAF1300044F40074934506D20BF8BD
:10058000010B200607D5A9F1010003E0200602D4E3
:1005900009F101008146A00502D50F99681C086089
:1005A000B9696D1C0E9888478246002ED1DC53E055
:1005B000002E51DDBAF1650F02D0BAF1450F4BD1D3
:1005C000A00549D5B9696D1C24F44074761E0E98B7
:1005D00088478246002E0CDD2B2804D0BAF12D0F5F
:1005E00007D144F48074B9696D1C0E98884782461F
:1005F000761EE00501D52D2100E02B2108F8011B16
:10060000CDF82C8021E00DF12901761E44F4007410
:1006100088450CD2AAF1300010F0FF0088F80000E5
:1006200002D10B99884509D908F1010806E0E005D7
:1006300001D5244801E042F20F708146B9696D1C72
:100640000E98884782460F980560002E04DD5046BC
:1006500016F08CF90028D6D1F9690E988847FF204A
:100660008BF8000088F800000020069007904B46A9
:100670006A4608A906A8FFF777FEA00502D46FF026
:1006800001002AE714F0240F0AD0E00714D1DDE9B5
:1006900006123868031D3B600068C0E900120BE0D9
:1006A000DDE9060100F050FA0146E00704D13868A0
:1006B000021D3A600068016028460EE70000144001
:1006C0000000F03FF1D8FFFF00F0004230F00040A2
:1006D0000AD0C10D01F56071C0F3160042EA015164
:1006E000C20840071143704700200146704730B5EB
:1006F0000B46014600202022012409E021FA02F5E0
:100700009D4205D303FA02F5491B04FA02F5284479
:10071000151EA2F10102F1DC30BD202A04DB203AD3
:1007200000FA02F1002070479140C2F1200320FA44
:1007300003F3194390407047202A04DB203A21FA42
:1007400002F00021704721FA02F3D040C2F12002EA
:1007500091400843194670470268114413780160BC
:1007600018467047D1600449516104491162002163
:100770001161114600F028BA59070008510200081B
:10078000426842B1016811F8013B23B1521EC0E931
:100790000012184670470121C160881E70474268E8
:1007A0005AB1C368016843B983688B4205D0491EBA
:1007B000521CC0E90012002070474FF0FF30704714
:1007C0002DE9FE4F804681EA0300C00F0C460090E1
:1007D00021F0004123F00045B8EB0200A94105D209
:1007E0004046214690461C460B46024623F00040F8
:1007F000104347D0270DC7F30A00C3F30A510290F4
:10080000401A019040286BDAC3F3130040F4801BB8
:100810000098924620B10023D2EB030A63EB0B0B46
:1008200001985946C0F140025046FFF776FF064650
:100830000D4650465946019A00F0B4F910EB0800F5
:100840006141002487EA115284EAE7731A4340D0D9
:10085000009A62B3019A012A4FEA075215DC001B85
:1008600061EB02014FF0004202EA0752CDE900427B
:10087000001C41F5801132462B4600F081FB03B08D
:10088000BDE8F08F40462146F9E7001B61EB02010D
:10089000001C41F5801300185B412018A2F50017D9
:1008A00047EB030140EAD570B6196D4111E06D08C0
:1008B0004FEA360645EAC0754FEA0752001B61EB66
:1008C0000201001C41F5801149084FEA300000196F
:1008D000514132462B4603B0BDE8F04F00F041BB1A
:1008E0000098012240000023D0EB020263EBE0738A
:1008F000009821464FEAE074B8EB000061EB040178
:10090000E9E783F000435BE781F0004158E72DE918
:10091000FE4F81EA030404F0004421F000410094FA
:100920004FF0000B23F0004350EA01045ED052EA7E
:1009300003045BD0C3F30A54C1F30A552C44A4F258
:10094000F3340194A0FB0254C1F3130141F480116C
:10095000C3F3130343F4801301FB024400FB034E73
:10096000840A970A44EA815447EA8357A4FB07683C
:1009700002958D0A05FB07854FEA932C04FB0C5466
:100980002705029D4FEA065847EA1637B5EB0805DA
:100990006EEB070C870E920E47EA811742EA83122C
:1009A000A7FB0201B6EB0B0164EB00042B0D43EA3D
:1009B0000C335E1844EB1C50DA465146E7FB02014B
:1009C000C5F313044FEA0B3343EA14534FEA0432DE
:1009D000019C43EA0603A4F10C040294009CCDE9B7
:1009E00000B400F0CDFA03B0BDE8F08F002001465E
:1009F000F9E72DE9F04D81EA030404F0004B21F002
:100A0000004514464FF0000A23F0004150EA050269
:100A100020D054EA01021DD0C5F30A570246C5F39F
:100A20001303C1F31300C1F30A5640F4801543F4D5
:100A30008013A7EB0608101BD64608F2FD3873EBAF
:100A4000050002D308F1010801E092185B41B8F1FA
:100A5000000F03DA00200146BDE8F08D00204FF4BE
:100A60008011064684460EE0171B73EB050705D37D
:100A7000121B63EB050306434CEA010C49084FEADD
:100A8000300092185B4150EA0107EDD152EA0300B1
:100A900012D082EA040083EA0501084305D0101B46
:100AA000AB4106D20122002306E000224FF00043B2
:100AB00002E06FF0010253101AEB06004CEB0851F4
:100AC00010EB0A0041EB0B01BDE8F04D00F049BA14
:100AD0000EB540F2334202920022CDE900221346C5
:100AE00000F04EFA03B000BDC1F30A52C1F3130186
:100AF00040F2FF3341F480119A4202DA00200146AD
:100B0000704740F233439A42A2F2334202DC52422F
:100B1000FFF712BEFFF701BE30B5041E71F10004ED
:100B200004DB4FF00044404264EB0101141E73F1FA
:100B3000000405DB1C464FF00043524263EB040304
:100B4000994208BF904230BD01F0004330B421F01B
:100B5000004150EA010206D00A0DA2F56072C1F30D
:100B60001301002A02DC30BC00207047440F44EA25
:100B7000C104C100E01830BC00EBC25000F0BAB9AB
:100B8000064C074D06E0E06840F0010394E80700DA
:100B900098471034AC42F6D3FFF70CFBB88301083A
:100BA000D8830108202A06DBCB17203A41FA02F04D
:100BB00043EAE07306E041FA02F3D040C2F12002BA
:100BC00091400843194670472DE9F34F8BB04FF021
:100BD000000801F10C000C464FF0010B46460DF1E8
:100BE000080A01906269012101989047051E2DD0E5
:100BF000252D2CD0216A8847C0B162690121019856
:100C00009047216A88470028F7D1411E6269019800
:100C1000904700E0761CA1690B988847216A8847B5
:100C20000028F7D1E1690B988847DBE7A1690B98A9
:100C300088470746A84201D1761CD3E7E1690B98A3
:100C400088477F1C02D1B8F1000F6FD046E1002722
:100C500062693D463946019890472A2804D1626965
:100C60000121019890470125DFF8849262690121F2
:100C700001989047A0F130010A290AD24F45E5DCDE
:100C800007EB870100EB4107303FDFD445F010054B
:100C9000ECE7E90601D46FF000476C280AD04C2835
:100CA00014D0682815D06A280DD074281CD07A2852
:100CB0001AD01DE062690121019890476C2802D08A
:100CC00045F0040514E045F002050DE045F020056F
:100CD0000AE06269012101989047682802D045F036
:100CE000080505E045F40065626901210198904717
:100CF000C4E9015765283DD019DC58287AD00CDCAE
:100D0000452837D004DC252826D0412831D131E0D0
:100D100046282FD047282CD12CE05B2877D061289B
:100D200028D063287CD0642823D15AE0D0E06F28F3
:100D300048D008DC66281DD067281BD0692821D040
:100D40006E2816D127E0702845D0732868D0752802
:100D500047D078280DD14DE0A1690B98884705460A
:100D600025283FF469AFE1690B9888476D1C3FF473
:100D70006AAFB3E023466A466FF001000B99FFF7B4
:100D800087FB9EE045F040006060A80723464FF0D7
:100D9000000236D43EE0E8077FF447AF2068011D2B
:100DA00021600068290501D506701BE7290701D5D8
:100DB000068017E7A90703D5F117C0E9006111E71D
:100DC00006600FE745F040006060A80723464FF03B
:100DD000080216D41EE040F60E0125EA010060600C
:100DE00016E045F040006060A80723464FF00A0275
:100DF00007D40FE045F040006060A80708D52346FF
:100E000010226FF001000B99AFF3008059E007E06A
:100E1000234610226FF001000B99AFF3008050E0E1
:100E20004FF000094F464B46632802D05B2806D09E
:100E300040E0E80601D40120A06001273AE06269A1
:100E40000121019890475E2805D14FF001096269A0
:100E5000494601989047216939B900210A4653460D
:100E600043F82120491C0829FADBB0B3216969B98C
:100E7000C11700EBD16253110AEB830122F01F026C
:100E8000821A01200B68904003430B6062690121C4
:100E9000019890475D28E8D1B9F1000F09D00020F2
:100EA000514651F82020D24341F82020401C082808
:100EB000F7DB02AB224600976FF001000B99AFF30E
:100EC000008000280CDA401C08D1BBF1000F05D0CF
:100ED0004FF0FF300DB0BDE8F08FFFE74046F9E777
:100EE000E90701D108F1010806444FF0000B79E64B
:100EF000CCCCCC0C0029A8BF7047401C490008BFCF
:100F000020F00100704710B4B0FA80FC00FA0CF039
:100F100050EA010404BF10BC704749B1CCF1200471
:100F200021FA04F411FA0CF118BF012121430843FE
:100F3000A3EB0C01CB1D4FEA00614FEA102042BF2A
:100F4000002010BC704700EBC35010440029A4BF20
:100F500010BC7047401C490008BF20F0010010BCC5
:100F6000704710B5141E73F1000408DA401C41F1FB
:100F7000000192185B411A4301D120F0010010BD1D
:100F80002DE9F04D92469B4611B1B1FA81F202E093
:100F9000B0FA80F220329046FFF7BFFB04460F46BE
:100FA00040EA0A0041EA0B0153465A46084313D06F
:100FB000114653EA010019D0C8F140025046FFF72C
:100FC000BBFB05460E46504659464246FFF7A5FB79
:100FD000084305D0012004E020463946BDE8F08DE5
:100FE0000020054346EAE0762C4337430A98630520
:100FF000E40AA0EB08000022FD0A44EA47540A3044
:1010000002D500200146E9E7010510196941DDE933
:10101000084500196941BDE8F04DA2E7FEE7000070
:101020002DE9F04F85B08846814604F0B1FDC8B384
:1010300000F044F8074600F041F8054600F03EF89D
:10104000064600F03BF8044600F038F8E919314450
:101050002144814222D148F2993AC0F6010A0DF1A9
:101060000C0B5846082152463B46009515F092FB62
:1010700001AD2846082152463346009415F08AFBFC
:1010800048F29F34C0F60104584621464A46FFF70D
:101090004FF9284621464246FFF74AF9002005B09D
:1010A000BDE8F08F0020C4F2C620C9F80000C8F8DF
:1010B0000000FF2005B0BDE8F08F00002DE9F04FE3
:1010C00081B041F2004440F2B4674FF0000BC4F22B
:1010D0000204C2F2000741F2111540F244494FF0F8
:1010E000000A4FF0000812E0016A294242D020466F
:1010F0004FF4805101F0F2F900280AF1010A18BFFB
:101100000120BAF1080F40EA480800F08F8020461D
:101110004FF4805101F0E2F9C0B34FF47A7608E061
:10112000016A29421CD020464FF4805101F0D6F9C3
:1011300050B35EB33868013EC0F824B0016841F096
:1011400001010160416A0029EAD1416A0029E7D121
:10115000416A0029E4D1416A0029F3D0E0E700BFE9
:10116000016A11EA090FDED1016821F00101016075
:10117000D9E700BF016A11EA090FB8D1016821F06F
:1011800001010160B3E700BF002E4DD020464FF4AF
:10119000805101F0A3F978BB4FF47A7609E000BFE3
:1011A000016A29421CD020464FF4805101F096F983
:1011B00000BB0EB33868013EC0F824B0016841F0AE
:1011C00001010160416A0029EAD1416A0029E7D1A1
:1011D000416A0029E4D1416A0029F3D0E0E700BF69
:1011E000016A11EA090FDED1016821F001010160F5
:1011F000D9E700BF06B300BF3868C0F824B0016863
:1012000041F00101016000BF416A27293FF66CAF40
:10121000416A27293FF668AF416A27293FF664AF44
:10122000416A2829F0D35FE74FF000085FFA88F0A1
:1012300001B0BDE8F08F00BF4FF000085FFA88F002
:1012400001B0BDE8F08F00007047000040F2685028
:10125000C2F2000000F0F6B90020704701F04AB970
:1012600080B540F26850C2F2000000F025FE002078
:1012700080BD000080B513460A46014640F2685022
:10128000C2F2000000F0ECFC002818BF4FF0FF3065
:1012900080BD000080B513460A46014640F2685002
:1012A000C2F2000000F0F8FF002818BF4FF0FF3036
:1012B00080BD00002DE9F041D0F828E000F1180CC5
:1012C0005CF82E308C681D68002D03D400EB8E0571
:1012D000ED6A1DB10220BDE8F08100BFD4E90056DF
:1012E00041F6FF779D605D68BD4335435D600D68E5
:1012F000EE0740F00581AE0600F10B81690703D5CA
:10130000196841F080011960196841F08051196035
:10131000BFF35F8F196841F000411960A468002194
:1013200094B341F6FF787646002A61D01F683546AF
:1013300027F000571F601F6847F080461E606E1C34
:10134000032E88BFEE1E5CF826301D6825F0805500
:101350001D601D68002D61D400EB8605ED6A002D2F
:101360005CD1D4E9005701319D605D6825EA08052C
:101370003D435D60BFF35F8F1D6845F000451D6014
:10138000A468002CD2D1B6461F68002A27F08047F7
:1013900018BF07F180471F601A6842F000521A60B8
:1013A000C26B00EB8E03DA62C0F828E0EFF3108224
:1013B00072B6026C114401310164002062B6BDE8CE
:1013C000F08100BF00EB8605ED6A3DBBD4E9005714
:1013D00001319D605D6825EA08053D435D60BFF30E
:1013E0005F8F1D6845F000451D60A468002CCAD0C1
:1013F0001F68354627F000571F601F6827F080469A
:101400001E606E1C032E88BFEE1E5CF826301D6821
:1014100025F080551D601D68002DD3D501310029B0
:101420003FF458AF481E032801F0030039D321F0E0
:10143000030100BF5CF82E20BFF35F8F136823F019
:10144000004313600EF10102032A88BFAEF10302CC
:101450005CF82230BFF35F8F1F6827F000471F60E2
:10146000531C032B88BFD31E5CF82320BFF35F8F70
:10147000176827F0004717605A1C032A88BFDA1E36
:101480005CF82230BFF35F8F1C6802F1010EBEF1E1
:10149000030F88BFA2F1030E24F0004204391A6042
:1014A000C8D10CEB8E0100283FF414AF0968BFF3DC
:1014B0005F8F0A68012822F000420A603FF40AAFF9
:1014C0000EF10101032988BFAEF103015CF8212070
:1014D000BFF35F8F1368022823F0004313603FF4CB
:1014E000F9AE481C032888BFC81E5CF82000BFF373
:1014F0005F8F016821F0004101600220BDE8F081AA
:101500001E684F6926F440063E431E60AE067FF516
:10151000F5AE1E68096926F0406631431960690717
:101520003FF5EEAEF0E60000082000F0F7BE000048
:10153000EFF3108072B600BFFEE70000B0B50446BE
:1015400000F0D8FF054640F20C00C2F2000000781F
:10155000611C18BF044400BF00F0CCFF401BA04238
:10156000FAD3B0BD80B500F00DF8000658BF80BDBD
:1015700040F24000C2F200004068BDE880400AF03E
:10158000B3BC0000D0F88C00704700000246002970
:101590004FF0010008BF704712681368C3F30013CF
:1015A00081F82830136803F060034B62136820EA67
:1015B000532381F820301368C3F30043CB771368BB
:1015C00020EA53338B771368C3F300330B77136828
:1015D00003F400638B61136803F480434B61136869
:1015E00020EA93534B74136820EAD35008741068B0
:1015F000C0B2C009C873106800F460208860106829
:10160000C0F3802008719069C0F3400081F8540055
:101610009069C043C0B2C00981F84C00906900F0E5
:10162000300008659069000C88649069C0F3800000
:1016300081F856009069C0F3C00081F85500002081
:1016400070470000B0B50446006841F214054159E6
:1016500049060BD541198A68520607D54020C0F2C9
:1016600001000860204600F07FFB20684159C9074F
:101670000AD041198A68D20706D04FF001100860DD
:10168000204600F0FDFD206841F21401425812048A
:1016900026D501448A68120422D5D4F8880040F087
:1016A0000800C4F888000A680868920406D448F262
:1016B00080621040C4F88C000A600DE042F2000223
:1016C000C0F27E021040C4F88C00886820F4C0305C
:1016D0008860E020C4F884002046FFF743FF2068BC
:1016E000816B09070AD5C06A00F06000C4F8940055
:1016F000204600F0DFF90020C4F8940043F61441BE
:10170000C4F201010868000358BFB0BD4FF40022C5
:1017100020460A60BDE8B04000F0BCBD70B582B0A4
:10172000002843D00446D0F8840028B92320C4F808
:101730008400204600F022F90020019043F6440086
:10174000C4F2020001684FF4805641F48041016008
:10175000006800F480400190019843F60400C4F250
:101760000100016821F4000101602168A26803689A
:101770001A4302600068885940F00100885100F067
:10178000B9FE054620688159C90713D000F0B2FEA2
:10179000401BB0F5FA7FF5D90120E0220421C4F8FE
:1017A0008810C4F8842002B070BD00BF012002B0D0
:1017B00070BD00BF016848F20F12CFF620721140D1
:1017C00001F59C41016005680120FFF7B7FE206824
:1017D0004FF64172056081691140803181618569F0
:1017E0000120FFF7ABFE206841F2180185614258E5
:1017F00043F62373CFF6DE031A4042F0087242F03C
:101800000402425045580120FFF798FE206800F579
:1018100080518D6142F280014FF48055C0F2C121A8
:10182000415146590120FFF789FE2068E2680021F6
:101830004651116051609160D160A261136800F55A
:10184000805C43F48013136002F12803D3601668B0
:101850004FF48C4546F4400616609162D1621163E4
:101860005163E361936A43F48013936202F150037E
:101870005363966A46F44006966211655165916518
:10188000D1652362136D43F48013136502F178036D
:10189000D365166D46F4400616659167D167C2F8A8
:1018A0008010C2F884106362936F43F480139367CF
:1018B000C2F88420936F43F440039367A162CCF88D
:1018C000102022694FF00043116051609160D16097
:1018D000C2E9081113605560566826F0004656604C
:1018E00002F12806A264D6609162D162116351634D
:1018F000C2E912119362D562D06A20F00040D06232
:1019000002F15000E6645063116551659165D1653F
:10191000C2E91C1113655565566D26F000465665E3
:10192000206502F17800D0659167D167C2F8801018
:10193000C2F88410C2E926119367D567D36F23F0EC
:101940000043D3676065C2F884202166C4E91A1198
:10195000C4E91611CCF80C20606848F24003828874
:10196000C4F202031A600068102258600020C4F814
:101970008810C4F8842002B070BD00002DE9F04347
:1019800085B0006848F20001C4F20201884203D029
:1019900005B0BDE8F08300BF002643F63000009696
:1019A000C4F202000168002441F000710160016886
:1019B000C4F2020401F000710091009900960168E0
:1019C0006D4641F08061016001684FF0020801F04E
:1019D000806100910099009601684FF0030941F081
:1019E0000061016001680B2701F00061009100991E
:1019F0000096016841F004010160016801F00401F2
:101A0000009100990096016841F0010101600168B0
:101A100001F00101009100990096016841F0020176
:101A20000160016801F002010091009900960168CF
:101A300041F0400101600068294600F0400000903C
:101A400000983220009004F50060CDE90186CDF8C1
:101A50000C90049700F06EFC8620CDE9000820462B
:101A60002946CDE90269049700F064FC4FF4005068
:101A7000CDE9000804F580602946CDE902690497A4
:101A800000F058FC4FF42050CDE9000804F5C05098
:101A90002946CDE90269049700F04CFC3D20052160
:101AA000002200F017FF3D2000F000FF05B0BDE868
:101AB000F0830000704700002DE9F04F85B0002949
:101AC000044671D0D4F88400232840F0C580D4F8AF
:101AD0005CA004F1480858F82A90E26ED9F800009A
:101AE0000191002868D4C2F10400039004F17C0540
:101AF00004F180004FF0000B002602902BE000BFA5
:101B0000D9F80000D9F80010C0F30D40071F4FF0BE
:101B1000010B2167D9F808200299BBB22846C9F801
:101B2000202000F029F9D4E9180101303944C4E932
:101B300018010020C9F820000AF10100032888BF1D
:101B4000AAF1030058F820900136D9F80010824617
:101B5000B1F1FF3F39DD0398864235D2BBF1000F6A
:101B600032D1D9F80000C00505D5D9F81800A06712
:101B7000D9F81C006067D9F80000800501D42868F6
:101B800070B1D9F80000800544BF0020C4E91800F6
:101B90006769D9F80000C005B2D44FF0000BB9E76F
:101BA0004FF0000BC8E700BFD4F8880040F00100F8
:101BB000C4F8880050E000BF00264FF0000BB618B4
:101BC000E66607D13BE000BF5046E26E8246B6189B
:101BD000E66634D0A76E00200DF11009049016E0DF
:101BE000A06D00284FF48C4004BF44F20060C8F29E
:101BF00000006860BFF35F8F286840F000402860F5
:101C0000781C032888BFF81E013E07460CD058F800
:101C10002750286A0028E3D1484600F07DF8049850
:101C200018B12862A860DBE70026E06EB04206D05B
:101C3000206841F2080100224250C4E91A76BBF143
:101C4000010FC4F85CA007D1E06F01990860002083
:101C5000E06705B0BDE8F08F012005B0BDE8F08F6A
:101C6000F0B581B0054600681C4603694FF4F8677B
:101C700007EA821203F01C0361F3CF22D11801316D
:101C8000016100F037FC0646002700BF00F032FC7F
:101C9000801BB7EB104F09D128680169C907F5D13E
:101CA000406980B22060002001B0F0BD012001B089
:101CB000F0BD00002DE9F0410446006C40B3676CB4
:101CC000451E4FF0000803E00746013D681C1FD089
:101CD00004EB8700C16A781C00F00300002908BFEC
:101CE0000746F1D0E06807EB870150F83100002883
:101CF0000ED404EB8706F06A00F0CAFA781C00F0F4
:101D00000307C6F82C80C4E91057013D681CDFD1D9
:101D10000020BDE8F081000010B582B0044647F213
:101D20002C20C0F6010007F0ABFC98B10346203030
:101D300020604CF6A500C0F60000186120684FF442
:101D4000C064009000200021412201940AF064FA4E
:101D500002B010BD40F24000C2F20000012101704B
:101D60000020206002B010BD40F24000C2F200002E
:101D700040680AF0B9B800004FF0000C42F820CDDE
:101D8000A2F808C0D0F800C05381BCF1000F84460F
:101D900018BFD1F800C0CCF800200A60006868B90C
:101DA00017E000BF028901681A440029028108BFB8
:101DB00070470A8908681A440A8150B1028901688B
:101DC0001A44028129B10A8908681A4400280A8144
:101DD000E8D1704770B500296CD00446D0F8840073
:101DE000102867D120680D46016848F20F12CFF61F
:101DF000207211402A7C6B7C002AAA6808BF01F57A
:101E000000011143002B6B69EA7F08BF41F4800198
:101E10001943AB7F41EA0241AA69002B2B7F08BF1F
:101E200041F4005111432A7941EA033195F82030F9
:101E300041EA8221002B6B6AEA7B08BF41F4007102
:101E4000194395F8283041EAC21141EA03110160B3
:101E500006680120FFF772FB20684FF641720660AA
:101E6000816995F84C3001EA020CAA6C002B4FEA0C
:101E7000024208BF80322B6D95F8556043EA0C038F
:101E800095F856101A4395F85450012E08BF42F0A9
:101E90000802012908BF42F00402012D08BF42F0E8
:101EA0000202826185690120FFF748FB2068856195
:101EB000002070BD012070BDB0B504460068006907
:101EC00020F01C0500F012FE4DF20031CFF6CE617D
:101ED0004EF2BF120144C0F2E402914204D845F030
:101EE000080520680561B0BD4FF24011CFF6E951F9
:101EF00047F63F020144C0F27D12914204D845F0FA
:101F00000C0520680561B0BD47F60011CFF66C41A5
:101F100045F600220144C0F262229142E1D341F62B
:101F20000071CFF60A2108444FF27F01C0F2FA2176
:101F300088428CBF45F0100545F004052068056116
:101F4000B0BD00002DE9F04383B00446D0F8840012
:101F50000125102840F0E6802320C4F88400206882
:101F6000A565C16B04F1480841F40271C163D0F862
:101F70000C1141F4003141F06001C0F80C11D0F8AF
:101F8000101141F40311C0F810110420A56EE06691
:101F900058F82570386A00284FF00000019003D0EF
:101FA0004FF48C4012E000BF01A8FFF7B5FE019886
:101FB000002800F0BB803862B860A16D4FF48C40FF
:101FC000002904BF44F20060C8F200007860BFF34B
:101FD0005F8F386840F0004038606F1C032F88BF67
:101FE000EF1E58F82750286A40B901A8FFF794FE61
:101FF0000198002800F0A0802862A860A06D4FF42E
:102000008C4600284FF48C4004BF44F20060C8F2B4
:1020100000006860BFF35F8F286840F000402860D0
:102020007D1C032D88BFFD1E58F82570386A40B905
:1020300001A8FFF771FE0198002800F07F80386248
:10204000B860A06D44F20069C8F20009002808BF1A
:102050004E467E60BFF35F8F386840F000403860C6
:102060006F1C032F88BFEF1E58F82750286A38B915
:1020700001A8FFF751FE0198002865D02862A860EA
:10208000A06D002818BF4FF48C49C5F80490BFF329
:102090005F8F286840F0004028607D1C0020032DE1
:1020A00088BFFD1EE26E2168824205D041F208021F
:1020B00000238B50C4E91A50086840F008000860FB
:1020C0000D680120FFF73AFA20680560016841F0C9
:1020D0000401016005680120FFF730FA206841F231
:1020E0001806056000250295815941F4801181513F
:1020F000805902900120FFF721FA02982168885147
:1021000088598A1940F400508851885940F00200DB
:102110008851506840F4D03040F0C1005060232016
:10212000C4F88400284603B0BDE8F0830420E26EC2
:1021300021688242BAD1BFE7032006E00220E26EA6
:1021400021688242B2D1B7E701203D46E26E2168A4
:102150008242B1D0AAE7000070B582B00446D0F840
:102160008400232852D12320C4F88400206841F23F
:10217000180681194A6845F63E73CFF6FE731A4079
:102180004A60815921F400518151815921F00201A5
:102190008151016821F00401016005680120FFF709
:1021A000CDF92068056000250195815941F4801121
:1021B0008151805901900120FFF7C0F901982168F1
:1021C0008851086820F0080008600E680120FFF7B9
:1021D000B5F920680660A06C416841F0004141609B
:1021E000E06C416841F000414160206D416841F080
:1021F00000414160606D416841F000414160102044
:10220000A565C4F88400284602B070BD01252846A3
:1022100002B070BD10B50446A1B1D4F884002328E3
:102220001CBF012010BD486B0122E0632046FFF770
:1022300041F878B1D4F8880040F00200C4F8880072
:10224000012010BDD4F8880040F00100C4F88800D7
:10225000012010BDBFF34F8FA06A2168421C032AE2
:1022600088BFC21E41F20400A2620144086940070F
:102270004FF0000042BF04220A61086010BD000058
:1022800040F24000C2F20000806809F02DBE00005C
:102290000AF06CBA7047000070B5044600684FF44D
:1022A000F865066905EA821206F01C0661F3CF2282
:1022B000911903319AB24261016100F01BF90546A0
:1022C000002600BF00F016F9401BB6EB104F05D1F9
:1022D00020680069C007F5D1002070BD012070BDE5
:1022E00080B5082818BF80BD41F20000C4F202008A
:1022F000082100F0F3F801280ED140F2E821C2F2E3
:102300000001C8684FF0000C0022002381F800C0D3
:10231000BDE8804013F0A4BB80BD000043F614412B
:10232000C4F201010A68024214BF08607047FFF757
:10233000D7BF00002DE9F04F82B000F13E4242F2DB
:10234000004502F1FF77C4F202050A2243F6004E6F
:102350004FEAB726A84208BF0922C4F2010E092E8F
:1023600038BF4FEAB7220125002600274FF00008AA
:10237000009208E008F101080437B8F1100F06F1E7
:10238000020600F0A7800C6805FA08F914EA090FA4
:10239000F0D0D1F804B003220BF0030CACF101042F
:1023A000B240012C6FEA020A10D88268CC6802EAB7
:1023B0000A02B440224382604268CBF3001422EA4E
:1023C000090204FA08F42243426005E0BCF1030F5D
:1023D00002D14FF0030C20E0C2688C6802EA0A02C6
:1023E000B4402243BCF1020FC26016D16FF0030269
:1023F00002EA58020244D2F820C007F01C050F235D
:102400000C69AB402CEA030304FA05F52B43136275
:10241000D1F804B001250BF0030C02680CFA06F3A6
:1024200002EA0A021A431BF4403F0260A2D00022D3
:1024300043F644030192C4F202031A684FF6084CB3
:1024400042F480421A601A68CFF6FF7C02F48042A0
:102450000192019A28F00302724452F80C3007F0FE
:102460000C050F24AC40A343009C04FA05F52B4354
:1024700042F80C30DEF808204B6842EA090543F6C2
:102480000C4CDC0258BF22EA0905CEF80850C4F211
:10249000010CDCF800209C0242EA090558BF22EA40
:1024A0000905CCF80050DEF804209C0342EA090537
:1024B00058BF22EA0905CEF80450DEF80020DB03FD
:1024C00042EA090558BF22EA0905CEF80050012565
:1024D00050E700BF02B0BDE8F08F0000006908407F
:1024E00018BF012070470000002A08BF090481615D
:1024F0007047000041F29020C2F20100006870476E
:1025000090F83D20202A1CBF02207047242280F82A
:102510003D200268136823F001031360536A23F01F
:1025200010035362536A19435162116841F001016B
:102530001160202180F83D100020704790F83D2068
:10254000202A1CBF02207047242280F83D20026808
:1025500089B2136823F001031360D2F824C04FF648
:10256000F07303EA0C0319435162116841F0010151
:102570001160202180F83D100020704770B5B8B37D
:10258000044690F83D0028B9002084F83C0020461D
:1025900000F0B0F8242084F83D002068016821F0A4
:1025A00001010160016841F400410160016821F40A
:1025B0000041016000F0A0FA48F28041C0F21E0123
:1025C00040F60013D4F804E088424FF00001C0F256
:1025D0003D0348F2A16C4FF0000238BF0121984240
:1025E000C0F2010C38BF0122E64538BF0A460AB1E5
:1025F000012070BD4DF68361C4F21B31A0FB0112B6
:102600002168950C4B684FF4967623F03F0343EA1C
:102610009243754344F6D3564B60C1F262060B6A8F
:10262000A5FB0656B50923F03F03E64538BF950CD8
:102630006A1C1A430A62CA6948F2A0664CF6FF7324
:10264000C0F20106B64522EA03020BD801384FEA70
:102650004E03B0FBF3F001306FF31F30042898BF36
:1026600004201EE0A368013863B119230EFB03F3B5
:10267000B0FBF3F001306FF31F3078B100F580400C
:1026800008E000BF0EEB4E03B0FBF3F001306FF338
:102690001F3028B100F5004003E000BF012000E03A
:1026A00001201043C8610868D4E9072320F0C00066
:1026B000104318430860886848F2FF3204F10C06A2
:1026C00090434CCE18431043A5698860C86820F039
:1026D000FF0030432843C860086840F001000860EC
:1026E00000202021206484F83D10206384F83E00FF
:1026F00070BD0000B0B586B0016845F20040C4F27C
:102700000000814202D006B0B0BD00BF002443F6F5
:1027100030050194C4F20205296800F5D83041F073
:1027200002012960296801F00201019101994FF429
:10273000407101911221CDE9021403210491042179
:10274000059101A9FFF7F6FD0094286940F40010F7
:102750002861286900F400100090009806B0B0BD10
:1027600040F20C0041F29021C2F20000C2F20101DD
:1027700000780A68104408607047000080B543F68E
:102780000040C4F20200016841F400710160016878
:1027900041F480610160016841F4807101600320AF
:1027A00000F0C4F80F2000F005F800F05DF80020FC
:1027B00080BD0000B0B586B0002543F64401019508
:1027C000C4F202010A68044642F001020A60096884
:1027D00001A801F0010101910199694600F066F933
:1027E00000F09EF94DF683614000C4F21B31A0FB5E
:1027F00001014FF0FF3000EB914140F26C6000228C
:10280000C2F20000C4F2010240F2E733C0E9002145
:10281000C0E902530561856100F0E6FB054618B189
:10282000284606B0B0BD00BF40F26C60C2F20000A6
:1028300000F022FC05460028F2D1192000F036F8FD
:102840000F2C0DD8192021460022002500F042F857
:1028500040F21000C2F200000460284606B0B0BD8D
:102860000125284606B0B0BD82B0002043F64001E5
:102870000190C4F202014A6842F480424A604A6808
:1028800002F480420192019A00900868002240F010
:102890008050086008680F2100F080500090009878
:1028A0006FF0010002B000F015B80000002848BF2A
:1028B0007047C1B200F01F00012202FA00F04EF290
:1028C0000012CEF2000242EAD10121F003010860B9
:1028D0007047000010B54EF60C5CCEF2000CDCF830
:1028E0000030C3F3022E8EF00704042C28BF04240A
:1028F000BEF103034FF0FF3E0EFA04F438BF00238D
:10290000A14399400EFA03F39A43114300F00F02DA
:1029100000F160430901043A03F56443624400286E
:1029200048BF02F10C03197010BD00004EF60C51A7
:10293000CEF200010A684FF6FF031A4060F30A2244
:1029400042F0806040F0FD70086070472DE9F04172
:10295000002800F08B8043F60808C4F20208044601
:10296000D8F8F8030D4600F00F00884207D288F827
:10297000F853D8F8F80300F00F00A84276D1206889
:10298000810717D5410705D5D8F8001041F4E0516B
:10299000C8F80010010705D5D8F8001041F46041CF
:1029A000C8F80010D8F80010A26821F0F001114317
:1029B000C8F80010C0073FD1D8F8F80300F00F00A6
:1029C000A84207D988F8F853D8F8F80300F00F00A8
:1029D000A8424BD12068410707D5D8F80010E2681B
:1029E00021F4E0511143C8F80010000708D5D8F8C9
:1029F0000000216920F4604040EAC100C8F80000EE
:102A000000F0A2F8D8F8001047F26C12C1F30311DD
:102A1000C0F60102515C40F2300220FA01F140F2AE
:102A20001000C2F200000068C2F200021160FFF75D
:102A3000C1FE0020BDE8F0816068811E022907D236
:102A400058F8081C89015CBF0120BDE8F08111E045
:102A5000012807D158F8081C89035CBF0120BDE894
:102A6000F08107E058F8081C890703D40120BDE86D
:102A7000F08100BFD8F8001021F003010843C8F826
:102A80000000FFF737FD064641F28837D8F800000E
:102A9000616800F00C00B0EB810F8DD0FFF72AFDCC
:102AA000801BB842F2D90320BDE8F0810F220260FA
:102AB00043F60802C4F20202136803F00303436002
:102AC000136803F0F0038360136803F4E053C360FA
:102AD000D2F800C04FF4E05303EADC030361D2F8FC
:102AE000F80300F00F0008607047000040F230006B
:102AF000C2F200000068704740F2300043F608015F
:102B0000C2F20000C4F202010068096847F27C12B8
:102B1000C1F38221C0F60102515CC8407047000039
:102B200040F2300043F60801C2F20000C4F2020194
:102B30000068096847F27C12C1F34231C0F6010215
:102B4000515CC8407047000010B543F60404C4F25D
:102B50000204606800F00C0142F200400829C0F253
:102B6000F40007D0042918BF10BD41F20020C0F2C4
:102B70007A0010BD216801F03F02216823684902F4
:102B8000C3F3881106D4A1FB00010023FDF72AFB43
:102B900007E000BF41F20020C0F27A004843B0FBDA
:102BA000F2F021680222C1F3014102EB4101B0FBC6
:102BB000F1F010BD2DE9F04182B0002868D0044644
:102BC000007843F60006C007C4F202060BD0B068D6
:102BD00000F00C00042840F09F803068800302D58C
:102BE0006068002854D0207880071AD5B06810F0AB
:102BF0000C0F09D0B06800F00C00082840F0A68047
:102C00007068400200F1A2803068800702D5E06859
:102C100001283DD13068216920F0F80040EAC10068
:102C200030602078000737D4207840074CD4A5695D
:102C300055B3B06800F00C00082840F0BB80012DAF
:102C400026D07068E16900F480028A4220D1216AAE
:102C500000F03F028A421BD147F6C071626A014010
:102C6000B1EB821F14D1A16A4FF6FF73C9039943D8
:102C700000F44032A1F580318A4209D1E16A00F0C6
:102C80007060B0EB016F03D1002002B0BDE8F081AD
:102C9000012002B0BDE8F0816069002840F2000028
:102CA000C4F2472076D00121C0F8801EFFF722FC35
:102CB000054600BF706F8007B6D4FFF71BFC401BB2
:102CC0000228F7D9DDE000BF306C10F080580AD13F
:102CD00000200190306C40F080503064306C00F087
:102CE00080500190019847F20007C4F2000738684D
:102CF000C00541D4386840F480703860FFF7FAFBB3
:102D0000054600BF3868C00536D4FFF7F3FB401B0B
:102D10000228F7D9B5E000BFB06800F00C00082821
:102D200003D1706840023FF558AF6068B0F5803F4E
:102D300007D0B0F5A02F40F08D80306840F480209F
:102D40003060306840F4803030608DE0E06800280A
:102D500052D00020C4F2472001210160FFF7CAFBD6
:102D6000054600BF306880073FF554AFFFF7C2FB50
:102D7000401B0228F6D984E0A068012805D0052868
:102D80004ED1306F40F004003067306F40F00100EA
:102D900030674FE00021C0F8801EFFF7ABFB05460F
:102DA000706F80077FF540AFFFF7A4FB401B022840
:102DB000F6D966E00027C4F2472700203866FFF7FF
:102DC00099FB022D05460BD1306880015ED5FFF7D7
:102DD00091FB401B02284FF00300F5D955E700BFD7
:102DE000306880017FF550AFFFF784FB401B02285D
:102DF0004FF00300F4D948E70020C4F24720002137
:102E00000160FFF777FB0546306880077FF509AF63
:102E1000FFF770FB401B02284FF00300F4D934E7A2
:102E2000316F002821F001013167316F21F0040179
:102E300031674DD0FFF75EFB054641F2883700BF92
:102E4000306F800756D4FFF755FB401BB842F7D9C7
:102E500017E000BF3168002821F48031316031680B
:102E600021F4802131604FD0FFF744FB054600BFBD
:102E7000306880033FF5B7AEFFF73CFB401B64288A
:102E8000F6D9032002B0BDE8F08100BF04F11C05B3
:102E90002FCD084340EA8210D9034FF6FF729143C9
:102EA000A1F5803140EA0560084370600120386672
:102EB000FFF720FB044600BF306880013FF5E4AE19
:102EC000FFF718FB001B02284FF00300F4D9DCE6E3
:102ED000FFF710FB054641F2883700BF306F8007CF
:102EE00008D5FFF707FB401BB8424FF00300F5D9A8
:102EF000CBE600BFB8F1000F7FF499AE306C20F044
:102F00008050306493E600BFFFF7F4FA054600BF37
:102F1000306880037FF567AEFFF7ECFA401B64284A
:102F20004FF00300F4D9B0E670470000704700008E
:102F300010B590F83C20012A4FF0020251D080F8E1
:102F40003D200268D2F804E0D2F808C00C682EF0E8
:102F50007003234341F2FF74C4F20004A2425360A1
:102F60000EDC40F2FF73C4F200039A4216DCB2F1A9
:102F7000804F2BD040F20043C4F2000324E000BF96
:102F800040F2FF33C4F201039A4213DC41F600031E
:102F9000C4F200039A4219D0002313E040F6000364
:102FA000C4F200039A4211D040F60043C4F2000379
:102FB0000AE000BF44F20003C4F201039A4205D0C4
:102FC00040F20043C4F201039A4204D149682CF054
:102FD0008003194391600121002280F83D1080F8A0
:102FE0003C20104610BD0000002804BF012070479F
:102FF00010B5044690F83D0028B9002084F83C0044
:10300000204600F01FF8022084F83D002068211DB2
:1030100000F0C6FD012084F8460084F83E0084F8E4
:103020003F0084F8400084F8410084F8420084F8AE
:10303000430084F8440084F8450084F83D000020F3
:1030400010BD000081B00068B0F1804F02D001B027
:10305000704700BF0020009043F64000C4F2020019
:10306000016841F001010160006800F0010000907A
:10307000009801B07047000090F83D1001291CBF76
:1030800001207047022180F83D10006841F2FF7274
:10309000C168C4F20002904241F00101C1600DDC40
:1030A00040F2FF71C4F20001884215DCB0F1804F9C
:1030B0002AD040F20041C4F2000123E040F2FF3187
:1030C000C4F20101884213DC41F60001C4F20001A0
:1030D000884219D0002113E040F60001C4F200013B
:1030E000884211D040F60041C4F200010AE000BF5E
:1030F00044F20001C4F20101884205D040F20041CF
:10310000C4F20101884206D1816801F00701062955
:1031100004BF00207047016841F0010101600020F8
:103120007047000080B590F83C20012A4FF0020261
:1031300000F0C28080F83D20D0F800C04FF67772D2
:10314000DCF8083023EA0202CCF808200B684F2B89
:1031500028DC1F2B44DD202B45D0302B43D0402BC7
:1031600040F0AC80D1F804E0C968DCF82030DCF82D
:10317000202022F00102CCF82020DCF8182022F0D8
:10318000F00242EA011123F00A0242EA0E02CCF8F0
:103190001810CCF82020DCF8081041F0470121F08D
:1031A000300180E06F2B27DDB3F5005F48D0B3F529
:1031B000805F7AD0702B40F08180D1E901E3C9684B
:1031C000DCF8082043EA0E0322F47F4243EA01219F
:1031D0001143CCF80810DCF8081041F0770162E0E8
:1031E0000BB1102B6AD1DCF8081021F070011943E3
:1031F00041F0070157E000BF502B35D0602B5DD167
:10320000D1F804E0C968DCF8203023F01003CCF8D2
:103210002030DCF81830DCF8202023F4704322F052
:10322000A00243EA013142EA0E12CCF81810CCF8A1
:103230002020DCF8081041F0670121F0100132E095
:10324000D1E901E3C968DCF8082043EA0E0322F45F
:103250007F4243EA01211143CCF80810DCF8081042
:1032600041F480411FE000BFD1F804E0C968DCF8F8
:103270002030DCF8202022F00102CCF82020DCF8FD
:10328000182022F0F00242EA011123F00A0242EA79
:103290000E02CCF81810CCF82020DCF8081041F011
:1032A000570121F02001CCF808100022012180F8FC
:1032B0003D10002180F83C10104680BD0122F5E74A
:1032C0007047000010B5016804460869800744BFD4
:1032D000C8685FEA807039D40869400744BFC8688D
:1032E0005FEA40703ED40869000744BFC8685FEADF
:1032F000007045D40869C00644BFC8685FEAC06072
:103300004AD40869C0071CBFC8685FEAC07051D1C1
:103310000869000644BFC8685FEA006052D40869C3
:10332000400644BFC8685FEA406053D4086980061D
:1033300046BFC8685FEA806010BD6FF0200220467B
:103340000A61BDE81040FFF7F1BD00BF6FF0020059
:103350000861012020778869800743D02046FFF765
:10336000AFFF45E06FF00400086102202077886914
:1033700010F4407F40D02046FFF7A2FF42E000BF9C
:103380006FF00800086104202077C86980073DD0ED
:103390002046FFF795FF3FE06FF01000086108201E
:1033A0002077C86910F4407F3AD02046FFF788FFA5
:1033B0003CE000BF6FF001000861204600F03EF8DD
:1033C0002168A5E76FF0800008612046FFF7ACFD9B
:1033D0002168A4E76FF040000861204600F038F84B
:1033E0002168A3E7204600F025F8204600F024F8E5
:1033F0002168002020776FE7204600F01BF8204668
:1034000000F01AF82168002020776CE7204600F0D1
:1034100011F8204600F010F821680020207769E7B5
:10342000204600F007F8204600F006F8216800204A
:10343000207766E7704700007047000000680021B1
:10344000C4F20101884218BF7047FFF789B9000034
:1034500070470000002804BF0120704710B50446E3
:1034600090F83D0028B9002084F83C00204600F088
:1034700021F8242084F83D002068C16821F400511F
:10348000C160204600F02AFC2068016921F49041C7
:103490000161416921F02A014161C16841F4005193
:1034A000C16000202021206484F83D1084F83E1083
:1034B00010BD000080B586B0016844F60000C4F27B
:1034C0000000814202D006B080BD00BF002143F65B
:1034D00030020191C4F20202136900F5E23043F4B4
:1034E00080231361136903F480230193019B0191ED
:1034F000136843F008031360126802F00802019297
:10350000019A4FF4407201920222CDE90221032177
:1035100004910721059101A9FEF70CFF06B080BDBB
:10352000FEE7000010B582B0044600210068636920
:10353000019101AA0121984700282DD420686369D0
:1035400001AA01219847002826D49DF804004007CD
:1035500002D4012002B010BD2068636901AA0021D5
:103560009847002818D40199C80407D401F40450DE
:10357000B0F5045F14D1022002B010BD2068636969
:1035800001AA1F219847002806D40198C10411D42C
:10359000062002B010BD00BF6FF0040002B010BDE5
:1035A000C8054FF0040058BF0520890448BF032018
:1035B00002B010BD00F01C001828DCD0142805D083
:1035C000082814BF0520032002B010BD042002B05B
:1035D00010BD0000F0B581B00446406800210091A4
:1035E00070B1A06980470546A0698047401BB0F5CF
:1035F000FA6FF9D9012000256060284601B0F0BDBE
:10360000A068002818BF8047202000256F460026AC
:10361000206004E06FF004050136202E0ED06369AF
:10362000304612213A4698470028F3D4009800F01B
:103630001F008642F0D10025266000E026681F2E7C
:1036400088BF6FF00205002DD7D1236930460021D5
:103650004FF40042984700281ED4206863696A46E8
:103660000021984700281DD4A069804706466F4670
:103670006FF004059DF801000006B2D5A0698047EF
:10368000801BB0F5FA7F13D82068636900213A46A1
:1036900098470028EED5B0E76FF00305284601B043
:1036A000F0BD00BF6FF00405284601B0F0BD00BFBB
:1036B0006FF00105284601B0F0BD000080B598B15B
:1036C000CA688AB18B687BB1D1F810C0BCF1000F19
:1036D0000AD0D1E900E1C0E90432C0E902E1C0F852
:1036E00018C0002080BD00BF4FF0FF3080BD00003B
:1036F00080B543F6A52047F28412C0F60000C0F65C
:103700000102002108F022FC40F25C51C2F20001EB
:10371000086080BDF0B587B0002643F63000CDE9E3
:1037200005660196C4F20200016840F2004441F0CF
:10373000100101600168C4F2020401F0100101915E
:10374000019901960168002241F0040101600168BD
:103750004FF4814701F0040101910199019601683C
:1037600041F080010160016801F08001019101993F
:103770000196016841F001010160016801F0010159
:10378000019101990196016841F0200101600168F1
:1037900001F02001019101990196016841F00201B7
:1037A0000160016801F0020101910199019601682F
:1037B00041F008010160016801F0080101910199DF
:1037C0000196016841F04001016000684FF48141B9
:1037D00000F04000019001982046FEF785FE082089
:1037E00002904FF4881002ADCDE9030604F5406065
:1037F0002946FEF79FFD4FF48050CDE9020604F5FF
:10380000805029460496FEF795FD0120CDE9030678
:103810002046294602970596FEF78CFD09200521D2
:103820000022FFF757F80920FFF740F807B0F0BD76
:1038300080B540F2186045F20041C2F20000C4F2C7
:10384000000141F6802200234FF4804CC0F20602B2
:1038500080E80E00C0E9033CC0E90533C0E9073346
:10386000FEF78CFE002818BFFDF762FE40F21860DC
:10387000C2F200000021FEF743FE002818BFFDF74A
:1038800057FE40F21860C2F200000021FEF756FE1B
:10389000002808BF80BDBDE88040FDF749BE00009C
:1038A000B0B584B000200021002510F0F1F840F2FE
:1038B000A404C2F2000447F2ED1022462346C0F6EB
:1038C0000000256042F8045F43F8085F43F6653C5A
:1038D000CDE9005004F13005C0F6010C2846214620
:1038E000CDF808C007F02EFE284607F0C9FF94F86F
:1038F0006100400704D4284607F0C8FF03E000BF7A
:10390000284608F073F847F23901C0F6000128464E
:1039100007F0EAFF0EA044F80C0F00204FF480617E
:103920001022C4E90100C4E90300C4E90512C4E996
:10393000070047F23D00C0F600002946224608F085
:1039400005FB284604B0BDE8B04002F093B800BFC4
:103950004574684C696E6B0080B586B040F2B46007
:103960000021C2F200004FF0804253234FF0FF3C91
:103970000591CDE90311CDE90011C0E90023C0E9AB
:10398000021C01618161FFF72FFB002818BFFDF7C2
:10399000CFFD4FF48050029040F2B460C2F20000BC
:1039A00002A9FFF7BFFB002818BFFDF7C1FD40F2D9
:1039B000B460C2F200006946FFF7BAFA002818BFE7
:1039C000FDF7B6FD06B080BD80B540F2FC6044F660
:1039D0000001C2F20000C4F2000100234FF00C0C01
:1039E0004FF4E13280E80E00C0E90333C0E905C3BB
:1039F000C361FFF72FFD002808BF80BDBDE88040F0
:103A0000FDF796BDFEE70000FEE7000000000000A5
:103A1000EFF30980BFF36F8F154B1A681EF0100F7C
:103A200008BF20ED108A20E9F04F10602DE9090051
:103A30004FF0500080F31188BFF34F8FBFF36F8FAB
:103A400011F0FEFB4FF0000080F31188BDE8090083
:103A500019680868B0E8F04F1EF0100F08BFB0EC0E
:103A6000108A80F30988BFF36F8F704700BF00BFD3
:103A70000C01002000000000000000000000000019
:103A8000074B19680868B0E8F04F80F30988BFF366
:103A90006F8F4FF0000080F31188704700BF00BFA8
:103AA0000C010020FFF7FCFE012007F0D3FFFBE72D
:103AB00080B54EF21000CEF20000006812F01CFC3F
:103AC000012808BF80BDBDE8804011F0D9BC0000CE
:103AD000B0B592B0002443F64000CDE90A44CDE9E8
:103AE00008440594CDE90344CDE901440094C4F2AF
:103AF00002000168022541F080510160006800F079
:103B000080500090009847F200000094C4F200003A
:103B1000016841F440410160006800F440400090B9
:103B20000098012006904FF4803007904FF48000F9
:103B30000D9004200E90A820CDE90F0507201190CC
:103B400006A80C95FFF736F820B1EFF3108072B697
:103B5000FEE700BF0F20CDE901054FF4A05004900F
:103B60004FF48050059001A805210394FEF7EEFE66
:103B700020B1EFF3108072B6FEE700BF12B0B0BD07
:103B80004EF68850CEF20000016841F470010160E9
:103B90007047000040F26C60C2F20000FFF792BB79
:103BA00010B540F6FF3E0368C4F2000E40F2004C30
:103BB0007045C4F2010C27DCB0F1804F31D040F2E7
:103BC0000042C4F2000290422BD040F60002C4F240
:103BD0000002904225D041F6FF72C4F200029042EA
:103BE00029DC70453CDCB0F1804F5FD040F20042F0
:103BF000C4F20002904259D040F60002C4F2000222
:103C0000904253D056E000BF40F60042C4F200029A
:103C1000904206D0604504D00022C4F201029042D6
:103C2000D9D14A6823F07003134341F6FF72C4F2FE
:103C300000029042D5DD43F6FF72C4F201029042C9
:103C400022DC42F20002C4F2000290422ED0002296
:103C5000C4F20102904229D0604527D02AE000BF7B
:103C600040F60042C4F2000290421FD041F600022A
:103C7000C4F20002904219D041F60042C4F20002A0
:103C8000904213D016E000BF44F20002C4F20102D9
:103C900090420BD044F60002C4F20102904205D0DB
:103CA00044F20042C4F20102904203D1CA6823F4F4
:103CB0004073134323F080024B69D1F800E08C6815
:103CC0001A430260C46240F48062C0F828E0624592
:103CD00004BF096901630121416110BD10B50446AB
:103CE0000068D4E902C22369016921F440511143FB
:103CF0000161626943EA0C01E3691143C268194337
:103D000049F20C639A431143C1604169A26921F4ED
:103D1000407141F20043114340F48062C4F2010358
:103D20009A42416102D1FEF7FBFE01E0FEF7E4FE9C
:103D3000E16963681922B1F5004FA0FB020123D1AC
:103D40005A00DB0FFCF74EFA48F21F51C5F2EB1197
:103D5000A0FB01235A094FF69C73C0F6FF7303F1D1
:103D6000805302FB0300322303EBC000A0FB0101E0
:103D70004FF4F87000EA111000EB0210C1F3421189
:103D800008442168886010BD9A009B0FFCF72AFA4E
:103D900048F21F51C5F2EB11A0FB01235A094FF65F
:103DA0009C73C0F6FF7302FB0300322303EB001089
:103DB000A0FB0101F02000EA511000EB0210C1F35A
:103DC000431108442168886010BD0000FEE7000030
:103DD000002800F0A7802DE9F04784B0446A05462A
:103DE000002C00F09C806079082840F098800868DA
:103DF000E169884240F093800C20A4F8050000207F
:103E000020810DF10E0328462146042200F0E4FA39
:103E100000287DD08046BDF80E6040683F2E00F13E
:103E2000F0090FD347F2263047F66F6147F6B163CA
:103E3000C0F60100C0F60101C0F6010340F29A523B
:103E400012F098FC701C322180B2042209F806108E
:103E500009F80020E069B11C1FFA81FAADF80E10D4
:103E600004F0C6FCBAF1410F07460FD347F22630E3
:103E700047F6356147F6B163C0F60100C0F60101AF
:103E8000C0F6010340F2B75212F074FC380EF11C78
:103E900009F80A00380C89B209F80100711D321DB9
:103EA00089B2380A92B209F80170F11D09F80200CE
:103EB000B01D8BB282B2432B4FF0FF03ADF80E0062
:103EC00009F8023009D819FA81F0C6F13C01012243
:103ED00012FA81F1FCF7FFF94320F13081B240463C
:103EE00008F0C6FD40F28820C2F20000406847F2A8
:103EF000B41747F2B812C0F60107C0F601024146F6
:103F000043230095019710F015FC404608F02EFC65
:103F1000A079FF281CBF0130A0711420208104B0BB
:103F2000BDE8F08747F2263047F6B75147F6B16350
:103F3000C0F60100C0F60101C0F6010340F28B3269
:103F400012F018BC80B582B0002841D0416A002927
:103F50004ED08B6A002248F6890C4A825A1CC8F659
:103F6000880C0DD01E33A3FB0C324FEA521E4FF6C5
:103F7000FF739E4538BF5309002B08BF01238B8276
:103F8000CB6A5A1C0FD003F11E02A2FB0C234FEA8E
:103F9000531E4FF6FF72964538BF5A09002A08BFD4
:103FA00001224A81CA810B6B5A1C31D003F11E02D7
:103FB000A2FB0C234FEA531C4FF6FF72944538BF07
:103FC0005A09002A08BF01228A810A8221E000BF23
:103FD00047F2263047F6B163C0F601002DA1C0F6C6
:103FE000010340F2154202B0BDE8804012F0C2BBAE
:103FF00047F2263047F6B163C0F601001FA1C0F6B4
:10400000010340F2174202B0BDE8804012F0B2BB9B
:104010008A894B89013A92B29A423CBF00224A8176
:10402000CA790AB10A6A0CE091F91C20002A01D46D
:10403000FF2206E0D2B2C02A34BF4FF6FF726FF003
:104040007F424B6A0192009373B14A790A2A04D0E5
:104050000A22A1F8052000220A811C3101AA6B4620
:1040600007F090FB02B080BDCB691A4042F080722D
:1040700000924A790A2AF0D0EAE700BF64686370C8
:104080005F62696E643A206468637020213D204E4F
:10409000554C4C00646863705F62696E643A206ED0
:1040A0006574696620213D204E554C4C000000008F
:1040B00010B5446A6179082904D00821A4F80510D4
:1040C0000021218104F11C01002202F05FFDA07992
:1040D000FF281CBF0130A0710120208110BD00000D
:1040E0002DE9F04F83B040F24020C2F20000046896
:1040F000002C00F06D81012540F2224940F2324649
:104100000DF10A0A0AE000BF204601F0E5F820465A
:1041100001F0B0FC2468002C00F05A81D4F824B0DF
:10412000BBF1000FF6D09BF805000028F2D0BBF8D9
:10413000141039B1BBF81220013293B28B42ABF8A4
:104140001220E1D0BBF8101021B101390A04ABF8FC
:1041500010101FD0BBF80E100029DBD001390A0463
:10416000ABF80E10D6D10A28D4D805FA00F010EA20
:10417000090FCFD0204601F089F9BBF80C00BBF83D
:104180001210401A0228A2BF80B24008ABF80E00FD
:10419000C0E700BF0A28BDD805FA00F13142B9D006
:1041A000042805D00420ABF805000020ABF8080077
:1041B000204659460322534600F00EF9002800F02D
:1041C000DA80BDF80A9045688046B9F1410F0FD3F7
:1041D00047F2263047F66F6147F6B163C0F601003B
:1041E000C0F6010140F29A52C0F6010312F0C2FA81
:1041F00009F1010005F1F006392180B2022206F82A
:10420000091009F1020132548FB2258D432FADF808
:104210000A100FD347F2263047F6FA5147F6B1633A
:10422000C0F60100C0F6010140F2AE52C0F6010333
:1042300012F0A0FA280A09F10301F05509F104006F
:1042400089B2755485B2402DADF80A000FD347F2FC
:10425000263047F66F6147F6B163C0F60100C0F63D
:10426000010140F29A52C0F6010312F083FA37219D
:10427000715509F1060109F105008DB280B20322E2
:10428000442D3254ADF80A100FD347F2263047F6CA
:10429000C55147F6B163C0F60100C0F6010140F216
:1042A000A652C0F6010312F065FA09F1070087B2C1
:1042B0000121442F7155ADF80A000FD347F2263083
:1042C00047F6C55147F6B163C0F60100C0F60101DB
:1042D00040F2A652C0F6010312F04CFA09F10800B0
:1042E00085B20321442DF155ADF80A000FD347F2F2
:1042F000263047F6C55147F6B163C0F60100C0F657
:10430000010140F2A652C0F6010312F033FA1C215B
:10431000715509F10A0109F109008AB2432A82B2F2
:104320004FF0FF034FF00105ADF80A00B35408D871
:1043300016FA81F0C9F1390115FA81F1FBF7CBFFCB
:104340004320F13081B2404608F092FB40F28820D1
:10435000C2F20000406847F2B8124146C0F60102BE
:104360004323009410F052F9404608F0FFF940F260
:10437000224940F232469BF8060055FA80F1CAB253
:104380008A4201D0142014E04FF47A735A4340F269
:10439000F31313FA82F244F6D353C0B2C1F26203AC
:1043A00009284FF01400A2FB03238BF8061038BF36
:1043B0005809BBF81410BBF81220ABF80800891A92
:1043C0000229FFF6A7AE88B24008ABF81000A1E6BC
:1043D00003B0BDE8F08F00002DE9F04381B068B371
:1043E0000C46B9B39146074636204FF49A714FF404
:1043F0002072984607F038FE00283DD005464089D7
:1044000080084C280CD847F2263047F6B163C0F636
:10441000010046A1C0F6010340F2727212F0AAF93F
:10442000B9F1030F02D16079032833D1A07948B3E1
:1044300040F26050C2F2000000682AE047F22630E5
:1044400047F6B163C0F6010050A1C0F6010340F287
:1044500069720AE047F2263047F6B163C0F6010000
:1044600042A1C0F6010340F26A7212F083F90025FE
:10447000284601B0BDE8F0830025284601B0BDE81C
:10448000F08300BFFBF7EEFE40F26051C2F2000184
:10449000086020606E684FF49971B01CFBF71BFF39
:1044A00040F20110308097F830102068B17004F0AD
:1044B0009FF9A9F10701022970600AD3B9F1040F2D
:1044C00007D0B9F1030F06D1607900F0FE0004288F
:1044D00001D17868F06097F82A00B8F1000F3077C2
:1044E00097F82B00707797F82C00B07797F82D008D
:1044F000F07797F82E0086F8200097F82F0086F8BE
:10450000F29086F8210048F26320C6F25330C6F8D4
:10451000EC0040F23510A6F8F0001CBF0320A8F80C
:104520000000284601B0BDE8F08300BF64686370F6
:104530005F6372656174655F6D73673A2063686578
:10454000636B207468617420666972737420706292
:1045500075662063616E20686F6C64207374727579
:10456000637420646863705F6D7367006468637070
:104570005F6372656174655F6D73673A2064686339
:104580007020213D204E554C4C0000006468637043
:104590005F6372656174655F6D73673A206E657401
:1045A000696620213D204E554C4C00002DE9F04F0E
:1045B00083B0D0F824B081469BF80510002006296E
:1045C000CBF81C001EBF0621ABF80510ABF80800A5
:1045D0000DF10A034846594601224FF00108FFF742
:1045E000FBFE002800F0D3808246BDF80A704068C8
:1045F000412F00F1F0050FD347F2263047F66F61E7
:1046000047F6B163C0F60100C0F60101C0F6010330
:1046100040F29A5212F0AEF8781C392180B2022290
:10462000E955B91C2A548EB2B9F82840432EADF88A
:104630000A100FD347F2263047F6FA5147F6B16316
:10464000C0F60100C0F60101C0F6010340F2AE520F
:1046500012F090F8200AF91CA855381D89B26C5444
:1046600084B2402CADF80A000FD347F2263047F64B
:104670006F6147F6B163C0F60100C0F60101C0F6F4
:10468000010340F29A5212F075F837212955B91DED
:10469000781D8EB280B20322442E2A54ADF80A103F
:1046A0000FD347F2263047F6C55147F6B163C0F63F
:1046B0000100C0F60101C0F6010340F2A65212F05B
:1046C00059F8F81D84B20121442CA955ADF80A000F
:1046D0000FD347F2263047F6C55147F6B163C0F60F
:1046E0000100C0F60101C0F6010340F2A65212F02B
:1046F00041F807F1080086B20321442E2955ADF890
:104700000A000FD347F2263047F6C55147F6B1638A
:10471000C0F60100C0F60101C0F6010340F2A65246
:1047200012F028F81C21A95507F10A0107F1090028
:104730008BB282B2432B4FF0FF03ADF80A00AB54AB
:1047400009D815FA81F0C7F13901012212FA81F175
:10475000FBF7C1FD4320F13081B2504608F088F9E3
:1047600040F28820C2F20000406847F2B41747F2D6
:10477000B812C0F60107C0F6010251464323CDF836
:10478000009001970FF0D6FF504607F0EFFF9BF81F
:104790000610782058FA81F2D3B2934213D14FF425
:1047A0007A7707FA03F340F2F31717FA83F344F624
:1047B000D357C1F26207C9B2A3FB07378BF80620B3
:1047C000052938BF7809ABF8080003B0BDE8F08FC1
:1047D000F0B581B040F24020C2F200000468002C25
:1047E0004ED00025012604E0013838812468002CD1
:1047F00046D0676A002FF9D038890228F4D2012800
:10480000F4D178793D8101380B28EFD8DFE800F04A
:10481000080610060618061C06060618E6E700BF7E
:10482000B879052820D8204600F03CFFDEE700BF1D
:10483000B879012804D8204600F016F9D6E700BF61
:104840002046FFF7B3FED1E7B879012814D807F165
:104850001C012046002202F099F9B879FF281CBFFC
:104860000130B8713E81C1E7204600F035FD204699
:1048700001F000F9BAE700BF2046FFF763FBB5E798
:1048800001B0F0BDB0B540F28825C2F20005EA7A69
:1048900004460020C4E90800002A1CBFE869A062A1
:1048A000287B28B1286A6A7BE0623AB1686A09E02D
:1048B000A06A40086A7BE062002AF7D1A06AC0EBD8
:1048C000C000C0082063A87B0969E16130B1A86A13
:1048D00003F08EFF2062012001E000BF0020E071A4
:1048E000E87B002808BFB0BDE86A03F081FF606282
:1048F000B0BD000010B50446406A41790C2904D0CF
:104900000C21A0F805100021018147F2B411C0F676
:10491000010120460A460B4606F034FF2046BDE85A
:104920001040FFF743BE000070B540F28822C2F28B
:104930000002937A002B08BF70BD0446466A906956
:104940000D460021318103F053FF2969B0612046F3
:10495000F161BDE8704000F0A5BE0000B0B540F2C6
:104960008825C2F20005287858BB686858B147F21C
:10497000263047F6B163C0F6010016A1C0F6010368
:10498000E52211F0F7FE0FF0CBFD6860F0B1417A3F
:1049900047F2B41441F02001C0F6010441722146EF
:1049A00044220FF069FA6868214643220FF02EFB7B
:1049B000686844F60D51C0F6000100220FF0C4FDF6
:1049C000287801302870002040B2B0BDFF2040B2EE
:1049D000B0BD00BF646863705F696E635F706362DF
:1049E0005F726566636F756E7428293A206D656D18
:1049F0006F7279206C65616B00000000B0B5456A8C
:104A000085B104466879C11E032904D3002808BF74
:104A1000B0BD0A2808D100212046A971BDE8B040E8
:104A200000F022B8B0BD00BF0D280CD347F22630ED
:104A300047F6B163C0F6010006A1C0F6010340F2DB
:104A40006D3211F097FE00212046A971BDE8B040FB
:104A5000FFF7ACBD696E76616C6964206468637051
:104A60002D3E7374617465002DE9F04782B0D0F873
:104A700024A080469AF80500032805D00320AAF850
:104A800005000020AAF808000DF106034046514633
:104A90000322FFF7A1FC002800F016818146BDF833
:104AA00006504068412D00F1F0060FD347F2263042
:104AB00047F66F6147F6B163C0F60100C0F6010129
:104AC000C0F6010340F29A5211F054FE392171559B
:104AD000A91C681C8CB280B20227432C3754ADF855
:104AE00006100FD347F2263047F6FA5147F6B16366
:104AF000C0F60100C0F60101C0F6010340F2AE525B
:104B000011F038FE291DE81C37558CB280B24022C6
:104B10003F2C3254ADF806100FD347F2263047F63B
:104B20006F6147F6B163C0F60100C0F60101C0F63F
:104B3000010340F29A5211F01DFE681D322180B22D
:104B4000042231553254DAF81C00A91D8CB2ADF89C
:104B5000061003F04DFE412C07460FD347F22630D6
:104B600047F6356147F6B163C0F60100C0F60101B2
:104B7000C0F6010340F2B75211F0FCFD380EE91DFA
:104B80003055380C05F1080289B27054380A92B2D7
:104B9000B05405F10A0005F1090184B289B2402C34
:104BA0007754ADF806000FD347F2263047F66F6111
:104BB00047F6B163C0F60100C0F60101C0F601037B
:104BC00040F29A5211F0D6FD3721315505F10C0112
:104BD00005F10B008CB280B20322442C3254ADF8A4
:104BE00006100FD347F2263047F6C55147F6B1639A
:104BF000C0F60100C0F60101C0F6010340F2A65262
:104C000011F0B8FD05F10D0087B20121442F315597
:104C1000ADF806000FD347F2263047F6C55147F6E8
:104C2000B163C0F60100C0F60101C0F6010340F215
:104C3000A65211F09FFD05F10E0084B20321442C11
:104C4000F155ADF806000FD347F2263047F6C551AF
:104C500047F6B163C0F60100C0F60101C0F60103DA
:104C600040F2A65211F086FD1C21315505F11001CC
:104C700005F10F008BB282B2432B4FF0FF03ADF86A
:104C80000600B35409D816FA81F0C5F133010122A8
:104C900012FA81F1FBF71FFB4320F13081B2484645
:104CA00007F0E6FE40F28820C2F20000406847F2BA
:104CB000B812C0F6010249464323CDF800800FF038
:104CC000A5FC484607F052FD9AF80610012050FA5C
:104CD00081F2D3B293424FF0140012D14FF47A779D
:104CE0007B4340F2F31717FA83F344F6D357C1F22C
:104CF0006207C9B2A3FB07378AF80620092938BF23
:104D00007809AAF8080002B0BDE8F0872DE9F04F55
:104D100085B040F24070C2F20000456814466E6AE9
:104D200086B3307970B360892C282BD36068017802
:104D3000022927D195F83010A1B10139C9B295F8EF
:104D40002A20037F052928BF05219A421AD149B19B
:104D500095F82B20437F9A4214D10131C9B2022920
:104D600040F06881406803F043FD3168884209D112
:104D700040F28820C2F200000021C0E902116089DF
:104D80002C2805D2204607F0F1FC05B0BDE8F08FD5
:104D9000B4F80880F0204FF6FD7A002101912746F3
:104DA000798982B28A4225D33F68002FEAD0401A1F
:104DB0007A8983B29342A8EB01081BD33F68002F86
:104DC000E0D0801A798983B28B42A8EB020811D314
:104DD0003F68002FD6D0401A7A8983B29342A8EB5D
:104DE000010807D33F68801A002FA8EB0208D7D12B
:104DF000C8E700BF1FFA88F182B28A42009280F0B1
:104E000007817968039105E01FFA88F182B28A422E
:104E100080F0E08003991FFA80FB11F80B10FF2946
:104E200000F0D880D345ADD8B7F80AC00BF1010324
:104E3000634507D2039A134493F800E03B290ED947
:104E400036E000BF3B682BB15B6893F800E03B297C
:104E500005D92DE04FF0000E3B2900F22980DFE854
:104E600001F01F21272F2727272727272727272735
:104E700027272727272727272727272727272727C2
:104E800027272727272727272727272727272727B2
:104E900027272727273B414D552727275B6300BF3F
:104EA000013082E0BEF1040F40F00081062240E0B4
:104EB0000EEB0B0050453FF665AF023075E000BFCA
:104EC000BEF1030F40F20281F344D3453FF65AAFDF
:104ED00007224FF0040932E0BEF1040F40F00281D6
:104EE000032226E0BEF1010F40F00C810099F02969
:104EF00040F0588100224FF001091CE0BEF1010F83
:104F000040F010814FF00109012214E0BEF1040FBE
:104F100040F0188102220CE0BEF1040F40F0228123
:104F20004FF00409042206E0BEF1040F40F02A818C
:104F300005224FF00409F344D3453FF623AF40F276
:104F40008821C2F2000101EB020A9AF80810002938
:104F50004FF00001049124D10230029283B238460E
:104F600004A94A4607F086FB48457FF40BAFB9F128
:104F7000010F07D0B9F1040F40F08C80049803F0C2
:104F800037FC01E09DF8100001218AF8081040F27A
:104F90008821029AC2F20001B7F80AC001EB82012F
:104FA00008610BF102004FF6FD7A81B26145FFF412
:104FB0002BAFA0EB0C00A8EB0C0881B21FFA88F213
:104FC0009142BFF4DFAE3F68002F57D0796803915C
:104FD0001AE700BF40F28820C2F20000007AB8B1A0
:104FE00040F28820C2F200000169002202724FF0F4
:104FF000EC0801294FF06C003FF4D1AE022913D028
:10500000032905D101204FF0EC0801906C20C6E681
:1050100001994FF06C082C2000294FF000010191FC
:105020007FF4BDAED2E000BF00204FF06C080190CD
:105030002C20B4E695F82C20837F9A427FF4A2AE10
:1050400003293FF48FAE95F82D20C37F9A427FF459
:1050500099AE04293FF486AE95F82E2090F82030C2
:105060009A427FF48FAE05293FF47CAE95F82F105D
:1050700090F8212091423FF475AE83E647F2263046
:1050800047F6B163C0F601008EA1C0F6010340F2FD
:105090009D6292E047F2263047F6B163C0F6010008
:1050A00083A1C0F601034FF4D26286E047F22630B6
:1050B00047F6AE5147F6B163C0F60100C0F60101F4
:1050C000C0F6010340F22E6277E000BF47F22630BF
:1050D00047F6B163C0F6010070A1C0F6010340F2CB
:1050E00033626AE047F2263047F6AE5147F6B163C5
:1050F000C0F60100C0F60101C0F6010340F24162B2
:105100005BE000BF47F2263047F6A55147F6B16392
:10511000C0F60100C0F60101C0F6010340F24F6283
:105120004BE000BF47F2263047F6A55147F6B16382
:10513000C0F60100C0F60101C0F6010340F255625D
:105140003BE000BF47F2263047F6AE5147F6B16369
:10515000C0F60100C0F60101C0F6010340F2596239
:105160002BE000BF47F2263047F6AE5147F6B16359
:10517000C0F60100C0F60101C0F6010340F25D6215
:105180001BE000BF47F2263047F6AE5147F6B16349
:10519000C0F60100C0F60101C0F6010340F26162F1
:1051A0000BE000BF47F2263047F6B163C0F60100BE
:1051B00034A1C0F6010340F2516211F0DBFA20463F
:1051C00007F0D4FA05B0BDE8F08F00BF40F28820A8
:1051D000C2F20000407A00283FF4D4AD40F28820AB
:1051E000C2F20000007D6168022815D0062821D097
:1051F00005287FF4C7AD7079C21E032A2ED2686AD3
:10520000FFF740FB2846FEF79DFE204607F0AEFA6A
:1052100005B0BDE8F08F00BF707906287FF4B2AD0D
:105220002846FFF781FB204607F0A0FA05B0BDE84D
:10523000F08F00BF707905283FF6A4AD012101FA77
:1052400000F010F03A0F3FF49DAD2846FFF752FBF7
:10525000204607F08BFA05B0BDE8F08F01287FF4F7
:1052600091AD686AFFF70EFB95F831000007C9D5CC
:105270002846FEF71DFF204607F078FA05B0BDE886
:10528000F08F00BF6F7665726C6F616420696E206D
:1052900066696C652F736E616D6500006C656E20CC
:1052A0003E3D206465636F64655F6C656E00000061
:1052B000696E76616C6964206465636F64655F6CB8
:1052C000656E00006E657874207062756620776187
:1052D00073206E756C6C00002DE9F04F83B0446A4A
:1052E000002C00F0B28082466079002800F0AD808A
:1052F000A16940F28828029100210A28C2F2000820
:10530000C4F81210C4F80E10C4E90611C4E908115B
:10531000C4E90A1121637CD8012101FA00F010F4DC
:10532000866F76D00DF10603504621460722FFF71F
:1053300053F800286DD08146BDF8066040683F2EC6
:1053400000F1F0050FD347F2263047F66F6147F6BC
:10535000B163C0F60100C0F60101C0F6010340F2DE
:105360009A5211F007FA701C362180B20422A95516
:105370002A540298B11C1FFA81FBADF8061003F005
:1053800037FABBF1410F07460FD347F2263047F6F5
:10539000356147F6B163C0F60100C0F60101C0F601
:1053A000010340F2B75211F0E5F9380EF11C05F88F
:1053B0000B00380C89B26854711D321D89B2380A4D
:1053C00092B26F54F11DA854B01D8BB282B2432B20
:1053D0004FF0FF03ADF80600AB5409D815FA81F081
:1053E000C6F13C01012212FA81F1FAF774FF432061
:1053F000F13081B2484607F03BFBD8F8040002AA1E
:1054000049464323CDF800A00FF000F9484607F0C5
:10541000ADF947F2B411C0F6010150460A460B46F9
:1054200006F0B0F9607900281EBF0020A4F805003E
:105430002081207948B198F8000048B10138010670
:1054400088F800001AD00020207103B0BDE8F08F6A
:1054500047F2263047F6E66147F6B163C0F6010031
:10546000C0F60101C0F60103FF2211F083F998F89C
:1054700000000138010688F80000E4D1D8F80400E3
:105480000FF080F80020C8F80400DCE72DE9F047B1
:1054900082B0D0F824A080469AF80500052805D0EF
:1054A0000520AAF805000020AAF808000DF106035F
:1054B000404651460322FEF78FFF002800F0CE80C1
:1054C0008146BDF806704068412F00F1F0050FD30A
:1054D00047F2263047F66F6147F6B163C0F6010028
:1054E000C0F60101C0F6010340F29A5211F042F9F0
:1054F000781C392180B20222E955B91C2A548EB297
:10550000B8F82840432EADF806100FD347F22630E6
:1055100047F6FA5147F6B163C0F60100C0F6010143
:10552000C0F6010340F2AE5211F024F9200AF91C32
:10553000A855381D89B26C5484B2402CADF80600D1
:105540000FD347F2263047F66F6147F6B163C0F6D6
:105550000100C0F60101C0F6010340F29A5211F0B9
:1055600009F937212955B91D781D8EB280B2032261
:10557000442E2A54ADF806100FD347F2263047F6D2
:10558000C55147F6B163C0F60100C0F60101C0F68F
:10559000010340F2A65211F0EDF8F81D84B201218A
:1055A000442CA955ADF806000FD347F2263047F634
:1055B000C55147F6B163C0F60100C0F60101C0F65F
:1055C000010340F2A65211F0D5F807F1080086B2A7
:1055D0000321442E2955ADF806000FD347F226309B
:1055E00047F6C55147F6B163C0F60100C0F60101A8
:1055F000C0F6010340F2A65211F0BCF81C21A955D7
:1056000007F10A0107F109008BB282B2432B4FF078
:10561000FF03ADF80600AB5409D815FA81F0C7F1C5
:105620003901012212FA81F1FAF755FE4320F130D7
:1056300081B2484607F01CFA40F28820C2F200000E
:1056400040680AF1180249464323CDF800800EF065
:10565000DDFF0546484607F089F800E0FF259AF887
:105660000600012151FA80F2D3B293424FF0280193
:1056700012D14FF4FA677B4340F2F31717FA83F322
:1056800044F6D357C1F26207C0B2A3FB07378AF8CA
:105690000620092838BF790968B2AAF8081002B0B4
:1056A000BDE8F0872DE9F04784B0002800F0A6811E
:1056B000D0F824908246B9F1000F00F0AF8199F83C
:1056C0000500012805D00120A9F805000020A9F84F
:1056D00008000DF10E03504649460322FEF77CFEFA
:1056E000002800F067818046BDF80E604068412EBA
:1056F00000F1F0040FD347F2263047F66F6147F60A
:10570000B163C0F60100C0F60101C0F6010340F22A
:105710009A5211F02FF8701C392180B20222A15543
:10572000B11C22548DB2BAF82870432DADF80E107A
:105730000FD347F2263047F6FA5147F6B163C0F669
:105740000100C0F60101C0F6010340F2AE5211F0B3
:1057500011F8380A6055301DF11C85B289B23F2D11
:105760006754ADF80E000FD347F2263047F66F614D
:1057700047F6B163C0F60100C0F60101C0F60103AF
:1057800040F29A5210F0F6FF701D322180B20422CE
:1057900061552254D9F81C00B11D8DB2ADF80E1020
:1057A00003F026F8412D07460FD347F2263047F67F
:1057B000356147F6B163C0F60100C0F60101C0F6DD
:1057C000010340F2B75210F0D5FF380EF11D6055BD
:1057D000380C06F1080289B26054380A92B2A0541B
:1057E00006F10A0006F1090185B289B23F2D67541E
:1057F000ADF80E000FD347F2263047F66F6147F63B
:10580000B163C0F60100C0F60101C0F6010340F229
:105810009A5210F0AFFF06F10B00362180B204223D
:1058200061552254D9F8180006F10C018DB2ADF87B
:105830000E1002F0DDFF412D07460FD347F2263050
:1058400047F6356147F6B163C0F60100C0F60101C5
:10585000C0F6010340F2B75210F08CFF380E06F18B
:105860000D016055380C06F10E0289B26054380AF9
:1058700092B2A05406F1100006F10F0185B289B270
:10588000402D6754ADF80E000FD347F2263047F68F
:105890006F6147F6B163C0F60100C0F60101C0F6C2
:1058A000010340F29A5210F065FF3721615506F16D
:1058B000120106F111008DB280B20322442D225450
:1058C000ADF80E100FD347F2263047F6C55147F614
:1058D000B163C0F60100C0F60101C0F6010340F259
:1058E000A65210F047FF06F1130087B20121442FA2
:1058F0006155ADF80E000FD347F2263047F6C5517B
:1059000047F6B163C0F60100C0F60101C0F601031D
:1059100040F2A65210F02EFF06F1140085B20321CA
:10592000442DE155ADF80E000FD347F2263047F66F
:10593000C55147F6B163C0F60100C0F60101C0F6DB
:10594000010340F2A65210F015FF1C21615506F12B
:10595000160106F115008BB282B2432B4FF0FF0304
:10596000ADF80E00A35409D814FA81F0C6F12D0148
:10597000012212FA81F1FAF7AEFC4320F13081B234
:10598000404607F075F840F28820C2F200004068F7
:1059900047F2B41747F2B812C0F60107C0F6010289
:1059A00041464323CDF800A001970EF0C3FE4046C8
:1059B00006F0DCFE99F80610012050FA81F2D3B20D
:1059C00093424FF0780013D14FF47A7707FA03F33C
:1059D00040F2F31717FA83F344F6D357C1F2620784
:1059E000C9B2A3FB073789F80620052938BF780913
:1059F000A9F8080004B0BDE8F08700BF47F22630E0
:105A000047F6B163C0F6010013A1C0F6010340F2EE
:105A1000771204B0BDE8F04710F0ACBE47F2263074
:105A200047F6B163C0F6010004A1C0F6010340F2DD
:105A3000791204B0BDE8F04710F09CBE6468637052
:105A40005F73656C6563743A206468637020213D00
:105A5000204E554C4C000000646863705F73656CA9
:105A60006563743A206E6574696620213D204E5549
:105A70004C4C000070B5A8B1044690F83100C00746
:105A800024D147F2263047F6B163C0F6010037A1B2
:105A9000C0F601034FF43A7210F06CFEF02040B2F1
:105AA00070BD00BF47F2263047F6B75147F6B163E5
:105AB000C0F60100C0F60101C0F6010340F2E72282
:105AC00010F058FEF02040B270BD00BF208DB0F540
:105AD000107F30D3656A0DB3287928B340F2882649
