:020000040800F2
:100000008016012095020008B13A00080527000873
:10001000AD3A0008310900088D3E000800000000DC
:10002000000000000000000000000000313B00085C
:100030003509000800000000C13A0008613B0008D3
:10004000AF020008AF020008AF020008AF020008CC
:10005000AF020008AF020008AF020008AF020008BC
:10006000AF020008150C00081D0C0008AF020008C4
:10007000AF020008AF020008AF020008AF0200089C
:10008000AF020008AF020008AF020008AF0200088C
:10009000AF020008AF020008AF020008250C0008FC
:1000A000AF020008553C0008AF020008AF0200088C
:1000B000AF020008AF020008AF020008AF0200085C
:1000C000AF020008AF020008AF020008AF0200084C
:1000D000AF020008AF020008AF020008AF0200083C
:1000E000AF020008AF020008AF020008AF0200082C
:1000F000AF020008AF020008AF020008AF0200081C
:10010000AF020008AF020008AF020008AF0200080B
:10011000AF020008AF020008AF020008AF020008FB
:10012000AF020008AF020008AF020008AF020008EB
:10013000AF02000839090008AF020008AF0200084A
:10014000AF020008AF020008AF020008AF020008CB
:10015000AF020008AF020008AF020008AF020008BB
:10016000AF020008AF020008AF020008AF020008AB
:10017000AF020008AF020008AF0200080000000054
:10018000AF020008AF020008AF020008AF0200088B
:10019000AF020008AF020008AF020008AF0200087B
:1001A000AF020008AF020008AF02000800F002F83A
:1001B00000F046F80AA090E8000C82448344AAF1BB
:1001C0000107DA4501D100F03BF8AFF2090EBAE8B9
:1001D0000F0013F0010F18BFFB1A43F0010318477B
:1001E000C0B70600E0B70600103A24BF78C878C14F
:1001F000FAD8520724BF30C830C144BF04680C602D
:10020000704700000023002400250026103A28BF74
:1002100078C1FBD8520728BF30C148BF0B60704778
:10022000642900F03981732900F0E38200207047CF
:100230001FB512F05CFF00F080F91FBD10B510BDB6
:1002400000F040FB1146FFF7F3FF07F0F3FA00F070
:100250005EFB03B4FFF7F2FF03BC00F061FB00009C
:100260000B49D1F800C04A685CF8043B1068184498
:1002700042F8040B8C4528BFA1F1DC0C8A4228BF50
:10028000A1F1DC02C1F800C04A6020F000407047D4
:100290000C0100200948804709480047FEE7FEE7B7
:1002A000FEE7FEE7FEE7FEE7FEE7FEE7FEE7FEE726
:1002B00004480549054A064B70470000413C0008C8
:1002C000AD0100088010012080160120801201205D
:1002D0008012012053EA020C00F069802DE9F04BF6
:1002E0004FF00006002B1FBFB3FA83F503FA05F4A5
:1002F00024FA05F65E4012BF1643B2FA82F502FAFE
:1003000005F4C5F120051EBF22FA05FC44EA0C04E1
:10031000203556EA044C4FEA144418BF641C4FF0D1
:1003200000084FF00009904271EB030C39D300290B
:1003300019BFB1FA81F701FA07F6B0FA80F700FAAF
:1003400007F6C7F120071EBF20FA07FC46EA0C0695
:100350002037B6FBF4FCA7EB0507103F07F01F0B97
:10036000CBF120062CFA06F60CFA0BFB44BFB34681
:100370000026202FA4BF5E464FF0000B5BEA060C60
:1003800008BF4FF0010B19EB0B0948EB0608ABFB5C
:10039000027C06FB02CC0BFB03CCC01B71EB0C01F7
:1003A000C1E70B46024641464846BDE8F08B13B50F
:1003B000084318BF4FF0FF300146AFF30080BDE89F
:1003C0001C4070470FB4044910B503AA029800F00E
:1003D00015FA10BC5DF814FB0C0500202DE9F04166
:1003E0000E460446002020622046E168884730B36C
:1003F000252805D0D4E901219047206A401CF2E766
:10040000E168204600278847050018D0A5F1410083
:10041000192802D820354FF4006732462946204675
:100420002760FFF7FDFE40B1012804D0F61D26F03D
:1004300007060836D8E7361DD6E72846DAE7206AE9
:10044000BDE8F08170B50C460546012A05D0287834
:10045000800600D5EA69002302E0012305E05B1C69
:10046000934202D2E05C0028F9D1A869E618C01ACC
:10047000A861286A184428622846AFF3008004E087
:10048000D5E9012114F8010B9047B442F8D328466E
:10049000AFF3008070BD00002DE9F0410646002456
:1004A00010687529314616A510D0AFF300800028DA
:1004B00002DA404213A507E031688A0701D512A588
:1004C00002E0490704D511A5012401E0AFF3008043
:1004D00000210A2206F1240709E0B0FBF2FCB0FB80
:1004E000F2F302FB1C00303078541846491C0028F7
:1004F000F3D123462A463046BDE8F04100F00EB95C
:10050000000000002D0000002B0000002000000073
:100510000B4910B5A1F17C020A4CC2E93712372110
:1005200006E000EB104342F82130074B00FB03408C
:100530000B1EA1F10101F4DC10BD0120E8E7000071
:10054000AC000020E119D666CD0D010040EA0103A0
:1005500010B59B070FD1042A0DD310C808C9121F6C
:100560009C42F8D020BA19BA884201D9012010BDA6
:100570004FF0FF3010BD1AB1D30703D0521C07E073
:10058000002010BD10F8013B11F8014B1B1B07D1D7
:1005900010F8013B11F8014B1B1B01D1921EF1D148
:1005A000184610BD032A40F2308010F0030C00F012
:1005B000158011F8013BBCF1020F624498BF11F89D
:1005C00001CB00F8013B38BF11F8013BA2F1040256
:1005D00098BF00F801CB38BF00F8013B11F00303CE
:1005E00000F01E81083AC0F0088051F8043B083A38
:1005F00051F804CBA0E80810F5E7121D5CBF51F8D4
:10060000043B40F8043BAFF30080D20724BF11F84D
:10061000013B11F801CB48BF11F8012B24BF00F8B2
:10062000013B00F801CB48BF00F8012B70474FF0A9
:1006300000020429C0F0128010F0030C00F01B80AF
:10064000CCF1040CBCF1020F18BF00F8012BA8BFBD
:1006500020F8022BA1EB0C0100F00DB85FEAC17C81
:1006600024BF00F8012B00F8012B48BF00F8012B34
:1006700070474FF0000200B5134694469646203965
:1006800022BFA0E80C50A0E80C50B1F12001BFF44B
:10069000F7AF090728BFA0E80C5048BF0CC05DF8B1
:1006A00004EB890028BF40F8042B08BF704748BFFF
:1006B00020F8022B11F0804F18BF00F8012B704773
:1006C00010B5044610F0030F08BF11F0030F40F0FF
:1006D00015804FF0013E121FC0F20E8051F8043B0E
:1006E000A3EB0E0C2CEA030C1CEACE1C08BF40F84E
:1006F000043BF0D0A1F1040102F10402521E08DB18
:1007000011F8013B00F8013B002BF7D11146FFF730
:100710008EFF204610BD7047704770472DE9F047A7
:100720000D4699469246044600F124080168880661
:1007300004D5E06921F01001216000E00120A84209
:1007400001DD471B00E00027A1697A1902EB0900CF
:10075000081AA0612078C00602D42046AFF30080BA
:10076000002608E0D4E901211AF806009047206A23
:10077000401C761C20624E45F4DB2078C0060AD56A
:100780002046AFF3008006E0D4E9012130209047F5
:10079000206A401C2062381EA7F10107F4DC07E044
:1007A000D4E9012118F805009047206A401C206216
:1007B000281EA5F10105F3DC2046AFF30080207868
:1007C000000602D50220BDE8F0870120FBE710B546
:1007D000436913B1AFF3008001E0FFF733FE01205E
:1007E00010BD127800F124010A7000224A70012223
:1007F000EDE711684FF0FF32E9E70000074B70B5F5
:100800000D467B4400F047F80446284600F056F8B1
:1008100010B14FF0FF3070BD204670BDD3500000C6
:1008200010B5203AC0F00B80B1E81850A0E818507D
:10083000B1E81850A0E81850203ABFF4F5AF5FEACD
:10084000027C24BFB1E81850A0E8185044BF18C972
:1008500018C0BDE810405FEA827C24BF51F8043B19
:1008600040F8043B08BF7047D20728BF31F8023B6D
:1008700048BF11F8012B28BF20F8023B48BF00F801
:10088000012B7047004870471401002001694A1C81
:1008900002610878704700B58FB0CDE901310021C1
:1008A000059105497944CDE9031011466846FFF7E3
:1008B00095FD0FB000BD0000E5FFFFFF007B00F0DD
:1008C000800070477546FFF7DDFFAE4605006946BC
:1008D000534620F00700854618B020B5FFF7E8FC26
:1008E000BDE820404FF000064FF000074FF0000831
:1008F0004FF0000BAC46ACE8C009ACE8C009ACE86E
:10090000C009ACE8C00921F007018D46704710B559
:100910000446AFF300802046BDE81040FFF799BCC5
:1009200001491820ABBEFEE7260002007047000018
:10093000FEE700007047000040F25860C2F200007D
:1009400000F0FEB90020704701F038B980B540F2E0
:100950005860C2F2000000F02DFE002080BD0000B3
:1009600080B513460A46014640F25860C2F20000C4
:1009700000F0F4FC002818BF4FF0FF3080BD0000ED
:1009800080B513460A46014640F25860C2F20000A4
:1009900001F000F8002818BF4FF0FF3080BD0000C4
:1009A0002DE9F041D0F828E000F1180C5CF82E3069
:1009B0008C681D68002D03D400EB8E05ED6A1DB117
:1009C0000220BDE8F08100BFD4E9005641F6FF7770
:1009D0009D605D68BD4335435D600D68EE0740F086
:1009E0000581AE0600F10B81690703D5196841F056
:1009F00080011960196841F080511960BFF35F8F61
:100A0000196841F000411960A468002194B341F6CF
:100A1000FF787646002A61D01F68354627F00057D8
:100A20001F601F6847F080461E606E1C032E88BF43
:100A3000EE1E5CF826301D6825F080551D601D688F
:100A4000002D61D400EB8605ED6A002D5CD1D4E960
:100A5000005701319D605D6825EA08053D435D60F2
:100A6000BFF35F8F1D6845F000451D60A468002C32
:100A7000D2D1B6461F68002A27F0804718BF07F179
:100A800080471F601A6842F000521A60C26B00EB88
:100A90008E03DA62C0F828E0EFF3108272B6026CBF
:100AA000114401310164002062B6BDE8F08100BF4D
:100AB00000EB8605ED6A3DBBD4E9005701319D602E
:100AC0005D6825EA08053D435D60BFF35F8F1D68E3
:100AD00045F000451D60A468002CCAD01F6835464B
:100AE00027F000571F601F6827F080461E606E1CAD
:100AF000032E88BFEE1E5CF826301D6825F0805559
:100B00001D601D68002DD3D5013100293FF458AF79
:100B1000481E032801F0030039D321F0030100BF70
:100B20005CF82E20BFF35F8F136823F0004313603F
:100B30000EF10102032A88BFAEF103025CF82230F5
:100B4000BFF35F8F1F6827F000471F60531C032B04
:100B500088BFD31E5CF82320BFF35F8F176827F090
:100B6000004717605A1C032A88BFDA1E5CF822303F
:100B7000BFF35F8F1C6802F1010EBEF1030F88BF47
:100B8000A2F1030E24F0004204391A60C8D10CEB24
:100B90008E0100283FF414AF0968BFF35F8F0A6825
:100BA000012822F000420A603FF40AAF0EF1010171
:100BB000032988BFAEF103015CF82120BFF35F8FEA
:100BC0001368022823F0004313603FF4F9AE481C79
:100BD000032888BFC81E5CF82000BFF35F8F016840
:100BE00021F0004101600220BDE8F0811E684F69DC
:100BF00026F440063E431E60AE067FF5F5AE1E6845
:100C0000096926F040663143196069073FF5EEAE89
:100C1000F0E60000082000F0E3BE0000102000F025
:100C2000DFBE0000202000F0DBBE0000EFF31080EC
:100C300072B600BFFEE70000B0B5044600F0BEFF8C
:100C4000054640F20000C2F200000078611C18BFA7
:100C5000044400BF00F0B2FF401BA042FAD3B0BD75
:100C600080B500F00DF8000658BF80BD40F294102A
:100C7000C2F200004068BDE8804008F003BE0000FA
:100C8000D0F88C0070470000024600294FF00100A8
:100C900008BF704712681368C3F3001381F8283047
:100CA000136803F060034B62136820EA532381F852
:100CB00020301368C3F30043CB77136820EA533323
:100CC0008B771368C3F300330B77136803F4006367
:100CD0008B61136803F480434B61136820EA9353DC
:100CE0004B74136820EAD35008741068C0B2C0096E
:100CF000C873106800F4602088601068C0F380201A
:100D000008719069C0F3400081F854009069C043B5
:100D1000C0B2C00981F84C00906900F0300008654D
:100D20009069000C88649069C0F3800081F85600D7
:100D30009069C0F3C00081F85500002070470000A2
:100D4000B0B50446006841F21405415949060BD577
:100D500041198A68520607D54020C0F20100086098
:100D6000204600F07FFB20684159C9070AD041198D
:100D70008A68D20706D04FF001100860204600F0C4
:100D8000FDFD206841F214014258120426D50144A9
:100D90008A68120422D5D4F8880040F00800C4F80C
:100DA00088000A680868920406D448F280621040FD
:100DB000C4F88C000A600DE042F20002C0F27E022C
:100DC0001040C4F88C00886820F4C0308860E020AF
:100DD000C4F884002046FFF743FF2068816B0907B1
:100DE0000AD5C06A00F06000C4F89400204600F004
:100DF000DFF90020C4F8940043F61441C4F2010165
:100E00000868000358BFB0BD4FF4002220460A60B6
:100E1000BDE8B04000F0BCBD70B582B0002843D042
:100E20000446D0F8840028B92320C4F88400204662
:100E300000F022F90020019043F64400C4F20200C1
:100E400001684FF4805641F480410160006800F46D
:100E500080400190019843F60400C4F2010001684B
:100E600021F4000101602168A26803681A4302604E
:100E70000068885940F00100885100F09FFE054647
:100E800020688159C90713D000F098FE401BB0F5C7
:100E9000FA7FF5D90120E0220421C4F88810C4F8B3
:100EA000842002B070BD00BF012002B070BD00BF41
:100EB000016848F20F12CFF62072114001F59C41F3
:100EC000016005680120FFF7B7FE20684FF6417208
:100ED0000560816911408031816185690120FFF7DA
:100EE000ABFE206841F218018561425843F6237336
:100EF000CFF6DE031A4042F0087242F0040242507C
:100F000045580120FFF798FE206800F580518D615B
:100F100042F280014FF48055C0F2C121415146593F
:100F20000120FFF789FE2068E26800214651116028
:100F300051609160D160A261136800F5805C43F458
:100F40008013136002F12803D36016684FF48C45B8
:100F500046F4400616609162D16211635163E36109
:100F6000936A43F48013936202F150035363966AC9
:100F700046F440069662116551659165D16523621C
:100F8000136D43F48013136502F17803D365166D76
:100F900046F4400616659167D167C2F88010C2F822
:100FA00084106362936F43F480139367C2F88420C4
:100FB000936F43F440039367A162CCF81020226939
:100FC0004FF00043116051609160D160C2E9081197
:100FD00013605560566826F00046566002F12806F8
:100FE000A264D6609162D16211635163C2E91211A9
:100FF0009362D562D06A20F00040D06202F15000C6
:10100000E6645063116551659165D165C2E91C11B3
:1010100013655565566D26F000465665206502F14C
:101020007800D0659167D167C2F88010C2F884104B
:10103000C2E926119367D567D36F23F00043D367C6
:101040006065C2F884202166C4E91A11C4E916114A
:10105000CCF80C20606848F240038288C4F2020396
:101060001A600068102258600020C4F88810C4F884
:10107000842002B070BD00002DE9F04385B0006807
:1010800048F20001C4F20201884203D005B0BDE875
:10109000F08300BF002643F630000096C4F2020041
:1010A0000168002441F0007101600168C4F202048B
:1010B00001F0007100910099009601686D4641F0C1
:1010C0008061016001684FF0020801F080610091C9
:1010D0000099009601684FF0030941F0006101603A
:1010E00001680B2701F000610091009900960168EA
:1010F00041F004010160016801F0040100910099D0
:101100000096016841F001010160016801F00101F0
:10111000009100990096016841F0020101600168A8
:1011200001F00201009100990096016841F0400130
:1011300001600068294600F04000009000983220CD
:10114000009004F50060CDE90186CDF80C9004977D
:1011500000F052FC8620CDE9000820462946CDE962
:101160000269049700F048FC4FF40050CDE90008F4
:1011700004F580602946CDE90269049700F03CFC43
:101180004FF42050CDE9000804F5C0502946CDE9C0
:101190000269049700F030FC3D200521002200F098
:1011A000CDFD3D2000F0B6FD05B0BDE8F0830000A8
:1011B000704700002DE9F04F85B00029044671D03A
:1011C000D4F88400232840F0C580D4F85CA004F152
:1011D000480858F82A90E26ED9F8000001910028DA
:1011E00068D4C2F10400039004F17C0504F180008E
:1011F0004FF0000B002602902BE000BFD9F8000052
:10120000D9F80010C0F30D40071F4FF0010B216704
:10121000D9F808200299BBB22846C9F8202000F06E
:1012200029F9D4E9180101303944C4E91801002032
:10123000C9F820000AF10100032888BFAAF10300C1
:1012400058F820900136D9F800108246B1F1FF3FDE
:1012500039DD0398864235D2BBF1000F32D1D9F87F
:101260000000C00505D5D9F81800A067D9F81C0002
:101270006067D9F80000800501D4286870B1D9F8FA
:101280000000800544BF0020C4E918006769D9F850
:101290000000C005B2D44FF0000BB9E74FF0000BCF
:1012A000C8E700BFD4F8880040F00100C4F8880007
:1012B00050E000BF00264FF0000BB618E66607D1DD
:1012C0003BE000BF5046E26E8246B618E66634D078
:1012D000A76E00200DF11009049016E0A06D002803
:1012E0004FF48C4004BF44F20060C8F20000686014
:1012F000BFF35F8F286840F000402860781C032807
:1013000088BFF81E013E07460CD058F82750286ABF
:101310000028E3D1484600F07DF8049818B128620F
:10132000A860DBE70026E06EB04206D0206841F2FC
:10133000080100224250C4E91A76BBF1010FC4F83B
:101340005CA007D1E06F019908600020E06705B05C
:10135000BDE8F08F012005B0BDE8F08FF0B581B099
:10136000054600681C4603694FF4F86707EA8212D5
:1013700003F01C0361F3CF22D1180131016100F0A9
:101380001DFC0646002700BF00F018FC801BB7EBD1
:10139000104F09D128680169C907F5D1406980B2A9
:1013A0002060002001B0F0BD012001B0F0BD0000C0
:1013B0002DE9F0410446006C40B3676C451E4FF0C8
:1013C000000803E00746013D681C1FD004EB8700BE
:1013D000C16A781C00F00300002908BF0746F1D05D
:1013E000E06807EB870150F8310000280ED404EBC9
:1013F0008706F06A00F0CAFA781C00F00307C6F806
:101400002C80C4E91057013D681CDFD10020BDE8E5
:10141000F081000010B582B004464AF68C30C0F668
:10142000060007F0F5F898B10346203020604AF234
:101430002510C0F60000186120684FF4C0640090C9
:10144000002000214122019408F0AEFB02B010BD43
:1014500040F29410C2F200000121017000202060CF
:1014600002B010BD40F29410C2F20000406808F0D3
:1014700009BA00004FF0000C42F820CDA2F808C0D5
:10148000D0F800C05381BCF1000F844618BFD1F8DA
:1014900000C0CCF800200A60006868B917E000BFFF
:1014A000028901681A440029028108BF70470A892D
:1014B00008681A440A8150B1028901681A440281FD
:1014C00029B10A8908681A4400280A81E8D17047BE
:1014D00070B500296CD00446D0F88400102867D17C
:1014E00020680D46016848F20F12CFF620721140B5
:1014F0002A7C6B7C002AAA6808BF01F50001114311
:10150000002B6B69EA7F08BF41F480011943AB7F70
:1015100041EA0241AA69002B2B7F08BF41F4005128
:1015200011432A7941EA033195F8203041EA8221BA
:10153000002B6B6AEA7B08BF41F40071194395F8F0
:10154000283041EAC21141EA031101600668012016
:10155000FFF772FB20684FF641720660816995F8CB
:101560004C3001EA020CAA6C002B4FEA024208BF81
:1015700080322B6D95F8556043EA0C0395F85610B0
:101580001A4395F85450012E08BF42F00802012971
:1015900008BF42F00402012D08BF42F0020282613E
:1015A00085690120FFF748FB20688561002070BD38
:1015B000012070BDB0B504460068006920F01C052C
:1015C00000F0C8FC4DF20031CFF6CE614EF2BF12F2
:1015D0000144C0F2E402914204D845F008052068B5
:1015E0000561B0BD4FF24011CFF6E95147F63F0219
:1015F0000144C0F27D12914204D845F00C052068E8
:101600000561B0BD47F60011CFF66C4145F60022EA
:101610000144C0F262229142E1D341F60071CFF65B
:101620000A2108444FF27F01C0F2FA2188428CBFA0
:1016300045F0100545F0040520680561B0BD0000C7
:101640002DE9F04383B00446D0F88400012510282A
:1016500040F0E6802320C4F884002068A565C16BB3
:1016600004F1480841F40271C163D0F80C1141F44F
:10167000003141F06001C0F80C11D0F8101141F4B4
:101680000311C0F810110420A56EE06658F825700B
:10169000386A00284FF00000019003D04FF48C40CE
:1016A00012E000BF01A8FFF7B5FE0198002800F086
:1016B000BB803862B860A16D4FF48C40002904BF34
:1016C00044F20060C8F200007860BFF35F8F3868B2
:1016D00040F0004038606F1C032F88BFEF1E58F8A1
:1016E0002750286A40B901A8FFF794FE0198002806
:1016F00000F0A0802862A860A06D4FF48C460028FE
:101700004FF48C4004BF44F20060C8F200006860EF
:10171000BFF35F8F286840F0004028607D1C032DD8
:1017200088BFFD1E58F82570386A40B901A8FFF738
:1017300071FE0198002800F07F803862B860A06DCB
:1017400044F20069C8F20009002808BF4E467E60D6
:10175000BFF35F8F386840F0004038606F1C032F84
:1017600088BFEF1E58F82750286A38B901A8FFF73C
:1017700051FE0198002865D02862A860A06D00285D
:1017800018BF4FF48C49C5F80490BFF35F8F2868E9
:1017900040F0004028607D1C0020032D88BFFD1E06
:1017A000E26E2168824205D041F2080200238B508C
:1017B000C4E91A50086840F0080008600D6801206C
:1017C000FFF73AFA20680560016841F00401016002
:1017D00005680120FFF730FA206841F2180605601D
:1017E00000250295815941F4801181518059029060
:1017F0000120FFF721FA02982168885188598A1937
:1018000040F400508851885940F0020088515068D7
:1018100040F4D03040F0C10050602320C4F8840070
:10182000284603B0BDE8F0830420E26E21688242BE
:10183000BAD1BFE7032006E00220E26E21688242AF
:10184000B2D1B7E701203D46E26E21688242B1D0B5
:10185000AAE7000070B582B00446D0F884002328BF
:1018600052D12320C4F88400206841F2180681195F
:101870004A6845F63E73CFF6FE731A404A608159B6
:1018800021F400518151815921F0020181510168F7
:1018900021F00401016005680120FFF7CDF92068FF
:1018A000056000250195815941F4801181518059CD
:1018B00001900120FFF7C0F901982168885108685C
:1018C00020F0080008600E680120FFF7B5F92068D5
:1018D0000660A06C416841F000414160E06C4168E5
:1018E00041F000414160206D416841F0004141609C
:1018F000606D416841F0004141601020A565C4F869
:101900008400284602B070BD0125284602B070BD93
:1019100010B50446A1B1D4F8840023281CBF0120CF
:1019200010BD486B0122E0632046FFF739F878B11B
:10193000D4F8880040F00200C4F88800012010BDEF
:10194000D4F8880040F00100C4F88800012010BDE0
:10195000BFF34F8FA06A2168421C032A88BFC21EB2
:1019600041F20400A2620144086940074FF0000000
:1019700042BF04220A61086010BD000040F29410CA
:10198000C2F20000806807F07DBF000008F02EBBA7
:101990007047000070B5044600684FF4F8650669AA
:1019A00005EA821206F01C0661F3CF229119033179
:1019B0009AB24261016100F001F90546002600BFBC
:1019C00000F0FCF8401BB6EB104F05D12068006911
:1019D000C007F5D1002070BD012070BD7047000028
:1019E00043F61441C4F201010A68024214BF0860C0
:1019F0007047FFF7F3BF00002DE9F04F82B000F110
:101A00003E4242F2004502F1FF77C4F202050A228B
:101A100043F6004E4FEAB726A84208BF0922C4F297
:101A2000010E092E38BF4FEAB722012500260027F4
:101A30004FF00008009208E008F101080437B8F1FF
:101A4000100F06F1020600F0A7800C6805FA08F9ED
:101A500014EA090FF0D0D1F804B003220BF0030C04
:101A6000ACF10104B240012C6FEA020A10D882687E
:101A7000CC6802EA0A02B440224382604268CBF397
:101A8000001422EA090204FA08F42243426005E045
:101A9000BCF1030F02D14FF0030C20E0C2688C6848
:101AA00002EA0A02B4402243BCF1020FC26016D11E
:101AB0006FF0030202EA58020244D2F820C007F095
:101AC0001C050F230C69AB402CEA030304FA05F54F
:101AD0002B431362D1F804B001250BF0030C02680C
:101AE0000CFA06F302EA0A021A431BF4403F0260B2
:101AF000A2D0002243F644030192C4F202031A6802
:101B00004FF6084C42F480421A601A68CFF6FF7C08
:101B100002F480420192019A28F00302724452F8C2
:101B20000C3007F00C050F24AC40A343009C04FAD2
:101B300005F52B4342F80C30DEF808204B6842EAEA
:101B4000090543F60C4CDC0258BF22EA0905CEF821
:101B50000850C4F2010CDCF800209C0242EA09059E
:101B600058BF22EA0905CCF80050DEF804209C0397
:101B700042EA090558BF22EA0905CEF80450DEF80A
:101B80000020DB0342EA090558BF22EA0905CEF826
:101B90000050012550E700BF02B0BDE8F08F000003
:101BA000426902EA0103914341EA034181617047BE
:101BB000002A08BF090481617047000040F6E45024
:101BC000C2F201000068704740F2000040F6E451A4
:101BD000C2F20000C2F2010100780A6810440860F5
:101BE0007047000080B543F60040C4F2020001686F
:101BF00041F400710160016841F480610160016895
:101C000041F480710160032000F0C4F80F2000F05F
:101C100005F800F05DF8002080BD0000B0B586B08A
:101C2000002543F644010195C4F202010A68044606
:101C300042F001020A60096801A801F00101019166
:101C40000199694600F066F900F09EF94DF683614E
:101C50004000C4F21B31A0FB01014FF0FF3000EB4C
:101C6000914140F208700022C2F20000C4F2010269
:101C700040F2E733C0E90021C0E902530561856104
:101C800000F08AFB054618B1284606B0B0BD00BF7B
:101C900040F20870C2F2000000F0AEFB05460028DA
:101CA000F2D1192000F036F80F2C0DD8192021465A
:101CB0000022002500F042F840F20400C2F20000C9
:101CC0000460284606B0B0BD0125284606B0B0BD68
:101CD00082B0002043F640010190C4F202014A683C
:101CE00042F480424A604A6802F480420192019ABA
:101CF00000900868002240F08050086008680F21BA
:101D000000F08050009000986FF0010002B000F0E9
:101D100015B80000002848BF7047C1B200F01F008E
:101D2000012202FA00F04EF20012CEF2000242EA64
:101D3000D10121F0030108607047000010B54EF694
:101D40000C5CCEF2000CDCF80030C3F3022E8EF0F7
:101D50000704042C28BF0424BEF103034FF0FF3E08
:101D60000EFA04F438BF0023A14399400EFA03F39E
:101D70009A43114300F00F0200F160430901043A55
:101D800003F564436244002848BF02F10C03197054
:101D900010BD00004EF60C51CEF200010A684FF65D
:101DA000FF031A4060F30A2242F0806040F0FD70A9
:101DB000086070472DE9F041002800F08B8043F661
:101DC0000808C4F202080446D8F8F8030D4600F0EB
:101DD0000F00884207D288F8F853D8F8F80300F0CB
:101DE0000F00A84276D12068810717D5410705D595
:101DF000D8F8001041F4E051C8F80010010705D5EB
:101E0000D8F8001041F46041C8F80010D8F800106C
:101E1000A26821F0F0011143C8F80010C0073FD1BB
:101E2000D8F8F80300F00F00A84207D988F8F85353
:101E3000D8F8F80300F00F00A8424BD12068410702
:101E400007D5D8F80010E26821F4E0511143C8F832
:101E50000010000708D5D8F80000216920F4604080
:101E600040EAC100C8F8000000F0A2F8D8F800105D
:101E700043F20812C1F30311C0F60102515C40F2B3
:101E8000240220FA01F140F20400C2F200000068CE
:101E9000C2F200021160FFF7C1FE0020BDE8F08130
:101EA0006068811E022907D258F8081C89015CBFAE
:101EB0000120BDE8F08111E0012807D158F8081C85
:101EC00089035CBF0120BDE8F08107E058F8081CD9
:101ED000890703D40120BDE8F08100BFD8F80010C5
:101EE00021F003010843C8F80000FFF767FE06462B
:101EF00041F28837D8F80000616800F00C00B0EBC0
:101F0000810F8DD0FFF75AFE801BB842F2D9032013
:101F1000BDE8F0810F22026043F60802C4F202021B
:101F2000136803F003034360136803F0F003836056
:101F3000136803F4E053C360D2F800C04FF4E053D9
:101F400003EADC030361D2F8F80300F00F00086035
:101F50007047000040F22400C2F2000000687047A1
:101F600040F2240043F60801C2F20000C4F202016C
:101F70000068096843F21812C1F38221C0F6010219
:101F8000515CC8407047000040F2240043F608014D
:101F9000C2F20000C4F202010068096843F218129C
:101FA000C1F34231C0F60102515CC84070470000E5
:101FB00010B543F60404C4F20204606800F00C019A
:101FC00042F200400829C0F2F40007D0042918BFEB
:101FD00010BD41F20020C0F27A0010BD216801F06E
:101FE0003F02216823684902C3F3881106D4A1FB8C
:101FF00000010023FEF76EF907E000BF41F2002068
:10200000C0F27A004843B0FBF2F021680222C1F32B
:10201000014102EB4101B0FBF1F010BD2DE9F041AF
:1020200082B0002868D00446007843F60006C00756
:10203000C4F202060BD0B06800F00C00042840F097
:102040009F803068800302D56068002854D02078D3
:1020500080071AD5B06810F00C0F09D0B06800F0F6
:102060000C00082840F0A6807068400200F1A280B1
:102070003068800702D5E06801283DD130682169C9
:1020800020F0F80040EAC10030602078000737D423
:10209000207840074CD4A56955B3B06800F00C0017
:1020A000082840F0BB80012D26D07068E16900F45B
:1020B00080028A4220D1216A00F03F028A421BD16D
:1020C00047F6C071626A0140B1EB821F14D1A16A68
:1020D0004FF6FF73C903994300F44032A1F58031F4
:1020E0008A4209D1E16A00F07060B0EB016F03D160
:1020F000002002B0BDE8F081012002B0BDE8F0810F
:102100006069002840F20000C4F2472076D0012127
:10211000C0F8801EFFF752FD054600BF706F8007B4
:10212000B6D4FFF74BFD401B0228F7D9DDE000BF16
:10213000306C10F080580AD100200190306C40F0D3
:1021400080503064306C00F080500190019847F26C
:102150000007C4F200073868C00541D4386840F46D
:1021600080703860FFF72AFD054600BF3868C0055B
:1021700036D4FFF723FD401B0228F7D9B5E000BF96
:10218000B06800F00C00082803D1706840023FF5E9
:1021900058AF6068B0F5803F07D0B0F5A02F40F091
:1021A0008D80306840F480203060306840F48030AA
:1021B00030608DE0E068002852D00020C4F2472053
:1021C00001210160FFF7FAFC054600BF3068800777
:1021D0003FF554AFFFF7F2FC401B0228F6D984E02C
:1021E000A068012805D005284ED1306F40F00400CA
:1021F0003067306F40F0010030674FE00021C0F8D9
:10220000801EFFF7DBFC0546706F80077FF540AF4F
:10221000FFF7D4FC401B0228F6D966E00027C4F281
:10222000472700203866FFF7C9FC022D05460BD171
:10223000306880015ED5FFF7C1FC401B02284FF0DB
:102240000300F5D955E700BF306880017FF550AF36
:10225000FFF7B4FC401B02284FF00300F4D948E715
:102260000020C4F2472000210160FFF7A7FC0546CB
:10227000306880077FF509AFFFF7A0FC401B0228FC
:102280004FF00300F4D934E7316F002821F0010149
:102290003167316F21F0040131674DD0FFF78EFCBB
:1022A000054641F2883700BF306F800756D4FFF7EC
:1022B00085FC401BB842F7D917E000BF3168002801
:1022C00021F480313160316821F4802131604FD0B8
:1022D000FFF774FC054600BF306880033FF5B7AEDA
:1022E000FFF76CFC401B6428F6D9032002B0BDE860
:1022F000F08100BF04F11C052FCD084340EA821095
:10230000D9034FF6FF729143A1F5803140EA056091
:102310000843706001203866FFF750FC044600BF98
:10232000306880013FF5E4AEFFF748FC001B02284F
:102330004FF00300F4D9DCE6FFF740FC054641F21C
:10234000883700BF306F800708D5FFF737FC401B88
:10235000B8424FF00300F5D9CBE600BFB8F1000F4B
:102360007FF499AE306C20F08050306493E600BF6B
:10237000FFF724FC054600BF306880037FF567AE99
:10238000FFF71CFC401B64284FF00300F4D9B0E6B3
:102390007047000070470000002804BF012070470C
:1023A00010B5044690F83D0028B9002084F83C00A0
:1023B000204600F01FF8022084F83D002068211D0F
:1023C00001F04EFC012084F8460084F83E0084F8B9
:1023D0003F0084F8400084F8410084F8420084F80B
:1023E000430084F8440084F8450084F83D00002050
:1023F00010BD00007047000090F83D1001291CBF7F
:1024000001207047022180F83D10006841F2FF7200
:10241000C168C4F20002904241F00101C1600DDCCC
:1024200040F2FF71C4F20001884215DCB0F1804F28
:102430002AD040F20041C4F2000123E040F2FF3113
:10244000C4F20101884213DC41F60001C4F200012C
:10245000884219D0002113E040F60001C4F20001C7
:10246000884211D040F60041C4F200010AE000BFEA
:1024700044F20001C4F20101884205D040F200415B
:10248000C4F20101884206D1816801F007010629E2
:1024900004BF00207047016841F001010160002085
:1024A000704700007047000010B5016804460869D5
:1024B000800744BFC8685FEA807039D40869400764
:1024C00044BFC8685FEA40703ED40869000744BF53
:1024D000C8685FEA007045D40869C00644BFC86890
:1024E0005FEAC0604AD40869C0071CBFC8685FEAD9
:1024F000C07051D10869000644BFC8685FEA006037
:1025000052D40869400644BFC8685FEA406053D4AB
:102510000869800646BFC8685FEA806010BD6FF03A
:10252000200220460A61BDE81040FFF733BF00BF1C
:102530006FF002000861012020778869800743D08E
:102540002046FFF7AFFF45E06FF00400086102206E
:102550002077886910F4407F40D02046FFF7A2FF23
:1025600042E000BF6FF00800086104202077C869CE
:1025700080073DD02046FFF795FF3FE06FF0100049
:10258000086108202077C86910F4407F3AD02046BF
:10259000FFF788FF3CE000BF6FF0010008612046B4
:1025A00000F03EF82168A5E76FF080000861204642
:1025B000FFF7EEFE2168A4E76FF0400008612046B7
:1025C00000F038F82168A3E7204600F025F82046FF
:1025D00000F024F82168002020776FE7204600F003
:1025E0001BF8204600F01AF82168002020776CE7DD
:1025F000204600F011F8204600F010F82168002075
:10260000207769E7204600F007F8204600F006F83A
:1026100021680020207766E77047000070470000BF
:1026200000680021C4F20101884218BF7047FFF71B
:10263000CBBA000070470000002804BF012070479B
:1026400010B5044690F83D0028B9002084F83C00FD
:10265000204600F021F8242084F83D002068C1685D
:1026600021F40051C160204601F098FB2068016907
:1026700021F490410161416921F02A014161C16861
:1026800041F40051C16000202021206484F83D10F5
:1026900084F83E1010BD000080B586B0016844F695
:1026A0000000C4F20000814202D006B080BD00BF2D
:1026B000002143F630020191C4F20202136900F5D1
:1026C000E23043F480231361136903F48023019300
:1026D000019B0191136843F008031360126802F034
:1026E00008020192019A4FF4407201920222CDE950
:1026F0000221032104910721059101A9FFF77CF92B
:1027000006B080BDFEE7000010B582B0044600218F
:1027100000686369019101AA0121984700282DD41E
:102720002068636901AA01219847002826D49DF8F2
:102730000400400702D4012002B010BD2068636984
:1027400001AA00219847002818D40199C80407D489
:1027500001F40450B0F5045F14D1022002B010BDA2
:102760002068636901AA1F219847002806D40198B0
:10277000C10411D4062002B010BD00BF6FF00400E8
:1027800002B010BDC8054FF0040058BF05208904F1
:1027900048BF032002B010BD00F01C001828DCD098
:1027A000142805D0082814BF0520032002B010BD4E
:1027B000042002B010BD0000F0B581B004464068AE
:1027C0000021009170B1A06980470546A06980474B
:1027D000401BB0F5FA6FF9D901200025606028464A
:1027E00001B0F0BDA068002818BF80472020002558
:1027F0006F460026206004E06FF004050136202EAD
:102800000ED06369304612213A4698470028F3D427
:10281000009800F01F008642F0D10025266000E0FD
:1028200026681F2E88BF6FF00205002DD7D12369BF
:10283000304600214FF40042984700281ED42068FB
:1028400063696A460021984700281DD4A069804723
:1028500006466F466FF004059DF801000006B2D5EC
:10286000A0698047801BB0F5FA7F13D820686369A0
:1028700000213A4698470028EED5B0E76FF00305EF
:10288000284601B0F0BD00BF6FF00405284601B036
:10289000F0BD00BF6FF00105284601B0F0BD00009B
:1028A00080B598B1CA688AB18B687BB1D1F810C085
:1028B000BCF1000F0AD0D1E900E1C0E90432C0E95F
:1028C00002E1C0F818C0002080BD00BF4FF0FF300B
:1028D00080BD00002DE9F04381B00024C4F2020461
:1028E0001646894607462046102100229846FFF7E3
:1028F0005FF904F58065284620210022FFF758F98A
:102900002A2000F0DDFE204610210122FFF750F9B9
:10291000284620210122FFF74BF9204610210022F2
:10292000FFF746F9380A00F0CBFEF8B200F0C8FE17
:10293000204610210122FFF73BF9204610210022FA
:10294000FFF736F9300A00F0BBFEF0B200F0B8FE37
:10295000204610210122FFF72BF9204610210022EA
:10296000FFF726F9284620210022FFF721F92B2026
:1029700000F0A6FE204610210122FFF719F9284693
:1029800020210122FFF714F9204610210022FFF731
:102990000FF94FEA192000F093FE5FFA89F000F07A
:1029A0008FFE204610210122FFF702F92046102158
:1029B0000022FFF7FDF84FEA182000F081FE5FFAD1
:1029C00088F000F07DFE204610210122FFF7F0F88C
:1029D000204610210022FFF7EBF828462021002294
:1029E000FFF7E6F82C2000F06BFE204610210122B4
:1029F000FFF7DEF828462021012201B0BDE8F043B0
:102A0000FFF7D6B82DE9F04381B00E468146501E3F
:102A1000591E9846154682B28BB248463146FFF79A
:102A200059FF464538BFA9450DD2089C4F4600BF07
:102A3000204600F019FE0137B8B2A842F8D301369B
:102A4000B0B24045F2D301B0BDE8F083B0B5002488
:102A5000C4F2020404F5406528464FF48041002288
:102A6000FFF7A6F83220FEF7E7F828464FF480413A
:102A70000122FFF79DF83220FEF7DEF828464FF4DA
:102A800000410122FFF794F83220FEF7D5F82046E6
:102A900010210022FFF78CF8204610210022FFF7BA
:102AA00087F804F58065284620210022FFF780F88A
:102AB000112000F005FE204610210122FFF778F8D2
:102AC000284620210122FFF773F82046102100221A
:102AD000FFF76EF8284620210022FFF769F8112041
:102AE00000F0EEFD204610210122FFF761F8284694
:102AF00020210122FFF75CF83220FEF79DF82046E6
:102B000010210022FFF754F8284620210022FFF769
:102B10004FF8362000F0D4FD204610210122FFF7A7
:102B200047F8284620210122FFF742F820461021CD
:102B30000022FFF73DF8002000F0C2FD20461021E2
:102B40000122FFF735F8204610210022FFF730F868
:102B5000284620210022FFF72BF83A2000F0B0FD94
:102B6000204610210122FFF723F8284620210122C8
:102B7000FFF71EF8204610210022FFF719F8552014
:102B800000F09EFD204610210122FFF711F820469B
:102B900010210022FFF70CF8284620210022FFF721
:102BA00007F8B22000F08CFD204610210122FEF72C
:102BB000FFFF284620210122FEF7FAFF20461021C0
:102BC0000022FEF7F5FF1F2000F07AFD20461021BD
:102BD0000122FEF7EDFF204610210022FEF7E8FF5C
:102BE0001F2000F06DFD204610210122FEF7E0FFBE
:102BF000204610210022FEF7DBFF002000F060FDE0
:102C0000204610210122FEF7D3FF2046102100228A
:102C1000FEF7CEFF332000F053FD204610210122A5
:102C2000FEF7C6FF204610210022FEF7C1FF332029
:102C300000F046FD204610210122FEF7B9FF204694
:102C400010210022FEF7B4FF284620210022FEF7C3
:102C5000AFFFB72000F034FD204610210122FEF71F
:102C6000A7FF284620210122FEF7A2FF20461021BF
:102C70000022FEF79DFF352000F022FD20461021A6
:102C80000122FEF795FF204610210022FEF790FF5B
:102C9000284620210022FEF78BFFBB2000F010FD0C
:102CA000204610210122FEF783FF28462021012221
:102CB000FEF77EFF204610210022FEF779FF2B2031
:102CC00000F0FEFC204610210122FEF771FF204695
:102CD00010210022FEF76CFF284620210022FEF77B
:102CE00067FFC02000F0ECFC204610210122FEF717
:102CF0005FFF284620210122FEF75AFF20461021BF
:102D00000022FEF755FF2C2000F0DAFC20461021AF
:102D10000122FEF74DFF204610210022FEF748FF5A
:102D2000284620210022FEF743FFC22000F0C8FC05
:102D3000204610210122FEF73BFF284620210122D8
:102D4000FEF736FF204610210022FEF731FF01205A
:102D500000F0B6FC204610210122FEF729FF204694
:102D600010210022FEF724FF284620210022FEF732
:102D70001FFFC32000F0A4FC204610210122FEF713
:102D800017FF284620210122FEF712FF20461021BE
:102D90000022FEF70DFF0F2000F092FC20461021CC
:102DA0000122FEF705FF204610210022FEF700FF5A
:102DB000284620210022FEF7FBFEC42000F080FC04
:102DC000204610210122FEF7F3FE28462021012291
:102DD000FEF7EEFE204610210022FEF7E9FE20203D
:102DE00000F06EFC204610210122FEF7E1FE204695
:102DF00010210022FEF7DCFE284620210022FEF7EB
:102E0000D7FEC62000F05CFC204610210122FEF710
:102E1000CFFE284620210122FEF7CAFE20461021BF
:102E20000022FEF7C5FE0F2000F04AFC20461021CC
:102E30000122FEF7BDFE204610210022FEF7B8FE5B
:102E4000284620210022FEF7B3FED02000F038FCF7
:102E5000204610210122FEF7ABFE28462021012248
:102E6000FEF7A6FE204610210022FEF7A1FEA420B8
:102E700000F026FC204610210122FEF799FE204694
:102E800010210022FEF794FEA12000F019FC20463C
:102E900010210122FEF78CFE204610210022FEF7B1
:102EA00087FE284620210022FEF782FED62000F071
:102EB00007FC204610210122FEF77AFE2846202139
:102EC0000122FEF775FE204610210022FEF770FE5B
:102ED000A12000F0F5FB204610210122FEF768FE3C
:102EE000204610210022FEF763FE28462021002202
:102EF000FEF75EFEE02000F0E3FB204610210122F9
:102F0000FEF756FE284620210122FEF751FE2046FC
:102F100010210022FEF74CFEF02000F0D1FB2046ED
:102F200010210122FEF744FE204610210022FEF768
:102F30003FFE042000F0C4FB204610210122FEF7D2
:102F400037FE204610210022FEF732FE072000F057
:102F5000B7FB204610210122FEF72AFE2046102151
:102F60000022FEF725FE042000F0AAFB20461021D7
:102F70000122FEF71DFE204610210022FEF718FE5A
:102F8000042000F09DFB204610210122FEF710FED8
:102F9000204610210022FEF70BFE042000F090FBDB
:102FA000204610210122FEF703FE204610210022B8
:102FB000FEF7FEFD252000F083FB204610210122B4
:102FC000FEF7F6FD204610210022FEF7F1FD33202A
:102FD00000F076FB204610210122FEF7E9FD204695
:102FE00010210022FEF7E4FD3C2000F069FB2046A2
:102FF00010210122FEF7DCFD204610210022FEF701
:10300000D7FD362000F05CFB204610210122FEF7A0
:10301000CFFD204610210022FEF7CAFD142000F04B
:103020004FFB204610210122FEF7C2FD2046102151
:103030000022FEF7BDFD122000F042FB20461021C9
:103040000122FEF7B5FD204610210022FEF7B0FD5B
:10305000292000F035FB204610210122FEF7A8FDB3
:10306000204610210022FEF7A3FD302000F028FBAF
:10307000204610210122FEF79BFD20461021002250
:10308000FEF796FD284620210022FEF791FDE12063
:1030900000F016FB204610210122FEF789FD28468C
:1030A00020210122FEF784FD204610210022FEF798
:1030B0007FFDF02000F004FB204610210122FEF7E6
:1030C00077FD204610210022FEF772FD022000F05D
:1030D000F7FA204610210122FEF76AFD2046102152
:1030E0000022FEF765FD042000F0EAFA20461021D8
:1030F0000122FEF75DFD204610210022FEF758FD5B
:10310000052000F0DDFA204610210122FEF750FDD7
:10311000204610210022FEF74BFD052000F0D0FADA
:10312000204610210122FEF743FD204610210022F7
:10313000FEF73EFD212000F0C3FA204610210122B7
:10314000FEF736FD204610210022FEF731FD252036
:1031500000F0B6FA204610210122FEF729FD204694
:1031600010210022FEF724FD322000F0A9FA2046AB
:1031700010210122FEF71CFD204610210022FEF73F
:1031800017FD3B2000F09CFA204610210122FEF79B
:103190000FFD204610210022FEF70AFD382000F026
:1031A0008FFA204610210122FEF702FD2046102151
:1031B0000022FEF7FDFC122000F082FA20461021CA
:1031C0000122FEF7F5FC204610210022FEF7F0FC5C
:1031D000142000F075FA204610210122FEF7E8FCC9
:1031E000204610210022FEF7E3FC272000F068FAB9
:1031F000204610210122FEF7DBFC20461021002290
:10320000FEF7D6FC312000F05BFA204610210122A7
:10321000FEF7CEFC204610210022FEF7C9FC28460E
:1032200020210022FEF7C4FC212000F049FA2046AC
:1032300010210122FEF7BCFC284620210122FEF7C6
:10324000B7FC204610210022FEF7B2FC28462021C0
:103250000022FEF7ADFC292000F032FA20461021B2
:103260000122FEF7A5FC284620210122BDE8B0403E
:10327000FEF79EBC2DE9F04F85B00F9E81464FEAC8
:1032800056083009049315468B4601215FEA4872BF
:1032900018BF01EB161000FB06F409EB56000BEB10
:1032A00006010138013982B28BB248465946FFF710
:1032B00011FB002C00F09581A6F10C00C1B2800139
:1032C00040EA9100C2B2052A00F28B8101209040B1
:1032D00010F02B0F00F085811099A5F12000002936
:1032E00044F6545E43F2201343F2945C43F6843177
:1032F000C0B2C0F6010EC0F60103C0F6010CC0F664
:103300000101039200F0C48000EB400603EB860548
:1033100001EB0613002702930CEB00130EEB801059
:103320004E460193009000BF032A05D0012A05D024
:1033300028462AB1009802E0029800E0019838443B
:1033400090F800A05FEACA700AD0B0B21FFA8BF101
:1033500002460B46FFF7BEFA049800F085F9039A7F
:10336000701C80B2A0EB0901414500F087805FEA44
:103370008A7109D51FFA8BF102460B46FFF7AAFAAC
:10338000049800F071F9039AB01C80B2A0EB090117
:10339000414573D05FEA4A7109D51FFA8BF10246A5
:1033A0000B46FFF797FA049800F05EF9039AF01CB9
:1033B00080B2A0EB0901414560D05FEA0A7109D5EE
:1033C0001FFA8BF102460B46FFF784FA049800F0CF
:1033D0004BF9039A301D80B2A0EB090141454DD055
:1033E0005FEACA6109D51FFA8BF102460B46FFF767
:1033F00071FA049800F038F9039A701D80B2A0EBBE
:10340000090141453AD05FEA8A6109D51FFA8BF17B
:1034100002460B46FFF75EFA049800F025F9039A7E
:10342000B01D80B2A0EB0901414527D05FEA4A6197
:1034300009D51FFA8BF102460B46FFF74BFA0498A9
:1034400000F012F9039AF01D80B2A0EB090141458A
:1034500014D04FFA8AF1B1F1FF3F09DC1FFA8BF16A
:1034600002460B46FFF736FA049800F0FDF8039A7F
:103470000836B0B2A0EB0900404502D10BF1010BB8
:103480004E460137013C05F101057FF44DAFA8E040
:10349000DDF838A000EB40010EEB8017002602910A
:1034A00003EB81010CEB00104FF0000B0191009039
:1034B00072B1012A0ED0DDF81090032A38460DD1E2
:1034C00043F68430029AC0F6010000EB021004E0DB
:1034D000019800E00098DDF8109030440578E80786
:1034E000484608BF504600F0BFF80BF10100C0B2DB
:1034F000B0FBF8F101FB1800002869D0A807484686
:1035000058BF504600F0B0F80BF10200C0B2B0FB5B
:10351000F8F101FB180000285AD06807484658BF48
:10352000504600F0A1F80BF10300C0B2B0FBF8F177
:1035300001FB180000284BD02807484658BF5046CA
:1035400000F092F80BF10400C0B2B0FBF8F101FBFF
:103550001800E8B3E806484658BF504600F084F823
:103560000BF10500C0B2B0FBF8F101FB180078B315
:10357000A806484658BF504600F076F80BF1060002
:10358000C0B2B0FBF8F101FB180008B3680648466A
:1035900058BF504600F068F80BF10700C0B2B0FB0E
:1035A000F8F101FB180098B168B2002858BFD14665
:1035B00048460BF1080500F057F8E8B2B0FBF8F107
:1035C00001FB180BBBF1000F18BFAB4602E000BFB8
:1035D0004FF0000B039A0136013C07F101077FF41D
:1035E00067AF05B0BDE8F08FB0B51C461546024484
:1035F0000B44013A013B92B29BB2FFF76BF9002DED
:1036000018BF002C0BD004986C43851E15F8020FD0
:1036100000F042F8687800F03FF8013CF6D1B0BD08
:103620002DE9F04F83B09B461378CBB1DDE90C9ABE
:10363000DDF838800D4606464FEA5A07541E00BF93
:10364000B0B2DAB229465B46CDE9009ACDF80880DF
:10365000FFF710FEA3783E44002B04F10104EFD1E4
:1036600003B0BDE8F08F0000B0B50025C4F202053C
:103670000446284610210022FEF79AFA200A00F09C
:103680001FF8E0B200F01CF8284610210122BDE826
:10369000B040FEF78DBA0000B0B50025C4F20205B7
:1036A0000446284610210022FEF782FA204600F048
:1036B00007F8284610210122BDE8B040FEF778BA8D
:1036C000B0B540F20044C4F2020405462046082189
:1036D0000022FEF76DFAEA0920461021FEF768FA8B
:1036E000204608210122FEF763FA20460821002225
:1036F000FEF75EFAC5F3801220461021FEF758FA55
:10370000204608210122FEF753FA20460821002214
:10371000FEF74EFAC5F3401220461021FEF748FA94
:10372000204608210122FEF743FA20460821002204
:10373000FEF73EFAC5F3001220461021FEF738FAD4
:10374000204608210122FEF733FA204608210022F4
:10375000FEF72EFAC5F3C00220461021FEF728FA24
:10376000204608210122FEF723FA204608210022E4
:10377000FEF71EFAC5F3800220461021FEF718FA64
:10378000204608210122FEF713FA204608210022D4
:10379000FEF70EFAC5F3400220461021FEF708FAA4
:1037A000204608210122FEF703FA204608210022C4
:1037B000FEF7FEF905F0010220461021FEF7F8F9A8
:1037C000204608210122BDE8B040FEF7F1B9000013
:1037D00080B588B00B4802AF01900AA000F1040E3A
:1037E0009EE80E50806987E80E50079001A80021DE
:1037F00006F09EF840F25061C2F20001086008B085
:1038000080BD00BF2CAC0608553B0008000000003E
:103810000000000080000000000000000000000028
:103820002DE9F04F87B0002543F63000CDE905556E
:103830000195C4F202000168002741F01001016007
:103840000168C4F2020701F010010191019901958C
:103850000168002241F00401016001684FF0100B83
:1038600001F00401019101990195016841F0800185
:103870000160016801F080010191019901950168E1
:1038800041F001010160016801F00101019101991C
:103890000195016841F002010160016801F0020137
:1038A000019101990195016841F0080101600168E9
:1038B00001F00801019101990195016841F0400171
:1038C00001600068102100F0400001900198384626
:1038D000FEF76EF907F5806A504644F2380100227F
:1038E000FEF766F907F5406948464FF4404100226B
:1038F000FEF75EF907F5006840464FF4807100223C
:10390000FEF756F9382002904FF4881002ACCDE94A
:10391000030507F580502146FEF76EF8012638466C
:103920002146CDF808B0CDE903650595FEF764F8AA
:1039300044F23800CDE9020650462146CDE904554F
:10394000FEF75AF84FF44040CDE9020648462146BA
:10395000CDE90455FEF750F84FF48070CDE902062A
:1039600040462146CDE90455FEF746F809200521D9
:103970000022FEF7E3F90920FEF7CCF90A20052121
:103980000022FEF7DBF90A20FEF7C4F91720052113
:103990000022FEF7D3F91720FEF7BCF907B0BDE807
:1039A000F08F000070B58AB040F2F8154AF6C000FA
:1039B000C2F20005C1F206406FF07F41002685E8A3
:1039C0004300002000210DF04FFA95E81900294628
:1039D0002A4641F80C0F42F8103F2B4645F2316061
:1039E00043F8144F40F63D7CC0F6000005F1180482
:1039F000C0F6010CCDE900602046CDF808C005F006
:103A000079FB204605F014FD95F84500400703D4E6
:103A1000204605F013FD02E0204605F0B9FD45F211
:103A20007D41C0F60001204605F036FD09480DF144
:103A3000100C039007A0061D4ECED0E905508CE86F
:103A40004E00CDE9085003A8214605F071FF0AB0E9
:103A500070BD00BF3EAC060881540008FFFF0000A7
:103A60000000000000010000000000000000000055
:103A700080B540F2507044F60001C2F20000C4F27A
:103A8000000100234FF00C0C4FF4E13280E80E00EF
:103A9000C0E90333C0E905C3C361FEF7CDFD0028CB
:103AA00008BF80BDBDE88040FDF7C0B8FEE700005C
:103AB000FEE7000000000000000000000000000021
:103AC000EFF30980BFF36F8F154B1A681EF0100FCC
:103AD00008BF20ED108A20E9F04F10602DE90900A1
:103AE0004FF0500080F31188BFF34F8FBFF36F8FFB
:103AF0000EF0B8F94FF0000080F31188BDE809001E
:103B000019680868B0E8F04F1EF0100F08BFB0EC5D
:103B1000108A80F30988BFF36F8F704700BF00BF22
:103B2000440200200000000000000000000000002F
:103B3000074B19680868B0E8F04F80F30988BFF3B5
:103B40006F8F4FF0000080F31188704700BF00BFF7
:103B500044020020FFF726FF012005F04DFDFBE7A2
:103B600080B54FF0500080F31188BFF36F8FBFF323
:103B70004F8F0FF0D7F830B14EF60450CEF2000060
:103B80004FF080510160002080F3118880BD00005B
:103B9000B0B592B0002443F64000CDE90A44CDE927
:103BA00008440594CDE90344CDE901440094C4F2EE
:103BB00002000168022541F080510160006800F0B8
:103BC00080500090009847F200000094C4F200007A
:103BD000016841F440410160006800F440400090F9
:103BE0000098012006904FF4803007904FF4800039
:103BF0000D9004200E90A820CDE90F05072011900C
:103C000006A80C95FEF70AFA20B1EFF3108072B601
:103C1000FEE700BF0F20CDE901054FF4A05004904E
:103C20004FF48050059001A805210394FEF7C2F8D7
:103C300020B1EFF3108072B6FEE700BF12B0B0BD46
:103C40004EF68850CEF20000016841F47001016028
:103C50007047000040F20870C2F20000FEF724BC7A
:103C600010B540F6FF3E0368C4F2000E40F2004C6F
:103C70007045C4F2010C27DCB0F1804F31D040F226
:103C80000042C4F2000290422BD040F60002C4F27F
:103C90000002904225D041F6FF72C4F20002904229
:103CA00029DC70453CDCB0F1804F5FD040F200422F
:103CB000C4F20002904259D040F60002C4F2000261
:103CC000904253D056E000BF40F60042C4F20002DA
:103CD000904206D0604504D00022C4F20102904216
:103CE000D9D14A6823F07003134341F6FF72C4F23E
:103CF00000029042D5DD43F6FF72C4F20102904209
:103D000022DC42F20002C4F2000290422ED00022D5
:103D1000C4F20102904229D0604527D02AE000BFBA
:103D200040F60042C4F2000290421FD041F6000269
:103D3000C4F20002904219D041F60042C4F20002DF
:103D4000904213D016E000BF44F20002C4F2010218
:103D500090420BD044F60002C4F20102904205D01A
:103D600044F20042C4F20102904203D1CA6823F433
:103D70004073134323F080024B69D1F800E08C6854
:103D80001A430260C46240F48062C0F828E06245D1
:103D900004BF096901630121416110BD10B50446EA
:103DA0000068D4E902C22369016921F4405111433A
:103DB0000161626943EA0C01E3691143C268194376
:103DC00049F20C639A431143C1604169A26921F42D
:103DD000407141F20043114340F48062C4F2010398
:103DE0009A42416102D1FEF7CFF801E0FEF7B8F840
:103DF000E16963681922B1F5004FA0FB020123D1EC
:103E00005A00DB0FFCF766FA48F21F51C5F2EB11BE
:103E1000A0FB01235A094FF69C73C0F6FF7303F110
:103E2000805302FB0300322303EBC000A0FB01011F
:103E30004FF4F87000EA111000EB0210C1F34211C8
:103E400008442168886010BD9A009B0FFCF742FA75
:103E500048F21F51C5F2EB11A0FB01235A094FF69E
:103E60009C73C0F6FF7302FB0300322303EB0010C8
:103E7000A0FB0101F02000EA511000EB0210C1F399
:103E8000431108442168886010BD0000FEE700006F
:103E9000F0B581B0002877D000F114060446304612
:103EA00015460F4607F0B2F800286DD0002F63D0FA
:103EB00065B14AF646404AF67F53C0F606004DA16A
:103EC000C0F6060340F22A22FCF77CFA2078616AE9
:103ED00004F09AFC00285BD0054647603846294626
:103EE00007F012FE4AF64D31C0F6000138460BF0DD
:103EF000D5F84AF6FD51C0F6000138460BF074FDC6
:103F00004AF27541C0F60001384602220AF07AF8FA
:103F100044F21D01C0F60001384608F07DFC304631
:103F2000294607F069F800283ED06C680021204639
:103F3000002607F0E9FD204600210BF0AFF82046EF
:103F400000210BF051FD2046002100220AF05AF812
:103F50002046002108F060FC05F1100420466E6048
:103F600007F026F8204607F043F8284604F0C0FD85
:103F7000FF2460B201B0F0BD4AF62041C0F6060150
:103F8000304607F039F8C8B1FA2460B201B0F0BD8C
:103F90004AF62041C0F60601304607F02DF8C8B1B8
:103FA000FF2460B201B0F0BD636AFBB1204600217E
:103FB00000220024984760B201B0F0BD636A002B74
:103FC000E2D02046002100229847FA2460B201B0D6
:103FD000F0BD00BF636A002BE2D020460021002222
:103FE0009847FF2460B201B0F0BD00BF002460B26A
:103FF00001B0F0BD657870656374206E657770639D
:1040000062203D3D204E554C4C206F7220657272EF
:10401000203D3D204552525F4F4B00002DE9F041BD
:1040200004460D4678B94AF646404AF672514AF6B9
:104030007F53C0F60600C0F60601C0F606034FF433
:10404000DC72FCF7BFF906F053FF227F002194F8E1
:10405000018042F00102616025722277617006F0F2
:1040600071FF636A7BB12046042100229847636A8E
:104070004BB12046002100229847636A1BB12046BD
:1040800002210022984705F10F00032804D243A122
:1040900051F820600EE000BF5DB14AF646404AF696
:1040A0007F53C0F6060039A1C0F606037D22FCF757
:1040B00089F9002604F11007384606F0A7FF18B169
:1040C0003846314606F098FF04F11407384606F0EA
:1040D0009DFF18B13846314606F08EFFB8F1040F47
:1040E00040D8012000FA08F010F01A0F3AD0207FD3
:1040F00000F0FB014007217748BFBDE8F081206A4E
:1041000078B94AF646404AF658514AF67F53C0F607
:104110000600C0F60601C0F606034FF4F372FCF782
:1041200051F9206AB8F1040118BF294602680171EB
:1041300002F10C05284606F0B7FF60B94AF6464082
:104140004AF67F53C0F6060017A1C0F6060340F2F8
:10415000EF12FCF737F9002128462162BDE8F04153
:1041600006F09EBF206A78B14AF646404AF67F5371
:10417000C0F6060013A1C0F6060340F2F712BDE830
:10418000F041FCF71FB900BFBDE8F081756E6861B2
:104190006E646C6564206572726F720021AC0608F3
:1041A00022AC060820AC0608696E61766C69642052
:1041B0006F705F636F6D706C657465645F73656D60
:1041C00000000000636F6E6E2D3E63757272656E47
:1041D000745F6D7367203D3D204E554C4C000000D0
:1041E000B0B540F26055C2F20005297D044651B1D8
:1041F000A868A04207D1286818B105F0F7FE002092
:1042000028600020287595F82C0058B1286AA04233
:1042100008D1A86918B105F0E9FE0020A8610020C6
:1042200085F82C0095F8440058B1A86BA04208D13D
:10423000286B18B105F0DAFE00202863002085F80D
:10424000440095F85C0058B1286DA04208D1A86CD4
:1042500018B105F0CBFE0020A864002085F85C00B2
:1042600095F8740058B1A86EA04208D1286E18B114
:1042700005F0BCFE00202866002085F8740095F843
:104280008C0060B1D5F88000A04208D1A86F18B1A9
:1042900005F0ACFE0020A867002085F88C0095F89A
:1042A000A40070B1D5F89800A0420AD1D5F89000CA
:1042B00020B105F09BFE0020C5F89000002085F895
:1042C000A40095F8BC0070B1D5F8B000A0420AD1A6
:1042D000D5F8A80020B105F089FE0020C5F8A80097
:1042E000002085F8BC0095F8D40070B1D5F8C8005E
:1042F000A0420AD1D5F8C00020B105F077FE002019
:10430000C5F8C000002085F8D40095F8EC0078B11D
:10431000D5F8E000A04218BFB0BDD5F8D80020B154
:1043200005F064FE0020C5F8D800002085F8EC00F8
:10433000B0BD00002DE9F04F85B00028CDE9011295
:10434000049000F08B804FF00A0B002A00F0B08040
:1043500040F2605C00230122C2F2000C00204FF00A
:10436000000E4FF0000A4FF00A084FF00A090A2128
:10437000039106E090463033F02B02F1020200F088
:1043800005830CEB0304257D1FFA88F10A29A2F1AD
:10439000010608BF002D19D065B304996768096844
:1043A000B94204D1A168029FB94200F03D81012DBC
:1043B0000ED15CF80310658A91B11FFA8AFA55454F
:1043C00028BFB34688BFAA4614E000BFB04611E03C
:1043D000618A80B2814228BFB14688BF084609E0A1
:1043E0001FFA8EFE0399754528BF3146039188BF99
:1043F000AE4600BF94F82C501FFA88F10A2908BF76
:10440000002DB7D0002DB6D00499E6690968B142F5
:1044100004D1216A029EB14200F0C382012D0BD16A
:10442000A169648D81B11FFA8AFA544528BF934669
:1044300088BFA2469FE700BF618D80B2814228BF3E
:10444000914688BF084696E71FFA8EFE0399744589
:1044500028BF1146039188BFA6468CE740F26056FC
:10446000C2F20006337D012B00F09E80002B40F04D
:10447000C58096F82C404FF000080A20002C00F070
:10448000DB8003904FF00A0900204FF00A0B002355
:104490004FF0000C4FF0000E012C00F0A380748D43
:1044A000744528BF4FF0010988BFA646DFE000BF72
:1044B00040F2605C00200122C2F2000C00274FF0A5
:1044C000000E00244FF00A084FF00A090A21039158
:1044D00007E000BF90463030F02802F1020200F001
:1044E00055820CEB00031D7D1FFA88F60A2EA2F1FF
:1044F000010608BF002D15D045B30499D1F800A0DE
:1045000059688A4500F09280012D0DD15CF80010A9
:104510005D8A89B1A4B2A54228BFB34688BF2C46A4
:1045200014E000BFB04611E0598ABFB2B94228BFBB
:10453000B14688BF0F4609E01FFA8EFE0399754504
:1045400028BF3146039188BFAE4600BF93F82C5078
:104550001FFA88F10A2908BF002DBBD0002DBAD060
:104560000499DE690968B14200F01B82012D09D16E
:1045700099695B8D71B1A4B2A34228BF934688BFED
:104580001C46A8E7598DBFB2B94228BF914688BFE3
:104590000F46A0E71FFA8EFE0399734528BF114608
:1045A000039188BF9E4696E73368B6F812C0002B89
:1045B00018464FF0000E4FF0000B4FF00A0918BFDD
:1045C0000A20039008BF4FF00A0B002B1CBF634664
:1045D000F44696F82C40012004B34FF00A08012C51
:1045E0007FF45DAFB569748DC5B39BB29C4228BFA3
:1045F0004FF0010B88BF234639E000BFB6F812E048
:104600000A204FF0000903904FF00A0B00234FF0EF
:10461000000C96F82C400120002CDED14FF0010850
:1046200096F84440ACBB14E03246BAE1324610B2D0
:1046300005B0BDE8F08F00BF03904FF00A094FF0BE
:104640000A0B00234FF0000C4FF0000E96F8444088
:10465000FCB996F85C00002845D114E01FFA8CFCE8
:10466000039A644528BF0122039288BFA44696F8A6
:104670004440B4FA84F56D09284209D04FF002088D
:1046800096F85C0078BB96F8740000285FD148E08B
:104690000CB3012C0CD1346BB6F8420094B19BB230
:1046A000984228BF4FF0020B88BF034613E000BFBB
:1046B000B6F84200704528BF4FF0020988BF864611
:1046C00009E000BF1FFA8CFC039A604528BF022254
:1046D000039288BF844696F85C00B8F10A0F08BFC1
:1046E000002819D058B301280CD1B46CB6F85A0080
:1046F000E4B19BB2984228BF4FF0030B88BF03463A
:104700001DE000BFB6F85A00704528BF4FF00309FE
:1047100088BF864613E000BF4FF0030896F8740088
:10472000A8B996F88C00002845D12EE01FFA8CFC21
:10473000039A604528BF0322039288BF844696F8F7
:104740007400B8F10A0F08BF002819D058B3012827
:104750000CD1346EB6F87200E4B19BB2984228BF17
:104760004FF0040B88BF03461DE000BFB6F872008F
:10477000704528BF4FF0040988BF864613E000BF8C
:104780004FF0040896F88C00A8B996F8A400002809
:1047900045D12EE01FFA8CFC039A604528BF042205
:1047A000039288BF844696F88C00B8F10A0F08BFC0
:1047B000002819D058B301280CD1B46FB6F88A007C
:1047C000E4B19BB2984228BF4FF0050B88BF034667
:1047D0001DE000BFB6F88A00704528BF4FF00509FC
:1047E00088BF864613E000BF4FF0050896F8A40086
:1047F000A8B996F8BC00002845D12EE01FFA8CFC21
:10480000039A604528BF0522039288BF844696F824
:10481000A400B8F10A0F08BF002819D058B3012826
:104820000CD1D6F89040B6F8A200DCB19BB2984209
:1048300028BF4FF0060B88BF03461CE0B6F8A20065
:10484000704528BF4FF0060988BF864613E000BFB9
:104850004FF0060896F8BC00A8B996F8D4000028D6
:1048600041D15BE01FFA8CFC039A604528BF062209
:10487000039288BF844696F8BC00B8F10A0F08BFBF
:10488000002819D038B301280CD1D6F8A840B6F8C2
:10489000BA00BCB19BB2984228BF4FF0070B88BF4B
:1048A000034618E0B6F8BA00704528BF4FF0070974
:1048B00088BF86460FE000BF4FF0070896F8D40087
:1048C00088B92BE01FFA8CFC039A604528BF0722A9
:1048D000039288BF844696F8D400B8F10A0F08BF47
:1048E000002819D038B301280CD1D6F8C040B6F84A
:1048F000D200BCB19BB2984228BF4FF0080B88BFD2
:10490000034618E0B6F8D200704528BF4FF00809FA
:1049100088BF86460FE000BF4FF0080896F8EC000D
:1049200010E000BF1FFA8CFC039A604528BF0822E4
:10493000039288BF844696F8EC00B8F10A0F08BFCE
:10494000002821D010B3012812D1D6F8D870B6F8BB
:10495000EA00002F00F0A0809AB2904228BF4FF0EA
:10496000090B01994FF6FF7288071AD413E000BFB4
:10497000B6F8EA00704528BF4FF0090901994FF6D3
:10498000FF7288070DD406E04FF0090801994FF631
:10499000FF72880705D4C80708D11FFA88F00A28D3
:1049A00004D110B205B0BDE8F08F00BF0FFA88F453
:1049B0000A2C19DA40F2605104EB4400C2F2000103
:1049C00001EBC000007D002848D04AF646404BF677
:1049D0008D03C0F606003DA1C0F6060340F2851225
:1049E000FBF7F0FC3AE000BF0FFA89F0092817DC6A
:1049F00040F2605100EB4000C2F2000151F830007B
:104A000060B14AF646404BF68D03C0F6060029A178
:104A1000C0F6060340F26D12FBF7D4FCC8460AE06C
:104A2000DDF80C800FFA88F00A2804DB0FFA8BF00F
:104A30000928D846B5DC0FFA88F440F2605204EB3E
:104A40004401C2F2000252F8310002EBC10518B174
:104A500005F0CCFA00202860002028750498029BFD
:104A600048B140F26052006804EB4401C2F2000217
:104A700002EBC101486040F2605104EB4400C2F215
:104A8000000101EBC000002141828360424610B268
:104A900005B0BDE8F08F00BF1FFA8CF2904203987A
:104AA00028BF0920039001994FF6FF7288073FF550
:104AB00078AF70E76172705F7461626C655B695DAD
:104AC0002E71203D3D204E554C4C00006172705FB0
:104AD0007461626C655B695D2E7374617465203D01
:104AE0003D204554484152505F53544154455F4521
:104AF0004D505459000000002DE9F04F85B039B3F6
:104B0000466804463088B0F5807F1BD1307906288E
:104B100018D17079042815D17088082812D18A46D6
:104B20005AF8040FD6F80E700D46049720B3B169F9
:104B300006F10808814221D14FF0010B4FF0010925
:104B400020E000BF204605B0BDE8F04F05F04EBAAA
:104B50004AF646404BF670014BF68D03C0F6060050
:104B6000C0F60601C0F6060340F28A2205B0BDE891
:104B7000F04FFBF727BC00BF06F108084FF0020911
:104B80004FF0000B95F82C0006280CD04AF6464052
:104B90004BF68D03C0F606002DA1C0F6060340F2C9
:104BA000A912FBF70FFCB7B33846294600F0E6FF21
:104BB00088BB07F0F000E0282DD004A849462A461B
:104BC000FFF7B8FB002826D481B2490040F26052BA
:104BD00011FA80F1C2F2000202EBC1000223037558
:104BE0008560D8F8003052F83170C360B8F80430EE
:104BF00000210382418277B1016005F126024FF462
:104C0000006C284639464346CDF800C000F0A4FCAD
:104C1000384605F0EBF9F0888BF00101B0F58070B3
:104C200018BF012008430CD105F1260104A8022772
:104C30000290284642460B46CDE900A8039700F0B3
:104C4000C1FA204605F0D2F905B0BDE8F08F00BFEB
:104C50006E657469662D3E6877616464725F6C6529
:104C60006E203D3D204554485F4857414444525FC3
:104C70004C454E0070B584B0164605460C4658B1FA
:104C8000E4B156B33068294600F078FFB0B346F27D
:104C90001453C0F6010347E04AF646404BF6700154
:104CA0004BF68D03C0F60600C0F60601C0F60603FB
:104CB00040F21E32FBF786FB002CE2D14AF646405A
:104CC0004BF68D03C0F6060081A1C0F6060340F244
:104CD0001F32FBF777FB002ED4D14AF646404BF645
:104CE0007E014BF68D03C0F60600C0F60601C0F645
:104CF00006034FF44872FBF765FBC3E7306800F02A
:104D0000F001E0291CD10123ADF808305E23010E2B
:104D1000020C8DF80A30C0F3062002AB8DF80B00B0
:104D20008DF80C208DF80D1005F126024FF4006669
:104D300028462146009600F00FFC40B204B070BD3A
:104D4000D5E901124140114208D081B24FF6A96263
:104D5000914203D02E4656F80C0FA8B340F2546C83
:104D6000C2F2000C9CF8002040F2605E02EB4203AD
:104D7000C2F2000E0EEBC303197D022908D3996815
:104D8000A94205D15968884202D12846214692E0BD
:104D90009EF81410022909D3DEF80810A94205D1A3
:104DA000DEF80410884201D1002280E09EF82C1029
:104DB00002290DD3DEF82010A94209D1DEF81C101B
:104DC000884205D1012272E0FC2040B204B070BDDF
:104DD0009EF84410022909D3DEF83810A94205D103
:104DE000DEF83410884201D1022260E09EF85C10A7
:104DF000022909D3DEF85010A94205D1DEF84C1083
:104E0000884201D1032252E09EF87410022909D38E
:104E1000DEF86810A94205D1DEF86410884201D19D
:104E2000042244E09EF88C10022909D3DEF8801099
:104E3000A94205D1DEF87C10884201D1052236E076
:104E40009EF8A410022909D3DEF89810A94205D1D2
:104E5000DEF89410884201D1062228E09EF8BC10AA
:104E6000022909D3DEF8B010A94205D1DEF8AC1052
:104E7000884201D107221AE09EF8D410022909D3F2
:104E8000DEF8C810A94205D1DEF8C410884201D16D
:104E900008220CE09EF8EC10022911D3DEF8E01095
:104EA000A9420DD1DEF8DC10884209D1092228463A
:104EB00021468CF8002004B0BDE8704000F00EB828
:104EC00028463146224604B0BDE8704000F080B864
:104ED0007120213D204E554C4C000000F0B585B0AE
:104EE00040F2605302EB4202C2F2000303EBC2063F
:104EF000374617F8142F0C46012A05460DD84AF6F6
:104F000046404BF68D03C0F6060025A1C0F6060309
:104F100040F2EF22FBF756FA3A78022A32D1708A31
:104F2000B0F58E7F12D946F21A532A1DC0F601033E
:104F3000301DCDE9002346F2145205F126014FF051
:104F4000010C0290C0F6010212E000BFB0F5877FAD
:104F500018D346F21A5E301D06F10C0205F1260147
:104F60002B1D4FF0010CC0F6010ECDE9003E029062
:104F700028460B46CDF80CC000F024F9002804BFE9
:104F80000320387005F1260206F10C034FF4006788
:104F900028462146009700F0DFFA05B0F0BD00BFBB
:104FA0006172705F7461626C655B6172705F69648D
:104FB000785D2E7374617465203E3D2045544841F0
:104FC00052505F53544154455F535441424C450045
:104FD0002DE9F04F85B00F46096805460846294679
:104FE000914600F0CBFD28B1F02040B205B0BDE8FD
:104FF000F08F00BF3968F0200029F6D001F0F001F1
:10500000E029F2D0384601212A46FFF793F90646F7
:10501000B0F1FF3F3EDD7F2E05F126080CD34AF6A6
:1050200046404BF68D03C0F606005BA1C0F60603B2
:1050300040F2C132FBF7C6F95FFA86FA4FEA4A003E
:1050400040F2605B50FA86F0C2F2000B0BEBC0003E
:10505000044614F8141F19B3B9F1000F68D0049076
:10506000FF2002293FD340F25460C2F200000670D4
:105070000AEB4A000BEBC00000F10C034FF4006791
:10508000284649464246009700F066FA05B0BDE85A
:10509000F08F00BF304640B205B0BDE8F08F00BFD2
:1050A00004900AEB4A000BEBC00046F21A518560EF
:1050B000281DC0F6010146F214524FF0010C8DE894
:1050C0008300C0F6010228464146434684F800C0EA
:1050D000CDF80CC000F076F8B9F1000F3FF485AFC1
:1050E00021780229BFD201297FF47FAF4AF64645D5
:1050F0004BF68D07C0F606052BA6C0F606074C46F4
:1051000060892189884208D1206830B1284631461B
:1051100040F2F1323B46FBF755F9207B40061DD4A7
:105120002468002CECD1484605F046F91DE000BF8C
:1051300046F21A51281DC0F6010146F2145201260A
:105140008DE88300C0F60102284641464346039697
:1051500000F038F805B0BDE8F08F00BF0E204FF426
:1051600020714A4604F0C4FD81460498B9F1000F4D
:105170000CD004460068002818BF04F037FF002058
:10518000C4F8009040B205B0BDE8F08FFF2040B2F7
:1051900005B0BDE8F08F00BF74797065206F76654B
:1051A00072666C6F770000006E6F207061636B65D4
:1051B000742071756575657320616C6C6F776564BB
:1051C000210000002DE9F04F81B01F4690460646B1
:1051D000894678B94AF646404BF670014BF68D0386
:1051E000C0F60600C0F60601C0F6060340F25742BC
:1051F000FBF7E8F80E201C214FF4207204F0FCFBB2
:10520000002859D004464089DDF834A01B280CD86A
:105210004AF646404BF68D03C0F6060029A1C0F6BB
:10522000060340F26342FBF7CDF8DDF82CB0656869
:10523000504601F0E1FC96F82C10E88006290FD0CA
:105240004AF646404BF62F014BF68D03C0F606009A
:10525000C0F60601C0F6060340F26A42FBF7B2F858
:10526000B8882146A881386840F60607A860DBF8B0
:1052700000004A46C5F81200BBF804004346E88225
:105280000A980068C5F80E000C980068A86140F202
:105290000010C0F20800286040F20640A8803046A6
:1052A000009700F059F9204604F0A0FE002040B21B
:1052B00001B0BDE8F08F00BFFF2040B201B0BDE8F3
:1052C000F08F00BF636865636B207468617420664B
:1052D0006972737420706275662063616E20686FF6
:1052E0006C64207374727563742065746861727085
:1052F0005F6864720000000080B584B046F21A5EF8
:10530000021DC0F6010E00F12603CDE9002E46F283
:1053100014524FF0010C0291C0F601021946CDF86B
:105320000CC0FFF74FFF04B080BD00002DE9F04F27
:1053300085B040F2605646F21A5946F214540025E0
:10534000C2F200064FF00108C0F60109C0F60104E0
:105350004FF0020B002704E08AF814501837F02FA2
:105360003AD006EB070A9AF814000028F6D0BAF8EB
:1053700012104A1C91B28B084A2BAAF8122003D8AB
:10538000012809D1052907D3F0590028E4D004F0F9
:105390002DFEF551E0E700BF012807D0042817D003
:1053A000032804BF04208AF81400D7E7DAF80800BD
:1053B0000AF1040200F12601031DCDE90039029231
:1053C00022460B46CDF80C80FFF7FCFEC6E700BF77
:1053D0008AF814B0C2E700BF05B0BDE8F08F000046
:1053E00070B5044640890F283DD3E07B0D4618B9BF
:1053F00095F830000130E073606801788689CA074B
:1054000014D0012906D1417881B980785E280DD168
:10541000102008E046F21451C0F601010622FBF705
:1054200095F818B90820617B08436073B6F5C16F21
:1054300010D0082E17D195F82D00000713D520465F
:105440000E2104F0DBFF70B92046294600F0DEFC97
:10545000002070BD95F82D00000704D520460E21D0
:1054600004F0CCFF20B1204604F0C0FD002070BD48
:1054700020462946FFF740FB002070BD7047000022
:105480009AB00DF1040A044650466421FBF7F1F886
:1054900040F29410C2F2000040F258674FF000084A
:1054A00000F10C06C2F200070FF29C0900254FF034
:1054B000000B0BE03846FCF7CDF9204603F0BEFFA9
:1054C000204603F0EDFF642004F096F83046FDF727
:1054D0001BF994F82D1011F0040101D00128E9DD29
:1054E0000029F0D10228EEDB0238042806D212A1EE
:1054F00051F820B059F8205003E000BFB8F1000F78
:1055000016D038465146FBF7BFFB38465146CDE929
:10551000065BFBF7DDFF3846FCF792F8204604F007
:1055200037F8204603F0ECFF4FF00108CBE700BF4F
:105530004FF00008C7E700BF0008000000000000AF
:1055400000080000000000000040000000400000D3
:1055500000000000000000002DE9F0410C46069913
:10556000804608461F46164601F046FB0546204683
:105570000E2104F00BFA00281CBF6FF00100BDE8FB
:10558000F08160688581B988818039680160B1885F
:1055900041813168C0F8061098F82C00062809D01F
:1055A0004AF64640C0F6060006A113A340F23312A5
:1055B000FAF708FFD8F8182040462146BDE8F04128
:1055C000104700BF6E657469662D3E68776164643C
:1055D000725F6C656E206D75737420626520362075
:1055E000666F722065746865726E65745F6F75743E
:1055F00070757421000000002E2E2F4D6964646CBC
:105600006577617265732F54686972645F50617267
:1056100074792F4C7749502F7372632F6E657469BC
:10562000662F65746865726E65742E6300000000F5
:105630002DE9F041A2B0044630B970A079A17DA354
:1056400040F2DF12FAF7BEFE47F27340E08544F6FF
:10565000754046F6D511C0F60000C0F60001C4E959
:10566000050109A86421FBF704F848F2000140F2A3
:10567000586648F20000CAF6E131C2F20006C4F2F0
:105680000200CDF81E104EF6CD7140F26C4340F290
:10569000CC37ADF822100DF11E014FF40002C2F21A
:1056A0000003C2F200074FF4C06586E88F00304661
:1056B0007561FBF7B1FB40F29417C2F20007804618
:1056C00007F130003421FAF7D4FF2120F8624FF4BB
:1056D000400038644AF68C30C0F6060002F008FF3D
:1056E0000620716884F82C000878032284F82600CC
:1056F000487884F82700887884F82800C87884F8E7
:105700002900087984F82A00487994F82D1084F843
:105710002B0040F2DC50A08441F00A0084F82D00F8
:10572000012000210CF01CFD7860012000210322E3
:105730000CF016FD4649B86045A0061D00914ECEFE
:10574000D0E905500DF1040C8CE84E00CDE9055070
:105750006846214604F0ECF807F10C0640F210010F
:10576000C2F200013046FDF79BF83046FDF724F801
:10577000B8F1000F06D0FBF759FA002022B0BDE8BF
:10578000F08100BF3046FCF7BFFF01280ADC20464D
:1057900003F086FE204603F051FE002022B0BDE853
:1057A000F08100BF0338022806D830A151F82060EC
:1057B00031A151F8207003E04FF480474FF40066A8
:1057C00040F25865C2F200050DF124082846414612
:1057D000FBF75AFA28464146CDE90E76FBF778FEEC
:1057E0002846FBF72DFF204603F0D2FE204603F0AB
:1057F00087FE002022B0BDE8F08100BF41737365D1
:105800007274696F6E2022257322206661696C654F
:1058100064206174206C696E6520256420696E20A7
:1058200025730A006E6574696620213D204E554C33
:105830004C0000002E2E2F4C5749502F5461726798
:1058400065742F65746865726E657469662E630091
:1058500038AC06088558000803000000000000006E
:105860005E010000000000000000000000000000D9
:1058700000080000000000000040000000000000E0
:105880000000000082B040F2941540F258680446CF
:10589000C2F200050026C2F200080DF1040900BFA3
:1058A00068684FF0FF3104F017F80028F8D107E0DE
:1058B000226938462146904710B1384604F096FBDD
:1058C000287801960028EBD140464946FBF772FC48
:1058D000019F002FECD1E3E7002070470A46032127
:1058E00000F0EEB82DE9F04383B040F29476C2F2B6
:1058F0000006B568894629783C2202EA8107142F00
:10590000044602D36089042806D2204603B0BDE8CD
:10591000F04304F06BBB00BF6068007808283FD1FB
:10592000706900F0F001E029EFD0316800F026F94D
:105930000028EAD120890828E7D307F10E0820467D
:10594000414604F023F898B32089384481B281425B
:10595000DBD10E204FF4207204F04EF80028D4D092
:105960008046408907F10801814266D8D8F80400D2
:1059700029463A46FAF716FE4046394604F03EFDFF
:10598000002855D04AF646404BF6C403C0F6060040
:1059900030A1C0F60603B622FAF714FD4DE000BFB1
:1059A000A046404603B0BDE8F04304F01FBB00BF73
:1059B0002046414604F022FD90B14AF646404BF69F
:1059C000C403C0F6060031A1C0F60603C722FAF7E9
:1059D000F9FC204603B0BDE8F04304F007BB00BF6C
:1059E000A046D8F804404046394603F0CFFF0028CF
:1059F000D7D156F8140FD8F8041056F8042CC86004
:105A00000A610020FF220A72488101212070608013
:105A1000CDE90001404631460022FF23CDF8089031
:105A200000F0CEFA404603B0BDE8F04304F0DEBA21
:105A30004046214604F07CF940B1404604F0D6FAD5
:105A4000204603B0BDE8F04304F0D0BA204604F08D
:105A5000CDFAC6E769636D705F696E7075743A2040
:105A60006D6F76696E6720722D3E7061796C6F6123
:105A70006420746F2069636D70206865616465726D
:105A8000206661696C65640A0000000069636D70DE
:105A90005F696E7075743A20726573746F72696EA7
:105AA00067206F726967696E616C20702D3E70614E
:105AB000796C6F6164206661696C65640A0000003E
:105AC0002DE9F04184B090460E460746222024215D
:105AD0004FF4207203F090FF90B3044640892328CE
