:020000040800F2
:1000000070210120C102000875490008014500085F
:1000100071490008012100083D4D00080000000062
:10002000000000000000000000000000F14900088E
:10003000892400080000000081490008214A0008C6
:10004000DB020008DB020008DB020008DB0200081C
:10005000DB020008DB020008DB020008DB0200080C
:10006000DB02000869270008DB020008DB02000849
:10007000DB020008DB020008DB020008DB020008EC
:10008000DB020008DB020008DB020008DB020008DC
:10009000DB020008DB020008DB020008DB020008CC
:1000A000DB020008054B0008DB020008DB02000849
:1000B000DB020008DB020008DB020008DB020008AC
:1000C000DB020008DB020008DB020008DB0200089C
:1000D000DB020008DB020008DB020008DB0200088C
:1000E000DB020008DB020008DB020008DB0200087C
:1000F000DB020008DB020008DB020008DB0200086C
:10010000DB020008DB020008DB020008DB0200085B
:10011000DB020008DB020008DB020008DB0200084B
:10012000DB020008DB020008DB020008DB0200083B
:10013000DB0200088D240008DB020008DB02000857
:10014000DB020008DB020008DB020008DB0200081B
:10015000DB020008DB020008DB020008DB0200080B
:10016000DB020008DB020008DB020008DB020008FB
:10017000DB020008DB020008DB02000800000000D0
:10018000DB020008DB020008DB020008DB020008DB
:10019000DB020008DB020008DB020008DB020008CB
:1001A000DB020008DB020008DB02000800F002F8B6
:1001B00000F05CF80AA090E8000C82448344AAF1A5
:1001C0000107DA4501D100F051F8AFF2090EBAE8A3
:1001D0000F0013F0010F18BFFB1A43F0010318477B
:1001E0005859010078590100103A24BF78C878C1E5
:1001F000FAD8520724BF30C830C144BF04680C602D
:10020000704700000023002400250026103A28BF74
:1002100078C1FBD8520728BF30C148BF0B60704778
:10022000642900F07781732900F07A8300207047F9
:100230001FB514F011FD9DE8030001F049FD00F029
:10024000EEF900F0D9FA04000020002114F0E6FADB
:10025000401C60600020002114F0F6FAE06001F01C
:10026000A9F81FBD10B501F00EF910BD01F07EF91F
:100270001146FFF7DDFF09F089FA01F0C9FC03B46C
:10028000FFF7F0FF03BC01F0A9FE00000B49D1F815
:1002900000C04A685CF8043B1068184442F8040B3C
:1002A0008C4528BFA1F1DC0C8A4228BFA1F1DC02F9
:1002B000C1F800C04A6020F0004070471C010020D7
:1002C0000948804709480047FEE7FEE7FEE7FEE7EA
:1002D000FEE7FEE7FEE7FEE7FEE7FEE70448054926
:1002E000054A064B70470000F14A0008AD010008BE
:1002F000701B012070210120701D0120701D012044
:1003000010B500F079FA001D10BD00BF11450100C5
:1003100053EA020C00F069802DE9F04B4FF0000623
:10032000002B1FBFB3FA83F503FA05F424FA05F690
:100330005E4012BF1643B2FA82F502FA05F4C5F127
:1003400020051EBF22FA05FC44EA0C04203556EABB
:10035000044C4FEA144418BF641C4FF000084FF0DF
:100360000009904271EB030C39D3002919BFB1FA8F
:1003700081F701FA07F6B0FA80F700FA07F6C7F13D
:1003800020071EBF20FA07FC46EA0C062037B6FB02
:10039000F4FCA7EB0507103F07F01F0BCBF120067D
:1003A0002CFA06F60CFA0BFB44BFB3460026202FAE
:1003B000A4BF5E464FF0000B5BEA060C08BF4FF08F
:1003C000010B19EB0B0948EB0608ABFB027C06FBA3
:1003D00002CC0BFB03CCC01B71EB0C01C1E70B463D
:1003E000024641464846BDE8F08B13B5084318BFA6
:1003F0004FF0FF300146AFF30080BDE81C4070476E
:100400000FB4044910B503AA029800F08DFA10BC8D
:100410005DF814FB780100200FB41CB50C0007AA8E
:10042000009007D04142A14202D32044401E01E087
:100430004FF0FF30074B7B4469460190069800F06F
:1004400042FA0020002C01D0009908701CBC5DF815
:1004500014FB0000B30400002DE9F0410E460446F1
:10046000002020622046E168884730B3252805D067
:10047000D4E901219047206A401CF2E7E168204658
:1004800000278847050018D0A5F14100192802D897
:1004900020354FF400673246294620462760FFF793
:1004A000BFFE40B1012804D0F61D26F0070608362D
:1004B000D8E7361DD6E72846DAE7206ABDE8F0819E
:1004C00070B50C460546012A05D02878800600D56F
:1004D000EA69002302E0012305E05B1C934202D29B
:1004E000E05C0028F9D1A869E618C01AA861286A5A
:1004F000184428622846AFF3008004E0D5E90121C2
:1005000014F8010B9047B442F8D32846AFF30080AB
:1005100070BD00002DE9F0410646002410687529E1
:10052000314616A510D0AFF30080002802DA404211
:1005300013A507E031688A0701D512A502E0490733
:1005400004D511A5012401E0AFF3008000210A22A7
:1005500006F1240709E0B0FBF2FCB0FBF2F302FB6A
:100560001C00303078541846491C0028F3D123462B
:100570002A463046BDE8F04100F046B900000000D0
:100580002D0000002B000000200000000FB400B57B
:100590008DB010A9099000910B904FF0FF300A9098
:1005A00000200C90064878440690064878446A4635
:1005B00007900F9909A800F04BFC0DB05DF814FBF3
:1005C000C7080000DF08000010B5044603E007F08C
:1005D00011FF401C09D014F8010B05490028F6D181
:1005E000BDE810400A2007F005BF4FF0FF3010BDF6
:1005F000780100200B4910B5A1F17C020A4CC2E938
:100600003712372106E000EB104342F82130074B48
:1006100000FB03400B1EA1F10101F4DC10BD012021
:10062000E8E70000BC000020E119D666CD0D01000E
:1006300040EA010310B59B070FD1042A0DD310C85F
:1006400008C9121F9C42F8D020BA19BA884201D9B1
:10065000012010BD4FF0FF3010BD1AB1D30703D0F9
:10066000521C07E0002010BD10F8013B11F8014BAF
:100670001B1B07D110F8013B11F8014B1B1B01D1CB
:10068000921EF1D1184610BD10B5431C02E010F8BF
:10069000011B71B18107FAD14FF0013202C88C1AE7
:1006A0008C4314EAC211F9D0C01A0A0603D0C01E46
:1006B00010BDC01A10BD0A0401D0801E10BD090271
:1006C000FCD0401E10BD032A40F2308010F0030C15
:1006D00000F0158011F8013BBCF1020F624498BF95
:1006E00011F801CB00F8013B38BF11F8013BA2F132
:1006F000040298BF00F801CB38BF00F8013B11F0AD
:10070000030300F0D583083AC0F0088051F8043B99
:10071000083A51F804CBA0E80810F5E7121D5CBFB9
:1007200051F8043B40F8043BAFF30080D20724BFEC
:1007300011F8013B11F801CB48BF11F8012B24BF80
:1007400000F8013B00F801CB48BF00F8012B7047CF
:1007500002F0FF0343EA032242EA024200F024B817
:100760004FF000020429C0F0128010F0030C00F0DA
:100770001B80CCF1040CBCF1020F18BF00F8012B58
:10078000A8BF20F8022BA1EB0C0100F00DB85FEA26
:10079000C17C24BF00F8012B00F8012B48BF00F8F2
:1007A000012B70474FF0000200B513469446964661
:1007B000203922BFA0E80C50A0E80C50B1F1200174
:1007C000BFF4F7AF090728BFA0E80C5048BF0CC022
:1007D0005DF804EB890028BF40F8042B08BF704780
:1007E00048BF20F8022B11F0804F18BF00F8012BF2
:1007F00070477047704770470048704740020020BC
:1008000000487047200200202DE9F0470D46994628
:100810009246044600F124080168880604D5E06980
:1008200021F01001216000E00120A84201DD471BFA
:1008300000E00027A1697A1902EB0900081AA061FB
:100840002078C00602D42046AFF30080002608E0DE
:10085000D4E901211AF806009047206A401C761C52
:1008600020624E45F4DB2078C0060AD52046AFF35F
:10087000008006E0D4E9012130209047206A401C26
:100880002062381EA7F10107F4DC07E0D4E901215A
:1008900018F805009047206A401C2062281EA5F128
:1008A0000105F3DC2046AFF300802078000602D576
:1008B0000220BDE8F0870120FBE7000001694A1C27
:1008C00002610878704700B58FB0CDE90131002191
:1008D000059105497944CDE9031011466846FFF7B3
:1008E000BBFD0FB000BD0000E5FFFFFFD1E9002315
:1008F0009A4202D2531C0B601070704710B54369C6
:1009000013B1AFF3008001E0FFF7DAFD012010BD65
:10091000127800F124010A7000224A700122EDE7EA
:1009200011684FF0FF32E9E7074B70B50D467B4485
:10093000FFF7C9FF0446284600F038FD10B14FF01C
:10094000FF3070BD204670BDC37A00002DE9FF4F17
:1009500006468BB00878FF2806D0491C2D2805D004
:1009600000244FF0000908E000200CE00124F8E723
:1009700009EB8903491C00EB43090878FF28F7D1EC
:1009800014B1C9F100008146107800252C46AA4612
:1009900029462D2801D02B2804D1521C2D2813D0F4
:1009A000002082468B461078FF280FD04FF0000CB5
:1009B0000A21521CA5FB017804FB018105FB0C11E7
:1009C000C5194BEB0104EEE70120EAE700210846D8
:1009D0004FF00000BAF1000F02D000EB8000400899
:1009E000C0F38157012F01DD4FF0FF370E9955EA13
:1009F000040009EB01080BD04FF0020918F5FA7F4B
:100A000016DA4FEACA70002F706008DD012007E097
:100A10004FEACA70C6E900B00FB0BDE8F08F002001
:100A20003060FFF7EDFEC0F800901821084616E090
:100A3000B8F5FA7F18DD002F02DAF748784401E0B4
:100A4000F6487844D0E90010C6E9001040EACA70C0
:100A50007060FFF7D5FEC0F80090142108460FB073
:100A6000BDE8F04F14F00AB9002108464FF000002D
:100A7000B8F10001099002DAC7F1000200E03A463D
:100A800001DAC8F1000106A800F01EFC06AB93E8ED
:100A9000070003AB83E8070044F23E005BEA040171
:100AA0000090584604D144F21E012C465D46009148
:100AB000210C0904014306D10099240444EA154499
:100AC0002D041039009104F07F41014306D10099B3
:100AD000240244EA15642D020839009104F07041A3
:100AE000014306D10099240144EA15742D01091F20
:100AF000009104F04041014306D10099A40044EA6A
:100B00009574AD00891E009104F00041084304D1A2
:100B100000986D196441401E00904FF001033A4661
:100B20006846B8F1000FCDE9014503A902DD13F0D5
:100B3000D8FB01E013F0ABFBBAF1000F04460D4601
:100B400001D084F00044002108464FF000000999CC
:100B500040F2FF77484010F00C0F07D124F000401E
:100B6000284303D0C4F30A50B84212D1FFF748FE1D
:100B7000C0F80090C4F30A50B8420AD1A84878449B
:100B8000D0E90010C6E9001004F00041084370608D
:100B900042E7C6E900543FE72DE9FF4F1F464FF0FB
:100BA000000A4FF0FF38454691B0D7E90146CDF82D
:100BB0003CA0FFF721FEC0680168405C1090B96955
:100BC00012986D1C8847396A814688470028F6D1FB
:100BD000B9F1FF3F0AD0002E24F4D06411DDB9F141
:100BE0002B0F08D0B9F12D0F0BD102E0404615B004
:100BF00013E744F48064B96912986D1C8847761E27
:100C00008146600504A901D52D2000E02B20002E8F
:100C100001F1010B0DF130088DF810003FDDB9F145
:100C2000690F08D0B9F1490F05D0B9F16E0F02D0A4
:100C3000B9F14E0F1CD13B4601A8009580E8500247
:100C4000DDE912126FF0020014F07FF8C11CCED162
:100C50000EE0B96912986D1C884781461398761E7C
:100C600044F4007405600F98401C002E0F9016DDB0
:100C7000B9F1300FEDD0B9F1780F02D0B9F1580FBA
:100C80000DD10F9801280AD13B46CDE90054DDE98A
:100C90001212001F029614F056F8C11CA7D1109929
:100CA00089453ED144F0800406E01399681CAAF1FE
:100CB000010A44F400740860B9696D1C1298761E2C
:100CC000884730288146F0D02BE01099894505D11E
:100CD000200603D4761E44F0800418E0484613F042
:100CE0004EFD08B3761E0DF123029345A9F13000A5
:100CF00044F4007406D20BF8010B200607D5AAF1C4
:100D0000010003E0200602D40AF101008246A0059A
:100D100002D51399681C0860B96912986D1C884740
:100D20008146002ED1DC53E0002E51DDB9F1650F74
:100D300002D0B9F1450F4BD1A00549D5B9696D1C59
:100D40001298761E24F440748847002E81460CDDEC
:100D50002B2804D0B9F12D0F07D144F48074B96960
:100D600012986D1C8847761E8146E00501D52D211D
:100D700000E02B2108F8011BCDF8008021E0761E51
:100D80000DF13901884544F400740CD2A9F130000A
:100D900010F0FF0088F8000002D10099884509D9B9
:100DA00008F1010806E0E00501D51E4801E042F225
:100DB0000F708246B96912986D1C88478146139856
:100DC0000560002E04DD484613F0D9FC0028D6D17A
:100DD000F96912988847FF2053468BF8000088F87D
:100DE000000000200A900B9004AA0CA90AA8FFF7A3
:100DF000ADFDA00502D46FF00100F8E614F0240F59
:100E000012D0E0071CD13868DDE90A12031D3B60EF
:100E10000068C0E9001213E02051010012510100E6
:100E2000D64F0100F1D8FFFF0AA9684613F094FCE1
:100E3000E00705D13868009A011D3960006802603A
:100E40002846D4E6026811441378016018467047BA
:100E5000D160054979445161044979441162002106
:100E60001161114600F076B8EDFFFFFFE5000000CC
:100E7000426842B1016811F8013B23B1521EC0E93A
:100E80000012184670470121C160881E70474268F1
:100E90005AB1C368016843B983688B4205D0491EC3
:100EA000521CC0E90012002070474FF0FF3070471D
:100EB00010B5203AC0F00B80B1E81850A0E81850E7
:100EC000B1E81850A0E81850203ABFF4F5AF5FEA37
:100ED000027C24BFB1E81850A0E8185044BF18C9DC
:100EE00018C0BDE810405FEA827C24BF51F8043B83
:100EF00040F8043B08BF7047D20728BF31F8023BD7
:100F000048BF11F8012B28BF20F8023B48BF00F86A
:100F1000012B70470048704720020020B2F12003E7
:100F20000AD5C2F1200301FA02F120FA03F341EAE3
:100F3000030100FA02F0704700FA03F14FF00000DD
:100F4000704710B50446FFF7DBF90068005D00F05C
:100F5000010010BD2DE9F34F4FF0000A0C46564634
:100F60008DB001200C9001F10C000B9062690B9880
:100F700001219047051E2DD0252D2CD0216A8847B0
:100F8000C0B162690B9801219047216A8847002807
:100F9000F7D16269411E0B98904700E0761CA16969
:100FA0000D988847216A88470028F7D1E1690D9894
:100FB0008847DBE7A1690D988847A842074601D119
:100FC000761CD3E7E1690D9888477F1C02D1BAF1FE
:100FD000000F6FD06BE162690B9800273D463946E0
:100FE00090472A2804D162690B9801219047012576
:100FF000DFF8D08262690B9801219047A0F130019F
:101000000A290AD24745E5DC07EB870100EB4107D7
:10101000303FDFD445F01005ECE7E90601D46FF06E
:1010200000476C280AD04C2814D0682815D06A28AC
:101030000DD074281CD07A281AD01DE062690B9854
:10104000012190476C2802D045F0040514E045F0DA
:1010500002050DE045F020050AE062690B980121C8
:101060009047682802D045F0080505E045F4006582
:1010700062690B9801219047C4E9015765283DD06A
:1010800019DC58287AD00CDC452837D004DC252818
:1010900026D041289ED131E046282FD0472899D12B
:1010A0002CE05B2877D0612828D063287CD0642886
:1010B00023D15AE0F6E06F2848D008DC66281DD01E
:1010C00067281BD0692821D06E2816D127E0702808
:1010D00045D0732868D0752847D078280DD14DE0C9
:1010E000A1690D988847252805463FF469AFE16955
:1010F0000D9888476D1C3FF46AAFD8E00D992346E0
:101100006A466FF0010013F01CFEC5E045F0400098
:1011100023464FF000026060A80736D43EE0E8079F
:101120007FF447AF2068011D21600068290501D5C3
:1011300006701BE7290701D5068017E7A90703D525
:10114000F117C0E9006111E706600FE745F04000C4
:1011500023464FF008026060A80716D41EE040F650
:101160000E0125EA0100606016E045F040002346CC
:101170004FF00A026060A80707D40FE045F0400076
:101180006060A80708D5234610220D996FF0010072
:10119000AFF3008080E007E0102223460D996FF046
:1011A0000100AFF3008077E04FF0000963284F465D
:1011B000C8464B46CB4602D05B2806D038E0E8064E
:1011C00001D40120A060012732E06269D4F80CB09C
:1011D0000B98012190475E2807D14FF0010949463D
:1011E0006269D4F80CB00B989047216939B9002195
:1011F0000A4603AB43F82120491C0829FADBD8B37F
:10120000216949B308F1010862690B9801219047EF
:101210005D28F4D1B9F1000F09D0002003A951F8DD
:101220002020D24341F82020401C0828F7DB03ABE4
:101230002069002820794FEA40701ED05B46224684
:10124000CDF80080CDE901970D9900286FF00100DD
:1012500020DAAFF300801FE0C11703AA00EBD161D1
:101260004B1121F01F0102EB8302411A1368012088
:10127000884003431360C7E719E00D992246002810
:101280006FF00100009702DAAFF3008004E0AFF3E3
:10129000008001E0AFF3008000280ADA401C06D18C
:1012A0000C9820B14FF0FF300FB0BDE8F08F5046E2
:1012B000FAE7E90701D10AF1010A064400200C907F
:1012C00054E60000CCCCCC0C2DE9F0478146164604
:1012D0008AB0354878440DC88DE80D00324878440E
:1012E000801C03AC0DC884E80D0041F69B30084417
:1012F000372190FBF1F290FBF1F5A5F1800501FBA0
:1013000012041B3C02D56442012000E00020DFF8FB
:1013100098A080460027FA44AAF1BE0A0EE0E00732
:101320000AD03246684607EB470101230AEB8101E8
:1013300012F0C2FF8DE8070064107F1C002CEED174
:10134000194F7F44AE3F19E0E80715D007EB0410B2
:101350000DF1180A90E80E008AE80E00C068F0420D
:1013600001D1981908903246012306A903A812F06A
:10137000A3FF03AB83E807006D10641C002DE3D1CD
:101380004FF0010332466946B8F1000F03A802D0BE
:1013900012F068FF01E012F08FFFC9E90001C9F8FF
:1013A00008200AB0BDE8F087243B0100007B00F074
:1013B0008000704710B542485421FFF7F3F94148C7
:1013C0005421FFF7EFF940485421FFF7EBF93F496B
:1013D0003B483C4A3F4B08603D490A603A49196026
:1013E000531C0365481C1065012008653B48344ABE
:1013F00039A1784400F06EFB20B9384878440A38A7
:1014000000F00FFC37482F4A35A1784400F062FB0A
:1014100020B9344878440A3800F003FC32482A4A9C
:101420002FA1784400F056FB20B92F4878440A38A1
:1014300000F0F7FB40232248DC000021224600F0A8
:1014400025FB20B125487844543800F0EAFB1D48BC
:1014500022464023002100F019FB20B121487844A6
:10146000543800F0DEFB184822461023002100F01B
:101470000DFB002806D01C487844BDE810405638C3
:1014800000F0CFBB10BD104870B5006D20F0010416
:101490000B4800F097FB0B4800F094FB0A4800F063
:1014A00091FB09E0206D20F00105204600F08AFB49
:1014B000204600F080F82C46002CF3D170BD0000CF
:1014C0002401002078010020CC0100200000002031
:1014D0000400002008000020720000001E3A0100F5
:1014E000770000000A3A0100F63901000000000010
:1014F00030B44FF0013C50F8042B51F8043BCCFAC7
:1015000052F4D51A20D1FCB950F8042B51F8043B01
:10151000CCFA52F4D51A17D1B4B950F8042B51F8BB
:10152000043BCCFA52F4D51A0ED16CB950F8042B06
:1015300051F8043BCCFA52F4D51A05D1002CDAD07C
:1015400030BC4FF00000704729BAB1FA81F111F0B8
:101550001801D1F120008440F2D1CA40CB4012F0F2
:10156000FF0213F0FF0330BCD01A70477546FFF737
:10157000D1FCAE4605006946534620F0070085467B
:1015800018B020B5FEF7AAFEBDE820404FF00006D7
:101590004FF000074FF000084FF0000BAC46ACE8EE
:1015A000C009ACE8C009ACE8C009ACE8C00921F04A
:1015B00007018D46704770B50446051F00F06CFBAF
:1015C0000068002C14BF446870BD002C18BFAC42EA
:1015D0003CBF20466468F8D301680A18AA4218BFC5
:1015E000456003D12A680546114401602868411905
:1015F000A1421CBF6C6070BD6168696021680844CD
:10160000286070BD10B5FFF7FBF8006810BD10B57D
:101610000446FFF7F5F8046010BD3A2800D23038D0
:1016200020F02002412A01D3A2F13700884201D3E1
:101630004FF0FF30704700002DE9FF4F1F464FF07D
:101640003C0987B04FF00042DDE9141001F10108B8
:10165000DDF858A002EA4050039000200590834630
:10166000054604460490B969461E08988847AAF1C1
:10167000010A0290BAF1000F3BDD02982E2815D026
:101680001021FFF7CAFF00282EDB4FF0010B059950
:10169000014317D0B9F1000F0BDB4A46C117FFF722
:1016A0003DFC05430C43A9F1040905E00120049029
:1016B0000BE008B145F0010501200590049820B920
:1016C000361D02E0049800B1361FB969089808F188
:1016D00001088847BBF1000FAAF1010A0290C9D0A6
:1016E0000999C1F80080C5E70298702808D05028F1
:1016F00006D0F96908988847BBF1000F14D04FE075
:10170000002002900120BBF1000F049009D0B969BC
:10171000089808F101088847AAF10109B9F1000FFA
:1017200007DCF969089888476FF001000BB0BDE845
:10173000F08F2B2804D02D280CD14FF0FF300490CF
:10174000B969089808F101088847A9F10109B9F1B8
:10175000000FE6DD411CE4D00A21FFF75EFF002800
:10176000DFDB029908F1010801EB810100EB410088
:101770000290B969089888470A21FFF74EFF099A35
:10178000A9F10109B9F1000FC2F8008001DD0028BC
:10179000E7DAF969089888470499029800FB01661E
:1017A00055EA040004D004F04041090002D006E0EC
:1017B000039898E0A40044EA9574AD00B61E04F0C6
:1017C0000041080002D16D196441761E159810F091
:1017D000240F03D04FF00B095C4803E04FF02809B9
:1017E0006FF07D008246564507DAAAEB0601894470
:1017F000B9F1410F01DD4FF0410901200021A9F1AC
:101800000102FFF78BFB024628400B4621400843AC
:1018100001D0012100E00021501E029143F1FF316F
:1018200028402140084301D0012000E00020029917
:10183000834651EA0B014FD0002108464FF00000CB
:10184000039900F4400039B100EB80004FF44001EF
:1018500000EBD07001EA60008015012802DD4FF036
:10186000FF3000E013D0401C36D0029860B3BBF1CB
:10187000000F0CD14A4601200021FFF74FFB284002
:101880002140084301D0012000E00020E0B1012008
:101890004A460021FFF742FB034640190A466141D0
:1018A0002D1A8C4111D3B9F1400F09DD159810F0B4
:1018B000240F02D0AAF1340603E0AAF1170600E0D3
:1018C000761C00254FF0004406E05B1E42F1FF321B
:1018D00020EA030521EA0204CAF10100B04206DA57
:1018E0001B49039808430190002000900EE0039AE2
:1018F000C4F3D321E80A0A43164940EA44500A4394
:101900003146CDE90002684612F02FFF159810F01D
:10191000240F0BD01598C00715D13868DDE90012E7
:10192000031D3B600068C0E900120CE002A8694694
:1019300012F012FF1598C00705D13868029A011DF0
:101940003960006802604046F0E6000002FCFFFFDC
:101950000000F07F0000F03F2DE9FF4F92461D464A
:1019600085B04FF00041DDE9124BDDE914727F1EB6
:1019700001EA4B50414940F0FF4940EA010800218B
:1019800022F020004928049102D04E2828D04CE0B3
:101990003BA0012607C88DE80700A9690698641CCA
:1019A00088477F1E014606D41DF8060018B121F0B5
:1019B000200181420BD0E96906988847032E34D074
:1019C000082E32D06FF0010009B0BDE8F08F761C10
:1019D000032E01D0082EE0D1601CCAF80000DCE71D
:1019E000A9690698641C88477F1E2AD420F020002D
:1019F000412826D1A9690698641C88477F1E20D4F7
:101A000020F020004E281CD1A9690698641C884744
:101A10007F1E48F4002849F48009CAF8004001D428
:101A2000282806D0E969069888475FEACB7012D06B
:101A300022E0A9690698641C88477F1E01D400280B
:101A400003DAE96906988847BCE72928F1D1641CC4
:101A5000CAF80040E9E71BF0240F07D02868049972
:101A6000031D2B600068C0E9001805E02868021D0E
:101A70002A600068C0F800902046A5E70000F07FCB
:101A8000494E46494E4954590000000070B5C4689B
:101A9000A50713D0650211D4B2F5807F09D0B2F545
:101AA000007F06D0B2F5806F08D1012300F1240138
:101AB00006E05D1E6FF07F46B54201D3012070BD88
:101AC0000161C361416024F470611143C160002071
:101AD00070BD00002DE9F0410C461646070047D0C6
:101AE000104600F06FF82078611C61280AD0722837
:101AF00002D077283CD102E00125002405E0022530
:101B0000042402E0082448F2020511F8010B2B28F6
:101B100006D0622809D011F8010C74280AD00BE015
:101B200045F0030544F00204EFE745F0040544F0F6
:101B30000104EAE744F010043846214600F078F842
:101B4000411C15D00021316171604FF40071F560C6
:101B5000F1617061200704D530460222002100F0B7
:101B600015F9306D40F0010030653046BDE8F08178
:101B70000020FBE72DE9F0410D460646104C206D94
:101B8000C10704D0410804D020F00104F7E7224641
:101B90000EE0542000F0CBF807000ED0206D47F087
:101BA00001010843542120653846FEF7FBFD3A4603
:101BB00029463046BDE8F0418CE70020D6E700001A
:101BC000240100202DE9F04704464FF0FF3800269D
:101BD000C568D4E90497A80718D0204600F092F908
:101BE000384600F02FF8002800DA4646280502D5CE
:101BF0004846FFF7E0FC4C212046FEF7D3FD206D60
:101C000020F0010020653046BDE8F0874046FBE744
:101C100010B50446AFF300802046BDE81040FEF743
:101C20002EBB10B500F0B8F9BDE8104000F0AEB919
:101C30000EB5CDE90001FEF727FD029069460120AF
:101C4000ABBE0EBD08B5694600900220ABBE08BD14
:101C50001FB58DE8070069460520ABBE04B010BD76
:101C60001FB58DE80F0069460620ABBEF6E708B544
:101C7000694600900920ABBE08BD1CB5CDE9000146
:101C800069460A20ABBE1CBD704708B56946009086
:101C90000C20ABBE08BD00000048704728020020A1
:101CA000704770477047704738B504460A460020B1
:101CB0006946AFF30080002808BF38BD024600998E
:101CC000204600F099F9012038BD012000F07EB9CE
:101CD000F8B5AFF30080054600200C46102000BF89
:101CE0000646A819A0420DD9324669460020AFF336
:101CF0000080070008BF00F069F90098A04218BFF3
:101D00000546C419FFF7C8FF05600746F01D20F01F
:101D100007004619284600F068F9B44208BFF8BD2C
:101D2000A21B31463868BDE8F84000F065B970B5CF
:101D30000646FFF7B1FF056806F10B0020F0070427
:101D4000B4429CBF002070BD2B466A68BAB11068CF
:101D5000A04210D304F1080188423CBF506858608B
:101D600007D35168101941601168091B0160586060
:101D70001460101D70BD13465268002AE7D1214639
:101D80002846FFF791FF0028DED170BD2DE9F04114
:101D9000044616460D464769007B80072ED038461C
:101DA000FFF765FF50BB3EB3012E02D0022E25D1B6
:101DB00004E0204600F03AF905441DE03846FFF7FC
:101DC00064FFE168002841F01001E16005DA204677
:101DD00000F058F80120BDE8F081C9030BD5626816
:101DE000E16A914200D81146A26911442269891A18
:101DF000814200DD08460544002D01DA0220EAE7B1
:101E0000E16A6068E268814206D29103E06203D52C
:101E100022F4003141F01002A6690027AE4213DC23
:101E2000E16A814201D90B4600E0034603EB060C50
:101E30002369ACEB030CAC4506DD814201D98C462D
:101E400000E084469C4505D1A760276042F0200051
:101E5000A5620DE0AD1BE669AE1B8142A66000D90C
:101E60000846C01A281A20605819606022F0200025
:101E700003490840E060002084F84870ABE70000A8
:101E8000BFCFD7FFC16821F4001141F08001C160CC
:101E900000218160016070472DE9F74F15460C461F
:101EA0004FF0FF3B3848D768D2F814A0074209D05A
:101EB0005046A969FFF7E1FE002819DB3248C0430C
:101EC0000740EF604FF000496FF000484C4501D3E8
:101ED000464600E0264600993B4650463246FFF70C
:101EE000B7FEA96920F00042B21A1144A96128B1D5
:101EF0002846FFF7C7FF5846BDE8FE8FA41BE5D173
:101F00000020F9E770B504460569C06A6168884237
:101F100000D80846E16821F42011E160C90312D518
:101F2000A84208D02246411B2846FFF7B5FF10B152
:101F30004FF0FF3070BD0020E562C4E90150E06859
:101F400020F48030E060002070BD10B50446C06809
:101F500020F02000E060A16AA06988420DD02046F0
:101F6000FFF7D0FFE06820F4405040F01000E06040
:101F7000A06AA0612069E062606044F24001E0680C
:101F80008843E06010BD000010000200002801D06E
:101F900000F024B87047000010B5014602A000F020
:101FA00066F8012010BD0000534947525452454481
:101FB0003A2052656469726563743A2063616E27E2
:101FC00074206F70656E3A200000000010B500F0BC
:101FD00067F8BDE81040FFF7D9BF0000014918209D
:101FE000ABBEFEE726000200704700210160C0E999
:101FF0000110704710207047034640688C46002847
:1020000018BF88423CBF03464068F8D3186818449C
:10201000884207D00CF1030020F00700001D411A90
:10202000521A0146081D0A60FFF7C5BA10B50146ED
:10203000C268900703D0900607D5886A0AE0FEF7C9
:10204000DFFB01210160881E10BD8B6948681844C0
:102050000B69C01A91F848301BB191F84910401A29
:1020600010BD1103FCD50028FADD401E10BD70B56F
:1020700005460C460A2000E06D1C00F039F835B129
:1020800028780028F8D102E0641C00F031F814B17F
:1020900020780028F8D1BDE870400A2000F028B868
:1020A00010B5012805D0002103A0FFF7E0FF0120B3
:1020B00010BD09A1F8E7000053494752544D454D62
:1020C0003A204F7574206F662068656170206D65D9
:1020D0006D6F7279000000003A2048656170206DD4
:1020E000656D6F727920636F7272757074656400CC
:1020F00008B569468DF800000320ABBE08BD00009E
:10210000FEE700002DE9F04F87B00C46054604F0CD
:10211000F7FC002800F0AE8141F2004640F6980A34
:10212000CDE901540024C4F20206C2F2000A41F2D1
:10213000111540F24448002712E000BF016A29420D
:1021400032D030464FF4805101F0E8FA002807F110
:10215000010718BF0120082F40EA4B0B2ED000BF0B
:1021600030464FF4805101F0D9FA0028F8D100BF71
:1021700030464FF4805101F0D1FA0028F8D0DAF857
:1021800000004462016841F001010160416A2729B1
:10219000D4D8416A2729D1D8416A2729CED8416AA3
:1021A0002829F3D3CAE700BF016A11EA080FC8D192
:1021B000016821F001010160C3E700BF4FF0000991
:1021C00041F2111540F24448002411E0016A29420D
:1021D00034D030464FF4805101F0A0FA002804F1C9
:1021E000010418BF0120082C40EA470730D000BF87
:1021F00030464FF4805101F091FA0028F8D100BF29
:1022000030464FF4805101F089FA0028F8D0DAF80E
:102210000000C0F82490016841F00101016000BF96
:10222000416A2729D2D8416A2729CFD8416A27296C
:10223000CCD8416A2829F3D3C8E700BF016A11EA64
:10224000080FC6D1016821F001010160C1E700BF9C
:102250004FF0000841F211144FF0000912E000BFE6
:10226000016A214234D030464FF4805101F056FAD1
:10227000002809F1010918BF0120B9F1080F40EA4F
:1022800045052FD030464FF4805101F047FA002821
:10229000F8D100BF30464FF4805101F03FFA0028DA
:1022A000F8D0DAF80000C0F82480016841F001019C
:1022B000016000BF416A2729D2D8416A2729CFD8B7
:1022C000416A2729CCD8416A2829F3D3C8E700BF3F
:1022D000016A40F244421142C5D1016821F0010176
:1022E0000160C0E741F211194FF0000814E000BF8F
:1022F000016A11EA090F35D030464FF4805101F0E0
:102300000DFA002808F1010818BF0120B8F1080FE4
:1023100040EA440430D000BF30464FF4805101F011
:10232000FDF90028F8D100BF30464FF4805101F08C
:10233000F5F90028F8D0DAF80000002141620168C0
:1023400041F00101016000BF416A2729D0D8416AEC
:102350002729CDD8416A2729CAD8416A2829F3D329
:10236000C6E700BF016A40F244421142C4D101688D
:1023700021F001010160BFE74FF0000814E000BF49
:10238000016A41F21112114234D030464FF48051AB
:1023900001F0C4F9002808F1010818BF0120B8F1C4
:1023A000080F40EA49092FD030464FF4805101F020
:1023B000B5F90028F8D100BF30464FF4805101F044
:1023C000ADF90028F8D0DAF8000000214162016878
:1023D00041F00101016000BF416A2729D0D8416A5C
:1023E0002729CDD8416A2729CAD8416A2829F3D399
:1023F000C6E700BF016A40F244421142C5D10168FC
:1024000021F001010160C0E7FFB257FA8BF050FAEA
:1024100085F050FA84F05FFA89F1884225D145F6BB
:102420001B39C0F601090DF114085FFA8BF3404621
:1024300008214A46EEB2E4B20097FDF7EDFF03AD86
:10244000284608214A4633460094FDF7E5FF45F645
:102450002136C0F60106019A40463146FEF796F84D
:10246000029A28463146FEF791F8002007B0BDE8F1
:10247000F08F00BF0020C4F2C62028602060FF203B
:1024800007B0BDE8F08F00007047000040F2A07078
:10249000C2F2000000F0F6B90020704701F04AB91E
:1024A00080B540F2A070C2F2000000F025FE0020CE
:1024B00080BD000080B513460A46014640F2A07078
:1024C000C2F2000000F0ECFC002818BF4FF0FF3013
:1024D00080BD000080B513460A46014640F2A07058
:1024E000C2F2000000F0F8FF002818BF4FF0FF30E4
:1024F00080BD00002DE9F041D0F828E000F1180C73
:102500005CF82E308C681D68002D03D400EB8E051E
:10251000ED6A1DB10220BDE8F08100BFD4E900568C
:1025200041F6FF779D605D68BD4335435D600D6892
:10253000EE0740F00581AE0600F10B81690703D577
:10254000196841F080011960196841F080511960E3
:10255000BFF35F8F196841F000411960A468002142
:1025600094B341F6FF787646002A61D01F6835465D
:1025700027F000571F601F6847F080461E606E1CE2
:10258000032E88BFEE1E5CF826301D6825F08055AE
:102590001D601D68002D61D400EB8605ED6A002DDD
:1025A0005CD1D4E9005701319D605D6825EA0805DA
:1025B0003D435D60BFF35F8F1D6845F000451D60C2
:1025C000A468002CD2D1B6461F68002A27F08047A5
:1025D00018BF07F180471F601A6842F000521A6066
:1025E000C26B00EB8E03DA62C0F828E0EFF31082D2
:1025F00072B6026C114401310164002062B6BDE87C
:10260000F08100BF00EB8605ED6A3DBBD4E90057C1
:1026100001319D605D6825EA08053D435D60BFF3BB
:102620005F8F1D6845F000451D60A468002CCAD06E
:102630001F68354627F000571F601F6827F0804647
:102640001E606E1C032E88BFEE1E5CF826301D68CF
:1026500025F080551D601D68002DD3D5013100295E
:102660003FF458AF481E032801F0030039D321F08E
:10267000030100BF5CF82E20BFF35F8F136823F0C7
:10268000004313600EF10102032A88BFAEF103027A
:102690005CF82230BFF35F8F1F6827F000471F6090
:1026A000531C032B88BFD31E5CF82320BFF35F8F1E
:1026B000176827F0004717605A1C032A88BFDA1EE4
:1026C0005CF82230BFF35F8F1C6802F1010EBEF18F
:1026D000030F88BFA2F1030E24F0004204391A60F0
:1026E000C8D10CEB8E0100283FF414AF0968BFF38A
:1026F0005F8F0A68012822F000420A603FF40AAFA7
:102700000EF10101032988BFAEF103015CF821201D
:10271000BFF35F8F1368022823F0004313603FF478
:10272000F9AE481C032888BFC81E5CF82000BFF320
:102730005F8F016821F0004101600220BDE8F08157
:102740001E684F6926F440063E431E60AE067FF5C4
:10275000F5AE1E68096926F04066314319606907C5
:102760003FF5EEAEF0E60000082000F0F7BE0000F6
:10277000EFF3108072B600BFFEE70000B0B504466C
:1027800000F0D8FF054640F20C00C2F200000078CD
:10279000611C18BF044400BF00F0CCFF401BA042E6
:1027A000FAD3B0BD80B500F00DF8000658BF80BD6B
:1027B00040F29420C2F200004068BDE8804008F07A
:1027C000F7BB0000D0F88C007047000002460029DB
:1027D0004FF0010008BF704712681368C3F300137D
:1027E00081F82830136803F060034B62136820EA15
:1027F000532381F820301368C3F30043CB77136869
:1028000020EA53338B771368C3F300330B771368D5
:1028100003F400638B61136803F480434B61136816
:1028200020EA93534B74136820EAD350087410685D
:10283000C0B2C009C873106800F4602088601068D6
:10284000C0F3802008719069C0F3400081F8540003
:102850009069C043C0B2C00981F84C00906900F093
:10286000300008659069000C88649069C0F38000AE
:1028700081F856009069C0F3C00081F8550000202F
:1028800070470000B0B50446006841F21405415994
:1028900049060BD541198A68520607D54020C0F277
:1028A00001000860204600F07FFB20684159C907FD
:1028B0000AD041198A68D20706D04FF0011008608B
:1028C000204600F0FDFD206841F214014258120438
:1028D00026D501448A68120422D5D4F8880040F035
:1028E0000800C4F888000A680868920406D448F210
:1028F00080621040C4F88C000A600DE042F20002D1
:10290000C0F27E021040C4F88C00886820F4C03009
:102910008860E020C4F884002046FFF743FF206869
:10292000816B09070AD5C06A00F06000C4F8940002
:10293000204600F0DFF90020C4F8940043F614416B
:10294000C4F201010868000358BFB0BD4FF4002273
:1029500020460A60BDE8B04000F0BCBD70B582B052
:10296000002843D00446D0F8840028B92320C4F8B6
:102970008400204600F022F90020019043F6440034
:10298000C4F2020001684FF4805641F480410160B6
:10299000006800F480400190019843F60400C4F2FE
:1029A0000100016821F4000101602168A268036848
:1029B0001A4302600068885940F00100885100F015
:1029C000B9FE054620688159C90713D000F0B2FE50
:1029D000401BB0F5FA7FF5D90120E0220421C4F8AC
:1029E0008810C4F8842002B070BD00BF012002B07E
:1029F00070BD00BF016848F20F12CFF6207211407F
:102A000001F59C41016005680120FFF7B7FE2068D1
:102A10004FF641720560816911408031816185699D
:102A20000120FFF7ABFE206841F218018561425892
:102A300043F62373CFF6DE031A4042F0087242F0E9
:102A40000402425045580120FFF798FE206800F527
:102A500080518D6142F280014FF48055C0F2C12156
:102A6000415146590120FFF789FE2068E2680021A4
:102A70004651116051609160D160A261136800F508
:102A8000805C43F48013136002F12803D36016685E
:102A90004FF48C4546F4400616609162D162116392
:102AA0005163E361936A43F48013936202F150032C
:102AB0005363966A46F440069662116551659165C6
:102AC000D1652362136D43F48013136502F178031B
:102AD000D365166D46F4400616659167D167C2F856
:102AE0008010C2F884106362936F43F4801393677D
:102AF000C2F88420936F43F440039367A162CCF83B
:102B0000102022694FF00043116051609160D16044
:102B1000C2E9081113605560566826F000465660F9
:102B200002F12806A264D6609162D16211635163FA
:102B3000C2E912119362D562D06A20F00040D062DF
:102B400002F15000E6645063116551659165D165ED
:102B5000C2E91C1113655565566D26F00046566591
:102B6000206502F17800D0659167D167C2F88010C6
:102B7000C2F88410C2E926119367D567D36F23F09A
:102B80000043D3676065C2F884202166C4E91A1146
:102B9000C4E91611CCF80C20606848F24003828822
:102BA000C4F202031A600068102258600020C4F8C2
:102BB0008810C4F8842002B070BD00002DE9F043F5
:102BC00085B0006848F20001C4F20201884203D0D7
:102BD00005B0BDE8F08300BF002643F63000009644
:102BE000C4F202000168002441F000710160016834
:102BF000C4F2020401F0007100910099009601688E
:102C00006D4641F08061016001684FF0020801F0FB
:102C1000806100910099009601684FF0030941F02E
:102C20000061016001680B2701F0006100910099CB
:102C30000096016841F004010160016801F004019F
:102C4000009100990096016841F00101016001685E
:102C500001F00101009100990096016841F0020124
:102C60000160016801F0020100910099009601687D
:102C700041F0400101600068294600F040000090EA
:102C800000983220009004F50060CDE90186CDF86F
:102C90000C90049700F06EFC8620CDE900082046D9
:102CA0002946CDE90269049700F064FC4FF4005016
:102CB000CDE9000804F580602946CDE90269049752
:102CC00000F058FC4FF42050CDE9000804F5C05046
:102CD0002946CDE90269049700F04CFC3D2005210E
:102CE000002200F0E7FD3D2000F0D0FD05B0BDE87A
:102CF000F0830000704700002DE9F04F85B00029F7
:102D0000044671D0D4F88400232840F0C580D4F85C
:102D10005CA004F1480858F82A90E26ED9F8000047
:102D20000191002868D4C2F10400039004F17C05ED
:102D300004F180004FF0000B002602902BE000BF52
:102D4000D9F80000D9F80010C0F30D40071F4FF06C
:102D5000010B2167D9F808200299BBB22846C9F8AF
:102D6000202000F029F9D4E9180101303944C4E9E0
:102D700018010020C9F820000AF10100032888BFCB
:102D8000AAF1030058F820900136D9F800108246C5
:102D9000B1F1FF3F39DD0398864235D2BBF1000F18
:102DA00032D1D9F80000C00505D5D9F81800A067C0
:102DB000D9F81C006067D9F80000800501D42868A4
:102DC00070B1D9F80000800544BF0020C4E91800A4
:102DD0006769D9F80000C005B2D44FF0000BB9E71D
:102DE0004FF0000BC8E700BFD4F8880040F00100A6
:102DF000C4F8880050E000BF00264FF0000BB61862
:102E0000E66607D13BE000BF5046E26E8246B61848
:102E1000E66634D0A76E00200DF11009049016E08C
:102E2000A06D00284FF48C4004BF44F20060C8F24B
:102E300000006860BFF35F8F286840F000402860A2
:102E4000781C032888BFF81E013E07460CD058F8AE
:102E50002750286A0028E3D1484600F07DF80498FE
:102E600018B12862A860DBE70026E06EB04206D009
:102E7000206841F2080100224250C4E91A76BBF1F1
:102E8000010FC4F85CA007D1E06F01990860002031
:102E9000E06705B0BDE8F08F012005B0BDE8F08F18
:102EA000F0B581B0054600681C4603694FF4F86729
:102EB00007EA821203F01C0361F3CF22D11801311B
:102EC000016100F037FC0646002700BF00F032FC2D
:102ED000801BB7EB104F09D128680169C907F5D1EC
:102EE000406980B22060002001B0F0BD012001B037
:102EF000F0BD00002DE9F0410446006C40B3676C62
:102F0000451E4FF0000803E00746013D681C1FD036
:102F100004EB8700C16A781C00F00300002908BF99
:102F20000746F1D0E06807EB870150F83100002830
:102F30000ED404EB8706F06A00F0CAFA781C00F0A1
:102F40000307C6F82C80C4E91057013D681CDFD187
:102F50000020BDE8F081000010B582B0044644F6C0
:102F6000E060C0F6010007F01DFB98B10346203079
:102F700020604BF66D10C0F60000186120684FF419
:102F8000C0640090002000214122019408F0A8F9BB
:102F900002B010BD40F29420C2F200000121017085
:102FA0000020206002B010BD40F29420C2F2000068
:102FB000406807F0FDBF00004FF0000C42F820CD44
:102FC000A2F808C0D0F800C05381BCF1000F8446BD
:102FD00018BFD1F800C0CCF800200A60006868B9BA
:102FE00017E000BF028901681A440029028108BF66
:102FF00070470A8908681A440A8150B10289016839
:103000001A44028129B10A8908681A4400280A81F1
:10301000E8D1704770B500296CD00446D0F8840020
:10302000102867D120680D46016848F20F12CFF6CC
:10303000207211402A7C6B7C002AAA6808BF01F527
:1030400000011143002B6B69EA7F08BF41F4800146
:103050001943AB7F41EA0241AA69002B2B7F08BFCD
:1030600041F4005111432A7941EA033195F82030A7
:1030700041EA8221002B6B6AEA7B08BF41F40071B0
:10308000194395F8283041EAC21141EA0311016061
:1030900006680120FFF772FB20684FF64172066058
:1030A000816995F84C3001EA020CAA6C002B4FEABA
:1030B000024208BF80322B6D95F8556043EA0C033D
:1030C00095F856101A4395F85450012E08BF42F057
:1030D0000802012908BF42F00402012D08BF42F096
:1030E0000202826185690120FFF748FB2068856143
:1030F000002070BD012070BDB0B5044600680069B5
:1031000020F01C0500F0E2FC4DF20031CFF6CE615C
:103110004EF2BF120144C0F2E402914204D845F0DD
:10312000080520680561B0BD4FF24011CFF6E951A6
:1031300047F63F020144C0F27D12914204D845F0A7
:103140000C0520680561B0BD47F60011CFF66C4153
:1031500045F600220144C0F262229142E1D341F6D9
:103160000071CFF60A2108444FF27F01C0F2FA2124
:1031700088428CBF45F0100545F0040520680561C4
:10318000B0BD00002DE9F04383B00446D0F88400C0
:103190000125102840F0E6802320C4F88400206830
:1031A000A565C16B04F1480841F40271C163D0F810
:1031B0000C1141F4003141F06001C0F80C11D0F85D
:1031C000101141F40311C0F810110420A56EE0663F
:1031D00058F82570386A00284FF00000019003D09D
:1031E0004FF48C4012E000BF01A8FFF7B5FE019834
:1031F000002800F0BB803862B860A16D4FF48C40AD
:10320000002904BF44F20060C8F200007860BFF3F8
:103210005F8F386840F0004038606F1C032F88BF14
:10322000EF1E58F82750286A40B901A8FFF794FE0E
:103230000198002800F0A0802862A860A06D4FF4DB
:103240008C4600284FF48C4004BF44F20060C8F262
:1032500000006860BFF35F8F286840F0004028607E
:103260007D1C032D88BFFD1E58F82570386A40B9B3
:1032700001A8FFF771FE0198002800F07F803862F6
:10328000B860A06D44F20069C8F20009002808BFC8
:103290004E467E60BFF35F8F386840F00040386074
:1032A0006F1C032F88BFEF1E58F82750286A38B9C3
:1032B00001A8FFF751FE0198002865D02862A86098
:1032C000A06D002818BF4FF48C49C5F80490BFF3D7
:1032D0005F8F286840F0004028607D1C0020032D8F
:1032E00088BFFD1EE26E2168824205D041F20802CD
:1032F00000238B50C4E91A50086840F008000860A9
:103300000D680120FFF73AFA20680560016841F076
:103310000401016005680120FFF730FA206841F2DE
:103320001806056000250295815941F480118151EC
:10333000805902900120FFF721FA029821688851F4
:1033400088598A1940F400508851885940F0020089
:103350008851506840F4D03040F0C10050602320C4
:10336000C4F88400284603B0BDE8F0830420E26E70
:1033700021688242BAD1BFE7032006E00220E26E54
:1033800021688242B2D1B7E701203D46E26E216852
:103390008242B1D0AAE7000070B582B00446D0F8EE
:1033A0008400232852D12320C4F88400206841F2ED
:1033B000180681194A6845F63E73CFF6FE731A4027
:1033C0004A60815921F400518151815921F0020153
:1033D0008151016821F00401016005680120FFF7B7
:1033E000CDF92068056000250195815941F48011CF
:1033F0008151805901900120FFF7C0F9019821689F
:103400008851086820F0080008600E680120FFF766
:10341000B5F920680660A06C416841F00041416048
:10342000E06C416841F000414160206D416841F02D
:1034300000414160606D416841F0004141601020F1
:10344000A565C4F88400284602B070BD0125284651
:1034500002B070BD10B50446A1B1D4F88400232891
:103460001CBF012010BD486B0122E0632046FFF71E
:1034700041F878B1D4F8880040F00200C4F8880020
:10348000012010BDD4F8880040F00100C4F8880085
:10349000012010BDBFF34F8FA06A2168421C032A90
:1034A00088BFC21E41F20400A262014408694007BD
:1034B0004FF0000042BF04220A61086010BD000006
:1034C00040F29420C2F20000806807F071BD000055
:1034D00008F0B0B97047000070B5044600684FF4BA
:1034E000F865066905EA821206F01C0661F3CF2230
:1034F000911903319AB24261016100F01BF905464E
:10350000002600BF00F016F9401BB6EB104F05D1A6
:1035100020680069C007F5D1002070BD012070BD92
:1035200080B5082818BF80BD41F20000C4F2020037
:10353000082100F0F3F801280ED140F28021C2F2F8
:103540000001C8684FF0000C0022002381F800C081
:10355000BDE880400FF0B0BD80BD000043F61441CF
:10356000C4F201010A68024214BF08607047FFF705
:10357000D7BF00002DE9F04F82B000F13E4242F289
:10358000004502F1FF77C4F202050A2243F6004E1D
:103590004FEAB726A84208BF0922C4F2010E092E3D
:1035A00038BF4FEAB7220125002600274FF0000858
:1035B000009208E008F101080437B8F1100F06F195
:1035C000020600F0A7800C6805FA08F914EA090F52
:1035D000F0D0D1F804B003220BF0030CACF10104DD
:1035E000B240012C6FEA020A10D88268CC6802EA65
:1035F0000A02B440224382604268CBF3001422EAFC
:10360000090204FA08F42243426005E0BCF1030F0A
:1036100002D14FF0030C20E0C2688C6802EA0A0273
:10362000B4402243BCF1020FC26016D16FF0030216
:1036300002EA58020244D2F820C007F01C050F230A
:103640000C69AB402CEA030304FA05F52B43136223
:10365000D1F804B001250BF0030C02680CFA06F354
:1036600002EA0A021A431BF4403F0260A2D0002281
:1036700043F644030192C4F202031A684FF6084C61
:1036800042F480421A601A68CFF6FF7C02F480424E
:103690000192019A28F00302724452F80C3007F0AC
:1036A0000C050F24AC40A343009C04FA05F52B4302
:1036B00042F80C30DEF808204B6842EA090543F670
:1036C0000C4CDC0258BF22EA0905CEF80850C4F2BF
:1036D000010CDCF800209C0242EA090558BF22EAEE
:1036E0000905CCF80050DEF804209C0342EA0905E5
:1036F00058BF22EA0905CEF80450DEF80020DB03AB
:1037000042EA090558BF22EA0905CEF80050012512
:1037100050E700BF02B0BDE8F08F0000006908402C
:1037200018BF012070470000002A08BF090481610A
:103730007047000041F27440C2F201000068704717
:1037400040F20C0041F27441C2F20000C2F20101E9
:1037500000780A68104408607047000080B543F69E
:103760000040C4F20200016841F400710160016888
:1037700041F480610160016841F4807101600320BF
:1037800000F0C4F80F2000F005F800F05DF800200C
:1037900080BD0000B0B586B0002543F64401019518
:1037A000C4F202010A68044642F001020A60096894
:1037B00001A801F0010101910199694600F066F943
:1037C00000F09EF94DF683614000C4F21B31A0FB6E
:1037D00001014FF0FF3000EB914140F65000002214
:1037E000C2F20000C4F2010240F2E733C0E9002156
:1037F000C0E902530561856100F0E6FB054618B19A
:10380000284606B0B0BD00BF40F65000C2F200002E
:1038100000F022FC05460028F2D1192000F036F80D
:103820000F2C0DD8192021460022002500F042F867
:1038300040F21000C2F200000460284606B0B0BD9D
:103840000125284606B0B0BD82B0002043F64001F5
:103850000190C4F202014A6842F480424A604A6818
:1038600002F480420192019A00900868002240F020
:103870008050086008680F2100F080500090009888
:103880006FF0010002B000F015B80000002848BF3A
:103890007047C1B200F01F00012202FA00F04EF2A0
:1038A0000012CEF2000242EAD10121F003010860C9
:1038B0007047000010B54EF60C5CCEF2000CDCF840
:1038C0000030C3F3022E8EF00704042C28BF04241A
:1038D000BEF103034FF0FF3E0EFA04F438BF00239D
:1038E000A14399400EFA03F39A43114300F00F02EB
:1038F00000F160430901043A03F56443624400287F
:1039000048BF02F10C03197010BD00004EF60C51B7
:10391000CEF200010A684FF6FF031A4060F30A2254
:1039200042F0806040F0FD70086070472DE9F04182
:10393000002800F08B8043F60808C4F20208044611
:10394000D8F8F8030D4600F00F00884207D288F837
:10395000F853D8F8F80300F00F00A84276D1206899
:10396000810717D5410705D5D8F8001041F4E0517B
:10397000C8F80010010705D5D8F8001041F46041DF
:10398000C8F80010D8F80010A26821F0F001114327
:10399000C8F80010C0073FD1D8F8F80300F00F00B6
:1039A000A84207D988F8F853D8F8F80300F00F00B8
:1039B000A8424BD12068410707D5D8F80010E2682B
:1039C00021F4E0511143C8F80010000708D5D8F8D9
:1039D0000000216920F4604040EAC100C8F80000FE
:1039E00000F0A2F8D8F8001044F62062C1F30311E9
:1039F000C0F60102515C40F2300220FA01F140F2BF
:103A00001000C2F200000068C2F200021160FFF76D
:103A1000C1FE0020BDE8F0816068811E022907D246
:103A200058F8081C89015CBF0120BDE8F08111E055
:103A3000012807D158F8081C89035CBF0120BDE8A4
:103A4000F08107E058F8081C890703D40120BDE87D
:103A5000F08100BFD8F8001021F003010843C8F836
:103A60000000FFF767FE064641F28837D8F80000ED
:103A7000616800F00C00B0EB810F8DD0FFF75AFEAB
:103A8000801BB842F2D90320BDE8F0810F2202600A
:103A900043F60802C4F20202136803F00303436012
:103AA000136803F0F0038360136803F4E053C3600A
:103AB000D2F800C04FF4E05303EADC030361D2F80C
:103AC000F80300F00F0008607047000040F230007B
:103AD000C2F200000068704740F2300043F608016F
:103AE000C2F20000C4F202010068096844F63062C4
:103AF000C1F38221C0F60102515CC840704700004A
:103B000040F2300043F60801C2F20000C4F20201A4
:103B10000068096844F63062C1F34231C0F6010220
:103B2000515CC8407047000010B543F60404C4F26D
:103B30000204606800F00C0142F200400829C0F263
:103B4000F40007D0042918BF10BD41F20020C0F2D4
:103B50007A0010BD216801F03F0221682368490204
:103B6000C3F3881106D4A1FB00010023FCF7D0FBAE
:103B700007E000BF41F20020C0F27A004843B0FBEA
:103B8000F2F021680222C1F3014102EB4101B0FBD6
:103B9000F1F010BD2DE9F04182B0002868D0044654
:103BA000007843F60006C007C4F202060BD0B068E6
:103BB00000F00C00042840F09F803068800302D59C
:103BC0006068002854D0207880071AD5B06810F0BB
:103BD0000C0F09D0B06800F00C00082840F0A68057
:103BE0007068400200F1A2803068800702D5E0686A
:103BF00001283DD13068216920F0F80040EAC10079
:103C000030602078000737D4207840074CD4A5696D
:103C100055B3B06800F00C00082840F0BB80012DBF
:103C200026D07068E16900F480028A4220D1216ABE
:103C300000F03F028A421BD147F6C071626A014020
:103C4000B1EB821F14D1A16A4FF6FF73C9039943E8
:103C500000F44032A1F580318A4209D1E16A00F0D6
:103C60007060B0EB016F03D1002002B0BDE8F081BD
:103C7000012002B0BDE8F0816069002840F2000038
:103C8000C4F2472076D00121C0F8801EFFF752FD14
:103C9000054600BF706F8007B6D4FFF74BFD401B91
:103CA0000228F7D9DDE000BF306C10F080580AD14F
:103CB00000200190306C40F080503064306C00F097
:103CC00080500190019847F20007C4F2000738685D
:103CD000C00541D4386840F480703860FFF72AFD91
:103CE000054600BF3868C00536D4FFF723FD401BEA
:103CF0000228F7D9B5E000BFB06800F00C00082832
:103D000003D1706840023FF558AF6068B0F5803F5E
:103D100007D0B0F5A02F40F08D80306840F48020AF
:103D20003060306840F4803030608DE0E06800281A
:103D300052D00020C4F2472001210160FFF7FAFCB5
:103D4000054600BF306880073FF554AFFFF7F2FC2F
:103D5000401B0228F6D984E0A068012805D0052878
:103D60004ED1306F40F004003067306F40F00100FA
:103D700030674FE00021C0F8801EFFF7DBFC0546EE
:103D8000706F80077FF540AFFFF7D4FC401B02281F
:103D9000F6D966E00027C4F2472700203866FFF70F
:103DA000C9FC022D05460BD1306880015ED5FFF7B6
:103DB000C1FC401B02284FF00300F5D955E700BFB6
:103DC000306880017FF550AFFFF7B4FC401B02283C
:103DD0004FF00300F4D948E70020C4F24720002147
:103DE0000160FFF7A7FC0546306880077FF509AF43
:103DF000FFF7A0FC401B02284FF00300F4D934E782
:103E0000316F002821F001013167316F21F0040189
:103E100031674DD0FFF78EFC054641F2883700BF71
:103E2000306F800756D4FFF785FC401BB842F7D9A6
:103E300017E000BF3168002821F48031316031681B
:103E400021F4802131604FD0FFF774FC054600BF9C
:103E5000306880033FF5B7AEFFF76CFC401B642869
:103E6000F6D9032002B0BDE8F08100BF04F11C05C3
:103E70002FCD084340EA8210D9034FF6FF729143D9
:103E8000A1F5803140EA0560084370600120386682
:103E9000FFF750FC044600BF306880013FF5E4AEF8
:103EA000FFF748FC001B02284FF00300F4D9DCE6C2
:103EB000FFF740FC054641F2883700BF306F8007AE
:103EC00008D5FFF737FC401BB8424FF00300F5D987
:103ED000CBE600BFB8F1000F7FF499AE306C20F054
:103EE0008050306493E600BFFFF724FC054600BF16
:103EF000306880037FF567AEFFF71CFC401B642829
:103F00004FF00300F4D9B0E670470000704700009E
:103F100010B590F83C20012A4FF0020251D080F8F1
:103F20003D200268D2F804E0D2F808C00C682EF0F8
:103F30007003234341F2FF74C4F20004A2425360B1
:103F40000EDC40F2FF73C4F200039A4216DCB2F1B9
:103F5000804F2BD040F20043C4F2000324E000BFA6
:103F600040F2FF33C4F201039A4213DC41F600032E
:103F7000C4F200039A4219D0002313E040F6000374
:103F8000C4F200039A4211D040F60043C4F2000389
:103F90000AE000BF44F20003C4F201039A4205D0D4
:103FA00040F20043C4F201039A4204D149682CF064
:103FB0008003194391600121002280F83D1080F8B0
:103FC0003C20104610BD0000002804BF01207047AF
:103FD00010B5044690F83D0028B9002084F83C0054
:103FE000204600F01FF8022084F83D002068211DC3
:103FF00000F08EFD012084F8460084F83E0084F82D
:104000003F0084F8400084F8410084F8420084F8BE
:10401000430084F8440084F8450084F83D00002003
:1040200010BD000081B00068B0F1804F02D001B037
:10403000704700BF0020009043F64000C4F2020029
:10404000016841F001010160006800F0010000908A
:10405000009801B07047000090F83D1001291CBF86
:1040600001207047022180F83D10006841F2FF7284
:10407000C168C4F20002904241F00101C1600DDC50
:1040800040F2FF71C4F20001884215DCB0F1804FAC
:104090002AD040F20041C4F2000123E040F2FF3197
:1040A000C4F20101884213DC41F60001C4F20001B0
:1040B000884219D0002113E040F60001C4F200014B
:1040C000884211D040F60041C4F200010AE000BF6E
:1040D00044F20001C4F20101884205D040F20041DF
:1040E000C4F20101884206D1816801F00701062966
:1040F00004BF00207047016841F001010160002009
:104100007047000080B590F83C20012A4FF0020271
:1041100000F0C28080F83D20D0F800C04FF67772E2
:10412000DCF8083023EA0202CCF808200B684F2B99
:1041300028DC1F2B44DD202B45D0302B43D0402BD7
:1041400040F0AC80D1F804E0C968DCF82030DCF83D
:10415000202022F00102CCF82020DCF8182022F0E8
:10416000F00242EA011123F00A0242EA0E02CCF800
:104170001810CCF82020DCF8081041F0470121F09D
:10418000300180E06F2B27DDB3F5005F48D0B3F539
:10419000805F7AD0702B40F08180D1E901E3C9685B
:1041A000DCF8082043EA0E0322F47F4243EA0121AF
:1041B0001143CCF80810DCF8081041F0770162E0F8
:1041C0000BB1102B6AD1DCF8081021F070011943F3
:1041D00041F0070157E000BF502B35D0602B5DD177
:1041E000D1F804E0C968DCF8203023F01003CCF8E3
:1041F0002030DCF81830DCF8202023F4704322F063
:10420000A00243EA013142EA0E12CCF81810CCF8B1
:104210002020DCF8081041F0670121F0100132E0A5
:10422000D1E901E3C968DCF8082043EA0E0322F46F
:104230007F4243EA01211143CCF80810DCF8081052
:1042400041F480411FE000BFD1F804E0C968DCF808
:104250002030DCF8202022F00102CCF82020DCF80D
:10426000182022F0F00242EA011123F00A0242EA89
:104270000E02CCF81810CCF82020DCF8081041F021
:10428000570121F02001CCF808100022012180F80C
:104290003D10002180F83C10104680BD0122F5E75A
:1042A0007047000010B5016804460869800744BFE4
:1042B000C8685FEA807039D40869400744BFC8689D
:1042C0005FEA40703ED40869000744BFC8685FEAEF
:1042D000007045D40869C00644BFC8685FEAC06082
:1042E0004AD40869C0071CBFC8685FEAC07051D1D2
:1042F0000869000644BFC8685FEA006052D40869D4
:10430000400644BFC8685FEA406053D4086980062D
:1043100046BFC8685FEA806010BD6FF0200220468B
:104320000A61BDE81040FFF7F1BD00BF6FF0020069
:104330000861012020778869800743D02046FFF775
:10434000AFFF45E06FF00400086102202077886924
:1043500010F4407F40D02046FFF7A2FF42E000BFAC
:104360006FF00800086104202077C86980073DD0FD
:104370002046FFF795FF3FE06FF01000086108202E
:104380002077C86910F4407F3AD02046FFF788FFB5
:104390003CE000BF6FF001000861204600F03EF8ED
:1043A0002168A5E76FF0800008612046FFF7ACFDAB
:1043B0002168A4E76FF040000861204600F038F85B
:1043C0002168A3E7204600F025F8204600F024F8F5
:1043D0002168002020776FE7204600F01BF8204678
:1043E00000F01AF82168002020776CE7204600F0E2
:1043F00011F8204600F010F821680020207769E7C6
:10440000204600F007F8204600F006F8216800205A
:10441000207766E7704700007047000000680021C1
:10442000C4F20101884218BF7047FFF789B9000044
:1044300070470000002804BF0120704710B50446F3
:1044400090F83D0028B9002084F83C00204600F098
:1044500021F8242084F83D002068C16821F400512F
:10446000C160204600F0F2FB2068016921F4904110
:104470000161416921F02A014161C16841F40051A3
:10448000C16000202021206484F83D1084F83E1093
:1044900010BD000080B586B0016844F60000C4F28B
:1044A0000000814202D006B080BD00BF002143F66B
:1044B00030020191C4F20202136900F5E23043F4C4
:1044C00080231361136903F480230193019B0191FD
:1044D000136843F008031360126802F008020192A7
:1044E000019A4FF4407201920222CDE90221032188
:1044F00004910721059101A9FFF73CF806B080BDA2
:10450000FEE7000010B582B0044600210068636930
:10451000019101AA0121984700282DD420686369E0
:1045200001AA01219847002826D49DF804004007DD
:1045300002D4012002B010BD2068636901AA0021E5
:104540009847002818D40199C80407D401F40450EE
:10455000B0F5045F14D1022002B010BD2068636979
:1045600001AA1F219847002806D40198C10411D43C
:10457000062002B010BD00BF6FF0040002B010BDF5
:10458000C8054FF0040058BF0520890448BF032028
:1045900002B010BD00F01C001828DCD0142805D093
:1045A000082814BF0520032002B010BD042002B06B
:1045B00010BD0000F0B581B00446406800210091B4
:1045C00070B1A06980470546A0698047401BB0F5DF
:1045D000FA6FF9D9012000256060284601B0F0BDCE
:1045E000A068002818BF8047202000256F460026BD
:1045F000206004E06FF004050136202E0ED06369C0
:10460000304612213A4698470028F3D4009800F02B
:104610001F008642F0D10025266000E026681F2E8C
:1046200088BF6FF00205002DD7D1236930460021E5
:104630004FF40042984700281ED4206863696A46F8
:104640000021984700281DD4A069804706466F4680
:104650006FF004059DF801000006B2D5A0698047FF
:10466000801BB0F5FA7F13D82068636900213A46B1
:1046700098470028EED5B0E76FF00305284601B053
:10468000F0BD00BF6FF00405284601B0F0BD00BFCB
:104690006FF00105284601B0F0BD000080B598B16B
:1046A000CA688AB18B687BB1D1F810C0BCF1000F29
:1046B0000AD0D1E900E1C0E90432C0E902E1C0F862
:1046C00018C0002080BD00BF4FF0FF3080BD00004B
:1046D00080B544F6152044F63862C0F60000C0F6F6
:1046E0000102002106F096FC40F28C71C2F200013A
:1046F000086080BDF0B587B0002643F63000CDE9F4
:1047000005660196C4F20200016840F2004441F0DF
:10471000100101600168C4F2020401F0100101916E
:10472000019901960168002241F0040101600168CD
:10473000802701F00401019101990196016841F07F
:1047400080010160016801F08001019101990196E9
:10475000016841F001010160016801F0010101916E
:1047600001990196016841F020010160016801F0A2
:104770002001019101990196016841F00201016057
:10478000016801F00201019101990196016841F06F
:1047900008010160016801F0080101910199019689
:1047A000016841F0400101600068802100F0400094
:1047B000019001982046FEF7B7FF082002904FF4C1
:1047C000881002ADCDE9030604F540602946FEF7E6
:1047D000D1FE4FF48050CDE9020604F58050294601
:1047E0000496FEF7C7FE0120CDE9030620462946C0
:1047F00002970596FEF7BEFE092005210022FFF76D
:1048000059F80920FFF742F807B0F0BDB0B584B001
:104810000020002100250CF067FC40F2F824C2F2D1
:10482000000448F25D1022462346C0F600002560D1
:1048300042F8045F43F8085F41F2BD1CCDE9005027
:1048400004F13005C0F6010C28462146CDF808C019
:1048500005F0DCFE284606F077F894F86100400782
:1048600004D4284606F076F803E000BF284606F098
:1048700021F947F6A971C0F60001284606F098F81C
:104880000EA044F80C0F00204FF480611022C4E900
:104890000100C4E90300C4E90512C4E9070047F6B2
:1048A000AD70C0F600002946224606F0B3FB28464C
:1048B00004B0BDE8B04002F095B800BF4574684C44
:1048C000696E6B0080B586B040F698000021C2F298
:1048D00000004FF0804253234FF0FF3C0591CDE99B
:1048E0000311CDE90011C0E90023C0E9021C0161F8
:1048F0008161FFF769FB002818BFFDF739FF4FF40E
:104900008050029040F69800C2F2000002A9FFF722
:10491000F9FB002818BFFDF72BFF40F69800C2F204
:1049200000006946FFF7F4FA002818BFFDF720FFE2
:1049300006B080BD80B540F6E00044F60001C2F24A
:104940000000C4F2000100234FF00C0C4FF4E132E0
:1049500080E80E00C0E90333C0E905C3C361FFF777
:1049600069FD002808BF80BDBDE88040FDF700BF9D
:10497000FEE70000FEE7000000000000000000006D
:10498000EFF30980BFF36F8F154B1A681EF0100FFD
:1049900008BF20ED108A20E9F04F10602DE90900D2
:1049A0004FF0500080F31188BFF34F8FBFF36F8F2C
:1049B0000DF072FF4FF0000080F31188BDE8090090
:1049C00019680868B0E8F04F1EF0100F08BFB0EC8F
:1049D000108A80F30988BFF36F8F704700BF00BF54
:1049E0006003002000000000000000000000000044
:1049F000074B19680868B0E8F04F80F30988BFF3E7
:104A00006F8F4FF0000080F31188704700BF00BF28
:104A100060030020FFF7FAFE012006F07FF8FBE7B5
:104A200080B54EF21000CEF2000000680EF090FF4C
:104A3000012808BF80BDBDE880400EF04DB80000E1
:104A4000B0B592B0002443F64000CDE90A44CDE968
:104A500008440594CDE90344CDE901440094C4F22F
:104A600002000168022541F080510160006800F0F9
:104A700080500090009847F200000094C4F20000BB
:104A8000016841F440410160006800F4404000903A
:104A90000098012006904FF4803007904FF480007A
:104AA0000D9004200E90A820CDE90F05072011904D
:104AB00006A80C95FFF76EF820B1EFF3108072B6E0
:104AC000FEE700BF0F20CDE901054FF4A050049090
:104AD0004FF48050059001A805210394FEF726FFAE
:104AE00020B1EFF3108072B6FEE700BF12B0B0BD88
:104AF0004EF68850CEF20000016841F4700101606A
:104B00007047000040F65000C2F20000FFF7CABB39
:104B100010B540F6FF3E0368C4F2000E40F2004CB0
:104B20007045C4F2010C27DCB0F1804F31D040F267
:104B30000042C4F2000290422BD040F60002C4F2C0
:104B40000002904225D041F6FF72C4F2000290426A
:104B500029DC70453CDCB0F1804F5FD040F2004270
:104B6000C4F20002904259D040F60002C4F20002A2
:104B7000904253D056E000BF40F60042C4F200021B
:104B8000904206D0604504D00022C4F20102904257
:104B9000D9D14A6823F07003134341F6FF72C4F27F
:104BA00000029042D5DD43F6FF72C4F2010290424A
:104BB00022DC42F20002C4F2000290422ED0002217
:104BC000C4F20102904229D0604527D02AE000BFFC
:104BD00040F60042C4F2000290421FD041F60002AB
:104BE000C4F20002904219D041F60042C4F2000221
:104BF000904213D016E000BF44F20002C4F201025A
:104C000090420BD044F60002C4F20102904205D05B
:104C100044F20042C4F20102904203D1CA6823F474
:104C20004073134323F080024B69D1F800E08C6895
:104C30001A430260C46240F48062C0F828E0624512
:104C400004BF096901630121416110BD10B504462B
:104C50000068D4E902C22369016921F4405111437B
:104C60000161626943EA0C01E3691143C2681943B7
:104C700049F20C639A431143C1604169A26921F46E
:104C8000407141F20043114340F48062C4F20103D9
:104C90009A42416102D1FEF733FF01E0FEF71CFFAB
:104CA000E16963681922B1F5004FA0FB020123D12D
:104CB0005A00DB0FFBF72CFB48F21F51C5F2EB113A
:104CC000A0FB01235A094FF69C73C0F6FF7303F152
:104CD000805302FB0300322303EBC000A0FB010161
:104CE0004FF4F87000EA111000EB0210C1F342110A
:104CF00008442168886010BD9A009B0FFBF708FBF1
:104D000048F21F51C5F2EB11A0FB01235A094FF6DF
:104D10009C73C0F6FF7302FB0300322303EB001009
:104D2000A0FB0101F02000EA511000EB0210C1F3DA
:104D3000431108442168886010BD0000FEE70000B0
:104D4000002800F0A7802DE9F04784B0446A0546AA
:104D5000002C00F09C806079082840F0988008685A
:104D6000E169884240F093800C20A4F805000020FF
:104D700020810DF10E0328462146042200F0E4FABA
:104D800000287DD08046BDF80E6040683F2E00F1BF
:104D9000F0090FD344F6857045F6321145F67413C9
:104DA000C0F60100C0F60101C0F6010340F29A52BC
:104DB000FBF726FB701C322180B2042209F8061092
:104DC00009F80020E069B11C1FFA81FAADF80E1055
:104DD00004F0C6FCBAF1410F07460FD344F68570C4
:104DE00045F6F80145F67413C0F60100C0F601015E
:104DF000C0F6010340F2B752FBF702FB380EF11C7C
:104E000009F80A00380C89B209F80100711D321D39
:104E100089B2380A92B209F80170F11D09F802004E
:104E2000B01D8BB282B2432B4FF0FF03ADF80E00E2
:104E300009F8023009D819FA81F0C6F13C010122C3
:104E400012FA81F1FBF78CFC4320F13081B240462D
:104E500006F04AFE40F2E040C2F20000406844F62C
:104E6000686744F66C62C0F60107C0F6010241466D
:104E70004323009501970CF089FF404606F0DAFCC9
:104E8000A079FF281CBF0130A0711420208104B03C
:104E9000BDE8F08744F6857045F67A0145F674134F
:104EA000C0F60100C0F60101C0F6010340F28B32EA
:104EB000FBF7A6BA80B582B0002841D0416A00292C
:104EC0004ED08B6A002248F6890C4A825A1CC8F6DA
:104ED000880C0DD01E33A3FB0C324FEA521E4FF646
:104EE000FF739E4538BF5309002B08BF01238B82F7
:104EF000CB6A5A1C0FD003F11E02A2FB0C234FEA0F
:104F0000531E4FF6FF72964538BF5A09002A08BF54
:104F100001224A81CA810B6B5A1C31D003F11E0257
:104F2000A2FB0C234FEA531C4FF6FF72944538BF87
:104F30005A09002A08BF01228A810A8221E000BFA3
:104F400044F6857045F67413C0F601002DA1C0F635
:104F5000010340F2154202B0BDE88040FBF750BAB1
:104F600044F6857045F67413C0F601001FA1C0F623
:104F7000010340F2174202B0BDE88040FBF740BA9F
:104F80008A894B89013A92B29A423CBF00224A81F7
:104F9000CA790AB10A6A0CE091F91C20002A01D4EE
:104FA000FF2206E0D2B2C02A34BF4FF6FF726FF084
:104FB0007F424B6A0192009373B14A790A2A04D066
:104FC0000A22A1F8052000220A811C3101AA6B46A1
:104FD00005F03CFC02B080BDCB691A4042F0807203
:104FE00000924A790A2AF0D0EAE700BF6468637049
:104FF0005F62696E643A206468637020213D204ED0
:10500000554C4C00646863705F62696E643A206E50
:105010006574696620213D204E554C4C000000000F
:1050200010B5446A6179082904D00821A4F8051054
:105030000021218104F11C01002202F05FFDA07912
:10504000FF281CBF0130A0710120208110BD00008D
:105050002DE9F04F83B040F29440C2F200000468A2
:10506000002C00F06D81012540F2224940F23246C9
:105070000DF10A0A0AE000BF204601F0E5F82046DB
:1050800001F0B0FC2468002C00F05A81D4F824B060
:10509000BBF1000FF6D09BF805000028F2D0BBF85A
:1050A000141039B1BBF81220013293B28B42ABF825
:1050B0001220E1D0BBF8101021B101390A04ABF87D
:1050C00010101FD0BBF80E100029DBD001390A04E4
:1050D000ABF80E10D6D10A28D4D805FA00F010EAA1
:1050E000090FCFD0204601F089F9BBF80C00BBF8BE
:1050F0001210401A0228A2BF80B24008ABF80E007E
:10510000C0E700BF0A28BDD805FA00F13142B9D086
:10511000042805D00420ABF805000020ABF80800F7
:10512000204659460322534600F00EF9002800F0AD
:10513000DA80BDF80A9045688046B9F1410F0FD377
:1051400044F6857045F6321145F67413C0F6010039
:10515000C0F6010140F29A52C0F60103FBF750F984
:1051600009F1010005F1F006392180B2022206F8AA
:10517000091009F1020132548FB2258D432FADF889
:105180000A100FD344F6857045F6BD0145F6741339
:10519000C0F60100C0F6010140F2AE52C0F60103B4
:1051A000FBF72EF9280A09F10301F05509F1040073
:1051B00089B2755485B2402DADF80A000FD344F67C
:1051C000857045F6321145F67413C0F60100C0F63D
:1051D000010140F29A52C0F60103FBF711F93721A1
:1051E000715509F1060109F105008DB280B2032263
:1051F000442D3254ADF80A100FD344F6857045F6AD
:10520000880145F67413C0F60100C0F6010140F2B2
:10521000A652C0F60103FBF7F3F809F1070087B2C5
:105220000121442F7155ADF80A000FD344F6857063
:1052300045F6880145F67413C0F60100C0F6010179
:1052400040F2A652C0F60103FBF7DAF809F10800B4
:1052500085B20321442DF155ADF80A000FD344F671
:10526000857045F6880145F67413C0F60100C0F656
:10527000010140F2A652C0F60103FBF7C1F81C2160
:10528000715509F10A0109F109008AB2432A82B273
:105290004FF0FF034FF00105ADF80A00B35408D8F2
:1052A00016FA81F0C9F1390115FA81F1FBF758FAC4
:1052B0004320F13081B2404606F016FC40F2E04057
:1052C000C2F20000406844F66C624146C0F601023A
:1052D000432300940CF0C6FC404606F0ABFA40F2C3
:1052E000224940F232469BF8060055FA80F1CAB2D4
:1052F0008A4201D0142014E04FF47A735A4340F2EA
:10530000F31313FA82F244F6D353C0B2C1F262032C
:1053100009284FF01400A2FB03238BF8061038BFB6
:105320005809BBF81410BBF81220ABF80800891A12
:105330000229FFF6A7AE88B24008ABF81000A1E63C
:1053400003B0BDE8F08F00002DE9F04381B068B3F1
:105350000C46B9B39146074636204FF49A714FF484
:105360002072984605F0E4FE00283DD005464089AD
:1053700080084C280CD844F6857045F67413C0F6A6
:10538000010046A1C0F6010340F27272FBF738F843
:10539000B9F1030F02D16079032833D1A07948B362
:1053A00040F29070C2F2000000682AE044F6857076
:1053B00045F67413C0F6010050A1C0F6010340F297
:1053C00069720AE044F6857045F67413C0F6010070
:1053D00042A1C0F6010340F26A72FBF711F8002502
:1053E000284601B0BDE8F0830025284601B0BDE89D
:1053F000F08300BFFAF74AFF40F29071C2F2000159
:10540000086020606E684FF49971B01CFBF7A8F932
:1054100040F20110308097F830102068B17004F02D
:105420009FF9A9F10701022970600AD3B9F1040FAD
:1054300007D0B9F1030F06D1607900F0FE0004280F
:1054400001D17868F06097F82A00B8F1000F307742
:1054500097F82B00707797F82C00B07797F82D000D
:10546000F07797F82E0086F8200097F82F0086F83E
:10547000F29086F8210048F26320C6F25330C6F855
:10548000EC0040F23510A6F8F0001CBF0320A8F88D
:105490000000284601B0BDE8F08300BF6468637077
:1054A0005F6372656174655F6D73673A20636865F9
:1054B000636B207468617420666972737420706213
:1054C00075662063616E20686F6C642073747275FA
:1054D000637420646863705F6D73670064686370F1
:1054E0005F6372656174655F6D73673A20646863BA
:1054F0007020213D204E554C4C00000064686370C4
:105500005F6372656174655F6D73673A206E657481
:10551000696620213D204E554C4C00002DE9F04F8E
:1055200083B0D0F824B081469BF8051000200629EE
:10553000CBF81C001EBF0621ABF80510ABF8080025
:105540000DF10A034846594601224FF00108FFF7C2
:10555000FBFE002800F0D3808246BDF80A70406848
:10556000412F00F1F0050FD344F6857045F6321156
:1055700045F67413C0F60100C0F60101C0F6010340
:1055800040F29A52FAF73CFF781C392180B202228D
:10559000E955B91C2A548EB2B9F82840432EADF80B
:1055A0000A100FD344F6857045F6BD0145F6741315
:1055B000C0F60100C0F60101C0F6010340F2AE5290
:1055C000FAF71EFF200AF91CA855381D89B26C5441
:1055D00084B2402CADF80A000FD344F6857045F62E
:1055E000321145F67413C0F60100C0F60101C0F691
:1055F000010340F29A52FAF703FF37212955B91DEA
:10560000781D8EB280B20322442E2A54ADF80A10BF
:105610000FD344F6857045F6880145F67413C0F63D
:105620000100C0F60101C0F6010340F2A652FAF7EC
:10563000E7FEF81D84B20121442CA955ADF80A00FB
:105640000FD344F6857045F6880145F67413C0F60D
:105650000100C0F60101C0F6010340F2A652FAF7BC
:10566000CFFE07F1080086B20321442E2955ADF87C
:105670000A000FD344F6857045F6880145F6741389
:10568000C0F60100C0F60101C0F6010340F2A652C7
:10569000FAF7B6FE1C21A95507F10A0107F1090026
:1056A0008BB282B2432B4FF0FF03ADF80A00AB542C
:1056B00009D815FA81F0C7F13901012212FA81F1F6
:1056C000FBF74EF84320F13081B2504606F00CFA59
:1056D00040F2E040C2F20000406844F6686744F6D9
:1056E0006C62C0F60107C0F6010251464323CDF8B3
:1056F000009001970CF04AFB504606F09BF89BF88F
:105700000610782058FA81F2D3B2934213D14FF4A5
:105710007A7707FA03F340F2F31717FA83F344F6A4
:10572000D357C1F26207C9B2A3FB07378BF8062033
:10573000052938BF7809ABF8080003B0BDE8F08F41
:10574000F0B581B040F29440C2F200000468002C31
:105750004ED00025012604E0013838812468002C51
:1057600046D0676A002FF9D038890228F4D2012880
:10577000F4D178793D8101380B28EFD8DFE800F0CB
:10578000080610060618061C06060618E6E700BFFF
:10579000B879052820D8204600F03CFFDEE700BF9E
:1057A000B879012804D8204600F016F9D6E700BFE2
:1057B0002046FFF7B3FED1E7B879012814D807F1E6
:1057C0001C012046002202F099F9B879FF281CBF7D
:1057D0000130B8713E81C1E7204600F035FD20461A
:1057E00001F000F9BAE700BF2046FFF763FBB5E719
:1057F00001B0F0BDB0B540F2E045C2F20005EA7A72
:1058000004460020C4E90800002A1CBFE869A06221
:10581000287B28B1286A6A7BE0623AB1686A09E0AD
:10582000A06A40086A7BE062002AF7D1A06AC0EB58
:10583000C000C0082063A87B0969E16130B1A86A93
:1058400003F08EFF2062012001E000BF0020E07124
:10585000E87B002808BFB0BDE86A03F081FF606202
:10586000B0BD000010B50446406A41790C2904D04F
:105870000C21A0F805100021018144F66861C0F6F2
:10588000010120460A460B4604F0E0FF2046BDE831
:105890001040FFF743BE000070B540F2E042C2F294
:1058A0000002937A002B08BF70BD0446466A9069D7
:1058B0000D460021318103F053FF2969B061204674
:1058C000F161BDE8704000F0A5BE0000B0B540F247
:1058D000E045C2F20005287858BB686858B144F624
:1058E000857045F67413C0F6010016A1C0F60103D9
:1058F000E522FAF785FD0CF03FF96860F0B1417AD6
:1059000044F6686441F02001C0F60104417221466A
:1059100044220BF0DDFD6868214643220BF0A2FE15
:10592000686845F67D41C0F6000100220CF038F9A8
:10593000287801302870002040B2B0BDFF2040B26E
:10594000B0BD00BF646863705F696E635F7063625F
:105950005F726566636F756E7428293A206D656D98
:105960006F7279206C65616B00000000B0B5456A0C
:1059700085B104466879C11E032904D3002808BFF5
:10598000B0BD0A2808D100212046A971BDE8B04069
:1059900000F022B8B0BD00BF0D280CD344F68570CE
:1059A00045F67413C0F6010006A1C0F6010340F2EB
:1059B0006D32FAF725FD00212046A971BDE8B040FF
:1059C000FFF7ACBD696E76616C69642064686370D2
:1059D0002D3E7374617465002DE9F04782B0D0F8F4
:1059E00024A080469AF80500032805D00320AAF8D1
:1059F00005000020AAF808000DF1060340465146B4
:105A00000322FFF7A1FC002800F016818146BDF8B3
:105A100006504068412D00F1F0060FD344F6857022
:105A200045F6321145F67413C0F60100C0F60101C7
:105A3000C0F6010340F29A52FAF7E2FC392171559F
:105A4000A91C681C8CB280B20227432C3754ADF8D5
:105A500006100FD344F6857045F6BD0145F6741364
:105A6000C0F60100C0F60101C0F6010340F2AE52DB
:105A7000FAF7C6FC291DE81C37558CB280B24022CB
:105A80003F2C3254ADF806100FD344F6857045F61E
:105A9000321145F67413C0F60100C0F60101C0F6DC
:105AA000010340F29A52FAF7ABFC681D322180B232
:105AB000042231553254DAF81C00A91D8CB2ADF81D
:105AC000061003F04DFE412C07460FD344F68570B7
:105AD00045F6F80145F67413C0F60100C0F6010161
