:020000040800F2
:10000000605300208D0200083D520008FD430008A7
:1000100039520008F52500081D57000800000000AF
:10002000000000000000000000000000B1520008C5
:100030007D2900080000000041520008DD52000840
:10004000A7020008A7020008A7020008A7020008EC
:10005000A7020008A7020008A7020008A7020008DC
:10006000A70200088129000889290008A7020008C2
:10007000A7020008A7020008A7020008A7020008BC
:10008000A7020008A7020008A7020008A7020008AC
:10009000A7020008A7020008A7020008912900088B
:1000A000A7020008C1530008A7020008A702000821
:1000B000CD530008A7020008A7020008A702000805
:1000C000A7020008A7020008A7020008A70200086C
:1000D000A7020008A702000811570008A70200089D
:1000E000A7020008A7020008A7020008A70200084C
:1000F000A7020008A7020008A7020008A70200083C
:10010000A7020008A7020008A7020008A70200082B
:10011000A7020008A7020008A7020008A70200081B
:10012000A7020008A7020008A7020008A70200080B
:10013000A7020008A7020008A7020008A7020008FB
:10014000A7020008A7020008A7020008A7020008EB
:10015000A7020008A7020008A7020008A7020008DB
:10016000A7020008A7020008A7020008A7020008CB
:10017000A7020008A7020008A7020008000000006C
:10018000A7020008A7020008A7020008A7020008AB
:10019000A7020008A7020008A7020008A70200089B
:1001A000A7020008A7020008A702000800F002F852
:1001B00000F05DF80AA090E8000C82448344AAF1A4
:1001C0000107DA4501D100F052F8AFF2090EBAE8A2
:1001D0000F0013F0010F18BFFB1A43F0010318477B
:1001E000D4D30500F4D30500103A24BF78C878C1F1
:1001F000FAD8520724BF30C830C144BF04680C602D
:10020000704700000023002400250026103A28BF74
:1002100078C1FBD8520728BF30C148BF0B60704778
:10022000662908F0BF85642900F03281732900F047
:100230003C85002070471FB508F09FFD9DE8030036
:1002400001F0B4FF01F02CF804000020002108F0B8
:100250001BFB401C60600020002108F0FFFAE060FA
:1002600001F0F8FA1FBD10B501F05DFB10BD01F003
:10027000B1FB1146FFF7DFFF05F066FB01F0F6FE6C
:1002800003B4FFF7F0FF03BC02F01CF909488047F4
:1002900009480047FEE7FEE7FEE7FEE7FEE7FEE768
:1002A000FEE7FEE7FEE7FEE704480549054A064B80
:1002B00070470000AD530008AD010008604D0020FC
:1002C00060530020604F0020604F002053EA020C72
:1002D00000F069802DE9F04B4FF00006002B1FBFA6
:1002E000B3FA83F503FA05F424FA05F65E4012BF6B
:1002F0001643B2FA82F502FA05F4C5F120051EBFD5
:1003000022FA05FC44EA0C04203556EA044C4FEA74
:10031000144418BF641C4FF000084FF000099042CD
:1003200071EB030C39D3002919BFB1FA81F701FA37
:1003300007F6B0FA80F700FA07F6C7F120071EBFEC
:1003400020FA07FC46EA0C062037B6FBF4FCA7EBC4
:100350000507103F07F01F0BCBF120062CFA06F61D
:100360000CFA0BFB44BFB3460026202FA4BF5E4609
:100370004FF0000B5BEA060C08BF4FF0010B19EBC6
:100380000B0948EB0608ABFB027C06FB02CC0BFB1F
:1003900003CCC01B71EB0C01C1E70B460246414682
:1003A0004846BDE8F08B13B5084318BF4FF0FF3047
:1003B0000146AFF30080BDE81C4070470FB404490C
:1003C00010B503AA029800F075FC10BC5DF814FB90
:1003D000740000200FB41CB5074B06AA7B44694685
:1003E0000090059800F02FFC0020694600F03EFCCC
:1003F0001CBC5DF814FB00008D0800000FB41CB598
:100400000C0007AA009007D04142A14202D3204429
:10041000401E01E04FF0FF30074B7B4469460190DE
:10042000069800F010FC0020002C01D00099087004
:100430001CBC5DF814FB00005908000070B50C46A8
:100440000546012A05D02878800600D5EA690023F0
:1004500002E0012305E05B1C934202D2E05C00282D
:10046000F9D1A869E618C01AA861286A1844286258
:100470002846AFF3008004E0D5E9012114F8010B10
:100480009047B442F8D32846AFF3008070BD000017
:100490002DE9F0410646002410687529314616A55D
:1004A00010D0AFF30080002802DA404213A507E025
:1004B00031688A0701D512A502E0490704D511A5C4
:1004C000012401E0AFF3008000210A2206F1240795
:1004D00009E0B0FBF2FCB0FBF2F302FB1C00303091
:1004E00078541846491C0028F3D123462A46304642
:1004F000BDE8F04100F03BB9000000002D00000015
:100500002B000000200000002DE9F0474FF0000A0A
:1005100089460446C0F820A02046E16888470028A4
:1005200076D0252806D0D4E901219047206A401CC6
:100530002062F1E7E168204600258847C4F81CA046
:1005400006460027C4F818A02A2E09D0304608F025
:1005500036F938B304EB8708303EC8F8186019E064
:1005600059F8041B204604EB87029161E168884733
:10057000012F064618D1E069002820DA25F0200571
:100580001DE0D8F8180000EB800006EB4000303882
:10059000C8F818002046E1688847064608F00FF9B9
:1005A0000028EED1012F0AD02E2E08D12046E16876
:1005B00088477F1C0646022F45F02005C4DBA06952
:1005C000002803DA404245F00105A061E80701D0A8
:1005D00025F01005B6B1A6F14100192802D8203641
:1005E00045F400654A463146204625604D46FFF7F2
:1005F00017FE58B1012806D0ED1D25F0070000F1C7
:10060000080989E704E005F1040985E730468AE72F
:10061000206ABDE8F08700000FB400B58DB010A9C6
:10062000099000910B904FF0FF300A9000200C9041
:10063000064878440690064878446A4607900F9921
:1006400009A800F0CBFD0DB05DF814FBC70B00004E
:10065000DF0B000010B5044603E005F061F9401C13
:1006600009D014F8010B05490028F6D1BDE8104067
:100670000A2005F055B94FF0FF3010BD740000207E
:10068000032A40F2308010F0030C00F0158011F8BE
:10069000013BBCF1020F624498BF11F801CB00F896
:1006A000013B38BF11F8013BA2F1040298BF00F8EA
:1006B00001CB38BF00F8013B11F0030300F0BE8509
:1006C000083AC0F0088051F8043B083A51F804CBCE
:1006D000A0E80810F5E7121D5CBF51F8043B40F894
:1006E000043BAFF30080D20724BF11F8013B11F89F
:1006F00001CB48BF11F8012B24BF00F8013B00F8E3
:1007000001CB48BF00F8012B704702F0FF0343EA1A
:10071000032242EA024200F002B84FF0000200B5A4
:10072000134694469646203922BFA0E80C50A0E814
:100730000C50B1F12001BFF4F7AF090728BFA0E8C2
:100740000C5048BF0CC05DF804EB890028BF40F88E
:10075000042B08BF704748BF20F8022B11F0804FD0
:1007600018BF00F8012B70477047704770472DE99C
:10077000F0470D4699469246044600F12408016868
:10078000880604D5E06921F01001216000E0012015
:10079000A84201DD471B00E00027A1697A1902EB9E
:1007A0000900081AA0612078C00602D42046AFF3E1
:1007B0000080002608E0D4E901211AF806009047DD
:1007C000206A401C761C20624E45F4DB2078C0066F
:1007D0000AD52046AFF3008006E0D4E9012130209D
:1007E0009047206A401C2062381EA7F10107F4DC04
:1007F00007E0D4E9012118F805009047206A401C61
:100800002062281EA5F10105F3DC2046AFF300802D
:100810002078000602D50220BDE8F0870120FBE722
:100820002DE9FF4F0C461E464FF0FF378BB0D2E943
:100830000001DDF860800A908A46C1F30A5505B9C7
:100840003D46002108464FF00000BAF1000F00F4C9
:10085000400005DA00EB80004FF4400101EA50004F
:100860004FEA9059B9F1010F00DDB9460A9850EAF4
:100870004A000ED044F61050A5F2FF3545432F1420
:10088000B8F1000F1ED07542291E1EDDC9F100020D
:100890001CE0B8F1010F4FF0000001D0302103E05F
:1008A000F24305E02154401CB042FBDB30460022FD
:1008B000002121540B99C1F80880C1E900200FB034
:1008C000BDE8F08FBD1B6D1CDEE74A4600DA6942C9
:1008D00006A800F049FF06AB93E8070003AB83E8E6
:1008E000070050460A9907F005FA8DE80700A0F5C1
:1008F00000501F3800900398002D0ADD42F21F01BE
:100900004A460844002303A90390684607F0B0FC58
:1009100009E0A0F500504A461F38002303A90390C0
:10092000684607F0CFFC8DE807000004000C03D0F8
:100930004FF0FF30410800E01046B8F1000F03D03F
:100940000022009215461EE0751E05D400F0C3FC7F
:10095000303262556D1EF9D5B3460122084302D0EC
:1009600000227F1C04E02078302801D100227F1E65
:10097000002A099784D01DE0112D07DA00F0ABFCA6
:10098000303262556D1C50EA0102F5D1084302D0A5
:100990000098C8B10EE00021681E05E0235C625C8F
:1009A00063542254401E491C8142F7DBAB46A81B0E
:1009B000401E0990002004F80B000B98099AC0F81B
:1009C0000880C0E9002B7AE711264FF0000857E7AE
:1009D0002DE9F04F88460446D21D22F0070191B060
:1009E000D1E90001CDE90A0107F0B8FD02460B98F4
:1009F000C00F01D02D2007E02068810701D52B20F2
:100A000002E0202101EAC000032A099001D0072A50
:100A100005DB03464146204600F0ACFC0BE12078A4
:100A2000800601D5E06900E00620B8F1650F814637
:100A300006D0B8F1660F18D0B8F1670F70D131E069
:100A40000020B9F1110F009001DB112301E009F141
:100A500001030AAA01A90CA8FFF7E2FEDDE90C7068
:100A6000002609F10105834647E001204B4600902E
:100A70004FF000470AAA01A90CA8FFF7D1FEDDE953
:100A80000DB00C995D46002610B909F101000D1852
:100A9000B9EB050003D4C0F1FF3609F10105A5EB60
:100AA00009002BE0B9F1010F01DA4FF00109002034
:100AB000B9F1110F0090484601DD112300E0034613
:100AC0000AAA01A90CA8FFF7ABFEDDE90C704D46A0
:100AD00000268346207800070AD4AB4500DA5D463D
:100AE00001A8012D04DD411911F8011C302907D09E
:100AF0004F4502DA17F1040F04DA012082460FE0B5
:100B00006D1EEEE7002F02DCED1B3E4403E0781C77
:100B1000A84200DD7D1CB81B00F1010A4FF0004720
:100B20002078000703D4AA4501DB4FF0FF3A0021EB
:100B3000B7F1004F0DF143088DF8431024D0022087
:100B40002B23002F01DA7F422D230A21021EA0F160
:100B5000010000DC5FB197FBF1FC97FBF1F201FBB8
:100B60001C7C17460CF1300C08F801CDEEE7A8F11B
:100B7000010003702188090501D5452100E06521A8
:100B8000A0F1010800F8011C09980FA9A1EB0807C2
:100B9000FF1D00B10120411901EBEA70A169384441
:100BA000081A401EA0612078C00602D42046AFF388
:100BB0000080099828B1D4E901219047206A401C9F
:100BC00020622078C00622D52046AFF300801EE0C8
:100BD000002E04DBB34502DD01A8805D00E030207B
:100BE000D4E901219047206A401C2062761CAAF1BA
:100BF00001005FEA000A0AD100F052FBC0680168F8
:100C0000405CD4E901219047206A401C2062281EE4
:100C1000A5F10105DCDC07E0D4E9012118F8010B9E
:100C20009047206A401C2062381EA7F10107F3DCC0
:100C30002046AFF30080032011B041E601694A1C51
:100C400002610878704700B58FB0CDE9013100210D
:100C5000059105497944CDE9031011466846FFF72F
:100C600053FC0FB000BD0000E5FFFFFF0A6802F86B
:100C7000010B0A607047D1E900239A4202D2531C4B
:100C80000B601070704710B5436913B1AFF300806B
:100C900001E0FFF7D3FB012010BD127800F1240121
:100CA0000A7000224A700122EDE711684FF0FF320E
:100CB000E9E70000074B70B50D467B44FFF7C3FF23
:100CC0000446284600F0C2FD10B14FF0FF3070BD61
:100CD000204670BD634C00002DE9FF4F06468BB0E7
:100CE0000878FF2806D0491C2D2805D000244FF095
:100CF000000908E000200CE00124F8E709EB890373
:100D0000491C00EB43090878FF28F7D114B1C9F159
:100D100000008146107800252C46AA4629462D2839
:100D200001D02B2804D1521C2D2813D0002082463C
:100D30008B461078FF280FD04FF0000C0A21521C70
:100D4000A5FB017804FB018105FB0C11C5194BEBD8
:100D50000104EEE70120EAE7002108464FF0000019
:100D6000BAF1000F02D000EB80004008C0F38157B9
:100D7000012F01DD4FF0FF370E9955EA040009EB12
:100D800001080BD04FF0020918F5FA7F16DA4FEA86
:100D9000CA70002F706008DD012007E04FEACA70BA
:100DA000C6E900B00FB0BDE8F08F0020306000F061
:100DB0007BFAC0F800901821084616E0B8F5FA7FD3
:100DC00018DD002F02DAF748784401E0F64878444D
:100DD000D0E90010C6E9001040EACA70706000F067
:100DE00063FAC0F80090142108460FB0BDE8F04F38
:100DF00007F0D5BF002108464FF00000B8F1000110
:100E0000099002DAC7F1000200E03A4601DAC8F1BF
:100E1000000106A800F0A8FC06AB93E8070003ABAE
:100E200083E8070044F23E005BEA04010090584664
:100E300004D144F21E012C465D460091210C0904A8
:100E4000014306D10099240444EA15442D041039C5
:100E5000009104F07F41014306D10099240244EA45
:100E600015642D020839009104F07041014306D148
:100E70000099240144EA15742D01091F009104F022
:100E80004041014306D10099A40044EA9574AD00A5
:100E9000891E009104F00041084304D100986D19A7
:100EA0006441401E00904FF001033A466846B8F195
:100EB000000FCDE9014503A902DD07F018FA01E0B2
:100EC00007F0EBF9BAF1000F04460D4601D084F0AB
:100ED0000044002108464FF00000099940F2FF77D6
:100EE000484010F00C0F07D124F00040284303D0F5
:100EF000C4F30A50B84212D100F0D6F9C0F80090FD
:100F0000C4F30A50B8420AD1A8487844D0E9001086
:100F1000C6E9001004F000410843706042E7C6E9EA
:100F200000543FE72DE9FF4F1F464FF0000A4FF0F6
:100F3000FF38454691B0D7E90146CDF83CA000F016
:100F4000AFF9C0680168405C1090B96912986D1CD7
:100F50008847396A814688470028F6D1B9F1FF3FB2
:100F60000AD0002E24F4D06411DDB9F12B0F08D083
:100F7000B9F12D0F0BD102E0404615B013E744F450
:100F80008064B96912986D1C8847761E8146600599
:100F900004A901D52D2000E02B20002E01F1010B2A
:100FA0000DF130088DF810003FDDB9F1690F08D060
:100FB000B9F1490F05D0B9F16E0F02D0B9F14E0F5A
:100FC0001CD13B4601A8009580E85002DDE91212D1
:100FD0006FF0020007F04CFFC11CCED10EE0B969E2
:100FE00012986D1C884781461398761E44F400744D
:100FF00005600F98401C002E0F9016DDB9F1300FE0
:10100000EDD0B9F1780F02D0B9F1580F0DD10F988A
:1010100001280AD13B46CDE90054DDE91212001F38
:10102000029607F023FFC11CA7D1109989453ED134
:1010300044F0800406E01399681CAAF1010A44F404
:1010400000740860B9696D1C1298761E88473028B4
:101050008146F0D02BE01099894505D1200603D4B4
:10106000761E44F0800418E0484607F0A8FB08B359
:10107000761E0DF123029345A9F1300044F400746B
:1010800006D20BF8010B200607D5AAF1010003E0F8
:10109000200602D40AF101008246A00502D5139968
:1010A000681C0860B96912986D1C88478146002E3B
:1010B000D1DC53E0002E51DDB9F1650F02D0B9F15A
:1010C000450F4BD1A00549D5B9696D1C1298761E04
:1010D00024F440748847002E81460CDD2B2804D070
:1010E000B9F12D0F07D144F48074B96912986D1CC1
:1010F0008847761E8146E00501D52D2100E02B2191
:1011000008F8011BCDF8008021E0761E0DF13901B1
:10111000884544F400740CD2A9F1300010F0FF00AF
:1011200088F8000002D10099884509D908F1010822
:1011300006E0E00501D51E4801E042F20F7082464C
:10114000B96912986D1C8847814613980560002E76
:1011500004DD484607F033FB0028D6D1F969129820
:101160008847FF2053468BF8000088F800000020D5
:101170000A900B9004AA0CA90AA8FFF7ADFDA005E0
:1011800002D46FF00100F8E614F0240F12D0E0074B
:101190001CD13868DDE90A12031D3B600068C0E914
:1011A000001213E010C8050002C80500C6C60500FD
:1011B000F1D8FFFF0AA9684607F0EEFAE00705D16B
:1011C0003868009A011D3960006802602846D4E63C
:1011D000026811441378016018467047D1600549D0
:1011E0007944516104497944116200211161114629
:1011F00000F000B9EDFFFFFF77010000426842B147
:10120000016811F8013B23B1521EC0E900121846D3
:1012100070470121C160881E704742685AB1C36897
:10122000016843B983688B4205D0491E521CC0E94E
:101230000012002070474FF0FF30704710B5203A81
:10124000C0F00B80B1E81850A0E81850B1E8185071
:10125000A0E81850203ABFF4F5AF5FEA027C24BF43
:10126000B1E81850A0E8185044BF18C918C0BDE82C
:1012700010405FEA827C24BF51F8043B40F8043BF5
:1012800008BF7047D20728BF31F8023B48BF11F8AA
:10129000012B28BF20F8023B48BF00F8012B704704
:1012A000004870473C010020004870471C010020A6
:1012B000B2F120030AD5C2F1200301FA02F120FAAB
:1012C00003F341EA030100FA02F0704700FA03F168
:1012D0004FF00000704730B5B0F10A0271F1000321
:1012E0004FEA900E4EEA817EB0EB0E0061EB910169
:1012F0004FEA101E4EEA017E10EB0E0041EB111179
:101300004FEA102E4EEA016E10EB0E0041EB112158
:101310004FEA104E4EEA014E10EB0E0041EB114128
:10132000401841F100014FEAD00040EA41704FEA15
:10133000D1014FEA810444EA907410EB800544EB3C
:1013400001046D1944EB0404521BA3414FF0000348
:1013500048BF0A3200D530BD401C41F1000130BD0C
:1013600010B5044600F05CFB0068005D00F0010071
:1013700010BD00002DE9F0411F4604460326016818
:10138000072A01F4006004DB08B116A505E016A5E4
:1013900003E008B115A500E015A521F010002060BC
:1013A000A069C01EA0610FB1401EA0612046AFF32E
:1013B00000804FB1D4E9012138469047206A401C93
:1013C0002062C01C206206E0206AFAE7D4E901210D
:1013D00015F8010B9047761EF8D22046AFF3008037
:1013E000BDE8F0814E414E006E616E00494E4600F0
:1013F000696E66002DE9F34F4FF0000A0C46564621
:101400008DB001200C9001F10C000B9062690B98DB
:1014100001219047051E2DD0252D2CD0216A88470B
:10142000C0B162690B9801219047216A8847002862
:10143000F7D16269411E0B98904700E0761CA169C4
:101440000D988847216A88470028F7D1E1690D98EF
:101450008847DBE7A1690D988847A842074601D174
:10146000761CD3E7E1690D9888477F1C02D1BAF159
:10147000000F6FD06BE162690B9800273D4639463B
:1014800090472A2804D162690B98012190470125D1
:10149000DFF8D08262690B9801219047A0F13001FA
:1014A0000A290AD24745E5DC07EB870100EB410733
:1014B000303FDFD445F01005ECE7E90601D46FF0CA
:1014C00000476C280AD04C2814D0682815D06A2808
:1014D0000DD074281CD07A281AD01DE062690B98B0
:1014E000012190476C2802D045F0040514E045F036
:1014F00002050DE045F020050AE062690B98012124
:101500009047682802D045F0080505E045F40065DD
:1015100062690B9801219047C4E9015765283DD0C5
:1015200019DC58287AD00CDC452837D004DC252873
:1015300026D041289ED131E046282FD0472899D186
:101540002CE05B2877D0612828D063287CD06428E1
:1015500023D15AE0F6E06F2848D008DC66281DD079
:1015600067281BD0692821D06E2816D127E0702863
:1015700045D0732868D0752847D078280DD14DE024
:10158000A1690D988847252805463FF469AFE169B0
:101590000D9888476D1C3FF46AAFD8E00D9923463B
:1015A0006A466FF0010007F05FFCC5E045F04000BF
:1015B00023464FF000026060A80736D43EE0E807FB
:1015C0007FF447AF2068011D21600068290501D51F
:1015D00006701BE7290701D5068017E7A90703D581
:1015E000F117C0E9006111E706600FE745F0400020
:1015F00023464FF008026060A80716D41EE040F6AC
:101600000E0125EA0100606016E045F04000234627
:101610004FF00A026060A80707D40FE045F04000D1
:101620006060A80708D5234610220D996FF00100CD
:10163000AFF3008080E007E0102223460D996FF0A1
:101640000100AFF3008077E04FF0000963284F46B8
:10165000C8464B46CB4602D05B2806D038E0E806A9
:1016600001D40120A060012732E06269D4F80CB0F7
:101670000B98012190475E2807D14FF00109494698
:101680006269D4F80CB00B989047216939B90021F0
:101690000A4603AB43F82120491C0829FADBD8B3DA
:1016A000216949B308F1010862690B98012190474B
:1016B0005D28F4D1B9F1000F09D0002003A951F839
:1016C0002020D24341F82020401C0828F7DB03AB40
:1016D0002069002820794FEA40701ED05B462246E0
:1016E000CDF80080CDE901970D9900286FF0010039
:1016F00020DAAFF300801FE0C11703AA00EBD1612D
:101700004B1121F01F0102EB8302411A13680120E3
:10171000884003431360C7E719E00D99224600286B
:101720006FF00100009702DAAFF3008004E0AFF33E
:10173000008001E0AFF3008000280ADA401C06D1E7
:101740000C9820B14FF0FF300FB0BDE8F08F50463D
:10175000FAE7E90701D10AF1010A064400200C90DA
:1017600054E60000CCCCCC0C2DE9F047814616465F
:101770008AB0354878440DC88DE80D003248784469
:10178000801C03AC0DC884E80D0041F69B30084472
:10179000372190FBF1F290FBF1F5A5F1800501FBFB
:1017A00012041B3C02D56442012000E00020DFF857
:1017B00098A080460027FA44AAF1BE0A0EE0E0078E
:1017C0000AD03246684607EB470101230AEB810144
:1017D00006F078FD8DE8070064107F1C002CEED128
:1017E000194F7F44AE3F19E0E80715D007EB04100E
:1017F0000DF1180A90E80E008AE80E00C068F04269
:1018000001D1981908903246012306A903A806F0D1
:1018100059FD03AB83E807006D10641C002DE3D174
:101820004FF0010332466946B8F1000F03A802D019
:1018300006F01EFD01E006F045FDC9E90001C9F80A
:1018400008200AB0BDE8F087A8770000007B00F010
:101850008000704710B542485421FEF75EFF4148B2
:101860005421FEF75AFF40485421FEF756FF3F49E6
:101870003B483C4A3F4B08603D490A603A49196081
:10188000531C0365481C1065012008653B48344A19
:1018900039A1784400F04CFB20B9384878440A3824
:1018A00000F0EDFB37482F4A35A1784400F040FBAB
:1018B00020B9344878440A3800F0E1FB32482A4A1B
:1018C0002FA1784400F034FB20B92F4878440A381F
:1018D00000F0D5FB40232248DC000021224600F026
:1018E00003FB20B125487844543800F0C8FB1D485C
:1018F00022464023002100F0F7FA20B12148784425
:10190000543800F0BCFB184822461023002100F098
:10191000EBFA002806D01C487844BDE81040563841
:1019200000F0ADBB10BD104870B5006D20F0010493
:101930000B4800F075FB0B4800F072FB0A4800F002
:101940006FFB09E0206D20F00105204600F068FBE8
:10195000204600F06DF82C46002CF3D170BD00003D
:101960002000002074000020C8000020000000209B
:10197000040000200800002072000000A276000091
:10198000770000008E7600007A76000010B5431CC8
:1019900002E010F8011B71B18107FAD14FF001325A
:1019A00002C88C1A8C4314EAC211F9D0C01A0A0674
:1019B00003D0C01E10BDC01A10BD0A0401D0801E85
:1019C00010BD0902FCD0401E10BD00000048704749
:1019D0001C0100207546FFF7F9FFAE460500694679
:1019E000534620F00700854618B020B5FEF75CFC92
:1019F000BDE820404FF000064FF000074FF0000810
:101A00004FF0000BAC46ACE8C009ACE8C009ACE84C
:101A1000C009ACE8C00921F007018D4670470000FD
:101A200010B5FFF73DFC001D10BD00BF5D6E00004E
:101A300070B50446051F00F09DFB0068002C14BF24
:101A4000446870BD002C18BFAC423CBF204664689F
:101A5000F8D301680A18AA4218BF456003D12A6862
:101A600005461144016028684119A1421CBF6C6001
:101A700070BD6168696021680844286070BD10B558
:101A8000FFF712FC006810BD10B50446FFF70CFC10
:101A9000046010BD2DE9FF4F1F464FF03C0987B091
:101AA0004FF00042DDE9141001F10108DDF858A003
:101AB00002EA405003900020059083460546044604
:101AC0000490B969461E08988847AAF1010A029055
:101AD000BAF1000F3BDD02982E2815D0102100F03E
:101AE000C3FB00282EDB4FF0010B0599014317D0F3
:101AF000B9F1000F0BDB4A46C117FFF7D9FB0543CD
:101B00000C43A9F1040905E0012004900BE008B1A1
:101B100045F0010501200590049820B9361D02E02A
:101B2000049800B1361FB969089808F10108884780
:101B3000BBF1000FAAF1010A0290C9D00999C1F8BE
:101B40000080C5E70298702808D0502806D0F969AF
:101B500008988847BBF1000F14D04FE00020029096
:101B60000120BBF1000F049009D0B969089808F171
:101B700001088847AAF10109B9F1000F07DCF969EA
:101B8000089888476FF001000BB0BDE8F08F2B2854
:101B900004D02D280CD14FF0FF300490B96908987B
:101BA00008F101088847A9F10109B9F1000FE6DD44
:101BB000411CE4D00A2100F057FB0028DFDB02992A
:101BC00008F1010801EB810100EB41000290B969C5
:101BD000089888470A2100F047FB099AA9F10109F2
:101BE000B9F1000FC2F8008001DD0028E7DAF969D9
:101BF000089888470499029800FB016655EA04009A
:101C000004D004F04041090002D006E0039898E0B7
:101C1000A40044EA9574AD00B61E04F0004108002B
:101C200002D16D196441761E159810F0240F03D06F
:101C30004FF00B095C4803E04FF028096FF07D007E
:101C40008246564507DAAAEB06018944B9F1410FED
:101C500001DD4FF0410901200021A9F10102FFF748
:101C600027FB024628400B462140084301D00121B2
:101C700000E00021501E029143F1FF312840214035
:101C8000084301D0012000E000200299834651EA78
:101C90000B014FD0002108464FF00000039900F4DB
:101CA000400039B100EB80004FF4400100EBD070F0
:101CB00001EA60008015012802DD4FF0FF3000E0EE
:101CC00013D0401C36D0029860B3BBF1000F0CD18A
:101CD0004A4601200021FFF7EBFA28402140084343
:101CE00001D0012000E00020E0B101204A4600219F
:101CF000FFF7DEFA034640190A4661412D1A8C416E
:101D000011D3B9F1400F09DD159810F0240F02D05E
:101D1000AAF1340603E0AAF1170600E0761C0025BC
:101D20004FF0004406E05B1E42F1FF3220EA03055B
:101D300021EA0204CAF10100B04206DA1B49039805
:101D400008430190002000900EE0039AC4F3D321D1
:101D5000E80A0A43164940EA44500A433146CDE9AD
:101D60000002684606F021FD159810F0240F0BD0F4
:101D70001598C00715D13868DDE90012031D3B60D6
:101D80000068C0E900120CE002A8694606F004FDF4
:101D90001598C00705D13868029A011D396000689E
:101DA00002604046F0E6000002FCFFFF0000F07F0A
:101DB0000000F03F2DE9FF4F92461D4685B04FF0E1
:101DC0000041DDE9124BDDE914727F1E01EA4B5040
:101DD000414940F0FF4940EA0108002122F020007B
:101DE0004928049102D04E2828D04CE03BA001267F
:101DF00007C88DE80700A9690698641C88477F1EFC
:101E0000014606D41DF8060018B121F020018142D8
:101E10000BD0E96906988847032E34D0082E32D0BB
:101E20006FF0010009B0BDE8F08F761C032E01D0E1
:101E3000082EE0D1601CCAF80000DCE7A96906980A
:101E4000641C88477F1E2AD420F02000412826D118
:101E5000A9690698641C88477F1E20D420F02000C2
:101E60004E281CD1A9690698641C88477F1E48F437
:101E7000002849F48009CAF8004001D4282806D077
:101E8000E969069888475FEACB7012D022E0A96919
:101E90000698641C88477F1E01D4002803DAE9698C
:101EA00006988847BCE72928F1D1641CCAF800408D
:101EB000E9E71BF0240F07D028680499031D2B6065
:101EC0000068C0E9001805E02868021D2A60006863
:101ED000C0F800902046A5E70000F07F494E464933
:101EE0004E4954590000000070B5C468A50713D0CE
:101EF000650211D4B2F5807F09D0B2F5007F06D01B
:101F0000B2F5806F08D1012300F1240106E05D1EC7
:101F10006FF07F46B54201D3012070BD0161C361FE
:101F2000416024F470611143C160002070BD000065
:101F30002DE9F0410C461646070047D0104600F048
:101F40006FF82078611C61280AD0722802D07728A7
:101F50003CD102E00125002405E00225042402E032
:101F6000082448F2020511F8010B2B2806D062283C
:101F700009D011F8010C74280AD00BE045F00305D4
:101F800044F00204EFE745F0040544F00104EAE7F9
:101F900044F010043846214600F0B8F8411C15D032
:101FA0000021316171604FF40071F560F161706181
:101FB000200704D530460222002100F063F9306D7D
:101FC00040F0010030653046BDE8F0810020FBE7BD
:101FD0002DE9F0410D460646104C206DC10704D096
:101FE000410804D020F00104F7E722460EE0542017
:101FF00000F00BF907000ED0206D47F001010843F7
:10200000542120653846FEF788FB3A46294630467B
:10201000BDE8F0418CE70020D6E70000200000205A
:102020002DE9F04704464FF0FF380026C568D4E993
:102030000497A80718D0204600F0E0F9384600F0D1
:102040006FF8002800DA4646280502D54846FFF713
:10205000EFFC4C212046FEF760FB206D20F00100D4
:1020600020653046BDE8F0874046FBE710B50446E2
:10207000AFF300802046BDE81040FEF701B910B56F
:1020800000F006FABDE8104000F0FCB900000000C6
:1020900030B44FF0013C50F8042B51F8043BCCFA1B
:1020A00052F4D51A20D1FCB950F8042B51F8043B56
:1020B000CCFA52F4D51A17D1B4B950F8042B51F810
:1020C000043BCCFA52F4D51A0ED16CB950F8042B5B
:1020D00051F8043BCCFA52F4D51A05D1002CDAD0D1
:1020E00030BC4FF00000704729BAB1FA81F111F00D
:1020F0001801D1F120008440F2D1CA40CB4012F047
:10210000FF0213F0FF0330BCD01A70470EB5CDE9C3
:102110000001FFF73BFC029069460120ABBE0EBDFB
:1021200008B5694600900220ABBE08BD1FB58DE81A
:10213000070069460520ABBE04B010BD1FB58DE891
:102140000F0069460620ABBEF6E708B56946009069
:102150000920ABBE08BD1CB5CDE9000169460A20C7
:10216000ABBE1CBD704708B5694600900C20ABBEE5
:1021700008BD0000004870472401002070477047E8
:102180007047704738B504460A4600206946AFF3E9
:102190000080002808BF38BD02460099204600F0A4
:1021A0009FF9012038BD012000F0EEB9F8B5AFF37A
:1021B0000080054600200C46102000BF0646A819E6
:1021C000A0420DD9324669460020AFF300800700D7
:1021D00008BF00F0D9F90098A04218BF0546C419FD
:1021E000FFF7C8FF05600746F01D20F007004619FD
:1021F000284600F06EF9B44208BFF8BDA21B314674
:102200003868BDE8F84000F06BB970B50646FFF7D6
:10221000B1FF056806F10B0020F00704B4429CBF33
:10222000002070BD2B466A68BAB11068A04210D376
:1022300004F1080188423CBF5068586007D35168D8
:10224000101941601168091B016058601460101D6D
:1022500070BD13465268002AE7D121462846FFF791
:1022600091FF0028DED170BD3A2800D2303820F02E
:102270002002412A01D3A2F13700884201D34FF056
:10228000FF3070472DE9F041044616460D46476978
:10229000007B80072ED03846FFF757FF50BB3EB378
:1022A000012E02D0022E25D104E0204600F032F9A2
:1022B00005441DE03846FFF756FFE168002841F06D
:1022C0001001E16005DA204600F058F80120BDE871
:1022D000F081C9030BD56268E16A914200D81146CA
:1022E000A26911442269891A814200DD0846054429
:1022F000002D01DA0220EAE7E16A6068E2688142C3
:1023000006D29103E06203D522F4003141F01002BD
:10231000A6690027AE4213DCE16A814201D90B466F
:1023200000E0034603EB060C2369ACEB030CAC4561
:1023300006DD814201D98C4600E084469C4505D1EA
:10234000A760276042F02000A5620DE0AD1BE669A2
:10235000AE1B8142A66000D90846C01A281A206028
:102360005819606022F0200003490840E060002016
:1023700084F84870ABE70000BFCFD7FFC16821F4F5
:10238000001141F08001C16000218160016070474F
:102390002DE9F74F15460C464FF0FF3B3848D768FC
:1023A000D2F814A0074209D05046A969FFF7D3FE1E
:1023B000002819DB3248C0430740EF604FF0004966
:1023C0006FF000484C4501D3464600E02646009990
:1023D0003B4650463246FFF7A9FEA96920F000426D
:1023E000B21A1144A96128B12846FFF7C7FF584621
:1023F000BDE8FE8FA41BE5D10020F9E770B50446C7
:102400000569C06A6168884200D80846E16821F41D
:102410002011E160C90312D5A84208D02246411B11
:102420002846FFF7B5FF10B14FF0FF3070BD002018
:10243000E562C4E90150E06820F48030E0600020EB
:1024400070BD10B50446C06820F02000E060A16AAD
:10245000A06988420DD02046FFF7D0FFE06820F445
:10246000405040F01000E060A06AA0612069E06286
:10247000606044F24001E0688843E06010BD000005
:1024800010000200002801D000F01CB870470000C6
:1024900010B5014602A000F05EF8012010BD00005A
:1024A00053494752545245443A2052656469726513
:1024B00063743A2063616E2774206F70656E3A20F2
:1024C0000000000001491820ABBEFEE72600020014
:1024D000704700210160C0E901107047102070476B
:1024E000034640688C46002818BF88423CBF03461C
:1024F0004068F8D318681844884207D00CF10300EC
:1025000020F00700001D411A521A0146081D0A60FA
:10251000FFF78EBA10B50146C268900703D0900647
:1025200007D5886A0AE0FEF7BFFE01210160881E18
:1025300010BD8B69486818440B69C01A91F848307F
:102540001BB191F84910401A10BD1103FCD50028A9
:10255000FADD401E10BD70B505460C460A2000E0AD
:102560006D1C00F018F835B128780028F8D102E089
:10257000641C00F010F814B120780028F8D1BDE8F0
:1025800070400A2000F007B810B500F00BF8BDE865
:102590001040FFF777BF08B569468DF800000320AB
:1025A000ABBE08BD10B5012805D0002103A0FFF780
:1025B000D2FF012010BD09A1F8E70000534947529E
:1025C000544D454D3A204F7574206F662068656103
:1025D00070206D656D6F7279000000003A204865CB
:1025E0006170206D656D6F727920636F72727570A6
:1025F00074656400FEE700002DE9F04F87B00C46DB
:10260000054603F08DF8002800F0AE8141F2004647
:1026100040F2443ACDE901540024C4F20206C2F269
:10262000000A41F2111540F24448002712E000BFB1
:10263000016A294232D030464FF4805100F06CFBE1
:10264000002807F1010718BF0120082F40EA4B0BB3
:102650002ED000BF30464FF4805100F05DFB0028C3
:10266000F8D100BF30464FF4805100F055FB0028F0
:10267000F8D0DAF800004462016841F0010101601D
:10268000416A2729D4D8416A2729D1D8416A272904
:10269000CED8416A2829F3D3CAE700BF016A11EAFC
:1026A000080FC8D1016821F001010160C3E700BF34
:1026B0004FF0000941F2111540F24448002411E0A6
:1026C000016A294234D030464FF4805100F024FB97
:1026D000002804F1010418BF0120082C40EA470734
:1026E00030D000BF30464FF4805100F015FB002879
:1026F000F8D100BF30464FF4805100F00DFB0028A8
:10270000F8D0DAF80000C0F82490016841F0010127
:10271000016000BF416A2729D2D8416A2729CFD852
:10272000416A2729CCD8416A2829F3D3C8E700BFDA
:10273000016A11EA080FC6D1016821F001010160A8
:10274000C1E700BF4FF0000841F211144FF000093B
:1027500012E000BF016A214234D030464FF480516C
:1027600000F0DAFA002809F1010918BF0120B9F1D7
:10277000080F40EA45052FD030464FF4805100F055
:10278000CBFA0028F8D100BF30464FF4805100F05A
:10279000C3FA0028F8D0DAF80000C0F824800168F5
:1027A00041F00101016000BF416A2729D2D8416A86
:1027B0002729CFD8416A2729CCD8416A2829F3D3C1
:1027C000C8E700BF016A40F244421142C5D1016826
:1027D00021F001010160C0E741F211194FF000083A
:1027E00014E000BF016A11EA090F35D030464FF4FA
:1027F000805100F091FA002808F1010818BF01206B
:10280000B8F1080F40EA440430D000BF30464FF41E
:10281000805100F081FA0028F8D100BF30464FF413
:10282000805100F079FA0028F8D0DAF80000002191
:102830004162016841F00101016000BF416A27293E
:10284000D0D8416A2729CDD8416A2729CAD8416AF8
:102850002829F3D3C6E700BF016A40F2444211427F
:10286000C4D1016821F001010160BFE74FF0000809
:1028700014E000BF016A41F21112114234D0304617
:102880004FF4805100F048FA002808F1010818BF01
:102890000120B8F1080F40EA49092FD030464FF423
:1028A000805100F039FA0028F8D100BF30464FF4CB
:1028B000805100F031FA0028F8D0DAF80000002149
:1028C0004162016841F00101016000BF416A2729AE
:1028D000D0D8416A2729CDD8416A2729CAD8416A68
:1028E0002829F3D3C6E700BF016A40F244421142EF
:1028F000C5D1016821F001010160C0E7FFB257FABC
:102900008BF050FA85F050FA84F05FFA89F1884232
:1029100025D14DF2A959C0F605090DF114085FFA49
:102920008BF3404608214A46EEB2E4B20097FDF729
:1029300065FD03AD284608214A4633460094FDF75D
:102940005DFD4DF2AF56C0F60506019A4046314690
:10295000FDF762FE029A28463146FDF75DFE002033
:1029600007B0BDE8F08F00BF0020C4F2C620286089
:102970002060FF2007B0BDE8F08F00007047000026
:10298000082000F0E9B80000102000F0E5B80000D1
:10299000202000F0E1B80000EFF3108072B600BF15
:1029A000FEE7000070B5866D044600F0C1F994F8AA
:1029B0003510022928D105462068216C026822F0D2
:1029C00016020260426922F08002426109B9A16CDC
:1029D00019B1016821F008010160016821F00101CD
:1029E000016000BF20680068C00715D000F0A0F9A2
:1029F000401B0628F6D320206065032084F83500AC
:102A0000002184F8341070BD802060650120002111
:102A100084F8341070BD00BFE06D3F2101FA00F072
:102A2000B060012084F835000020002184F83410C3
:102A300070BD000090F83510022909D1052180F8F9
:102A400035100068016821F0010101600020704725
:102A50008021416501207047B0B5044600F068F957
:102A6000054640F20C00C2F200000078611C18BF5D
:102A7000044400BF00F05CF9401BA042FAD3B0BD93
:102A800080B582B0202811D0102821D008283DD14F
:102A900041F20000C4F20200082100F03DF90128D3
:102AA00032D125A0FDF7D6FD00211EE041F2000045
:102AB000C4F20200202100F02FF928BB16A0FDF778
:102AC000C9FD40F27C10C2F20000022111E000BFFB
:102AD00041F20000C4F20200102100F01DF90128AB
:102AE00012D111A0FDF7B6FD012140F27C10C2F217
:102AF000000080688DF807100DF107010022002307
:102B000004F0D2FC02B080BD02B080BD0EA002B0C5
:102B1000BDE88040FDF79EBD42746E203320636C9B
:102B200069636B65640D000042746E203220636C33
:102B300069636B65640D000042746E203120636C24
:102B400069636B65640D0000756E6B6E6F776E2048
:102B5000697271200D00000043F61441C4F20101B6
:102B60000A68024214BF08607047FFF789BF00007F
:102B70002DE9F04F82B000F13E4242F2004502F1F1
:102B8000FF77C4F202050A2243F6004E4FEAB72649
:102B9000A84208BF0922C4F2010E092E38BF4FEA2D
:102BA000B7220125002600274FF00008009208E018
:102BB00008F101080437B8F1100F06F1020600F021
:102BC000A7800C6805FA08F914EA090FF0D0D1F8CB
:102BD00004B003220BF0030CACF10104B240012C51
:102BE0006FEA020A10D88268CC6802EA0A02B4408E
:102BF000224382604268CBF3001422EA090204FAFD
:102C000008F42243426005E0BCF1030F02D14FF00B
:102C1000030C20E0C2688C6802EA0A02B440224336
:102C2000BCF1020FC26016D16FF0030202EA580233
:102C30000244D2F820C007F01C050F230C69AB40FA
:102C40002CEA030304FA05F52B431362D1F804B010
:102C500001250BF0030C02680CFA06F302EA0A02E3
:102C60001A431BF4403F0260A2D0002243F6440303
:102C70000192C4F202031A684FF6084C42F48042F3
:102C80001A601A68CFF6FF7C02F480420192019A22
:102C900028F00302724452F80C3007F00C050F24A0
:102CA000AC40A343009C04FA05F52B4342F80C30DA
:102CB000DEF808204B6842EA090543F60C4CDC02BA
:102CC00058BF22EA0905CEF80850C4F2010CDCF81E
:102CD00000209C0242EA090558BF22EA0905CCF807
:102CE0000050DEF804209C0342EA090558BF22EA9E
:102CF0000905CEF80450DEF80020DB0342EA09059E
:102D000058BF22EA0905CEF80050012550E700BF60
:102D100002B0BDE8F08F00000069084018BF012034
:102D200070470000002A08BF090481617047000055
:102D300044F26460C2F200000068704790F83D20E1
:102D4000202A1CBF02207047242280F83D20026800
:102D5000136823F001031360536A23F010035362D6
:102D6000536A19435162116841F001011160202139
:102D700080F83D100020704790F83D20202A1CBFAD
:102D800002207047242280F83D20026889B213682F
:102D900023F001031360D2F824C04FF6F07303EA66
:102DA0000C0319435162116841F0010111602021A7
:102DB00080F83D100020704770B5B8B3044690F815
:102DC0003D0028B9002084F83C00204600F0B0F80F
:102DD000242084F83D002068016821F00101016091
:102DE000016841F400410160016821F40041016083
:102DF00000F09AFA48F28041C0F21E0140F600133A
:102E0000D4F804E088424FF00001C0F23D0348F2DC
:102E1000A16C4FF0000238BF01219842C0F2010CB2
:102E200038BF0122E64538BF0A460AB1012070BD0D
:102E30004DF68361C4F21B31A0FB01122168950C91
:102E40004B684FF4967623F03F0343EA9243754371
:102E500044F6D3564B60C1F262060B6AA5FB0656D8
:102E6000B50923F03F03E64538BF950C6A1C1A43A9
:102E70000A62CA6948F2A0664CF6FF73C0F2010606
:102E8000B64522EA03020BD801384FEA4E03B0FBE5
:102E9000F3F001306FF31F30042898BF04201EE0C8
:102EA000A368013863B119230EFB03F3B0FBF3F001
:102EB00001306FF31F3078B100F5804008E000BFAB
:102EC0000EEB4E03B0FBF3F001306FF31F3028B16F
:102ED00000F5004003E000BF012000E001201043A6
:102EE000C8610868D4E9072320F0C00010431843E4
:102EF0000860886848F2FF3204F10C0690434CCE1B
:102F000018431043A5698860C86820F0FF0030436B
:102F10002843C860086840F00100086000202021B4
:102F2000206484F83D10206384F83E0070BD0000EA
:102F3000B0B586B0016845F20040C4F2000081429D
:102F400002D006B0B0BD00BF002443F630050194A6
:102F5000C4F20205296800F5D83041F00201296069
:102F6000296801F00201019101994FF4407101912A
:102F70001221CDE90214032104910421059101A934
:102F8000FFF7F6FD0094286940F4001028612869D5
:102F900000F400100090009806B0B0BD40F20C00A4
:102FA00044F26461C2F20000C2F2000100780A68D3
:102FB000104408607047000080B543F60040C4F23A
:102FC0000200016841F400710160016841F4806110
:102FD0000160016841F480710160032000F0C4F8D1
:102FE0000F2000F005F800F05DF8002080BD000023
:102FF000B0B586B0002543F644010195C4F2020144
:103000000A68044642F001020A60096801A801F05A
:10301000010101910199694600F066F900F098F903
:103020004DF683614000C4F21B31A0FB01014FF05B
:10303000FF3000EB914140F2FC200022C2F2000080
:10304000C4F2010240F2E733C0E90021C0E90253B3
:103050000561856100F0E0FB054618B1284606B021
:10306000B0BD00BF40F2FC20C2F2000000F024FC22
:1030700005460028F2D1192000F036F80F2C0DD8A3
:10308000192021460022002500F042F840F21000ED
:10309000C2F200000460284606B0B0BD01252846F3
:1030A00006B0B0BD82B0002043F640010190C4F2EA
:1030B00002014A6842F480424A604A6802F480424F
:1030C0000192019A00900868002240F08050086048
:1030D00008680F2100F08050009000986FF0010008
:1030E00002B000F015B80000002848BF7047C1B218
:1030F00000F01F00012202FA00F04EF20012CEF2A0
:10310000000242EAD10121F003010860704700008B
:1031100010B54EF60C5CCEF2000CDCF80030C3F3B8
:10312000022E8EF00704042C28BF0424BEF10303F2
:103130004FF0FF3E0EFA04F438BF0023A14399403C
:103140000EFA03F39A43114300F00F0200F16043BB
:103150000901043A03F564436244002848BF02F1C0
:103160000C03197010BD00004EF60C51CEF2000198
:103170000A684FF6FF031A4060F30A2242F08060AB
:1031800040F0FD70086070472DE9F041002800F024
:103190008B8043F60808C4F202080446D8F8F80306
:1031A0000D4600F00F00884207D288F8F853D8F88F
:1031B000F80300F00F00A84276D12068810717D5E8
:1031C000410705D5D8F8001041F4E051C8F80010C7
:1031D000010705D5D8F8001041F46041C8F8001087
:1031E000D8F80010A26821F0F0011143C8F80010CF
:1031F000C0073FD1D8F8F80300F00F00A84207D964
:1032000088F8F853D8F8F80300F00F00A8424BD123
:103210002068410707D5D8F80010E26821F4E05192
:103220001143C8F80010000708D5D8F8000021693C
:1032300020F4604040EAC100C8F8000000F09CF8AB
:10324000D8F8001048F64472C1F30311C0F600022A
:10325000515C40F2140220FA01F140F21000C2F277
:1032600000000068C2F200021160FFF7C1FE0020FA
:10327000BDE8F0816068811E022907D258F8081C59
:1032800089015CBF0120BDE8F08111E0012807D170
:1032900058F8081C89035CBF0120BDE8F08107E0F5
:1032A00058F8081C890703D40120BDE8F08100BF4D
:1032B000D8F8001021F003010843C8F80000FFF718
:1032C00037FD064641F28837D8F80000616800F003
:1032D0000C00B0EB810F8DD0FFF72AFD801BB842A8
:1032E000F2D90320BDE8F0810F22026043F6080204
:1032F000C4F20202136803F003034360136803F08F
:10330000F0038360136803F4E053C360D2F800C095
:103310004FF4E05303EADC030361D2F8F80300F052
:103320000F0008607047000040F2140043F60801E7
:10333000C2F20000C4F202010068096848F6547243
:10334000C1F38221C0F60002515CC8407047000002
:1033500040F2140043F60801C2F20000C4F2020178
:103360000068096848F65472C1F34231C0F60002A1
:10337000515CC8407047000010B543F60404C4F225
:103380000204606800F00C0142F200400829C0F21B
:10339000F40007D0042918BF10BD41F20020C0F28C
:1033A0007A0010BD216801F03F02216823684902BC
:1033B000C3F3881106D4A1FB00010023FCF786FFAC
:1033C00007E000BF41F20020C0F27A004843B0FBA2
:1033D000F2F021680222C1F3014102EB4101B0FB8E
:1033E000F1F010BD2DE9F04182B0002868D004460C
:1033F000007843F60006C007C4F202060BD0B0689E
:1034000000F00C00042840F09F803068800302D553
:103410006068002854D0207880071AD5B06810F072
:103420000C0F09D0B06800F00C00082840F0A6800E
:103430007068400200F1A2803068800702D5E06821
:1034400001283DD13068216920F0F80040EAC10030
:1034500030602078000737D4207840074CD4A56925
:1034600055B3B06800F00C00082840F0BB80012D77
:1034700026D07068E16900F480028A4220D1216A76
:1034800000F03F028A421BD147F6C071626A0140D8
:10349000B1EB821F14D1A16A4FF6FF73C9039943A0
:1034A00000F44032A1F580318A4209D1E16A00F08E
:1034B0007060B0EB016F03D1002002B0BDE8F08175
:1034C000012002B0BDE8F0816069002840F20000F0
:1034D000C4F2472076D00121C0F8801EFFF728FCF7
:1034E000054600BF706F8007B6D4FFF721FC401B74
:1034F0000228F7D9DDE000BF306C10F080580AD107
:1035000000200190306C40F080503064306C00F04E
:1035100080500190019847F20007C4F20007386814
:10352000C00541D4386840F480703860FFF700FC73
:10353000054600BF3868C00536D4FFF7F9FB401BCD
:103540000228F7D9B5E000BFB06800F00C000828E9
:1035500003D1706840023FF558AF6068B0F5803F16
:1035600007D0B0F5A02F40F08D80306840F4802067
:103570003060306840F4803030608DE0E0680028D2
:1035800052D00020C4F2472001210160FFF7D0FB98
:10359000054600BF306880073FF554AFFFF7C8FB12
:1035A000401B0228F6D984E0A068012805D0052830
:1035B0004ED1306F40F004003067306F40F00100B2
:1035C00030674FE00021C0F8801EFFF7B1FB0546D1
:1035D000706F80077FF540AFFFF7AAFB401B022802
:1035E000F6D966E00027C4F2472700203866FFF7C7
:1035F0009FFB022D05460BD1306880015ED5FFF799
:1036000097FB401B02284FF00300F5D955E700BF98
:10361000306880017FF550AFFFF78AFB401B02281E
:103620004FF00300F4D948E70020C4F247200021FE
:103630000160FFF77DFB0546306880077FF509AF25
:10364000FFF776FB401B02284FF00300F4D934E764
:10365000316F002821F001013167316F21F0040141
:1036600031674DD0FFF764FB054641F2883700BF54
:10367000306F800756D4FFF75BFB401BB842F7D989
:1036800017E000BF3168002821F4803131603168D3
:1036900021F4802131604FD0FFF74AFB054600BF7F
:1036A000306880033FF5B7AEFFF742FB401B64284C
:1036B000F6D9032002B0BDE8F08100BF04F11C057B
:1036C0002FCD084340EA8210D9034FF6FF72914391
:1036D000A1F5803140EA056008437060012038663A
:1036E000FFF726FB044600BF306880013FF5E4AEDB
:1036F000FFF71EFB001B02284FF00300F4D9DCE6A5
:10370000FFF716FB054641F2883700BF306F800790
:1037100008D5FFF70DFB401BB8424FF00300F5D969
:10372000CBE600BFB8F1000F7FF499AE306C20F00B
:103730008050306493E600BFFFF7FAFA054600BFF9
:10374000306880037FF567AEFFF7F2FA401B64280C
:103750004FF00300F4D9B0E6704700007047000056
:1037600010B590F83C20012A4FF0020251D080F8A9
:103770003D200268D2F804E0D2F808C00C682EF0B0
:103780007003234341F2FF74C4F20004A242536069
:103790000EDC40F2FF73C4F200039A4216DCB2F171
:1037A000804F2BD040F20043C4F2000324E000BF5E
:1037B00040F2FF33C4F201039A4213DC41F60003E6
:1037C000C4F200039A4219D0002313E040F600032C
:1037D000C4F200039A4211D040F60043C4F2000341
:1037E0000AE000BF44F20003C4F201039A4205D08C
:1037F00040F20043C4F201039A4204D149682CF01C
:103800008003194391600121002280F83D1080F867
:103810003C20104610BD0000002804BF0120704766
:1038200010B5044690F83D0028B9002084F83C000B
:10383000204600F01FF8022084F83D002068211D7A
:1038400001F0CAFD012084F8460084F83E0084F8A7
:103850003F0084F8400084F8410084F8420084F876
:10386000430084F8440084F8450084F83D000020BB
:1038700010BD000080B582B00068B0F1804F1CBF61
:1038800002B080BD0020019043F64000C4F2020067
:103890000168002241F0010101600068052100F08B
:1038A0000100019001981C20FFF732FC1C2002B09F
:1038B000BDE88040FFF718BC90F83D1001291CBFFF
:1038C00001207047022180F83D10006841F2FF722C
:1038D000C168C4F20002904241F00101C1600DDCF8
:1038E00040F2FF71C4F20001884215DCB0F1804F54
:1038F0002AD040F20041C4F2000123E040F2FF313F
:10390000C4F20101884213DC41F60001C4F2000157
:10391000884219D0002113E040F60001C4F20001F2
:10392000884211D040F60041C4F200010AE000BF15
:1039300044F20001C4F20101884205D040F2004186
:10394000C4F20101884206D1816801F0070106290D
:1039500004BF00207047016841F0010101600020B0
:103960007047000080B590F83C20012A4FF0020219
:1039700000F0C28080F83D20D0F800C04FF677728A
:10398000DCF8083023EA0202CCF808200B684F2B41
:1039900028DC1F2B44DD202B45D0302B43D0402B7F
:1039A00040F0AC80D1F804E0C968DCF82030DCF8E5
:1039B000202022F00102CCF82020DCF8182022F090
:1039C000F00242EA011123F00A0242EA0E02CCF8A8
:1039D0001810CCF82020DCF8081041F0470121F045
:1039E000300180E06F2B27DDB3F5005F48D0B3F5E1
:1039F000805F7AD0702B40F08180D1E901E3C96803
:103A0000DCF8082043EA0E0322F47F4243EA012156
:103A10001143CCF80810DCF8081041F0770162E09F
:103A20000BB1102B6AD1DCF8081021F0700119439A
:103A300041F0070157E000BF502B35D0602B5DD11E
:103A4000D1F804E0C968DCF8203023F01003CCF88A
:103A50002030DCF81830DCF8202023F4704322F00A
:103A6000A00243EA013142EA0E12CCF81810CCF859
:103A70002020DCF8081041F0670121F0100132E04D
:103A8000D1E901E3C968DCF8082043EA0E0322F417
:103A90007F4243EA01211143CCF80810DCF80810FA
:103AA00041F480411FE000BFD1F804E0C968DCF8B0
:103AB0002030DCF8202022F00102CCF82020DCF8B5
:103AC000182022F0F00242EA011123F00A0242EA31
:103AD0000E02CCF81810CCF82020DCF8081041F0C9
:103AE000570121F02001CCF808100022012180F8B4
:103AF0003D10002180F83C10104680BD0122F5E702
:103B00007047000010B5016804460869800744BF8B
:103B1000C8685FEA807039D40869400744BFC86844
:103B20005FEA40703ED40869000744BFC8685FEA96
:103B3000007045D40869C00644BFC8685FEAC06029
:103B40004AD40869C0071CBFC8685FEAC07051D179
:103B50000869000644BFC8685FEA006052D408697B
:103B6000400644BFC8685FEA406053D408698006D5
:103B700046BFC8685FEA806010BD6FF02002204633
:103B80000A61BDE81040FFF7E9BD00BF6FF0020019
:103B90000861012020778869800743D02046FFF71D
:103BA000AFFF45E06FF004000861022020778869CC
:103BB00010F4407F40D02046FFF7A2FF42E000BF54
:103BC0006FF00800086104202077C86980073DD0A5
:103BD0002046FFF795FF3FE06FF0100008610820D6
:103BE0002077C86910F4407F3AD02046FFF788FF5D
:103BF0003CE000BF6FF001000861204600F03EF895
:103C00002168A5E76FF0800008612046FFF7A4FD5A
:103C10002168A4E76FF040000861204600F038F802
:103C20002168A3E7204600F025F8204600F024F89C
:103C30002168002020776FE7204600F01BF820461F
:103C400000F01AF82168002020776CE7204600F089
:103C500011F8204600F010F821680020207769E76D
:103C6000204600F007F8204600F006F82168002002
:103C7000207766E770470000704700000068002169
:103C8000C4F20101884218BF7047FFF787B90000EE
:103C9000704700007047000070470000B0B582B068
:103CA000044600680168C368426901F02F05202DB1
:103CB00003F0200506D12DB1204602B0BDE8B0408A
:103CC00001F02EBC5FEA017C1EBF02F0010E03F47E
:103CD000907212EB0E0253D1226B012A05D111F022
:103CE000100218BF13F0100236D10A0622D513F0C5
:103CF00080021FD094F83D1021293FD1A168B1F571
:103D0000805F03D12169002900F07282216A4A1C78
:103D1000226209784160E18C01390A04E1842DD1E5
:103D2000C16821F08001C160C16841F04001C160FB
:103D300002B0B0BD490621D513F040011ED0C168C4
:103D400021F04001C1602021204684F83D1002B0DE
:103D5000BDE8B04000F050BB002101910168019125
:103D60004168019101994069400613D4A08DE18D0D
:103D7000E28D002A18BF884240F0BE8102B0B0BD7B
:103D8000CA0718BF13F4807240F0BA804A0700F1E6
:103D9000BD80C2E0A16B0868426893B2002BEDD0F1
:103DA000A08D8342EAD2E285C969B1F5807F00F037
:103DB0009D80206850E8030F216820F4807041E85E
:103DC0000302DAB1206850E8030F216820F4807004
:103DD00041E8030292B1206850E8030F216820F403
:103DE000807041E803024AB1206850E8030F21685F
:103DF00020F4807041E80302002ADAD1206850E8FC
:103E0000050F216820F0010041E80502DAB12068C1
:103E100050E8050F216820F0010041E8050292B149
:103E2000206850E8050F216820F0010041E80502F4
:103E30004AB1206850E8050F216820F0010041E8F0
:103E40000502002ADAD1206850E8050F216820F029
:103E5000400041E80502DAB1206850E8050F21680A
:103E600020F0400041E8050292B1206850E8050FBB
:103E7000216820F0400041E805024AB1206850E87E
:103E8000050F216820F0400041E80502002ADAD140
:103E9000202084F83E0000202063206850E8030FB3
:103EA000216820F0100041E80302DAB1206850E8F0
:103EB000030F216820F0100041E8030292B120684E
:103EC00050E8030F216820F0100041E803024AB1D6
:103ED000206850E8030F216820F0100041E8030239
:103EE000002ADAD1A06BFEF75DFDA08DE18D401AAE
:103EF00081B2204602B0BDE8B040FFF7CBBE00BFA4
:103F0000226C42F0010222644A0706D5BEF1000F7E
:103F100003D0226C42F0020222648A0706D5BEF169
:103F2000000F03D0226C42F004022264BCF1000FA7
:103F300009D545EA0E02B2FA82F2520903D1226C87
:103F400042F008022264226C002A3FF417AF11F0FD
:103F5000200118BF002D03D0204601F0E1FA2068AF
:103F60004069216C00F0400001F00801401800F0A9
:103F7000B58000BF206850E8030F216820F49070DE
:103F800041E80302BAB3206850E8030F216820F427
:103F9000907041E8030272B3206850E8030F216873
:103FA00020F4907041E803022AB3206850E8030F20
:103FB000216820F4907041E80302002ADAD11AE067
:103FC000206850E8050F216820F0010041E8050253
:103FD000DAB1206850E8050F216820F0010041E8BF
:103FE000050292B1206850E8050F216820F0010019
:103FF00041E805024AB1206850E8050F216820F029
:10400000010041E80502002ADAD1206B012824D101
:10401000206850E8030F216820F0100041E80302F7
:10402000DAB1206850E8030F216820F0100041E861
:10403000030292B1206850E8030F216820F01000BD
:1040400041E803024AB1206850E8030F216820F0DC
:10405000100041E80302002ADAD1202084F83E0053
:10406000002020632068406940063FD5206850E862
:10407000050F216820F0400041E80502DAB1206810
:1040800050E8050F216820F0400041E8050292B198
:10409000206850E8050F216820F0400041E8050243
:1040A0004AB1206850E8050F216820F0400041E83F
:1040B0000502002ADAD1A06BC0B145F21551C0F655
:1040C00000010165FEF7B6FC00283FF457AEA06B77
:1040D000016D02B0BDE8B040084700BF2046FFF7C1
:1040E000DBFD0020206402B0B0BD00BF204602B05E
:1040F000BDE8B040FFF7D0BD401A216851E8031F6A
:10410000226821F4907142E80313DBB1216851E881
:10411000031F226821F4907142E8031393B12168D0
:1041200051E8031F226821F4907142E803134BB158
:10413000216851E8031F226821F4907142E80313BB
:10414000002BDAD1216851E8051F226821F0010116
:1041500042E80513DBB1216851E8051F226821F010
:10416000010142E8051393B1216851E8051F226857
:1041700021F0010142E805134BB1216851E8051F08
:10418000226821F0010142E80513002BDAD1202139
:1041900084F83E1000212163216851E8031F226842
:1041A00021F0100142E80313002B3FF4A1AE216877
:1041B00051E8031F226821F0100142E80313002B8D
:1041C0003FF496AE216851E8031F226821F01001E8
:1041D00042E80313002B3FF48BAE216851E8031F24
:1041E000226821F0100142E80313002BD4D17FE6AE
:1041F000216A31F8022B6FF35F22426021628AE567
:10420000002804BF0120704710B5044690F83D0017
:1042100028B9002084F83C00204600F021F8242032
:1042200084F83D002068C16821F40051C160204637
:1042300001F0F6F92068016921F4904101614169BA
:1042400021F02A014161C16841F40051C1600020A0
:104250002021206484F83D1084F83E1010BD000039
:1042600080B586B0006844F60002C4F20002002166
:104270009042CDE90411CDE90211019138D044F208
:104280000041C4F2000188425BD1002043F63001B6
:104290000090C4F202010A6942F400320A610A691C
:1042A00002F400320092009A00900A6842F008027C
:1042B0000A60096801F008010091009960210191EC
:1042C0000221CDE90210032004900720059040F65A
:1042D0000040C4F2020001A9FEF74AFC2620052195
:1042E0000022FEF715FF2620FEF7FEFE06B080BD79
:1042F00043F630000091C4F20200026942F48022C9
:104300000261026902F480220092009A0091026820
:1043100042F008020260006800F008000090009877
:104320004FF4407001900220CDE902010320049077
:104330000720059040F60040C4F2020001A9FEF7F4
:1043400017FC06B080BD000090F83E30202B0BD14A
:1043500000294FF0010318BF002A01D11846704709
:1043600090F83C30012B01D10220704700230363F9
:10437000816222218285C285036480F83E10026931
:10438000016880F83C301AB1C86840F48070C86099
:104390004869002340F001004861C86840F02000EF
:1043A000C860184670470000006844F20041C4F23B
:1043B0000001884218BF704740F27C10C2F2000032
:1043C0004278438840F66411C2F20001CA5443881F
:1043D0000D2A03F10103438001D00A2A04D1428847
:1043E00000238B5401210170411C40F28C30C2F239
:1043F00000000122FFF7A8BF70470000FEE70000A1
:104400002DE9F04381B00024C4F202041646894627
:1044100007462046102100229846FEF783FC04F54B
:104420008065284620210022FEF77CFC2A2000F02F
:10443000FFFC204610210122FEF774FC28462021B3
:104440000122FEF76FFC204610210022FEF76AFCD5
:10445000380A00F0EDFCF8B200F0EAFC204610212A
:104460000122FEF75FFC204610210022FEF75AFCD5
:10447000300A00F0DDFCF0B200F0DAFC204610213A
:104480000122FEF74FFC204610210022FEF74AFCD5
:10449000284620210022FEF745FC2B2000F0C8FC16
:1044A000204610210122FEF73DFC28462021012252
:1044B000FEF738FC204610210022FEF733FC4FEABD
:1044C000192000F0B5FC5FFA89F000F0B1FC20463D
:1044D00010210122FEF726FC204610210022FEF7C3
:1044E00021FC4FEA182000F0A3FC5FFA88F000F0EE
:1044F0009FFC204610210122FEF714FC20461021CB
:104500000022FEF70FFC284620210022FEF70AFCBD
:104510002C2000F08DFC204610210122FEF702FC29
:1045200028462021012201B0BDE8F043FEF7FABB86
:104530002DE9F04381B00E468146501E591E984623
:10454000154682B28BB248463146FFF759FF4645C1
:1045500038BFA9450DD2089C4F4600BF204600F049
:104560003BFC0137B8B2A842F8D30136B0B240459F
:10457000F2D301B0BDE8F083B0B50024C4F2020468
:1045800004F5406528464FF480410022FEF7CAFB3F
:104590003220FEF761FA28464FF480410122FEF7EF
:1045A000C1FB3220FEF758FA28464FF400410122A1
:1045B000FEF7B8FB3220FEF74FFA2046102100220A
:1045C000FEF7B0FB204610210022FEF7ABFB04F5FE
:1045D0008065284620210022FEF7A4FB112000F070
:1045E00027FC204610210122FEF79CFB28462021B3
:1045F0000122FEF797FB204610210022FEF792FBD6
:10460000284620210022FEF78DFB112000F010FC2F
:10461000204610210122FEF785FB28462021012299
:10462000FEF780FB3220FEF717FA20461021002209
:10463000FEF778FB284620210022FEF773FB362088
:1046400000F0F6FB204610210122FEF76BFB284606
:1046500020210122FEF766FB204610210022FEF7F2
:1046600061FB002000F0E4FB204610210122FEF750
:1046700059FB204610210022FEF754FB284620213A
:104680000022FEF74FFB3A2000F0D2FB204610211B
:104690000122FEF747FB284620210122FEF742FBBC
:1046A000204610210022FEF73DFB552000F0C0FB04
:1046B000204610210122FEF735FB20461021002262
:1046C000FEF730FB284620210022FEF72BFBB2200C
:1046D00000F0AEFB204610210122FEF723FB284606
:1046E00020210122FEF71EFB204610210022FEF7AA
:1046F00019FB1F2000F09CFB204610210122FEF731
:1047000011FB204610210022FEF70CFB1F2000F0B9
:104710008FFB204610210122FEF704FB20461021CA
:104720000022FEF7FFFA002000F082FB2046102155
:104730000122FEF7F7FA204610210022FEF7F2FAD6
:10474000332000F075FB204610210122FEF7EAFA23
:10475000204610210022FEF7E5FA332000F068FB26
:10476000204610210122FEF7DDFA2046102100220A
:10477000FEF7D8FA284620210022FEF7D3FAB72008
:1047800000F056FB204610210122FEF7CBFA284606
:1047900020210122FEF7C6FA204610210022FEF752
:1047A000C1FA352000F044FB204610210122FEF71B
:1047B000B9FA204610210022FEF7B4FA284620213B
:1047C0000022FEF7AFFABB2000F032FB204610219A
:1047D0000122FEF7A7FA284620210122FEF7A2FABD
:1047E000204610210022FEF79DFA2B2000F020FB2E
:1047F000204610210122FEF795FA204610210022C2
:10480000FEF790FA284620210022FEF78BFAC020FE
:1048100000F00EFB204610210122FEF783FA284605
:1048200020210122FEF77EFA204610210022FEF709
:1048300079FA2C2000F0FCFA204610210122FEF724
:1048400071FA204610210022FEF76CFA284620213A
:104850000022FEF767FAC22000F0EAFA2046102193
:104860000122FEF75FFA284620210122FEF75AFABC
:10487000204610210022FEF755FA012000F0D8FA58
:10488000204610210122FEF74DFA20461021002279
:10489000FEF748FA284620210022FEF743FAC320FB
:1048A00000F0C6FA204610210122FEF73BFA284606
:1048B00020210122FEF736FA204610210022FEF7C1
:1048C00031FA0F2000F0B4FA204610210122FEF741
:1048D00029FA204610210022FEF724FA284620213A
:1048E0000022FEF71FFAC42000F0A2FA2046102191
:1048F0000122FEF717FA284620210122FEF712FABC
:10490000204610210022FEF70DFA202000F090FA38
:10491000204610210122FEF705FA20461021002230
:10492000FEF700FA284620210022FEF7FBF9C620F8
:1049300000F07EFA204610210122FEF7F3F9284606
:1049400020210122FEF7EEF9204610210022FEF779
:10495000E9F90F2000F06CFA204610210122FEF741
:10496000E1F9204610210022FEF7DCF9284620213B
:104970000022FEF7D7F9D02000F05AFA2046102185
:104980000122FEF7CFF9284620210122FEF7CAF9BD
:10499000204610210022FEF7C5F9A42000F048FAB5
:1049A000204610210122FEF7BDF9204610210022E9
:1049B000FEF7B8F9A12000F03BFA204610210122B1
:1049C000FEF7B0F9204610210022FEF7ABF9284689
:1049D00020210022FEF7A6F9D62000F029FA204671
:1049E00010210122FEF79EF9284620210122FEF720
:1049F00099F9204610210022FEF794F9A12000F039
:104A000017FA204610210122FEF78CF920461021CA
:104A10000022FEF787F9284620210022FEF782F9BE
:104A2000E02000F005FA204610210122FEF77AF975
:104A3000284620210122FEF775F920461021002288
:104A4000FEF770F9F02000F0F3F920461021012262
:104A5000FEF768F9204610210022FEF763F90420D2
:104A600000F0E6F9204610210122FEF75BF920460E
:104A700010210022FEF756F9072000F0D9F9204650
:104A800010210122FEF74EF9204610210022FEF7E8
:104A900049F9042000F0CCF9204610210122FEF74C
:104AA00041F9204610210022FEF73CF9042000F0D5
:104AB000BFF9204610210122FEF734F920461021CB
:104AC0000022FEF72FF9042000F0B2F92046102151
:104AD0000122FEF727F9204610210022FEF722F9D5
:104AE000252000F0A5F9204610210122FEF71AF931
:104AF000204610210022FEF715F9332000F098F926
:104B0000204610210122FEF70DF920461021002237
:104B1000FEF708F93C2000F08BF920461021012215
:104B2000FEF700F9204610210022FEF7FBF83620A0
:104B300000F07EF9204610210122FEF7F3F820460E
:104B400010210022FEF7EEF8142000F071F9204643
:104B500010210122FEF7E6F8204610210022FEF780
:104B6000E1F8122000F064F9204610210122FEF73E
:104B7000D9F8204610210022FEF7D4F8292000F0B1
:104B800057F9204610210122FEF7CCF820461021CB
:104B90000022FEF7C7F8302000F04AF92046102125
:104BA0000122FEF7BFF8204610210022FEF7BAF8D6
:104BB000284620210022FEF7B5F8E12000F038F960
:104BC000204610210122FEF7ADF8284620210122BF
:104BD000FEF7A8F8204610210022FEF7A3F8F020E7
:104BE00000F026F9204610210122FEF79BF820460E
:104BF00010210022FEF796F8022000F019F9204655
:104C000010210122FEF78EF8204610210022FEF727
:104C100089F8042000F00CF9204610210122FEF74B
:104C200081F8204610210022FEF77CF8052000F0D4
:104C3000FFF8204610210122FEF774F820461021CB
:104C40000022FEF76FF8052000F0F2F82046102150
:104C50000122FEF767F8204610210022FEF762F8D5
:104C6000212000F0E5F8204610210122FEF75AF835
:104C7000204610210022FEF755F8252000F0D8F834
:104C8000204610210122FEF74DF820461021002277
:104C9000FEF748F8322000F0CBF820461021012220
:104CA000FEF740F8204610210022FEF73BF83B209B
:104CB00000F0BEF8204610210122FEF733F820460E
:104CC00010210022FEF72EF8382000F0B1F820461F
:104CD00010210122FEF726F8204610210022FEF7BF
:104CE00021F8122000F0A4F8204610210122FEF73E
:104CF00019F8204610210022FEF714F8142000F0C5
:104D000097F8204610210122FEF70CF820461021CA
:104D10000022FEF707F8272000F08AF8204610212D
:104D20000122FDF7FFFF204610210022FDF7FAFFC8
:104D3000312000F07DF8204610210122FDF7F2FF1E
:104D4000204610210022FDF7EDFF284620210022F9
:104D5000FDF7E8FF212000F06BF82046102101222A
:104D6000FDF7E0FF284620210122FDF7DBFF20466A
:104D700010210022FDF7D6FF284620210022FDF752
:104D8000D1FF292000F054F8204610210122FDF720
:104D9000C9FF284620210122BDE8B040FDF7C2BF6F
:104DA000B0B51C46154602440B44013A013B92B291
:104DB0009BB2FFF725FB002D18BF002C0BD00498E9
:104DC0006C43851E15F8020F00F01EF8687800F09D
:104DD0001BF8013CF6D1B0BDB0B50025C4F2020508
:104DE0000446284610210022FDF79CFF200A00F00F
:104DF0001FF8E0B200F01CF8284610210122BDE89F
:104E0000B040FDF78FBF0000B0B50025C4F2020529
:104E10000446284610210022FDF784FF204600F0BA
:104E200007F8284610210122BDE8B040FDF77ABFFF
:104E3000B0B540F20044C4F2020405462046082101
:104E40000022FDF76FFFEA0920461021FDF76AFFF7
:104E5000204608210122FDF765FF20460821002297
:104E6000FDF760FFC5F3801220461021FDF75AFFC1
:104E7000204608210122FDF755FF20460821002287
:104E8000FDF750FFC5F3401220461021FDF74AFF01
:104E9000204608210122FDF745FF20460821002277
:104EA000FDF740FFC5F3001220461021FDF73AFF41
:104EB000204608210122FDF735FF20460821002267
:104EC000FDF730FFC5F3C00220461021FDF72AFF91
:104ED000204608210122FDF725FF20460821002257
:104EE000FDF720FFC5F3800220461021FDF71AFFD1
:104EF000204608210122FDF715FF20460821002247
:104F0000FDF710FFC5F3400220461021FDF70AFF10
:104F1000204608210122FDF705FF20460821002236
:104F2000FDF700FF05F0010220461021FDF7FAFE13
:104F3000204608210122BDE8B040FDF7F3BE000085
:104F400080B545F2D52048F65C72C0F60000C0F688
:104F50000002002100F0B8FD40F2A421C2F20001DD
:104F6000086080BD2DE9F04F87B0002443F6300083
:104F7000CDE905440194C4F202000168002641F025
:104F8000100101600168C4F2020601F010010191F4
:104F9000019901940168002241F004010160016857
:104FA000102501F00401019101990194016841F07B
:104FB00080010160016801F0800101910199019473
:104FC000016841F001010160016801F001010191F6
:104FD00001990194016841F020010160016801F02C
:104FE0002001019101990194016841F002010160E1
:104FF000016801F00201019101990194016841F0F9
:10500000080101600068102100F00800019001987B
:105010003046FDF787FE06F5806B584644F2B8012E
:10502000002244F2B80AFDF77DFE06F540684046CE
:105030004FF4404100224FF44049FDF773FE382001
:1050400002904FF4881002AFCDE9030406F58050BA
:105050003946FDF78DFD0295012530463946CDE9EB
:1050600003540594FDF784FD202002A931C1304688
:105070003946FDF77DFD4FF48050CDE9020406F579
:10508000A05039460494FDF773FD58463946CDE9E2
:1050900002A5CDE90444FDF76BFD40463946CDE954
:1050A0000295CDE90444FDF763FD092005210022A6
:1050B000FEF72EF80920FEF717F80A200521002236
:1050C000FEF726F80A20FEF70FF817200521002228
:1050D000FEF71EF81720FEF707F807B0BDE8F08FBF
:1050E00080B540F2A82045F20041C2F20000C4F2AF
:1050F000000141F6802200234FF4804CC0F20602EA
:1051000080E80E00C0E9033CC0E90533C0E907337D
:10511000FDF752FE002818BFFDF73EFC40F2A82024
:10512000C2F200000021FDF709FE002818BFFDF7BC
:1051300033FC40F2A820C2F200000021FDF71CFE63
:10514000002808BF80BDBDE88040FDF725BC0000F9
:1051500080B586B040F244300021C2F200004FF02A
:10516000804253234FF0FF3C0591CDE90311CDE977
:105170000011C0E90023C0E9021C01618161FEF752
:105180004BFB002818BFFDF707FC4FF4805002903E
:1051900040F24430C2F2000002A9FEF7E3FB00280F
:1051A00018BFFDF7F9FB40F24430C2F20000694637
:1051B000FEF7D6FA002818BFFDF7EEFB06B080BD5B
:1051C00080B540F28C3044F20041C2F20000C4F2DB
:1051D000000100234FF00C0C4FF4165280E80E0033
:1051E000C0E90333C0E905C3C361FFF709F800282C
:1051F00008BF80BDBDE88040FDF7CEBB80B540F262
:10520000D03044F60001C2F20000C4F200010023D5
:105210004FF00C0C4FF4E13280E80E00C0E903338C
:10522000C0E905C3C361FEF7EBFF002808BF80BDDE
:10523000BDE88040FDF7B0BBFEE70000FEE70000E0
:10524000EFF30980BFF36F8F154B1A681EF0100F34
:1052500008BF20ED108A20E9F04F10602DE9090009
:105260004FF0500080F31188BFF34F8FBFF36F8F63
:1052700001F018FE4FF0000080F31188BDE809002E
:1052800019680868B0E8F04F1EF0100F08BFB0ECC6
:10529000108A80F30988BFF36F8F704700BF00BF8B
:1052A0009C01002000000000000000000000000041
:1052B000074B19680868B0E8F04F80F30988BFF31E
:1052C0006F8F4FF0000080F31188704700BF00BF60
:1052D0009C010020012000F0B5FBFBE780B54EF2F9
:1052E0001000CEF20000006802F01AFB012808BF8F
:1052F00080BDBDE8804001F0F5BE0000B0B592B0C1
:10530000002443F64000CDE90A44CDE90844059461
:10531000CDE90344CDE901440094C4F202000168E0
:10532000022541F080510160006800F0805000903B
:10533000009847F200000094C4F20000016841F4B4
:1053400040410160006800F4404000900098012056
:1053500006904FF4803007904FF480000D900420A9
:105360000E90A820CDE90F050720119006A80C95F6
:10537000FEF738F820B1EFF3108072B6FEE700BFF9
:105380000F20CDE901054FF4A05004904FF4805058
:10539000059001A805210394FDF7F6FE20B1EFF377
:1053A000108072B6FEE700BF12B0B0BD4EF6885056
:1053B000CEF20000016841F4700101607047000006
:1053C00040F2FC20C2F20000FEF79CBB40F24430E9
:1053D000C2F20000FEF796BB10B540F6FF3E036830
:1053E000C4F2000E40F2004C7045C4F2010C27DC00
:1053F000B0F1804F31D040F20042C4F2000290423E
:105400002BD040F60002C4F20002904225D041F6B3
:10541000FF72C4F20002904229DC70453CDCB0F11E
:10542000804F5FD040F20042C4F20002904259D057
:1054300040F60002C4F20002904253D056E000BF92
:1054400040F60042C4F20002904206D0604504D00B
:105450000022C4F201029042D9D14A6823F07003BD
:10546000134341F6FF72C4F200029042D5DD43F6C9
:10547000FF72C4F20102904222DC42F20002C4F246
:10548000000290422ED00022C4F20102904229D0A4
:10549000604527D02AE000BF40F60042C4F2000277
:1054A00090421FD041F60002C4F20002904219D08F
:1054B00041F60042C4F20002904213D016E000BF51
:1054C00044F20002C4F2010290420BD044F6000202
:1054D000C4F20102904205D044F20042C4F201023B
:1054E000904203D1CA6823F44073134323F080022F
:1054F0004B69D1F800E08C681A430260C46240F442
:105500008062C0F828E0624504BF09690163012197
:10551000416110BD806B0021C185C184FEF7BCBB19
:1055200081B090F83E10222921D183680246B3F55C
:10553000805F09D152F8281F52F8183C002B63D025
:1055400003685B680AE000BF52F8281F13B90369BB
:10555000002BF5D003685B6803F07F030B701168C4
:1055600001311160C18D01390A04C18502D001B039
:10557000704700BF0168CA6822F02002CA60CA688A
:1055800022F48072CA604A6922F001024A61202135
:1055900080F83E10016B01293ED10021016300BF5C
:1055A000016851E8031F026821F0100142E803136B
:1055B000DBB1016851E8031F026821F0100142E8E5
:1055C000031393B1016851E8031F026821F0100131
:1055D00042E803134BB1016851E8031F026821F050
:1055E000100142E80313002BDAD101680A68D206E1
:1055F00006D5002200920A6800924968009100993D
:10560000818D01B0FEF746BB026852686FF35F22DE
:1056100021F8022B8162A5E701B0FEF7C5BE0000AC
:1056200010B504460068D4E902C22369016921F477
:10563000405111430161626943EA0C01E36911437E
:10564000C268194349F20C639A431143C16041692E
:10565000A26921F4407141F20043114340F4806299
:10566000C4F201039A42416102D1FDF771FE01E0EB
:10567000FDF75AFEE16963681922B1F5004FA0FBFE
:10568000020123D15A00DB0FFAF720FE48F21F5126
:10569000C5F2EB11A0FB01235A094FF69C73C0F62B
:1056A000FF7303F1805302FB0300322303EBC000BE
:1056B000A0FB01014FF4F87000EA111000EB02109A
:1056C000C1F3421108442168886010BD9A009B0F05
:1056D000FAF7FCFD48F21F51C5F2EB11A0FB0123C4
:1056E0005A094FF69C73C0F6FF7302FB0300322386
:1056F00003EB0010A0FB0101F02000EA511000EBC9
:105700000210C1F3431108442168886010BD0000F5
:1057100040F28C30C2F20000FEF7C0BAFEE7000093
:105720002DE9F04786B04FF4805041F2004A0190D5
:105730001120C4F2020A02900220049001A95046EE
:10574000FDF716FA50464FF4805100220024FDF771
:10575000E9FA40F24439C2F20009D9F8000044F6EF
:1057600020624462016841F00101016044F61F615A
:10577000436A8B4208D8436A8B4205D8436A8B42FE
:1057800002D8436A9342F3D3016A41F211121142E3
:1057900008D1016A40F24442114203D1016821F06C
:1057A0000101016050464FF480510122FDF7BAFA21
:1057B000D9F8000000214162016841F00101016057
:1057C000416A1D2908D8416A1D2905D8416A1D2949
:1057D00002D8416A1E29F3D3016A41F21112114223
:1057E00008D1016A40F24442114203D1016821F01C
:1057F000010101604FF480500190012000250390C9
:1058000001A950460295FDF7B3F950464FF4805177
:10581000FDF782FA20B1284606B0BDE8F08700BF48
:1058200041F2111740F24448002609E0016A39426A
:105830001CD050464FF48051661CFDF76DFAF8B944
:10584000D9F8000034464562016841F00101016069
:10585000416A0029EAD1416A0029E7D1416A002959
:10586000E4D1416A0029F3D0E0E700BF016A11EA00
:10587000080FDED1016821F001010160D9E700BF06
:10588000A4F16400C0B2AF2804D20025284606B0B7
:10589000BDE8F08750464FF48051FDF73DFA0028EF
:1058A0004FF00005B7D041F2111740F244480024F0
:1058B0000AE000BF016A39421CD050464FF48051C3
:1058C000741CFDF729FAF8B1D9F8000026464562A4
:1058D000016841F001010160416A0029EAD1416A91
:1058E0000029E7D1416A0029E4D1416A0029F3D0B7
:1058F000E0E700BF016A11EA080FDED1016821F07C
:1059000001010160D9E700BFA6F11300C0B2002574
:10591000512838BF0125284606B0BDE8F0870000B1
:1059200044F60001C4F200010A68520609D40A686C
:1059300052065CBF0A685FEA426202D40A685206F5
:10594000F2D5C2B24A60704782B0FDF735FBFFF76F
:10595000D5FCFFF707FBFFF7C3FBFFF74FFCFFF793
:10596000F7FBFFF72DFCFEF707FE0020C4F2020054
:1059700010210022FDF7D6F900200021F022F023AB
:10598000FEF73EFD032001210022032601F0C2FBA9
:1059900040F27C14C2F20004A06046F2117004F1DF
:1059A0000C05C0F6000019A14FF480720023009688
:1059B000019501F049FF04F11000019046F2516099
:1059C0000425C0F6000014A14FF480720023009556
:1059D00001F03AFF46F2C97004F11406C0F6000067
:1059E0000FA14FF4807200230095019601F02CFF67
:1059F0000DA0FAF72FFE01F0D5F900F033F8FFF70C
:105A00009FFA00F043F800BFFEE700BF4C4344207C
:105A1000446973706C61790044485431310000006E
:105A2000594C333800000000526561647920746F6E
:105A3000207374617274205363686564756C657259
:105A4000200D0000EFF3058100291CBF6FF0050059
:105A50007047002804BF0020704780B501F0D8F8D7
:105A6000002080BDEFF3058000281CBF6FF005000B
:105A7000704740F2A020C2F200000168002911BF67
:105A80004FF0FF30012101600020704710B5EFF3A7
:105A9000058000281CBF6FF0050010BD40F2A0205B
:105AA000C2F20000016801291CBF4FF0FF3010BD99
:105AB0004EF61F51CEF2000100240C70022101604D
:105AC00001F070F9204610BD2DE9F04184B08E46FA
:105AD00000240394EFF3058150B149B94FF000045D
