:020000040800F2
:100000005870002089020008F9630008F5490008CB
:10001000695C000849220008F5680008000000003B
:1000200000000000000000000000000071640008F3
:100030004D22000800000000016400089D640008D3
:10004000A3020008A3020008A3020008A3020008FC
:10005000A3020008A3020008A3020008A3020008EC
:10006000A30200085922000861220008A302000828
:10007000A3020008A3020008A3020008A3020008CC
:10008000A3020008A3020008A3020008A3020008BC
:10009000A3020008A3020008A302000869220008C6
:1000A000A302000881650008A3020008A30200085B
:1000B0008D650008A3020008A3020008A30200083F
:1000C000A3020008A3020008A3020008A30200087C
:1000D000A3020008A3020008D1680008DD68000838
:1000E00051220008A3020008A3020008A30200088E
:1000F000A3020008A3020008A3020008A30200084C
:10010000A3020008A3020008A3020008A30200083B
:10011000A3020008A3020008A3020008A30200082B
:10012000A3020008A3020008A3020008A30200081B
:10013000A3020008A3020008A3020008A30200080B
:10014000A3020008A3020008A3020008A3020008FB
:10015000A3020008A3020008A3020008E96800083F
:10016000A3020008A3020008A3020008A3020008DB
:10017000A3020008A3020008A30200080000000078
:10018000A3020008A3020008A3020008A3020008BB
:10019000A3020008A3020008A3020008A3020008AB
:1001A000A3020008A3020008A302000800F002F85E
:1001B00000F05AF80AA090E8000C82448344AAF1A7
:1001C0000107DA4501D100F04FF8AFF2090EBAE8A5
:1001D0000F0013F0010F18BFFB1A43F0010318477B
:1001E00060F8000080F80000103A24BF78C878C199
:1001F000FAD8520724BF30C830C144BF04680C602D
:10020000704700000023002400250026103A28BF74
:1002100078C1FBD8520728BF30C148BF0B60704778
:1002200066290CF0B980642900F02881002070470D
:100230001FB50CF09CF89DE8030000F017FB01F0DF
:100240001FF90400002000210BF0E2FA401C60605E
:10025000002000210BF0C6FAE06001F097FA1FBD04
:1002600010B501F0FCFA10BD01F034FB1146FFF7A8
:10027000DFFF06F0C1FB01F04DFE03B4FFF7F0FF16
:1002800003BC01F085FE000009488047094800478B
:10029000FEE7FEE7FEE7FEE7FEE7FEE7FEE7FEE736
:1002A000FEE7FEE704480549054A064B7047000093
:1002B0006D650008AD010008586A002058700020E4
:1002C000586C0020586C002070B5064600F0AEFA5D
:1002D000056806F10B0020F00704B4429CBF002023
:1002E00070BD2B466A68BAB11068A04210D304F101
:1002F000080188423CBF5068586007D35168101904
:1003000041601168091B016058601460101D70BDC8
:1003100013465268002AE7D12146284600F092FA97
:100320000028DED170BD70B50446051F00F07EFACE
:100330000068002C14BF446870BD002C18BFAC428C
:100340003CBF20466468F8D301680A18AA4218BF67
:10035000456003D12A6805461144016028684119A7
:10036000A1421CBF6C6070BD61686960216808446F
:10037000286070BD53EA020C00F069802DE9F04B53
:100380004FF00006002B1FBFB3FA83F503FA05F404
:1003900024FA05F65E4012BF1643B2FA82F502FA5D
:1003A00005F4C5F120051EBF22FA05FC44EA0C0441
:1003B000203556EA044C4FEA144418BF641C4FF031
:1003C00000084FF00009904271EB030C39D300296B
:1003D00019BFB1FA81F701FA07F6B0FA80F700FA0F
:1003E00007F6C7F120071EBF20FA07FC46EA0C06F5
:1003F0002037B6FBF4FCA7EB0507103F07F01F0BF7
:10040000CBF120062CFA06F60CFA0BFB44BFB346E0
:100410000026202FA4BF5E464FF0000B5BEA060CBF
:1004200008BF4FF0010B19EB0B0948EB0608ABFBBB
:10043000027C06FB02CC0BFB03CCC01B71EB0C0156
:10044000C1E70B46024641464846BDE8F08B13B56E
:10045000084318BF4FF0FF300146AFF30080BDE8FE
:100460001C4070470FB4044910B503AA029800F06D
:10047000BDFC10BC5DF814FB740000202DE9F041B8
:100480000646002410687529314616A510D0AFF332
:100490000080002802DA404213A507E031688A078D
:1004A00001D512A502E0490704D511A5012401E0F8
:1004B000AFF3008000210A2206F1240709E0B0FB17
:1004C000F2FCB0FBF2F302FB1C003030785418460B
:1004D000491C0028F3D123462A463046BDE8F041A6
:1004E00000F005BA000000002D0000002B00000005
:1004F000200000002DE9F0474FF0000A894604462D
:10050000C0F820A02046E1688847002876D025283A
:1005100006D0D4E901219047206A401C2062F1E70F
:10052000E168204600258847C4F81CA0064600273D
:10053000C4F818A02A2E09D030460BF004F938B3BD
:1005400004EB8708303EC8F8186019E059F8041B1E
:10055000204604EB87029161E1688847012F064637
:1005600018D1E069002820DA25F020051DE0D8F830
:10057000180000EB800006EB40003038C8F8180087
:100580002046E168884706460BF0DDF80028EED1EA
:10059000012F0AD02E2E08D12046E16888477F1C03
:1005A0000646022F45F02005C4DBA069002803DAC7
:1005B000404245F00105A061E80701D025F0100593
:1005C000B6B1A6F14100192802D8203645F40065DD
:1005D0004A463146204625604D46FFF721FE58B178
:1005E000012806D0ED1D25F0070000F1080989E774
:1005F00004E005F1040985E730468AE7206ABDE892
:10060000F08770B5064600F015F9046805463046D7
:100610000A22002100F0F0FE2C6070BD10B50446E7
:1006200003E006F0D5F9401C09D014F8010B054988
:100630000028F6D1BDE810400A2006F0C9B94FF0F5
:10064000FF3010BD74000020401ECAB210F8011F18
:100650008A4202D00029F9D100207047032A40F2D3
:10066000308010F0030C00F0158011F8013BBCF154
:10067000020F624498BF11F801CB00F8013B38BF6C
:1006800011F8013BA2F1040298BF00F801CB38BF7A
:1006900000F8013B11F0030300F02580083AC0F098
:1006A000088051F8043B083A51F804CBA0E8081040
:1006B000F5E7121D5CBF51F8043B40F8043BAFF373
:1006C0000080D20724BF11F8013B11F801CB48BFCD
:1006D00011F8012B24BF00F8013B00F801CB48BF03
:1006E00000F8012B704710B5203AC0F00B80B1E83C
:1006F0001850A0E81850B1E81850A0E81850203A57
:10070000BFF4F5AF5FEA027C24BFB1E81850A0E85F
:10071000185044BF18C918C0BDE810405FEA827C79
:1007200024BF51F8043B40F8043B08BF7047D20790
:1007300028BF31F8023B48BF11F8012B28BF20F831
:10074000023B48BF00F8012B704702F0FF0343EA69
:10075000032242EA024200F002B84FF0000200B564
:10076000134694469646203922BFA0E80C50A0E8D4
:100770000C50B1F12001BFF4F7AF090728BFA0E882
:100780000C5048BF0CC05DF804EB890028BF40F84E
:10079000042B08BF704748BF20F8022B11F0804F90
:1007A00018BF00F8012B704730B44FF0013C50F8EF
:1007B000042B51F8043BCCFA52F4D51A20D1FCB9E1
:1007C00050F8042B51F8043BCCFA52F4D51A17D147
:1007D000B4B950F8042B51F8043BCCFA52F4D51AB2
:1007E0000ED16CB950F8042B51F8043BCCFA52F4FA
:1007F000D51A05D1002CDAD030BC4FF0000070477C
:1008000029BAB1FA81F111F01801D1F12000844028
:10081000F2D1CA40CB4012F0FF0213F0FF0330BC0C
:10082000D01A704770477047704700000048704703
:1008300024010020004870471C01002070477047C9
:100840007047704738B504460A4600206946AFF342
:100850000080002808BF38BD02460099204600F0FD
:1008600013FE012038BD012001F02CB8F8B5AFF31C
:100870000080054600200C46102000BF0646A8193F
:10088000A0420DD9324669460020AFF30080070030
:1008900008BF01F017F80098A04218BF0546C41918
:1008A000FFF7C4FF05600746F01D20F0070046195A
:1008B000284600F00AF8B44208BFF8BDA21B314632
:1008C0003868BDE8F84000F0DFBD00210160C0E9F4
:1008D000011070471020704710B5FFF7ABFF00689C
:1008E00010BD10B50446FFF7A5FF046010BD2DE94B
:1008F000F0470D4699469246044600F124080168E7
:10090000880604D5E06921F01001216000E0012093
:10091000A84201DD471B00E00027A1697A1902EB1C
:100920000900081AA0612078C00602D42046AFF35F
:100930000080002608E0D4E901211AF8060090475B
:10094000206A401C761C20624E45F4DB2078C006ED
:100950000AD52046AFF3008006E0D4E9012130201B
:100960009047206A401C2062381EA7F10107F4DC82
:1009700007E0D4E9012118F805009047206A401CDF
:100980002062281EA5F10105F3DC2046AFF30080AC
:100990002078000602D50220BDE8F0870120FBE7A1
:1009A0002DE9FF4F0C461E464FF0FF378BB0D2E9C2
:1009B0000001DDF860800A908A46C1F30A5505B946
:1009C0003D46002108464FF00000BAF1000F00F448
:1009D000400005DA00EB80004FF4400101EA5000CE
:1009E0004FEA9059B9F1010F00DDB9460A9850EA73
:1009F0004A000ED044F61050A5F2FF3545432F149F
:100A0000B8F1000F1ED07542291E1EDDC9F100028B
:100A10001CE0B8F1010F4FF0000001D0302103E0DD
:100A2000F24305E02154401CB042FBDB304600227B
:100A3000002121540B99C1F80880C1E900200FB0B2
:100A4000BDE8F08FBD1B6D1CDEE74A4600DA694247
:100A500006A800F025FE06AB93E8070003AB83E889
:100A6000070050460A990AF0EFF88DE80700A0F554
:100A700000501F3800900398002D0ADD42F21F013C
:100A80004A460844002303A9039068460AF09AFBEB
:100A900009E0A0F500504A461F38002303A903903F
:100AA00068460AF0B9FB8DE807000004000C03D08B
:100AB0004FF0FF30410800E01046B8F1000F03D0BE
:100AC0000022009215461EE0751E05D400F009FDB7
:100AD000303262556D1EF9D5B3460122084302D06B
:100AE00000227F1C04E02078302801D100227F1EE4
:100AF000002A099784D01DE0112D07DA00F0F1FCDF
:100B0000303262556D1C50EA0102F5D1084302D023
:100B10000098C8B10EE00021681E05E0235C625C0D
:100B200063542254401E491C8142F7DBAB46A81B8C
:100B3000401E0990002004F80B000B98099AC0F899
:100B40000880C0E9002B7AE711264FF0000857E72C
:100B50002DE9F04F88460446D21D22F0070191B0DE
:100B6000D1E90001CDE90A010AF0A2FC02460B9886
:100B7000C00F01D02D2007E02068810701D52B2070
:100B800002E0202101EAC000032A099001D0072ACF
:100B900005DB03464146204600F0F2FC0BE12078DD
:100BA000800601D5E06900E00620B8F1650F8146B6
:100BB00006D0B8F1660F18D0B8F1670F70D131E0E8
:100BC0000020B9F1110F009001DB112301E009F1C0
:100BD00001030AAA01A90CA8FFF7E2FEDDE90C70E7
:100BE000002609F10105834647E001204B460090AD
:100BF0004FF000470AAA01A90CA8FFF7D1FEDDE9D2
:100C00000DB00C995D46002610B909F101000D18D0
:100C1000B9EB050003D4C0F1FF3609F10105A5EBDE
:100C200009002BE0B9F1010F01DA4FF001090020B2
:100C3000B9F1110F0090484601DD112300E0034691
:100C40000AAA01A90CA8FFF7ABFEDDE90C704D461E
:100C500000268346207800070AD4AB4500DA5D46BB
:100C600001A8012D04DD411911F8011C302907D01C
:100C70004F4502DA17F1040F04DA012082460FE033
:100C80006D1EEEE7002F02DCED1B3E4403E0781CF6
:100C9000A84200DD7D1CB81B00F1010A4FF000479F
:100CA0002078000703D4AA4501DB4FF0FF3A00216A
:100CB000B7F1004F0DF143088DF8431024D0022006
:100CC0002B23002F01DA7F422D230A21021EA0F1DF
:100CD000010000DC5FB197FBF1FC97FBF1F201FB37
:100CE0001C7C17460CF1300C08F801CDEEE7A8F19A
:100CF000010003702188090501D5452100E0652127
:100D0000A0F1010800F8011C09980FA9A1EB080740
:100D1000FF1D00B10120411901EBEA70A1693844BF
:100D2000081A401EA0612078C00602D42046AFF306
:100D30000080099828B1D4E901219047206A401C1D
:100D400020622078C00622D52046AFF300801EE046
:100D5000002E04DBB34502DD01A8805D00E03020F9
:100D6000D4E901219047206A401C2062761CAAF138
:100D700001005FEA000A0AD100F082FBC068016846
:100D8000405CD4E901219047206A401C2062281E63
:100D9000A5F10105DCDC07E0D4E9012118F8010B1D
:100DA0009047206A401C2062381EA7F10107F3DC3F
:100DB0002046AFF30080032011B041E601694A1CD0
:100DC00002610878704700B58FB0CDE9013100218C
:100DD000059105497944CDE9031011466846FFF7AE
:100DE00089FB0FB000BD0000E5FFFFFF074B70B5AA
:100DF0000D467B44FFF7E7FF0446284600F0C2FC9F
:100E000010B14FF0FF3070BD204670BDDB5B0000BD
:100E10002DE9FF4F06468BB00878FF2806D0491C05
:100E20002D2805D000244FF0000908E000200CE038
:100E30000124F8E709EB8903491C00EB4309087812
:100E4000FF28F7D114B1C9F10000814610780025C0
:100E50002C46AA4629462D2801D02B2804D1521C05
:100E60002D2813D0002082468B461078FF280FD003
:100E70004FF0000C0A21521CA5FB017804FB0181F4
:100E800005FB0C11C5194BEB0104EEE70120EAE765
:100E9000002108464FF00000BAF1000F02D000EB2D
:100EA00080004008C0F38157012F01DD4FF0FF376C
:100EB0000E9955EA040009EB01080BD04FF0020926
:100EC00018F5FA7F16DA4FEACA70002F706008DD55
:100ED000012007E04FEACA70C6E900B00FB0BDE8D4
:100EE000F08F00203060FFF7A5FCC0F800901821BB
:100EF000084616E0B8F5FA7F18DD002F02DAF74849
:100F0000784401E0F6487844D0E90010C6E90010C2
:100F100040EACA707060FFF78DFCC0F800901421A1
:100F200008460FB0BDE8F04F0BF033BA0021084679
:100F30004FF00000B8F10001099002DAC7F1000299
:100F400000E03A4601DAC8F1000106A800F0A8FB6B
:100F500006AB93E8070003AB83E8070044F23E00CA
:100F60005BEA04010090584604D144F21E012C466D
:100F70005D460091210C0904014306D10099240427
:100F800044EA15442D041039009104F07F410143D7
:100F900006D10099240244EA15642D020839009113
:100FA00004F07041014306D10099240144EA15740C
:100FB0002D01091F009104F04041014306D1009921
:100FC000A40044EA9574AD00891E009104F000412C
:100FD000084304D100986D196441401E00904FF001
:100FE00001033A466846B8F1000FCDE9014503A96F
:100FF00002DD0AF026F901E00AF0F9F8BAF1000F73
:1010000004460D4601D084F00044002108464FF00C
:101010000000099940F2FF77484010F00C0F07D10B
:1010200024F00040284303D0C4F30A50B84212D140
:10103000FFF700FCC0F80090C4F30A50B8420AD190
:10104000A8487844D0E90010C6E9001004F0004137
:101050000843706042E7C6E900543FE72DE9FF4FBF
:101060001F464FF0000A4FF0FF38454691B0D7E9D0
:101070000146CDF83CA000F003FAC0680168405C6E
:101080001090B96912986D1C8847396A8146884763
:101090000028F6D1B9F1FF3F0AD0002E24F4D06425
:1010A00011DDB9F12B0F08D0B9F12D0F0BD102E0F2
:1010B000404615B013E744F48064B96912986D1C7A
:1010C0008847761E8146600504A901D52D2000E0E1
:1010D0002B20002E01F1010B0DF130088DF81000CE
:1010E0003FDDB9F1690F08D0B9F1490F05D0B9F169
:1010F0006E0F02D0B9F14E0F1CD13B4601A80095EE
:1011000080E85002DDE912126FF002000BF0AAF93C
:10111000C11CCED10EE0B96912986D1C884781467A
:101120001398761E44F4007405600F98401C002E3E
:101130000F9016DDB9F1300FEDD0B9F1780F02D074
:10114000B9F1580F0DD10F9801280AD13B46CDE9CE
:101150000054DDE91212001F02960BF081F9C11C48
:10116000A7D1109989453ED144F0800406E0139937
:10117000681CAAF1010A44F400740860B9696D1C86
:101180001298761E884730288146F0D02BE01099BF
:10119000894505D1200603D4761E44F0800418E06A
:1011A00048460AF0D0FA08B3761E0DF123029345A3
:1011B000A9F1300044F4007406D20BF8010B2006AC
:1011C00007D5AAF1010003E0200602D40AF10100CC
:1011D0008246A00502D51399681C0860B969129867
:1011E0006D1C88478146002ED1DC53E0002E51DD76
:1011F000B9F1650F02D0B9F1450F4BD1A00549D522
:10120000B9696D1C1298761E24F440748847002E2C
:1012100081460CDD2B2804D0B9F12D0F07D144F401
:101220008074B96912986D1C8847761E8146E00566
:1012300001D52D2100E02B2108F8011BCDF80080FD
:1012400021E0761E0DF13901884544F400740CD27A
:10125000A9F1300010F0FF0088F8000002D10099D9
:10126000884509D908F1010806E0E00501D51E48C6
:1012700001E042F20F708246B96912986D1C8847EE
:10128000814613980560002E04DD48460AF05BFA9B
:101290000028D6D1F96912988847FF2053468BF869
:1012A000000088F8000000200A900B9004AA0CA906
:1012B0000AA8FFF7ADFDA00502D46FF00100F8E623
:1012C00014F0240F12D0E0071CD13868DDE90A12AF
:1012D000031D3B600068C0E9001213E064EB0000EE
:1012E00056EB00001AEA0000F1D8FFFF0AA9684691
:1012F0000AF016FAE00705D13868009A011D396036
:10130000006802602846D4E6426842B1016811F8DC
:10131000013B23B1521EC0E900121846704701215B
:10132000C160881E704742685AB1C368016843B9FA
:1013300083688B4205D0491E521CC0E90012002070
:1013400070474FF0FF3070470FB40B0010B54FF0EF
:1013500000048AB00FA900910E99CC60234C7C4404
:10136000234A7A44CDE9064200D004236FF00042BC
:10137000CDE901321F4A7A446B46089202460020AA
:101380000BF06CF80AB010BC5DF814FBF0B5074622
:101390004FF0FF301E4615460C463B4685B06A4668
:1013A0000091CDE9010131460020049004A8FFF727
:1013B000CBFF04990346601825B109B1024600E04D
:1013C00022462A6000290ED0002B02DD00998142BE
:1013D00009D03B466A463146001B0094CDE9010422
:1013E00004A8FFF7B1FF05B0F0BD0000A7FFFFFFA5
:1013F000C1FFFFFFF30100002DE9F04791460F46C2
:1014000080460446002614F8015B2DB100F030F848
:101410000068405DC007F6D12B2D02D02D2D18D0CD
:10142000641E4A463946204600F0EAF827B139687A
:10143000A14201D1C7F800804FF0020471050BD51D
:101440004042002803DDFFF7F5F90460A007BDE87E
:10145000F08746F48066E4E70028F8DAFFF7EAF957
:1014600004606FF00040F2E7004870471C01002064
:1014700010B500F005F8001D10BD00BF95A30000D9
:10148000004870473C010020034640688C46002815
:1014900018BF88423CBF03464068F8D31868184418
:1014A000884207D00CF1030020F00700001D411A0C
:1014B000521A0146081D0A60FEF735BFB2F120033B
:1014C0000AD5C2F1200301FA02F120FA03F341EA3E
:1014D000030100FA02F0704700FA03F14FF0000038
:1014E000704730B5B0F10A0271F100034FEA900E77
:1014F0004EEA817EB0EB0E0061EB91014FEA101EC7
:101500004EEA017E10EB0E0041EB11114FEA102E56
:101510004EEA016E10EB0E0041EB11214FEA104E26
:101520004EEA014E10EB0E0041EB1141401841F123
:1015300000014FEAD00040EA41704FEAD1014FEA82
:10154000810444EA907410EB800544EB01046D19AA
:1015500044EB0404521BA3414FF0000348BF0A327E
:1015600000D530BD401C41F1000130BD10B504462E
:10157000FFF77EFF0068005D00F0010010BD000075
:101580002DE9F0411F46044603260168072A01F4AD
:10159000006004DB08B116A505E016A503E008B15C
:1015A00015A500E015A521F010002060A069C01E5F
:1015B000A0610FB1401EA0612046AFF300804FB183
:1015C000D4E9012138469047206A401C2062C01CA3
:1015D000206206E0206AFAE7D4E9012115F8010B40
:1015E0009047761EF8D22046AFF30080BDE8F08128
:1015F0004E414E006E616E00494E4600696E6600B7
:101600002DE9F05F824615468B4600270AF101045A
:10161000B9460078302801D09DB113E014F8010BD1
:101620000127782803D0582801D045B10AE00DB130
:10163000102D07D1002714F8010B102502E0082512
:1016400000E00A250026B0460EE005FB080005FB79
:1016500006F101271FFA80F801EB1046B6F5803F2E
:1016600000D3B94614F8010B294600F058F90028B8
:10167000EBDABBF1000F05D00FB1641E00E0544659
:10168000CBF80040B9F1000F06D0FFF7D3F80221E4
:101690000160C81EBDE8F09F48EA0640FAE7000076
:1016A0002DE9F047814616468AB0354878440DC882
:1016B0008DE80D0032487844801C03AC0DC884E8E6
:1016C0000D0041F69B300844372190FBF1F290FB6E
:1016D000F1F5A5F1800501FB12041B3C02D5644223
:1016E000012000E00020DFF898A080460027FA449F
:1016F000AAF1BE0A0EE0E0070AD03246684607EBC0
:10170000470101230AEB810109F086FD8DE80700FE
:1017100064107F1C002CEED1194F7F44AE3F19E0BE
:10172000E80715D007EB04100DF1180A90E80E0039
:101730008AE80E00C068F04201D19819089032463C
:10174000012306A903A809F067FD03AB83E807009E
:101750006D10641C002DE3D14FF001033246694641
:10176000B8F1000F03A802D009F02CFD01E009F048
:1017700053FDC9E90001C9F808200AB0BDE8F087A7
:1017800064AE0000007B00F08000704710B5424856
:101790005421FEF7E2FF41485421FEF7DEFF4048A6
:1017A0005421FEF7DAFF3F493B483C4A3F4B086073
:1017B0003D490A603A491960531C0365481C10658D
:1017C000012008653B48344A39A1784400F004FB05
:1017D00020B9384878440A3800F0AAFB37482F4A25
:1017E00035A1784400F0F8FA20B9344878440A3832
:1017F00000F09EFB32482A4A2FA1784400F0ECFA10
:1018000020B92F4878440A3800F092FB4023224840
:10181000DC000021224600F0BBFA20B125487844C4
:10182000543800F085FB1D4822464023002100F07B
:10183000AFFA20B121487844543800F079FB1848B9
:1018400022461023002100F0A3FA002806D01C48ED
:101850007844BDE81040563800F06ABB10BD10480F
:1018600070B5006D20F001040B4800F02DFB0B4813
:1018700000F02AFB0A4800F027FB09E0206D20F069
:101880000105204600F020FB2046FEF74CFD2C46CB
:10189000002CF3D170BD0000200000207400002057
:1018A000C8000020000000200400002008000020E4
:1018B000720000007EAD0000770000006DAD0000FA
:1018C00046AD000010B500F03BFBBDE8104000F055
:1018D0002ABB70477546FFF7C7FDAE46050069464F
:1018E000534620F00700854618B020B5FEF7DAFC15
:1018F000BDE820404FF000064FF000074FF0000811
:101900004FF0000BAC46ACE8C009ACE8C009ACE84D
:10191000C009ACE8C00921F007018D4670473A289C
:1019200000D2303820F02002412A01D3A2F1370042
:10193000884201D34FF0FF30704700002DE9FF4F80
:101940001F464FF03C0987B04FF00042DDE914100C
:1019500001F10108DDF858A002EA40500390002090
:1019600005908346054604460490B969461E0898CA
:101970008847AAF1010A0290BAF1000F3BDD0298F4
:101980002E2815D01021FFF7CAFF00282EDB4FF0BC
:10199000010B0599014317D0B9F1000F0BDB4A4643
:1019A000C117FFF78BFD05430C43A9F1040905E0BE
:1019B000012004900BE008B145F0010501200590DD
:1019C000049820B9361D02E0049800B1361FB969A9
:1019D000089808F101088847BBF1000FAAF1010A35
:1019E0000290C9D00999C1F80080C5E70298702813
:1019F00008D0502806D0F96908988847BBF1000F35
:101A000014D04FE0002002900120BBF1000F0490A1
:101A100009D0B969089808F101088847AAF10109B5
:101A2000B9F1000F07DCF969089888476FF00100E9
:101A30000BB0BDE8F08F2B2804D02D280CD14FF02F
:101A4000FF300490B969089808F101088847A9F1A6
:101A50000109B9F1000FE6DD411CE4D00A21FFF7CE
:101A60005EFF0028DFDB029908F1010801EB81012C
:101A700000EB41000290B969089888470A21FFF7F6
:101A80004EFF099AA9F10109B9F1000FC2F80080CF
:101A900001DD0028E7DAF969089888470499029877
:101AA00000FB016655EA040004D004F0404109003F
:101AB00002D006E0039898E0A40044EA9574AD00D3
:101AC000B61E04F00041080002D16D196441761E73
:101AD000159810F0240F03D04FF00B095C4803E079
:101AE0004FF028096FF07D008246564507DAAAEBD1
:101AF00006018944B9F1410F01DD4FF04109012090
:101B00000021A9F10102FFF7D9FC024628400B464B
:101B10002140084301D0012100E00021501E029124
:101B200043F1FF3128402140084301D0012000E06B
:101B300000200299834651EA0B014FD0002108464C
:101B40004FF00000039900F4400039B100EB800031
:101B50004FF4400100EBD07001EA600080150128CD
:101B600002DD4FF0FF3000E013D0401C36D0029869
:101B700060B3BBF1000F0CD14A4601200021FFF7F2
:101B80009DFC28402140084301D0012000E00020B6
:101B9000E0B101204A460021FFF790FC03464019BE
:101BA0000A4661412D1A8C4111D3B9F1400F09DD6C
:101BB000159810F0240F02D0AAF1340603E0AAF120
:101BC000170600E0761C00254FF0004406E05B1E7F
:101BD00042F1FF3220EA030521EA0204CAF10100C2
:101BE000B04206DA1B490398084301900020009098
:101BF0000EE0039AC4F3D321E80A0A43164940EAE7
:101C000044500A433146CDE90002684609F091FD8F
:101C1000159810F0240F0BD01598C00715D138680F
:101C2000DDE90012031D3B600068C0E900120CE012
:101C300002A8694609F074FD1598C00705D13868F7
:101C4000029A011D3960006802604046F0E600001B
:101C500002FCFFFF0000F07F0000F03F2DE9FF4F86
:101C600092461D4685B04FF00041DDE9124BDDE99B
:101C700014727F1E01EA4B50414940F0FF4940EA8F
:101C80000108002122F020004928049102D04E28AA
:101C900028D04CE03BA0012607C88DE80700A969C1
:101CA0000698641C88477F1E014606D41DF806006E
:101CB00018B121F0200181420BD0E96906988847CC
:101CC000032E34D0082E32D06FF0010009B0BDE8E9
:101CD000F08F761C032E01D0082EE0D1601CCAF8CC
:101CE0000000DCE7A9690698641C88477F1E2AD497
:101CF00020F02000412826D1A9690698641C884755
:101D00007F1E20D420F020004E281CD1A9690698FF
:101D1000641C88477F1E48F4002849F48009CAF8EB
:101D2000004001D4282806D0E969069888475FEA70
:101D3000CB7012D022E0A9690698641C88477F1EE8
:101D400001D4002803DAE96906988847BCE7292806
:101D5000F1D1641CCAF80040E9E71BF0240F07D05A
:101D600028680499031D2B600068C0E9001805E08D
:101D70002868021D2A600068C0F800902046A5E788
:101D80000000F07F494E46494E495459000000007A
:101D900070B5C468A50713D0650211D4B2F5807F71
:101DA00009D0B2F5007F06D0B2F5806F08D10123CB
:101DB00000F1240106E05D1E6FF07F46B54201D3BD
:101DC000012070BD0161C361416024F47061114361
:101DD000C160002070BD00002DE9F0410C461646A0
:101DE000070047D0104600F06FF82078611C61288A
:101DF0000AD0722802D077283CD102E001250024C5
:101E000005E00225042402E0082448F2020511F846
:101E1000010B2B2806D0622809D011F8010C742878
:101E20000AD00BE045F0030544F00204EFE745F06B
:101E3000040544F00104EAE744F010043846214662
:101E400004F06EFD411C15D00021316171604FF42A
:101E50000071F560F1617061200704D530460222FF
:101E6000002100F09BF8306D40F0010030653046F5
:101E7000BDE8F0810020FBE72DE9F0410D46064664
:101E8000104C206DC10704D0410804D020F001049B
:101E9000F7E722460EE05420FEF716FA07000ED0B0
:101EA000206D47F001010843542120653846FEF7B4
:101EB00054FC3A4629463046BDE8F0418CE7002004
:101EC000D6E70000200000202DE9F04704464FF03F
:101ED000FF380026C568D4E90497A80718D0204623
:101EE00000F018F9384604F007FD002800DA4646ED
:101EF000280502D54846FEF716FA4C212046FEF783
:101F00002CFC206D20F0010020653046BDE8F087F4
:101F10004046FBE710B50446AFF300802046BDE81D
:101F20001040FEF7AAB9002801D000F031B8704780
:101F300010B500F04DF9BDE81040FFF7F4BF000008
:101F400010B5012805D0002103A000F027F90120D9
:101F500010BD09A1F8E7000053494752544D454DC3
:101F60003A204F7574206F662068656170206D653A
:101F70006D6F7279000000003A2048656170206D35
:101F8000656D6F727920636F72727570746564002D
:101F900001491820ABBEFEE7260002002DE9F04102
:101FA000044616460D464769007B80072ED038460A
:101FB00004F0AEFC50BB3EB3012E02D0022E25D160
:101FC00004E0204600F01EF905441DE0384604F008
:101FD0009DFCE168002841F01001E16005DA20462F
:101FE00000F058F80120BDE8F081C9030BD5626804
:101FF000E16A914200D81146A26911442269891A06
:10200000814200DD08460544002D01DA0220EAE79E
:10201000E16A6068E268814206D29103E06203D51A
:1020200022F4003141F01002A6690027AE4213DC11
:10203000E16A814201D90B4600E0034603EB060C3E
:102040002369ACEB030CAC4506DD814201D98C461B
:1020500000E084469C4505D1A760276042F020003F
:10206000A5620DE0AD1BE669AE1B8142A66000D9FA
:102070000846C01A281A20605819606022F0200013
:1020800003490840E060002084F84870ABE7000096
:10209000BFCFD7FFC16821F4001141F08001C160BA
:1020A00000218160016070472DE9F74F15460C460D
:1020B0004FF0FF3B3848D768D2F814A0074209D048
:1020C0005046A96904F05EFC002819DB3248C04381
:1020D0000740EF604FF000496FF000484C4501D3D6
:1020E000464600E0264600993B465046324604F0FC
:1020F0004DFCA96920F00042B21A1144A96128B12F
:102100002846FFF7C7FF5846BDE8FE8FA41BE5D160
:102110000020F9E770B504460569C06A6168884225
:1021200000D80846E16821F42011E160C90312D506
:10213000A84208D02246411B2846FFF7B5FF10B140
:102140004FF0FF3070BD0020E562C4E90150E06847
:1021500020F48030E060002070BD10B50446C068F7
:1021600020F02000E060A16AA06988420DD02046DE
:10217000FFF7D0FFE06820F4405040F01000E0602E
:10218000A06AA0612069E062606044F24001E068FA
:102190008843E06010BD00001000020070B50546E5
:1021A0000C460A2000E06D1C04F010FC35B12878C4
:1021B0000028F8D102E0641C04F008FC14B1207877
:1021C0000028F8D1BDE870400A2004F0FFBB0000F1
:1021D00010B5014602A0FFF7E1FF012010BD00008D
:1021E00053494752545245443A20526564697265D6
:1021F00063743A2063616E2774206F70656E3A20B5
:102200000000000010B50146C268900703D0900698
:1022100007D5886A0AE0FEF70DFB01210160881EE0
:1022200010BD8B69486818440B69C01A91F8483092
:102230001BB191F84910401A10BD1103FCD50028BC
:10224000FADD401E10BD0000FEE7000070470000F0
:102250004FF4004000F098B8082000F095B8000056
:10226000102000F091B80000202000F08DB8000090
:10227000EFF3108072B600BFFEE7000070B5866D08
:10228000044600F067F994F83510022928D1054674
:102290002068216C026822F016020260426922F076
:1022A0008002426109B9A16C19B1016821F00801ED
:1022B0000160016821F00101016000BF2068006831
:1022C000C00715D000F046F9401B0628F6D32020A1
:1022D0006065032084F83500002184F8341070BD57
:1022E000802060650120002184F8341070BD00BF9B
:1022F000E06D3F2101FA00F0B060012084F8350064
:102300000020002184F8341070BD000090F83510D2
:10231000022909D1052180F835100068016821F0F3
:102320000101016000207047802141650120704754
:10233000B0B5044600F00EF9054640F20C00C2F2BA
:1023400000000078611C18BF044400BF00F002F9CF
:10235000401BA042FAD3B0BDB0F5004F18BF704784
:1023600080B505A0FEF75AF941F6E050C2F2000030
:10237000BDE8804004F0EABC5B4D41583330313059
:10238000325D20496E740D0043F61441C4F2010120
:102390000A68024214BF08607047FFF7DDBF000003
:1023A0002DE9F04F82B000F13E4242F2004502F1C9
:1023B000FF77C4F202050A2243F6004E4FEAB72621
:1023C000A84208BF0922C4F2010E092E38BF4FEA05
:1023D000B7220125002600274FF00008009208E0F0
:1023E00008F101080437B8F1100F06F1020600F0F9
:1023F000A7800C6805FA08F914EA090FF0D0D1F8A3
:1024000004B003220BF0030CACF10104B240012C28
:102410006FEA020A10D88268CC6802EA0A02B44065
:10242000224382604268CBF3001422EA090204FAD4
:1024300008F42243426005E0BCF1030F02D14FF0E3
:10244000030C20E0C2688C6802EA0A02B44022430E
:10245000BCF1020FC26016D16FF0030202EA58020B
:102460000244D2F820C007F01C050F230C69AB40D2
:102470002CEA030304FA05F52B431362D1F804B0E8
:1024800001250BF0030C02680CFA06F302EA0A02BB
:102490001A431BF4403F0260A2D0002243F64403DB
:1024A0000192C4F202031A684FF6084C42F48042CB
:1024B0001A601A68CFF6FF7C02F480420192019AFA
:1024C00028F00302724452F80C3007F00C050F2478
:1024D000AC40A343009C04FA05F52B4342F80C30B2
:1024E000DEF808204B6842EA090543F60C4CDC0292
:1024F00058BF22EA0905CEF80850C4F2010CDCF8F6
:1025000000209C0242EA090558BF22EA0905CCF8DE
:102510000050DEF804209C0342EA090558BF22EA75
:102520000905CEF80450DEF80020DB0342EA090575
:1025300058BF22EA0905CEF80050012550E700BF38
:1025400002B0BDE8F08F0000002A08BF09048161D5
:102550007047000046F25C30C2F20000006870472D
:1025600090F83D20202A1CBF02207047242280F8CA
:102570003D200268136823F001031360536A23F0BF
:1025800010035362536A19435162116841F001010B
:102590001160202180F83D100020704790F83D2008
:1025A000202A1CBF02207047242280F83D200268A8
:1025B00089B2136823F001031360D2F824C04FF6E8
:1025C000F07303EA0C0319435162116841F00101F1
:1025D0001160202180F83D100020704770B5B8B31D
:1025E000044690F83D0028B9002084F83C002046BD
:1025F00000F0EEFD242084F83D002068016821F001
:1026000001010160016841F400410160016821F4A9
:102610000041016001F010F848F28041C0F21E0153
:1026200040F60013D4F804E088424FF00001C0F2F5
:102630003D0348F2A16C4FF0000238BF01219842DF
:10264000C0F2010C38BF0122E64538BF0A460AB184
:10265000012070BD4DF68361C4F21B31A0FB011255
:102660002168950C4B684FF4967623F03F0343EABC
:102670009243754344F6D3564B60C1F262060B6A2F
:10268000A5FB0656B50923F03F03E64538BF950C78
:102690006A1C1A430A62CA6948F2A0664CF6FF73C4
:1026A000C0F20106B64522EA03020BD801384FEA10
:1026B0004E03B0FBF3F001306FF31F30042898BFD6
:1026C00004201EE0A368013863B119230EFB03F355
:1026D000B0FBF3F001306FF31F3078B100F58040AC
:1026E00008E000BF0EEB4E03B0FBF3F001306FF3D8
:1026F0001F3028B100F5004003E000BF012000E0DA
:1027000001201043C8610868D4E9072320F0C00005
:10271000104318430860886848F2FF3204F10C0641
:1027200090434CCE18431043A5698860C86820F0D8
:10273000FF0030432843C860086840F0010008608B
:1027400000202021206484F83D10206384F83E009E
:1027500070BD00002DE9F04182B01F461646884644
:102760000446FFF7F7FE94F83D1020291CD10546DA
:1027700020688169890713D5FFF7ECFE401B1928F3
:10278000F6D900202021206384F83D1084F83E0013
:10279000216C41F02001216484F83C0004E000BF7A
:1027A00094F83C10012903D1022002B0BDE8F08169
:1027B000012184F83C100168C90703D1016841F088
:1027C00001010160016821F400610160222184F8A7
:1027D0003D10102184F83E10002121646662678557
:1027E000618D21850021CFF6FF71E162E16A026807
:1027F00011F5803F42F48062026018BF012919D1AF
:10280000016841F4807101604169089EC90724D1C3
:10281000711C18D0002E00F0CB8000BFFFF79AFE8D
:10282000401BB04200F2C68020684169C907F5D05C
:1028300013E000BF0829E3D0216B1129E0D0E3E7C2
:102840004169C90709D14169C90706D14169C90769
:1028500004BF41695FEAC171F2D02169B1F5804FCF
:1028600008D148F00101C9B201614169890740F10D
:10287000CC8003E1062101EAD81707F1F0010161DC
:102880004169090738D44169721C01F4806113D091
:10289000002940F0EA80002E00F01082FFF75AFE77
:1028A000401BB04200F20C8220684169090723D422
:1028B00041694905F2D5D8E0002940F0D680416948
:1028C000090719D44169490500F1CF804169090719
:1028D00012D44169490500F1C880416909070BD448
:1028E0004169490500F1C1804169090704D4416982
:1028F0004905E4D5B9E000BF5FFA88F1016141699B
:10290000890739D44169721C01F4806114D000290F
:1029100040F0AB80002E00F0D181FFF71BFE401B82
:10292000B04200F2CD8120684169890724D4416911
:102930004905F2D599E000BF002940F09680416931
:10294000890719D44169490500F18F8041698907D8
:1029500012D44169490500F18880416989070BD487
:102960004169490500F181804169890704D44169C1
:102970004905E4D579E000BF002101914169019149
:10298000816901910199016841F480710160416997
:10299000C90734D1711C28D056B1FFF7DBFD401BAD
:1029A000B04207D820684169C907F6D027E000BFC8
:1029B000FFF7D0FD00202021206384F83D1084F82B
:1029C0003E00216C41F020012164216884F83C0024
:1029D0000868C00544BF4FF400702064012002B0B5
:1029E000BDE8F0814169C90709D14169C90706D12C
:1029F0004169C90704BF41695FEAC171F2D047F07C
:102A0000F10101614169890738D44169721C01F4FF
:102A1000806111D049BB002E00F05081FFF79AFD74
:102A2000401BB04200F24C8120684169890725D4DF
:102A300041694905F2D518E0B9B9416989071DD442
:102A40004169490511D44169890717D4416949058C
:102A50000BD44169890711D44169490505D44169FD
:102A600089070BD441694905E7D5016841F4007134
:102A700001606FF480614161042022E1218D99B1F0
:102A8000022927D001292DD1026822F48062026038
:102A9000002201924269019282690192019A0268C0
:102AA00042F40072026028E0002101914169019125
:102AB000816901910199016841F400710160202050
:102AC00084F83D00002084F83E0084F83C0002B009
:102AD000BDE8F081026822F480620260026842F47C
:102AE000006202E0026842F4806202600022019209
:102AF0004269019280690190019888B2032817D831
:102B000002283FD0012851D1002E00F09980206882
:102B1000014651F8142F520600F196800868C0064D
:102B200000F1F280FFF716FD401BB042EFD9E0E064
:102B300086B100BF2068014651F8142F52060ED40A
:102B40000868C00600F1E080FFF704FD401BB042BA
:102B5000F0D9CEE020684169490640F1C3800069A0
:102B6000616A0870606A218D0130013960622185D7
:102B70002268638D013B638553695B0770D51169DA
:102B8000017064E020684169490745D4711C6BD02D
:102B9000002E00F0CD80FFF7DDFC401BB04200F2BC
:102BA000C980206841694907F5D535E02068416949
:102BB00049070ED4711C65D0002E00F0B980FFF7D4
:102BC000C9FC401BB04200F2B5802068416949074A
:102BD000F5D5016821F4806101600069616A0870BF
:102BE000606A218D01300139606221852068618D24
:102BF00001396185416949070ED4711C50D0002EFE
:102C000000F09680FFF7A6FC401BB04200F29280D5
:102C1000206841694907F5D5016841F400710160F8
:102C20000069616A0870606A2268411C6162218DD6
:102C300001392185618D013961851169417006E095
:102C40002068416949064DD50069616A0870606A6B
:102C5000218D0130013960622185608D01386085E8
:102C600008047FF44AAF2AE741694907D4D441698F
:102C700049075CBF41695FEA4171CDD441694907A9
:102C8000F2D5C9E741694907A3D4416949075CBF47
:102C900041695FEA41719CD441694907F2D598E7DF
:102CA00041694907B8D4416949075CBF41695FEA96
:102CB0004171B1D441694907F2D5ADE7FFF74AFC4C
:102CC000202000212022216384F83D2084F83E103A
:102CD000226C1043206484F83C10012002B0BDE84F
:102CE000F08100BF50F8141FC90601460CD4FFF74D
:102CF00031FC00202021206384F83D1084F83E0040
:102D0000206C40F020000AE06FF010000860002006
:102D10002021206384F83D1084F83E00206C20645C
:102D2000002084F83C00012002B0BDE8F08100BF23
:102D3000FFF710FC00202021206384F83D1084F868
:102D40003E00216C41F02001216484F83C00012008
:102D500002B0BDE8F08100002DE9F04381B01F46CC
:102D6000164688460446FFF7F5FB94F83D102029E7
:102D700020D1054620688169890717D5FFF7EAFB4E
:102D8000401B1928F6D900202021206384F83D102B
:102D900084F83E00216C022641F02001216484F871
:102DA0003C00304601B0BDE8F08300BF94F83C1011
:102DB000012905D10226304601B0BDE8F08300BFED
:102DC000012184F83C100168C90703D1016841F072
:102DD00001010160016821F400610160212184F892
:102DE0003D10102184F83E10002121646662678541
:102DF000618D21850021CFF6FF71E162E16A11F555
:102E0000803F18BF012919D1016841F48071016028
:102E10004169DDF82090C90723D119F1010116D0CD
:102E2000B9F1000F46D000BFFFF794FB401B4845A7
:102E300042D820684169C907F6D012E00829E3D0DA
:102E4000216B1229E0D0E3E74169C90709D1416943
:102E5000C90706D14169C90704BF41695FEAC17169
:102E6000F2D02169B1F5804F02D1FE2161E000BFAF
:102E7000062101EAD811F03101614169090757D4EF
:102E8000416919F1010201F480612FD0002946D176
:102E9000B9F1000F00F04281FFF75CFB401B484591
:102EA00000F23E8120684169090741D44169490522
:102EB000F2D534E0FFF74EFB00202021206384F898
:102EC0003D1084F83E00216C012641F02001216470
:102ED000216884F83C000868C00544BF4FF40070C6
:102EE0002064304601B0BDE8F08300BFB9B9416944
:102EF00009071DD44169490511D44169090717D44F
:102F0000416949050BD44169090711D44169490553
:102F100005D4416909070BD441694905E7D5016822
:102F200041F4007101606FF4806141610420F8E0B8
:102F3000FF2101EA08010161416989073AD4416929
:102F400019F1010201F4806112D051BBB9F1000FF7
:102F500000F0E080FFF7FEFA401B484500F2DC80FD
:102F600020684169890725D441694905F2D518E0EF
:102F7000B9B9416989071DD44169490511D441692D
:102F8000890717D4416949050BD44169890711D4D0
:102F90004169490505D4416989070BD4416949054F
:102FA000E7D5016841F4007101606FF4806141610F
:102FB0000420B6E0002600964169009181690091E5
:102FC0000099218D002900F0958009F10108014642
:102FD00051F8142F120635D4B8F1000F16D0B9F1FC
:102FE000000F00F0AF8000BF0868400500F1B2801C
:102FF000FFF7B0FA401B484500F2A980206801465F
:1030000051F8142F1206EFD51CE000BF0A685205D4
:1030100000F1A0800A68120614D40A68520500F173
:1030200099800A6812060DD40A68520500F1928050
:103030000A68120606D40A68520500F18B800A68F5
:103040001206E3D5636A194611F8012B0261616229
:10305000618D01396185278D0146A7F1010CA4F826
:1030600028C051F8142F52070DD55FEA0C420AD040
:103070005A78A7F1020C02619A1C6262628D013AD1
:103080006285A4F828C00A6852072FD4B8F1000F4F
:1030900014D0B9F1000F7BD00868400500F18080A2
:1030A000FFF758FA401B484577D82068014651F889
:1030B000142F5207F0D5B4F828C017E00A6852055B
:1030C0006ED40A68520711D40A68520568D40A6897
:1030D00052070BD40A68520562D40A68520705D415
:1030E0000A6852055CD40A685207E7D55FEA0C41CA
:1030F0007FF46DAF016841F400710160202084F815
:103100003D0084F83E6084F83C60304601B0BDE884
:10311000F08300BFFFF71EFA202002E0FFF71AFA43
:10312000202000212022216384F83D2084F83E10D5
:10313000226C01261043206484F83C10304601B014
:10314000BDE8F0830868400504D4FFF703FA2020A7
:1031500004E000BF6FF4806008600420002120229A
:10316000216384F83D2084F83E10226C10432064D3
:1031700084F83C10206C042825D1206801260168C1
:1031800041F400710160304601B0BDE8F08300BF3A
:103190000868400504D4FFF7DDF9202004E000BFF3
:1031A0006FF480600860042000212022216384F8ED
:1031B0003D2084F83E10226C1043206484F83C10BB
:1031C000206C0428D9D00126304601B0BDE8F08338
:1031D000B0B586B0006845F60001C4F200010024D5
:1031E0008842CDE90444CDE90244019432D045F24D
:1031F0000041C4F20001884255D1002443F6300555
:103200000094C4F20205286801A940F00200286079
:10321000286800F00200009000984FF44070019080
:103220001220CDE90204032004900420059040F20E
:103230000040C4F20200FFF7B3F80094286940F49C
:1032400000102861286900F400100090009806B072
:10325000B0BD00BF43F630050094C4F202052868F3
:1032600001A940F002002860286800F002000090E8
:1032700000984FF4406001901220CDE90204032031
:1032800004900420059040F20040C4F20200FFF7D1
:1032900087F80094286940F480002861286900F4C8
:1032A00080000090009806B0B0BD000040F20C0015
:1032B00046F25C31C2F20000C2F2000100780A68F6
:1032C000104408607047000080B543F60040C4F227
:1032D0000200016841F400710160016841F48061FD
:1032E0000160016841F480710160032000F0C4F8BE
:1032F0000F2000F005F800F05DF8002080BD000010
:10330000B0B586B0002543F644010195C4F2020130
:103310000A68044642F001020A60096801A801F047
:10332000010101910199694600F066F900F098F9F0
:103330004DF683614000C4F21B31A0FB01014FF048
:10334000FF3000EB914141F684400022C2F20000C0
:10335000C4F2010240F2E733C0E90021C0E90253A0
:103360000561856100F0E0FB054618B1284606B00E
:10337000B0BD00BF41F68440C2F2000000F024FC62
:1033800005460028F2D1192000F036F80F2C0DD890
:10339000192021460022002500F042F840F21000DA
:1033A000C2F200000460284606B0B0BD01252846E0
:1033B00006B0B0BD82B0002043F640010190C4F2D7
:1033C00002014A6842F480424A604A6802F480423C
:1033D0000192019A00900868002240F08050086035
:1033E00008680F2100F08050009000986FF00100F5
:1033F00002B000F015B80000002848BF7047C1B205
:1034000000F01F00012202FA00F04EF20012CEF28C
:10341000000242EAD10121F0030108607047000078
:1034200010B54EF60C5CCEF2000CDCF80030C3F3A5
:10343000022E8EF00704042C28BF0424BEF10303DF
:103440004FF0FF3E0EFA04F438BF0023A143994029
:103450000EFA03F39A43114300F00F0200F16043A8
:103460000901043A03F564436244002848BF02F1AD
:103470000C03197010BD00004EF60C51CEF2000185
:103480000A684FF6FF031A4060F30A2242F0806098
:1034900040F0FD70086070472DE9F041002800F011
:1034A0008B8043F60808C4F202080446D8F8F803F3
:1034B0000D4600F00F00884207D288F8F853D8F87C
:1034C000F80300F00F00A84276D12068810717D5D5
:1034D000410705D5D8F8001041F4E051C8F80010B4
:1034E000010705D5D8F8001041F46041C8F8001074
:1034F000D8F80010A26821F0F0011143C8F80010BC
:10350000C0073FD1D8F8F80300F00F00A84207D950
:1035100088F8F853D8F8F80300F00F00A8424BD110
:103520002068410707D5D8F80010E26821F4E0517F
:103530001143C8F80010000708D5D8F80000216929
:1035400020F4604040EAC100C8F8000000F09CF898
:10355000D8F800104CF22C52C1F30311C0F600024F
:10356000515C40F2140220FA01F140F21000C2F264
:1035700000000068C2F200021160FFF7C1FE0020E7
:10358000BDE8F0816068811E022907D258F8081C46
:1035900089015CBF0120BDE8F08111E0012807D15D
:1035A00058F8081C89035CBF0120BDE8F08107E0E2
:1035B00058F8081C890703D40120BDE8F08100BF3A
:1035C000D8F8001021F003010843C8F80000FEF706
:1035D000C1FF064641F28837D8F80000616800F064
:1035E0000C00B0EB810F8DD0FEF7B4FF801BB8420A
:1035F000F2D90320BDE8F0810F22026043F60802F1
:10360000C4F20202136803F003034360136803F07B
:10361000F0038360136803F4E053C360D2F800C082
:103620004FF4E05303EADC030361D2F8F80300F03F
:103630000F0008607047000040F2140043F60801D4
:10364000C2F20000C4F20201006809684CF23C5268
:10365000C1F38221C0F60002515CC84070470000EF
:1036600040F2140043F60801C2F20000C4F2020165
:10367000006809684CF23C52C1F34231C0F60002C6
:10368000515CC8407047000010B543F60404C4F212
:103690000204606800F00C0142F200400829C0F208
:1036A000F40007D0042918BF10BD41F20020C0F279
:1036B0007A0010BD216801F03F02216823684902A9
:1036C000C3F3881106D4A1FB00010023FCF752FECE
:1036D00007E000BF41F20020C0F27A004843B0FB8F
:1036E000F2F021680222C1F3014102EB4101B0FB7B
:1036F000F1F010BD2DE9F04182B0002868D00446F9
:10370000007843F60006C007C4F202060BD0B0688A
:1037100000F00C00042840F09F803068800302D540
:103720006068002854D0207880071AD5B06810F05F
:103730000C0F09D0B06800F00C00082840F0A680FB
:103740007068400200F1A2803068800702D5E0680E
:1037500001283DD13068216920F0F80040EAC1001D
:1037600030602078000737D4207840074CD4A56912
:1037700055B3B06800F00C00082840F0BB80012D64
:1037800026D07068E16900F480028A4220D1216A63
:1037900000F03F028A421BD147F6C071626A0140C5
:1037A000B1EB821F14D1A16A4FF6FF73C90399438D
:1037B00000F44032A1F580318A4209D1E16A00F07B
:1037C0007060B0EB016F03D1002002B0BDE8F08162
:1037D000012002B0BDE8F0816069002840F20000DD
:1037E000C4F2472076D00121C0F8801EFEF7B2FE59
:1037F000054600BF706F8007B6D4FEF7ABFE401BD6
:103800000228F7D9DDE000BF306C10F080580AD1F3
:1038100000200190306C40F080503064306C00F03B
:1038200080500190019847F20007C4F20007386801
:10383000C00541D4386840F480703860FEF78AFED5
:10384000054600BF3868C00536D4FEF783FE401B2E
:103850000228F7D9B5E000BFB06800F00C000828D6
:1038600003D1706840023FF558AF6068B0F5803F03
:1038700007D0B0F5A02F40F08D80306840F4802054
:103880003060306840F4803030608DE0E0680028BF
:1038900052D00020C4F2472001210160FEF75AFEF9
:1038A000054600BF306880073FF554AFFEF752FE73
:1038B000401B0228F6D984E0A068012805D005281D
:1038C0004ED1306F40F004003067306F40F001009F
:1038D00030674FE00021C0F8801EFEF73BFE054632
:1038E000706F80077FF540AFFEF734FE401B022863
:1038F000F6D966E00027C4F2472700203866FEF7B5
:1039000029FE022D05460BD1306880015ED5FEF7F9
:1039100021FE401B02284FF00300F5D955E700BFF8
:10392000306880017FF550AFFEF714FE401B02287F
:103930004FF00300F4D948E70020C4F247200021EB
:103940000160FEF707FE0546306880077FF509AF86
:10395000FEF700FE401B02284FF00300F4D934E7C5
:10396000316F002821F001013167316F21F004012E
:1039700031674DD0FEF7EEFD054641F2883700BFB6
:10398000306F800756D4FEF7E5FD401BB842F7D9EB
:1039900017E000BF3168002821F4803131603168C0
:1039A00021F4802131604FD0FEF7D4FD054600BFE1
:1039B000306880033FF5B7AEFEF7CCFD401B6428AE
:1039C000F6D9032002B0BDE8F08100BF04F11C0568
:1039D0002FCD084340EA8210D9034FF6FF7291437E
:1039E000A1F5803140EA0560084370600120386627
:1039F000FEF7B0FD044600BF306880013FF5E4AE3D
:103A0000FEF7A8FD001B02284FF00300F4D9DCE606
:103A1000FEF7A0FD054641F2883700BF306F8007F2
:103A200008D5FEF797FD401BB8424FF00300F5D9CB
:103A3000CBE600BFB8F1000F7FF499AE306C20F0F8
:103A40008050306493E600BFFEF784FD054600BF5A
:103A5000306880037FF567AEFEF77CFD401B64286D
:103A60004FF00300F4D9B0E6704700007047000043
:103A700010B590F83C20012A4FF0020251D080F896
:103A80003D200268D2F804E0D2F808C00C682EF09D
:103A90007003234341F2FF74C4F20004A242536056
:103AA0000EDC40F2FF73C4F200039A4216DCB2F15E
:103AB000804F2BD040F20043C4F2000324E000BF4B
:103AC00040F2FF33C4F201039A4213DC41F60003D3
:103AD000C4F200039A4219D0002313E040F6000319
:103AE000C4F200039A4211D040F60043C4F200032E
:103AF0000AE000BF44F20003C4F201039A4205D079
:103B000040F20043C4F201039A4204D149682CF008
:103B10008003194391600121002280F83D1080F854
:103B20003C20104610BD0000002804BF0120704753
:103B300010B5044690F83D0028B9002084F83C00F8
:103B4000204600F01FF8022084F83D002068211D67
:103B500002F022FD012084F8460084F83E0084F83B
:103B60003F0084F8400084F8410084F8420084F863
:103B7000430084F8440084F8450084F83D000020A8
:103B800010BD000080B582B00068B0F1804F1CBF4E
:103B900002B080BD0020019043F64000C4F2020054
:103BA0000168002241F0010101600068052100F078
:103BB0000100019001981C20FFF732FC1C2002B08C
:103BC000BDE88040FFF718BC90F83D1001291CBFEC
:103BD00001207047022180F83D10006841F2FF7219
:103BE000C168C4F20002904241F00101C1600DDCE5
:103BF00040F2FF71C4F20001884215DCB0F1804F41
:103C00002AD040F20041C4F2000123E040F2FF312B
:103C1000C4F20101884213DC41F60001C4F2000144
:103C2000884219D0002113E040F60001C4F20001DF
:103C3000884211D040F60041C4F200010AE000BF02
:103C400044F20001C4F20101884205D040F2004173
:103C5000C4F20101884206D1816801F007010629FA
:103C600004BF00207047016841F00101016000209D
:103C70007047000080B590F83C20012A4FF0020206
:103C800000F0C28080F83D20D0F800C04FF6777277
:103C9000DCF8083023EA0202CCF808200B684F2B2E
:103CA00028DC1F2B44DD202B45D0302B43D0402B6C
:103CB00040F0AC80D1F804E0C968DCF82030DCF8D2
:103CC000202022F00102CCF82020DCF8182022F07D
:103CD000F00242EA011123F00A0242EA0E02CCF895
:103CE0001810CCF82020DCF8081041F0470121F032
:103CF000300180E06F2B27DDB3F5005F48D0B3F5CE
:103D0000805F7AD0702B40F08180D1E901E3C968EF
:103D1000DCF8082043EA0E0322F47F4243EA012143
:103D20001143CCF80810DCF8081041F0770162E08C
:103D30000BB1102B6AD1DCF8081021F07001194387
:103D400041F0070157E000BF502B35D0602B5DD10B
:103D5000D1F804E0C968DCF8203023F01003CCF877
:103D60002030DCF81830DCF8202023F4704322F0F7
:103D7000A00243EA013142EA0E12CCF81810CCF846
:103D80002020DCF8081041F0670121F0100132E03A
:103D9000D1E901E3C968DCF8082043EA0E0322F404
:103DA0007F4243EA01211143CCF80810DCF80810E7
:103DB00041F480411FE000BFD1F804E0C968DCF89D
:103DC0002030DCF8202022F00102CCF82020DCF8A2
:103DD000182022F0F00242EA011123F00A0242EA1E
:103DE0000E02CCF81810CCF82020DCF8081041F0B6
:103DF000570121F02001CCF808100022012180F8A1
:103E00003D10002180F83C10104680BD0122F5E7EE
:103E10007047000010B5016804460869800744BF78
:103E2000C8685FEA807039D40869400744BFC86831
:103E30005FEA40703ED40869000744BFC8685FEA83
:103E4000007045D40869C00644BFC8685FEAC06016
:103E50004AD40869C0071CBFC8685FEAC07051D166
:103E60000869000644BFC8685FEA006052D4086968
:103E7000400644BFC8685FEA406053D408698006C2
:103E800046BFC8685FEA806010BD6FF02002204620
:103E90000A61BDE81040FFF7E9BD00BF6FF0020006
:103EA0000861012020778869800743D02046FFF70A
:103EB000AFFF45E06FF004000861022020778869B9
:103EC00010F4407F40D02046FFF7A2FF42E000BF41
:103ED0006FF00800086104202077C86980073DD092
:103EE0002046FFF795FF3FE06FF0100008610820C3
:103EF0002077C86910F4407F3AD02046FFF788FF4A
:103F00003CE000BF6FF001000861204600F03EF881
:103F10002168A5E76FF0800008612046FFF7A4FD47
:103F20002168A4E76FF040000861204600F038F8EF
:103F30002168A3E7204600F025F8204600F024F889
:103F40002168002020776FE7204600F01BF820460C
:103F500000F01AF82168002020776CE7204600F076
:103F600011F8204600F010F821680020207769E75A
:103F7000204600F007F8204600F006F821680020EF
:103F8000207766E770470000704700000068002156
:103F9000C4F20101884218BF7047FFF787B90000DB
:103FA000704700007047000070470000B0B582B055
:103FB000044600680168C368426901F02F05202D9E
:103FC00003F0200506D12DB1204602B0BDE8B04077
:103FD00002F086BB5FEA017C1EBF02F0010E03F413
:103FE000907212EB0E0253D1226B012A05D111F00F
:103FF000100218BF13F0100236D10A0622D513F0B2
:1040000080021FD094F83D1021293FD1A168B1F55D
:10401000805F03D12169002900F07282216A4A1C65
:10402000226209784160E18C01390A04E1842DD1D2
:10403000C16821F08001C160C16841F04001C160E8
:1040400002B0B0BD490621D513F040011ED0C168B1
:1040500021F04001C1602021204684F83D1002B0CB
:10406000BDE8B04000F0C4BC00210191016801919D
:104070004168019101994069400613D4A08DE18DFA
:10408000E28D002A18BF884240F0BE8102B0B0BD68
:10409000CA0718BF13F4807240F0BA804A0700F1D3
:1040A000BD80C2E0A16B0868426893B2002BEDD0DE
:1040B000A08D8342EAD2E285C969B1F5807F00F024
:1040C0009D80206850E8030F216820F4807041E84B
:1040D0000302DAB1206850E8030F216820F48070F1
:1040E00041E8030292B1206850E8030F216820F4F0
:1040F000807041E803024AB1206850E8030F21684C
:1041000020F4807041E80302002ADAD1206850E8E8
:10411000050F216820F0010041E80502DAB12068AE
:1041200050E8050F216820F0010041E8050292B136
:10413000206850E8050F216820F0010041E80502E1
:104140004AB1206850E8050F216820F0010041E8DD
:104150000502002ADAD1206850E8050F216820F016
:10416000400041E80502DAB1206850E8050F2168F7
:1041700020F0400041E8050292B1206850E8050FA8
:10418000216820F0400041E805024AB1206850E86B
:10419000050F216820F0400041E80502002ADAD12D
:1041A000202084F83E0000202063206850E8030FA0
:1041B000216820F0100041E80302DAB1206850E8DD
:1041C000030F216820F0100041E8030292B120683B
:1041D00050E8030F216820F0100041E803024AB1C3
:1041E000206850E8030F216820F0100041E8030226
:1041F000002ADAD1A06BFEF741F8A08DE18D401ABC
:1042000081B2204602B0BDE8B040FFF7CBBE00BF90
:10421000226C42F0010222644A0706D5BEF1000F6B
:1042200003D0226C42F0020222648A0706D5BEF156
:10423000000F03D0226C42F004022264BCF1000F94
:1042400009D545EA0E02B2FA82F2520903D1226C74
:1042500042F008022264226C002A3FF417AF11F0EA
:10426000200118BF002D03D0204602F039FA206843
:104270004069216C00F0400001F00801401800F096
:10428000B58000BF206850E8030F216820F49070CB
:1042900041E80302BAB3206850E8030F216820F414
:1042A000907041E8030272B3206850E8030F216860
:1042B00020F4907041E803022AB3206850E8030F0D
:1042C000216820F4907041E80302002ADAD11AE054
:1042D000206850E8050F216820F0010041E8050240
:1042E000DAB1206850E8050F216820F0010041E8AC
:1042F000050292B1206850E8050F216820F0010006
:1043000041E805024AB1206850E8050F216820F015
:10431000010041E80502002ADAD1206B012824D1EE
:10432000206850E8030F216820F0100041E80302E4
:10433000DAB1206850E8030F216820F0100041E84E
:10434000030292B1206850E8030F216820F01000AA
:1043500041E803024AB1206850E8030F216820F0C9
:10436000100041E80302002ADAD1202084F83E0040
:10437000002020632068406940063FD5206850E84F
:10438000050F216820F0400041E80502DAB12068FD
:1043900050E8050F216820F0400041E8050292B185
:1043A000206850E8050F216820F0400041E8050230
:1043B0004AB1206850E8050F216820F0400041E82C
:1043C0000502002ADAD1A06BC0B146F2D561C0F671
:1043D00000010165FDF79AFF00283FF457AEA06B7E
:1043E000016D02B0BDE8B040084700BF2046FFF7AE
:1043F000DBFD0020206402B0B0BD00BF204602B04B
:10440000BDE8B040FFF7D0BD401A216851E8031F56
:10441000226821F4907142E80313DBB1216851E86E
:10442000031F226821F4907142E8031393B12168BD
:1044300051E8031F226821F4907142E803134BB145
:10444000216851E8031F226821F4907142E80313A8
:10445000002BDAD1216851E8051F226821F0010103
:1044600042E80513DBB1216851E8051F226821F0FD
:10447000010142E8051393B1216851E8051F226844
:1044800021F0010142E805134BB1216851E8051FF5
:10449000226821F0010142E80513002BDAD1202126
:1044A00084F83E1000212163216851E8031F22682F
:1044B00021F0100142E80313002B3FF4A1AE216864
:1044C00051E8031F226821F0100142E80313002B7A
:1044D0003FF496AE216851E8031F226821F01001D5
:1044E00042E80313002B3FF48BAE216851E8031F11
:1044F000226821F0100142E80313002BD4D17FE69B
:10450000216A31F8022B6FF35F22426021628AE553
:10451000002804BF0120704710B5044690F83D0004
:1045200028B9002084F83C00204600F021F824201F
:1045300084F83D002068C16821F40051C160204624
:1045400002F04EF92068016921F49041016141694E
:1045500021F02A014161C16841F40051C16000208D
:104560002021206484F83D1084F83E1010BD000026
:1045700010B586B0006841F20042C4F20102002189
:104580009042CDE90411CDE90211019128D044F601
:104590000001C4F20001884246D044F20041C4F256
:1045A0000001884274D1002043F630010090C4F22B
:1045B00002010A69262442F400320A610A6902F4FF
:1045C00000320092009A0090086840F008000860ED
:1045D000086800F0080000900098602040E000BFEC
:1045E00043F630000091C4F202004269472442F0D1
:1045F00020024261426902F020020092009A00917A
:10460000016841F0040101600068082100F0040025
:1046100000900098C020019040F60040C4F20200D3
:10462000A0F5806022E000BF002043F6300100903A
:10463000C4F202010A69272442F480220A610A694D
:1046400002F480220092009A0090086840F008006E
:104650000860086800F00800009000984FF440706F
:10466000019040F600400721C4F2020002220292AB
:10467000002203920322CDE9042101A9FDF790FE57
:10468000204605210022FEF7CBFE2046FEF7B4FEB1
:1046900006B010BD90F83E30202B0BD100294FF012
:1046A000010318BF002A01D11846704790F83C302A
:1046B000012B01D102207047002303638162222174
:1046C0008285C285036480F83E100269016880F823
:1046D0003C301AB1C86840F48070C8604869002353
:1046E00040F001004861C86840F02000C8601846EA
:1046F00070470000006841F20041C4F201018842A5
:104700002CD044F20041C4F20001884218BF704727
:1047100040F27C10C2F200004278438842F25C61B1
:10472000C2F20001CA5443880D2A03F101034380F9
:1047300001D00A2A09D1428800238B5440F2180282
:104740000121C2F2000201701170411C41F61450A7
:10475000C2F200000122FFF79DBF00BF40F2882097
:10476000C2F2000001F0F4BD2DE9F04381B004462F
:1047700090F83D0020280DD10F4600294FF0010090
:1047800000F0DD801646002A00F0D98094F83C0045
:10479000012803D1022001B0BDE8F083012084F894
:1047A0003C000020206421201D4684F83D00FDF7D8
:1047B000D1FEA684E684A1680646B1F5805F03D1E8
:1047C0002069002800F01081B8460027002084F8F6
:1047D0003C00E18C2068002900F0908005F101097F
:1047E0000DE000BFB8F1000F28D018F8011B4160A0
:1047F000E18C0139E184E18C002900F07F800168BF
:104800000906EFD4B9F1000F0AD0FDB1FDF7A2FE01
:10481000801BA8421AD8206801680906F6D5E1E78E
:1048200001680906DED4016809065CBF01685FEA19
:104830000161D7D401680906F2D5D3E737F8021B26
:104840004FF000086FF35F21D1E700BF206850E808
:10485000030F216820F4D07041E80302BAB3206846
:1048600050E8030F216820F4D07041E8030272B3CE
:10487000206850E8030F216820F4D07041E803025B
:104880002AB3206850E8030F216820F4D07041E873
:104890000302002ADAD11AE0206850E8050F2168E7
:1048A00020F0010041E80502DAB1206850E8050F68
:1048B000216820F0010041E8050292B1206850E82B
:1048C000050F216820F0010041E805024AB1206887
:1048D00050E8050F216820F0010041E80502002A98
:1048E000DAD1202084F83D0084F83E00002084F8CE
:1048F0003C00032001B0BDE8F08300BF0168490619
:1049000019D4FDB1691C0DD10168490613D40168A1
:1049100049065CBF01685FEA41610CD40168490641
:10492000F2D508E0FDF716FE801BA8420AD82068E1
:1049300000684006F6D5202084F83D00002001B034
:10494000BDE8F083206850E8030F216820F4D070A0
:1049500041E80302E2B3206850E8030F216820F425
:10496000D07041E803029AB3206850E8030F216831
:1049700020F4D07041E8030252B3206850E8030FDE
:10498000216820F4D07041E80302002ADAD11FE048
:10499000206850E8050F216820F0010041E8050279
:1049A000002A9ED0206850E8050F216820F0010001
:1049B00041E80502002A3FF494AF206850E8050F53
:1049C000216820F0010041E80502002A3FF489AF88
:1049D000206850E8050F216820F0010041E8050239
:1049E000002AD5D17DE700BF4FF00008EEE60000B9
:1049F00070470000FEE700002DE9F04381B000247D
:104A0000C4F20204164689460746204610210022B9
:104A10009846FDF799FD04F580652846202100227F
:104A2000FDF792FD2A2000F0ADFE20461021012264
:104A3000FDF78AFD284620210122FDF785FD20464D
:104A400010210022FDF780FD380A00F09BFEF8B22D
:104A500000F098FE204610210122FDF775FD20464A
:104A600010210022FDF770FD300A00F08BFEF0B23D
:104A700000F088FE204610210122FDF765FD20464A
:104A800010210022FDF760FD284620210022FDF7BD
:104A90005BFD2B2000F076FE204610210122FDF761
:104AA00053FD284620210122FDF74EFD204610210E
:104AB0000022FDF749FD4FEA192000F063FE5FFA7E
:104AC00089F000F05FFE204610210122FDF73CFD39
:104AD000204610210022FDF737FD4FEA182000F094
:104AE00051FE5FFA88F000F04DFE204610210122B1
:104AF000FDF72AFD204610210022FDF725FD28465E
:104B000020210022FDF720FD2C2000F03BFE204656
:104B100010210122FDF718FD28462021012201B0B5
:104B2000BDE8F043FDF710BD2DE9F04381B00E461E
:104B30008146501E591E9846154682B28BB2484691
:104B40003146FFF759FF464538BFA9450DD2089CAD
:104B50004F4600BF204600F0FDFD0137B8B2A84225
:104B6000F8D30136B0B24045F2D301B0BDE8F083CE
:104B7000B0B50024C4F2020404F5406528464FF4A1
:104B800080410022FDF7E0FC3220FDF7D1FB2846F2
:104B90004FF480410122FDF7D7FC3220FDF7C8FB1E
:104BA00028464FF400410122FDF7CEFC3220FDF7EC
:104BB000BFFB204610210022FDF7C6FC2046102135
:104BC0000022FDF7C1FC04F5806528462021002263
:104BD000FDF7BAFC112000F0D5FD2046102101227E
:104BE000FDF7B2FC284620210122FDF7ADFC20464E
:104BF00010210022FDF7A8FC284620210022FDF705
:104C0000A3FC112000F0BEFD204610210122FDF77B
:104C10009BFC284620210122FDF796FC3220FDF75F
:104C200087FB204610210022FDF78EFC284620211C
:104C30000022FDF789FC362000F0A4FD204610215B
:104C40000122FDF781FC284620210122FDF77CFC92
:104C5000204610210022FDF777FC002000F092FD95
:104C6000204610210122FDF76FFC20461021002272
:104C7000FDF76AFC284620210022FDF765FC3A205A
:104C800000F080FD204610210122FDF75DFC284642
:104C900020210122FDF758FC204610210022FDF7BB
:104CA00053FC552000F06EFD204610210122FDF737
:104CB0004BFC204610210022FDF746FC284620210F
:104CC0000022FDF741FCB22000F05CFD20461021DF
:104CD0000122FDF739FC284620210122FDF734FC92
:104CE000204610210022FDF72FFC1F2000F04AFD76
:104CF000204610210122FDF727FC2046102100222A
:104D0000FDF722FC1F2000F03DFD2046102101226E
:104D1000FDF71AFC204610210022FDF715FC0020AB
:104D200000F030FD204610210122FDF70DFC204649
:104D300010210022FDF708FC332000F023FD20465F
:104D400010210122FDF700FC204610210022FDF772
:104D5000FBFB332000F016FD204610210122FDF759
:104D6000F3FB204610210022FDF7EEFB2846202110
:104D70000022FDF7E9FBB72000F004FD20461021DA
:104D80000122FDF7E1FB284620210122FDF7DCFB93
:104D9000204610210022FDF7D7FB352000F0F2FC61
:104DA000204610210122FDF7CFFB204610210022D2
:104DB000FDF7CAFB284620210022FDF7C5FBBB20DA
:104DC00000F0E0FC204610210122FDF7BDFB284643
:104DD00020210122FDF7B8FB204610210022FDF71B
:104DE000B3FB2B2000F0CEFC204610210122FDF762
:104DF000ABFB204610210022FDF7A6FB2846202110
:104E00000022FDF7A1FBC02000F0BCFC20461021D1
:104E10000122FDF799FB284620210122FDF794FB92
:104E2000204610210022FDF78FFB2C2000F0AAFC69
:104E3000204610210122FDF787FB20461021002289
:104E4000FDF782FB284620210022FDF77DFBC220D2
:104E500000F098FC204610210122FDF775FB284642
:104E600020210122FDF770FB204610210022FDF7D2
:104E70006BFB012000F086FC204610210122FDF78B
:104E800063FB204610210022FDF75EFB284620210F
:104E90000022FDF759FBC32000F074FC20461021CE
:104EA0000122FDF751FB284620210122FDF74CFB92
:104EB000204610210022FDF747FB0F2000F062FC86
:104EC000204610210122FDF73FFB20461021002241
:104ED000FDF73AFB284620210022FDF735FBC420D0
:104EE00000F050FC204610210122FDF72DFB284642
:104EF00020210122FDF728FB204610210022FDF78A
:104F000023FB202000F03EFC204610210122FDF76B
:104F10001BFB204610210022FDF716FB284620210E
:104F20000022FDF711FBC62000F02CFC20461021CA
:104F30000122FDF709FB284620210122FDF704FB91
:104F4000204610210022FDF7FFFA0F2000F01AFC86
:104F5000204610210122FDF7F7FA204610210022F9
:104F6000FDF7F2FA284620210022FDF7EDFAD020C5
:104F700000F008FC204610210122FDF7E5FA284642
:104F800020210122FDF7E0FA204610210022FDF742
:104F9000DBFAA42000F0F6FB204610210122FDF7E9
:104FA000D3FA204610210022FDF7CEFAA12000F00E
:104FB000E9FB204610210122FDF7C6FA2046102108
:104FC0000022FDF7C1FA284620210022FDF7BCFA95
:104FD000D62000F0D7FB204610210122FDF7B4FABD
:104FE000284620210122FDF7AFFA20461021002299
:104FF000FDF7AAFAA12000F0C5FB204610210122EE
:10500000FDF7A2FA204610210022FDF79DFA28465E
:1050100020210022FDF798FAE02000F0B3FB2046A3
:1050200010210122FDF790FA284620210122FDF7E8
:105030008BFA204610210022FDF786FAF02000F0BE
:10504000A1FB204610210122FDF77EFA2046102107
:105050000022FDF779FA042000F094FB204610218D
:105060000122FDF771FA204610210022FDF76CFAAB
:10507000072000F087FB204610210122FDF764FA8B
:10508000204610210022FDF75FFA042000F07AFB91
:10509000204610210122FDF757FA20461021002258
:1050A000FDF752FA042000F06DFB2046102101228A
:1050B000FDF74AFA204610210022FDF745FA0420A8
:1050C00000F060FB204610210122FDF73DFA20464A
:1050D00010210022FDF738FA252000F053FB20466E
:1050E00010210122FDF730FA204610210022FDF7A1
:1050F0002BFA332000F046FB204610210122FDF759
:1051000023FA204610210022FDF71EFA3C2000F071
:1051100039FB204610210122FDF716FA2046102106
:105120000022FDF711FA362000F02CFB204610215A
:105130000122FDF709FA204610210022FDF704FAAA
:10514000142000F01FFB204610210122FDF7FCF97E
:10515000204610210022FDF7F7F9122000F012FB83
:10516000204610210122FDF7EFF9204610210022F0
:10517000FDF7EAF9292000F005FB20461021012265
:10518000FDF7E2F9204610210022FDF7DDF930207D
:1051900000F0F8FA204610210122FDF7D5F920464B
:1051A00010210022FDF7D0F9284620210022FDF72A
:1051B000CBF9E12000F0E6FA204610210122FDF7AC
:1051C000C3F9284620210122FDF7BEF9204610210F
:1051D0000022FDF7B9F9F02000F0D4FA20461021A2
:1051E0000122FDF7B1F9204610210022FDF7ACF9AC
:1051F000022000F0C7FA204610210122FDF7A4F991
:10520000204610210022FDF79FF9042000F0BAFA91
:10521000204610210122FDF797F920461021002297
:10522000FDF792F9052000F0ADFA20461021012289
:10523000FDF78AF9204610210022FDF785F90520A7
:1052400000F0A0FA204610210122FDF77DF920464A
:1052500010210022FDF778F9212000F093FA204672
:1052600010210122FDF770F9204610210022FDF7E0
:105270006BF9252000F086FA204610210122FDF767
:1052800063F9204610210022FDF75EF9322000F07C
:1052900079FA204610210122FDF756F92046102107
:1052A0000022FDF751F93B2000F06CFA2046102156
:1052B0000122FDF749F9204610210022FDF744F9AB
:1052C000382000F05FFA204610210122FDF73CF95A
:1052D000204610210022FDF737F9122000F052FA83
:1052E000204610210122FDF72FF92046102100222F
:1052F000FDF72AF9142000F045FA2046102101227A
:10530000FDF722F9204610210022FDF71DF9272084
:1053100000F038FA204610210122FDF715F9204649
:1053200010210022FDF710F9312000F02BFA204661
:1053300010210122FDF708F9204610210022FDF777
:1053400003F9284620210022FDF7FEF8212000F075
:1053500019FA204610210122FDF7F6F828462021EF
:105360000122FDF7F1F8204610210022FDF7ECF8AC
:10537000284620210022FDF7E7F8292000F002FA54
:10538000204610210122FDF7DFF8284620210122C6
:10539000BDE8B040FDF7D8B82DE9F04F85B00F9EBD
:1053A00081464FEA56083009049315468B46012181
:1053B0005FEA487218BF01EB161000FB06F409EB18
:1053C00056000BEB06010138013982B28BB2484618
:1053D0005946FFF711FB002C00F09581A6F10C0057
:1053E000C1B2800140EA9100C2B2052A00F28B816D
:1053F0000120904010F02B0F00F085811099A5F14D
:10540000200000294EF28F1E4CF25B534CF6CF1C4D
:105410004CF6BF71C0B2C0F6000EC0F60003C0F675
:10542000000CC0F60001039200F0C48000EB4006BF
:1054300003EB860501EB0613002702930CEB001328
:105440000EEB80104E460193009000BF032A05D05A
:10545000012A05D028462AB1009802E0029800E00F
:105460000198384490F800A05FEACA700AD0B0B240
:105470001FFA8BF102460B46FFF7BEFA049800F0C4
:1054800069F9039A701C80B2A0EB0901414500F054
:1054900087805FEA8A7109D51FFA8BF102460B46B5
:1054A000FFF7AAFA049800F055F9039AB01C80B2ED
:1054B000A0EB0901414573D05FEA4A7109D51FFA93
:1054C0008BF102460B46FFF797FA049800F042F979
:1054D000039AF01C80B2A0EB0901414560D05FEA5D
:1054E0000A7109D51FFA8BF102460B46FFF784FAC1
:1054F000049800F02FF9039A301D80B2A0EB090147
:1055000041454DD05FEACA6109D51FFA8BF10246C9
:105510000B46FFF771FA049800F01CF9039A701D0E
:1055200080B2A0EB090141453AD05FEA8A6109D512
:105530001FFA8BF102460B46FFF75EFA049800F063
:1055400009F9039AB01D80B2A0EB0901414527D0AB
:105550005FEA4A6109D51FFA8BF102460B46FFF755
:105560004BFA049800F0F6F8039AF01D80B2A0EB15
:105570000901414514D04FFA8AF1B1F1FF3F09DC2E
:105580001FFA8BF102460B46FFF736FA049800F03B
:10559000E1F8039A0836B0B2A0EB0900404502D109
:1055A0000BF1010B4E460137013C05F101057FF47B
:1055B0004DAFA8E0DDF838A000EB40010EEB8017FE
:1055C0000026029103EB81010CEB00104FF0000B61
:1055D0000191009072B1012A0ED0DDF81090032ADB
:1055E00038460DD14CF6BF70029AC0F6000000EBB1
:1055F000021004E0019800E00098DDF810903044BB
:105600000578E807484608BF504600F0A3F80BF1BC
:105610000100C0B2B0FBF8F101FB1800002869D00E
:10562000A807484658BF504600F094F80BF1020016
:10563000C0B2B0FBF8F101FB180000285AD068078F
:10564000484658BF504600F085F80BF10300C0B241
:10565000B0FBF8F101FB180000284BD028074846A2
:1056600058BF504600F076F80BF10400C0B2B0FB12
:10567000F8F101FB1800E8B3E806484658BF504669
:1056800000F068F80BF10500C0B2B0FBF8F101FBC7
:10569000180078B3A806484658BF504600F05AF89C
:1056A0000BF10600C0B2B0FBF8F101FB180008B323
:1056B0006806484658BF504600F04CF80BF107000A
:1056C000C0B2B0FBF8F101FB180098B168B2002835
:1056D00058BFD14648460BF1080500F03BF8E8B248
:1056E000B0FBF8F101FB180BBBF1000F18BFAB4684
:1056F00002E000BF4FF0000B039A0136013C07F1B6
:1057000001077FF467AF05B0BDE8F08F2DE9F04FDA
:1057100083B09B461378CBB1DDE90C9ADDF8388075
:105720000D4606464FEA5A07541E00BFB0B2DAB221
:1057300029465B46CDE9009ACDF80880FFF72CFE9C
:10574000A3783E44002B04F10104EFD103B0BDE87F
:10575000F08F0000B0B50025C4F2020504462846CB
:1057600010210022FCF7F0FE200A00F00BF8E0B256
:1057700000F008F8284610210122BDE8B040FCF7EF
:10578000E3BE0000B0B540F20044C4F20204054696
:10579000204608210022FCF7D7FEEA092046102106
:1057A000FCF7D2FE204608210122FCF7CDFE204660
:1057B00008210022FCF7C8FEC5F380122046102104
:1057C000FCF7C2FE204608210122FCF7BDFE204660
:1057D00008210022FCF7B8FEC5F340122046102134
:1057E000FCF7B2FE204608210122FCF7ADFE204660
:1057F00008210022FCF7A8FEC5F300122046102164
:10580000FCF7A2FE204608210122FCF79DFE20465F
:1058100008210022FCF798FEC5F3C00220461021A3
:10582000FCF792FE204608210122FCF78DFE20465F
:1058300008210022FCF788FEC5F3800220461021D3
:10584000FCF782FE204608210122FCF77DFE20465F
:1058500008210022FCF778FEC5F340022046102103
:10586000FCF772FE204608210122FCF76DFE20465F
:1058700008210022FCF768FE05F0010220461021F5
:10588000FCF762FE204608210122BDE8B040FCF78B
:105890005BBE000080B546F295404FF65012C0F650
:1058A0000000C0F60002002103F014F941F6D831DF
:1058B000C2F20001086080BD2DE9F04F87B00025DD
:1058C00043F63000CDE905550195C4F202000168A8
:1058D000002741F0100101600168C4F2020701F0E5
:1058E00010010191019901950168002241F0040124
:1058F000016001684FF0100A01F004010191019963
:105900000195016841F080010160016801F08001AA
:10591000019101990195016841F00101016001685F
:1059200001F00101019101990195016841F0200107
:105930000160016801F02001019101990195016860
:1059400041F002010160016801F002010191019939
:105950000195016841F0080101600068102100F024
:105960000800019001983846FCF7EEFD07F58069C4
:10597000484644F2B801002244F2B80BFCF7E4FDBB
:1059800007F5406840464FF440410022FCF7DCFD3B
:10599000382002904FF4881007F5805402AECDE90C
:1059A000030520463146FCF7FBFCCDF808A04FF07C
:1059B000010A38463146CDE903A50595FCF7F0FC10
:1059C000202002A981E8210438463146FCF7E8FC92
:1059D0004FF48050CDE9020507F5A05031460495FB
:1059E000FCF7DEFC4FF4004002904FF40410CDE9C8
:1059F000030A20463146FCF7D3FC48463146CDE940
:105A000002BACDE90455FCF7CBFC4FF44040CDE998
:105A1000020A40463146CDE90455FCF7C1FC092095
:105A200005210022FDF7FCFC0920FDF7E5FC0A201A
:105A300005210022FDF7F4FC0A20FDF7DDFC17200C
:105A400005210022FDF7ECFC1720FDF7D5FC2820EE
:105A500005210022FDF7E4FC2820FDF7CDFC07B06E
:105A6000BDE8F08F80B541F6DC3045F20041C2F26E
:105A70000000C4F2000141F6802200234FF4804C64
:105A8000C0F2060280E80E00C0E9033CC0E905331D
:105A9000C0E90733FCF7A2FD002818BFFCF7E8FBBC
:105AA00041F6DC30C2F200000021FCF759FD00286D
:105AB00018BFFCF7DDFB41F6DC30C2F2000000212C
:105AC000FCF76CFD002808BF80BDBDE88040FCF7F6
:105AD000CFBB000080B541F6304045F60001C2F270
