:020000040800F2
:10000000885500208D02000829520008F93C00089C
:10001000994A0008C922000819570008000000008A
:10002000000000000000000000000000A1520008D5
:10003000CD2200080000000031520008CD52000817
:10004000A7020008A7020008A7020008A7020008EC
:10005000A7020008A7020008A7020008A7020008DC
:10006000A7020008D1220008D9220008A702000830
:10007000A7020008A7020008A7020008A7020008BC
:10008000A7020008A7020008A7020008A7020008AC
:10009000A7020008A7020008A7020008E122000842
:1000A000A7020008B1530008A7020008A702000831
:1000B000BD530008A7020008A7020008A702000815
:1000C000A7020008A7020008A7020008A70200086C
:1000D000A7020008A702000801570008A7020008AD
:1000E000A7020008A7020008A7020008A70200084C
:1000F000A7020008A7020008A7020008A70200083C
:10010000A7020008A7020008A7020008A70200082B
:10011000A7020008A7020008A7020008A70200081B
:10012000A7020008A7020008A7020008A70200080B
:10013000A7020008A7020008A7020008A7020008FB
:10014000A7020008A7020008A7020008A7020008EB
:10015000A7020008A7020008A70200080D57000820
:10016000A7020008A7020008A7020008A7020008CB
:10017000A7020008A7020008A7020008000000006C
:10018000A7020008A7020008A7020008A7020008AB
:10019000A7020008A7020008A7020008A70200089B
:1001A000A7020008A7020008A702000800F002F852
:1001B00000F05DF80AA090E8000C82448344AAF1A4
:1001C0000107DA4501D100F052F8AFF2090EBAE8A2
:1001D0000F0013F0010F18BFFB1A43F0010318477B
:1001E000F48E0000148F0000103A24BF78C878C144
:1001F000FAD8520724BF30C830C144BF04680C602D
:10020000704700000023002400250026103A28BF74
:1002100078C1FBD8520728BF30C148BF0B60704778
:10022000662908F05886642900F0FE80732900F0E2
:100230004185002070471FB508F038FE9DE8030097
:1002400001F032FE01F0B6F804000020002108F0B1
:10025000EFF8401C60600020002108F0D3F8E06057
:1002600001F014FA1FBD10B501F079FA10BD01F0CC
:10027000A9FA1146FFF7DFFF05F0D0FA01F0E8FD1B
:1002800003B4FFF7F0FF03BC01F08CFF094880477F
:1002900009480047FEE7FEE7FEE7FEE7FEE7FEE768
:1002A000FEE7FEE7FEE7FEE704480549054A064B80
:1002B000704700009D530008AD010008884F0020E2
:1002C00088550020885100208851002053EA020CF4
:1002D00000F069802DE9F04B4FF00006002B1FBFA6
:1002E000B3FA83F503FA05F424FA05F65E4012BF6B
:1002F0001643B2FA82F502FA05F4C5F120051EBFD5
:1003000022FA05FC44EA0C04203556EA044C4FEA74
:10031000144418BF641C4FF000084FF000099042CD
:1003200071EB030C39D3002919BFB1FA81F701FA37
:1003300007F6B0FA80F700FA07F6C7F120071EBFEC
:1003400020FA07FC46EA0C062037B6FBF4FCA7EBC4
:100350000507103F07F01F0BCBF120062CFA06F61D
:100360000CFA0BFB44BFB3460026202FA4BF5E4609
:100370004FF0000B5BEA060C08BF4FF0010B19EBC6
:100380000B0948EB0608ABFB027C06FB02CC0BFB1F
:1003900003CCC01B71EB0C01C1E70B460246414682
:1003A0004846BDE8F08B13B5084318BF4FF0FF3047
:1003B0000146AFF30080BDE81C4070470FB404490C
:1003C00010B503AA029800F079FC10BC5DF814FB8C
:1003D0007400002070B50C460546012A05D0287827
:1003E000800600D5EA69002302E0012305E05B1CDA
:1003F000934202D2E05C0028F9D1A869E618C01A3D
:10040000A861286A184428622846AFF3008004E0F7
:10041000D5E9012114F8010B9047B442F8D32846DE
:10042000AFF3008070BD00002DE9F04106460024C6
:1004300010687529314616A510D0AFF3008000284A
:1004400002DA404213A507E031688A0701D512A5F8
:1004500002E0490704D511A5012401E0AFF30080B3
:1004600000210A2206F1240709E0B0FBF2FCB0FBF0
:10047000F2F302FB1C00303078541846491C002867
:10048000F3D123462A463046BDE8F04100F081B959
:10049000000000002D0000002B00000020000000E4
:1004A0002DE9F0474FF0000A89460446C0F820A025
:1004B0002046E1688847002876D0252806D0D4E970
:1004C00001219047206A401C2062F1E7E168204644
:1004D00000258847C4F81CA006460027C4F818A0C9
:1004E0002A2E09D0304607F03EFF38B304EB8708C8
:1004F000303EC8F8186019E059F8041B204604EB98
:1005000087029161E1688847012F064618D1E069AA
:10051000002820DA25F020051DE0D8F8180000EBAF
:10052000800006EB40003038C8F818002046E1682B
:100530008847064607F017FF0028EED1012F0AD0A2
:100540002E2E08D12046E16888477F1C0646022FE0
:1005500045F02005C4DBA069002803DA404245F0DD
:100560000105A061E80701D025F01005B6B1A6F19C
:100570004100192802D8203645F400654A46314624
:10058000204625604D46FFF74BFE58B1012806D0A6
:10059000ED1D25F0070000F1080989E704E005F1E9
:1005A000040985E730468AE7206ABDE8F08770B520
:1005B000064600F0DFF80468054630460A220021AE
:1005C00000F082FE2C6070BD10B5044603E005F01B
:1005D00011F9401C09D014F8010B05490028F6D187
:1005E000BDE810400A2005F005B94FF0FF3010BDFE
:1005F00074000020401ECAB210F8011F8A4202D0C7
:100600000029F9D100207047032A40F2308010F011
:10061000030C00F0158011F8013BBCF1020F62449D
:1006200098BF11F801CB00F8013B38BF11F8013B2E
:10063000A2F1040298BF00F801CB38BF00F8013BDB
:1006400011F0030300F07886083AC0F0088051F8F2
:10065000043B083A51F804CBA0E80810F5E7121D56
:100660005CBF51F8043B40F8043BAFF30080D20775
:1006700024BF11F8013B11F801CB48BF11F8012B41
:1006800024BF00F8013B00F801CB48BF00F8012B64
:10069000704702F0FF0343EA032242EA024200F0FD
:1006A00002B84FF0000200B5134694469646203932
:1006B00022BFA0E80C50A0E80C50B1F12001BFF41B
:1006C000F7AF090728BFA0E80C5048BF0CC05DF881
:1006D00004EB890028BF40F8042B08BF704748BFCF
:1006E00020F8022B11F0804F18BF00F8012B704743
:1006F00030B44FF0013C50F8042B51F8043BCCFAD5
:1007000052F4D51A20D1FCB950F8042B51F8043B0F
:10071000CCFA52F4D51A17D1B4B950F8042B51F8C9
:10072000043BCCFA52F4D51A0ED16CB950F8042B14
:1007300051F8043BCCFA52F4D51A05D1002CDAD08A
:1007400030BC4FF00000704729BAB1FA81F111F0C6
:100750001801D1F120008440F2D1CA40CB4012F000
:10076000FF0213F0FF0330BCD01A70477047704788
:1007700070470000004870471C01002010B5FFF7CB
:10078000F9FF006810BD10B50446FFF7F3FF0460E1
:1007900010BD2DE9F0470D4699469246044600F1FA
:1007A00024080168880604D5E06921F01001216061
:1007B00000E00120A84201DD471B00E00027A169FD
:1007C0007A1902EB0900081AA0612078C00602D449
:1007D0002046AFF30080002608E0D4E901211AF892
:1007E00006009047206A401C761C20624E45F4DBD0
:1007F0002078C0060AD52046AFF3008006E0D4E991
:10080000012130209047206A401C2062381EA7F149
:100810000107F4DC07E0D4E9012118F8050090474E
:10082000206A401C2062281EA5F10105F3DC204649
:10083000AFF300802078000602D50220BDE8F087E3
:100840000120FBE72DE9FF4F0C461E464FF0FF3716
:100850008BB0D2E90001DDF860800A908A46C1F3CE
:100860000A5505B93D46002108464FF00000BAF18F
:10087000000F00F4400005DA00EB80004FF4400167
:1008800001EA50004FEA9059B9F1010F00DDB94675
:100890000A9850EA4A000ED044F61050A5F2FF35EF
:1008A00045432F14B8F1000F1ED07542291E1EDDDE
:1008B000C9F100021CE0B8F1010F4FF0000001D0B7
:1008C000302103E0F24305E02154401CB042FBDB41
:1008D00030460022002121540B99C1F80880C1E95B
:1008E00000200FB0BDE8F08FBD1B6D1CDEE74A464F
:1008F00000DA694206A800F053FE06AB93E8070051
:1009000003AB83E8070050460A9906F0ADFF8DE877
:100910000700A0F500501F3800900398002D0ADD55
:1009200042F21F014A460844002303A90390684687
:1009300007F058FA09E0A0F500504A461F38002396
:1009400003A90390684607F077FA8DE807000004D2
:10095000000C03D04FF0FF30410800E01046B8F122
:10096000000F03D00022009215461EE0751E05D42C
:1009700000F037FD303262556D1EF9D5B3460122C5
:10098000084302D000227F1C04E02078302801D1E7
:1009900000227F1E002A099784D01DE0112D07DA5E
:1009A00000F01FFD303262556D1C50EA0102F5D196
:1009B000084302D00098C8B10EE00021681E05E08F
:1009C000235C625C63542254401E491C8142F7DB65
:1009D000AB46A81B401E0990002004F80B000B98A2
:1009E000099AC0F80880C0E9002B7AE711264FF079
:1009F000000857E72DE9F04F88460446D21D22F043
:100A0000070191B0D1E90001CDE90A0107F060FBCF
:100A100002460B98C00F01D02D2007E02068810707
:100A200001D52B2002E0202101EAC000032A099011
:100A300001D0072A05DB03464146204600F020FD91
:100A40000BE12078800601D5E06900E00620B8F1CE
:100A5000650F814606D0B8F1660F18D0B8F1670F60
:100A600070D131E00020B9F1110F009001DB1123AA
:100A700001E009F101030AAA01A90CA8FFF7E2FEAF
:100A8000DDE90C70002609F10105834647E00120ED
:100A90004B4600904FF000470AAA01A90CA8FFF7A7
:100AA000D1FEDDE90DB00C995D46002610B909F1C3
:100AB00001000D18B9EB050003D4C0F1FF3609F1B0
:100AC0000105A5EB09002BE0B9F1010F01DA4FF0A8
:100AD00001090020B9F1110F0090484601DD1123F2
:100AE00000E003460AAA01A90CA8FFF7ABFEDDE966
:100AF0000C704D4600268346207800070AD4AB458B
:100B000000DA5D4601A8012D04DD411911F8011C30
:100B1000302907D04F4502DA17F1040F04DA01201B
:100B200082460FE06D1EEEE7002F02DCED1B3E4417
:100B300003E0781CA84200DD7D1CB81B00F1010A0F
:100B40004FF000472078000703D4AA4501DB4FF09F
:100B5000FF3A0021B7F1004F0DF143088DF8431023
:100B600024D002202B23002F01DA7F422D230A21DB
:100B7000021EA0F1010000DC5FB197FBF1FC97FBC6
:100B8000F1F201FB1C7C17460CF1300C08F801CD8A
:100B9000EEE7A8F1010003702188090501D5452180
:100BA00000E06521A0F1010800F8011C09980FA9D7
:100BB000A1EB0807FF1D00B10120411901EBEA700C
:100BC000A1693844081A401EA0612078C00602D4EA
:100BD0002046AFF30080099828B1D4E9012190475D
:100BE000206A401C20622078C00622D52046AFF340
:100BF00000801EE0002E04DBB34502DD01A8805D0D
:100C000000E03020D4E901219047206A401C206296
:100C1000761CAAF101005FEA000A0AD100F0CAFBC3
:100C2000C0680168405CD4E901219047206A401CFB
:100C30002062281EA5F10105DCDC07E0D4E90121D2
:100C400018F8010B9047206A401C2062381EA7F15B
:100C50000107F3DC2046AFF30080032011B041E62A
:100C600001694A1C02610878704700B58FB0CDE970
:100C700001310021059105497944CDE90310114660
:100C80006846FFF70DFC0FB000BD0000E5FFFFFF59
:100C900010B5436913B1AFF3008001E0FFF79AFB91
:100CA000012010BD127800F124010A7000224A7060
:100CB0000122EDE711684FF0FF32E9E7074B70B50D
:100CC0000D467B44FFF7D1FF0446284600F0DAFCCE
:100CD00010B14FF0FF3070BD204670BD2F4B0000AB
:100CE0002DE9FF4F06468BB00878FF2806D0491C37
:100CF0002D2805D000244FF0000908E000200CE06A
:100D00000124F8E709EB8903491C00EB4309087843
:100D1000FF28F7D114B1C9F10000814610780025F1
:100D20002C46AA4629462D2801D02B2804D1521C36
:100D30002D2813D0002082468B461078FF280FD034
:100D40004FF0000C0A21521CA5FB017804FB018125
:100D500005FB0C11C5194BEB0104EEE70120EAE796
:100D6000002108464FF00000BAF1000F02D000EB5E
:100D700080004008C0F38157012F01DD4FF0FF379D
:100D80000E9955EA040009EB01080BD04FF0020957
:100D900018F5FA7F16DA4FEACA70002F706008DD86
:100DA000012007E04FEACA70C6E900B00FB0BDE805
:100DB000F08F00203060FFF7DDFCC0F800901821B4
:100DC000084616E0B8F5FA7F18DD002F02DAF7487A
:100DD000784401E0F6487844D0E90010C6E90010F4
:100DE00040EACA707060FFF7C5FCC0F8009014219B
:100DF00008460FB0BDE8F04F08F06AB80021084679
:100E00004FF00000B8F10001099002DAC7F10002CA
:100E100000E03A4601DAC8F1000106A800F0C0FB84
:100E200006AB93E8070003AB83E8070044F23E00FB
:100E30005BEA04010090584604D144F21E012C469E
:100E40005D460091210C0904014306D10099240458
:100E500044EA15442D041039009104F07F41014308
:100E600006D10099240244EA15642D020839009144
:100E700004F07041014306D10099240144EA15743D
:100E80002D01091F009104F04041014306D1009952
:100E9000A40044EA9574AD00891E009104F000415D
:100EA000084304D100986D196441401E00904FF032
:100EB00001033A466846B8F1000FCDE9014503A9A0
:100EC00002DD06F0CEFF01E006F0A1FFBAF1000F4F
:100ED00004460D4601D084F00044002108464FF03E
:100EE0000000099940F2FF77484010F00C0F07D13D
:100EF00024F00040284303D0C4F30A50B84212D172
:100F0000FFF738FCC0F80090C4F30A50B8420AD189
:100F1000A8487844D0E90010C6E9001004F0004168
:100F20000843706042E7C6E900543FE72DE9FF4FF0
:100F30001F464FF0000A4FF0FF38454691B0D7E901
:100F40000146CDF83CA000F035FAC0680168405C6D
:100F50001090B96912986D1C8847396A8146884794
:100F60000028F6D1B9F1FF3F0AD0002E24F4D06456
:100F700011DDB9F12B0F08D0B9F12D0F0BD102E023
:100F8000404615B013E744F48064B96912986D1CAB
:100F90008847761E8146600504A901D52D2000E012
:100FA0002B20002E01F1010B0DF130088DF81000FF
:100FB0003FDDB9F1690F08D0B9F1490F05D0B9F19A
:100FC0006E0F02D0B9F14E0F1CD13B4601A800951F
:100FD00080E85002DDE912126FF0020007F0E1FF35
:100FE000C11CCED10EE0B96912986D1C88478146AC
:100FF0001398761E44F4007405600F98401C002E70
:101000000F9016DDB9F1300FEDD0B9F1780F02D0A5
:10101000B9F1580F0DD10F9801280AD13B46CDE9FF
:101020000054DDE91212001F029607F0B8FFC11C40
:10103000A7D1109989453ED144F0800406E0139968
:10104000681CAAF1010A44F400740860B9696D1CB7
:101050001298761E884730288146F0D02BE01099F0
:10106000894505D1200603D4761E44F0800418E09B
:10107000484607F078F908B3761E0DF12302934530
:10108000A9F1300044F4007406D20BF8010B2006DD
:1010900007D5AAF1010003E0200602D40AF10100FD
:1010A0008246A00502D51399681C0860B969129898
:1010B0006D1C88478146002ED1DC53E0002E51DDA7
:1010C000B9F1650F02D0B9F1450F4BD1A00549D553
:1010D000B9696D1C1298761E24F440748847002E5E
:1010E00081460CDD2B2804D0B9F12D0F07D144F433
:1010F0008074B96912986D1C8847761E8146E00598
:1011000001D52D2100E02B2108F8011BCDF800802E
:1011100021E0761E0DF13901884544F400740CD2AB
:10112000A9F1300010F0FF0088F8000002D100990A
:10113000884509D908F1010806E0E00501D51E48F7
:1011400001E042F20F708246B96912986D1C88471F
:10115000814613980560002E04DD484607F003F928
:101160000028D6D1F96912988847FF2053468BF89A
:10117000000088F8000000200A900B9004AA0CA937
:101180000AA8FFF7ADFDA00502D46FF00100F8E654
:1011900014F0240F12D0E0071CD13868DDE90A12E0
:1011A000031D3B600068C0E9001213E028830000C3
:1011B0001A830000DE810000F1D8FFFF0AA968460B
:1011C00007F0BEF8E00705D13868009A011D3960C4
:1011D000006802602846D4E6426842B1016811F80E
:1011E000013B23B1521EC0E900121846704701218D
:1011F000C160881E704742685AB1C368016843B92C
:1012000083688B4205D0491E521CC0E900120020A1
:1012100070474FF0FF3070470FB40B0010B54FF020
:1012200000048AB00FA900910E99CC60234C7C4435
:10123000234A7A44CDE9064200D004236FF00042ED
:10124000CDE901321F4A7A446B46089202460020DB
:1012500007F0A3FE0AB010BC5DF814FBF0B507461A
:101260004FF0FF301E4615460C463B4685B06A4699
:101270000091CDE9010131460020049004A8FFF758
:10128000CBFF04990346601825B109B1024600E07E
:1012900022462A6000290ED0002B02DD00998142EF
:1012A00009D03B466A463146001B0094CDE9010453
:1012B00004A8FFF7B1FF05B0F0BD0000A7FFFFFFD6
:1012C000C1FFFFFF230200002DE9F04791460F46C2
:1012D00080460446002614F8015B2DB100F062F848
:1012E0000068405DC007F6D12B2D02D02D2D18D0FF
:1012F000641E4A463946204600F002F927B1396893
:10130000A14201D1C7F800804FF0020471050BD54E
:101310004042002803DDFFF72DFA0460A007BDE876
:10132000F08746F48066E4E70028F8DAFFF722FA4F
:1013300004606FF00040F2E710B5203AC0F00B8077
:10134000B1E81850A0E81850B1E81850A0E81850BB
:10135000203ABFF4F5AF5FEA027C24BFB1E8185031
:10136000A0E8185044BF18C918C0BDE810405FEA93
:10137000827C24BF51F8043B40F8043B08BF70470F
:10138000D20728BF31F8023B48BF11F8012B28BF14
:1013900020F8023B48BF00F8012B70470048704717
:1013A0001C01002010B500F005F8001D10BD00BFA5
:1013B00081700000004870473C010020B2F120031A
:1013C0000AD5C2F1200301FA02F120FA03F341EA3F
:1013D000030100FA02F0704700FA03F14FF0000039
:1013E000704730B5B0F10A0271F100034FEA900E78
:1013F0004EEA817EB0EB0E0061EB91014FEA101EC8
:101400004EEA017E10EB0E0041EB11114FEA102E57
:101410004EEA016E10EB0E0041EB11214FEA104E27
:101420004EEA014E10EB0E0041EB1141401841F124
:1014300000014FEAD00040EA41704FEAD1014FEA83
:10144000810444EA907410EB800544EB01046D19AB
:1014500044EB0404521BA3414FF0000348BF0A327F
:1014600000D530BD401C41F1000130BD10B504462F
:10147000FFF798FF0068005D00F0010010BD00005C
:101480002DE9F0411F46044603260168072A01F4AE
:10149000006004DB08B116A505E016A503E008B15D
:1014A00015A500E015A521F010002060A069C01E60
:1014B000A0610FB1401EA0612046AFF300804FB184
:1014C000D4E9012138469047206A401C2062C01CA4
:1014D000206206E0206AFAE7D4E9012115F8010B41
:1014E0009047761EF8D22046AFF30080BDE8F08129
:1014F0004E414E006E616E00494E4600696E6600B8
:101500002DE9F05F824615468B4600270AF101045B
:10151000B9460078302801D09DB113E014F8010BD2
:101520000127782803D0582801D045B10AE00DB131
:10153000102D07D1002714F8010B102502E0082513
:1015400000E00A250026B0460EE005FB080005FB7A
:1015500006F101271FFA80F801EB1046B6F5803F2F
:1015600000D3B94614F8010B294600F077F900289A
:10157000EBDABBF1000F05D00FB1641E00E054465A
:10158000CBF80040B9F1000F06D0FFF7F3F80221C5
:101590000160C81EBDE8F09F48EA0640FAE7000077
:1015A0002DE9F047814616468AB0354878440DC883
:1015B0008DE80D0032487844801C03AC0DC884E8E7
:1015C0000D0041F69B300844372190FBF1F290FB6F
:1015D000F1F5A5F1800501FB12041B3C02D5644224
:1015E000012000E00020DFF898A080460027FA44A0
:1015F000AAF1BE0A0EE0E0070AD03246684607EBC1
:10160000470101230AEB810106F016FC8DE8070073
:1016100064107F1C002CEED1194F7F44AE3F19E0BF
:10162000E80715D007EB04100DF1180A90E80E003A
:101630008AE80E00C068F04201D19819089032463D
:10164000012306A903A806F0F7FB03AB83E8070014
:101650006D10641C002DE3D14FF001033246694642
:10166000B8F1000F03A802D006F0BCFB01E006F0C1
:10167000E3FBC9E90001C9F808200AB0BDE8F0871A
:10168000A47A0000007B00F08000704710B542484B
:101690005421FFF706F841485421FFF702F840486B
:1016A0005421FEF7FEFF3F493B483C4A3F4B086050
:1016B0003D490A603A491960531C0365481C10658E
:1016C000012008653B48344A39A1784400F022FBE8
:1016D00020B9384878440A3800F0C3FB37482F4A0D
:1016E00035A1784400F016FB20B9344878440A3814
:1016F00000F0B7FB32482A4A2FA1784400F00AFBD9
:1017000020B92F4878440A3800F0ABFB4023224828
:10171000DC000021224600F0D9FA20B125487844A7
:10172000543800F09EFB1D4822464023002100F063
:10173000CDFA20B121487844543800F092FB184883
:1017400022461023002100F0C1FA002806D01C48D0
:101750007844BDE81040563800F083BB10BD1048F7
:1017600070B5006D20F001040B4800F04BFB0B48F6
:1017700000F048FB0A4800F045FB09E0206D20F02E
:101780000105204600F03EFB204600F040F82C46C4
:10179000002CF3D170BD0000200000207400002058
:1017A000C8000020000000200400002008000020E5
:1017B00072000000BE79000077000000AD790000E3
:1017C000867900007546FFF7E9FDAE4605006946DB
:1017D000534620F00700854618B020B5FEF764FD9B
:1017E000BDE820404FF000064FF000074FF0000822
:1017F0004FF0000BAC46ACE8C009ACE8C009ACE85F
:10180000C009ACE8C00921F007018D46704770B5EA
:101810000446051F00F02CFB0068002C14BF446830
:1018200070BD002C18BFAC423CBF20466468F8D3A2
:1018300001680A18AA4218BF456003D12A68054604
:101840001144016028684119A1421CBF6C6070BD41
:101850006168696021680844286070BD3A2800D238
:10186000303820F02002412A01D3A2F1370088420B
:1018700001D34FF0FF3070472DE9FF4F1F464FF067
:101880003C0987B04FF00042DDE9141001F1010876
:10189000DDF858A002EA40500390002005908346EE
:1018A000054604460490B969461E08988847AAF17F
:1018B000010A0290BAF1000F3BDD02982E2815D0E4
:1018C0001021FFF7CBFF00282EDB4FF0010B05990D
:1018D000014317D0B9F1000F0BDB4A46C117FFF7E0
:1018E0006DFD05430C43A9F1040905E001200490B6
:1018F0000BE008B145F0010501200590049820B9DE
:10190000361D02E0049800B1361FB969089808F145
:1019100001088847BBF1000FAAF1010A0290C9D063
:101920000999C1F80080C5E70298702808D05028AE
:1019300006D0F96908988847BBF1000F14D04FE032
:10194000002002900120BBF1000F049009D0B9697A
:10195000089808F101088847AAF10109B9F1000FB8
:1019600007DCF969089888476FF001000BB0BDE803
:10197000F08F2B2804D02D280CD14FF0FF3004908D
:10198000B969089808F101088847A9F10109B9F176
:10199000000FE6DD411CE4D00A21FFF75FFF0028BD
:1019A000DFDB029908F1010801EB810100EB410046
:1019B0000290B969089888470A21FFF74FFF099AF2
:1019C000A9F10109B9F1000FC2F8008001DD00287A
:1019D000E7DAF969089888470499029800FB0166DC
:1019E00055EA040004D004F04041090002D006E0AA
:1019F000039898E0A40044EA9574AD00B61E04F084
:101A00000041080002D16D196441761E159810F04E
:101A1000240F03D04FF00B095C4803E04FF0280976
:101A20006FF07D008246564507DAAAEB060189442D
:101A3000B9F1410F01DD4FF0410901200021A9F169
:101A40000102FFF7BBFC024628400B462140084339
:101A500001D0012100E00021501E029143F1FF312D
:101A600028402140084301D0012000E000200299D5
:101A7000834651EA0B014FD0002108464FF0000089
:101A8000039900F4400039B100EB80004FF44001AD
:101A900000EBD07001EA60008015012802DD4FF0F4
:101AA000FF3000E013D0401C36D0029860B3BBF189
:101AB000000F0CD14A4601200021FFF77FFC28408F
:101AC0002140084301D0012000E00020E0B10120C6
:101AD0004A460021FFF772FC034640190A4661415D
:101AE0002D1A8C4111D3B9F1400F09DD159810F072
:101AF000240F02D0AAF1340603E0AAF1170600E091
:101B0000761C00254FF0004406E05B1E42F1FF32D8
:101B100020EA030521EA0204CAF10100B04206DA14
:101B20001B49039808430190002000900EE0039A9F
:101B3000C4F3D321E80A0A43164940EA44500A4351
:101B40003146CDE90002684606F003FC159810F016
:101B5000240F0BD01598C00715D13868DDE90012A5
:101B6000031D3B600068C0E900120CE002A8694652
:101B700006F0E6FB1598C00705D13868029A011DEA
:101B80003960006802604046F0E6000002FCFFFF9A
:101B90000000F07F0000F03F2DE9FF4F92461D4608
:101BA00085B04FF00041DDE9124BDDE914727F1E74
:101BB00001EA4B50414940F0FF4940EA0108002149
:101BC00022F020004928049102D04E2828D04CE071
:101BD0003BA0012607C88DE80700A9690698641C88
:101BE00088477F1E014606D41DF8060018B121F073
:101BF000200181420BD0E96906988847032E34D032
:101C0000082E32D06FF0010009B0BDE8F08F761CCD
:101C1000032E01D0082EE0D1601CCAF80000DCE7DA
:101C2000A9690698641C88477F1E2AD420F02000EA
:101C3000412826D1A9690698641C88477F1E20D4B4
:101C400020F020004E281CD1A9690698641C884702
:101C50007F1E48F4002849F48009CAF8004001D4E6
:101C6000282806D0E969069888475FEACB7012D029
:101C700022E0A9690698641C88477F1E01D40028C9
:101C800003DAE96906988847BCE72928F1D1641C82
:101C9000CAF80040E9E71BF0240F07D02868049930
:101CA000031D2B600068C0E9001805E02868021DCC
:101CB0002A600068C0F800902046A5E70000F07F89
:101CC000494E46494E4954590000000070B5C46859
:101CD000A50713D0650211D4B2F5807F09D0B2F503
:101CE000007F06D0B2F5806F08D1012300F12401F6
:101CF00006E05D1E6FF07F46B54201D3012070BD46
:101D00000161C361416024F470611143C16000202E
:101D100070BD00002DE9F0410C461646070047D083
:101D2000104600F06FF82078611C61280AD07228F4
:101D300002D077283CD102E00125002405E00225ED
:101D4000042402E0082448F2020511F8010B2B28B4
:101D500006D0622809D011F8010C74280AD00BE0D3
:101D600045F0030544F00204EFE745F0040544F0B4
:101D70000104EAE744F010043846214603F0E2FC8F
:101D8000411C15D00021316171604FF40071F56084
:101D9000F1617061200704D530460222002100F075
:101DA000E1F8306D40F0010030653046BDE8F0816B
:101DB0000020FBE72DE9F0410D460646104C206D52
:101DC000C10704D0410804D020F00104F7E72246FF
:101DD0000EE0542000F097F807000ED0206D47F079
:101DE00001010843542120653846FEF75AFC3A4663
:101DF00029463046BDE8F0418CE70020D6E70000D8
:101E0000200000202DE9F04704464FF0FF3800265F
:101E1000C568D4E90497A80718D0204600F05EF9F9
:101E2000384603F07BFC002800DA4646280502D538
:101E30004846FFF7ECFC4C212046FEF732FC206DB3
:101E400020F0010020653046BDE8F0874046FBE702
:101E500010B50446AFF300802046BDE81040FEF701
:101E60000FBA10B500F084F9BDE8104000F07AB95F
:101E70000048704724010020704770477047704742
:101E800038B504460A4600206946AFF300800028B2
:101E900008BF38BD02460099204600F090F90120A5
:101EA00038BD012000F0DFB9F8B5AFF3008005467A
:101EB00000200C46102000BF0646A819A0420DD9EC
:101EC000324669460020AFF30080070008BF00F0EB
:101ED000CAF90098A04218BF0546C419FFF7C8FF09
:101EE00005600746F01D20F007004619284600F05F
:101EF0005FF9B44208BFF8BDA21B31463868BDE89F
:101F0000F84000F05CB970B50646FFF7B1FF056810
:101F100006F10B0020F00704B4429CBF002070BD06
:101F20002B466A68BAB11068A04210D304F10801C8
:101F300088423CBF5068586007D35168101941600F
:101F40001168091B016058601460101D70BD1346B4
:101F50005268002AE7D121462846FFF791FF002862
:101F6000DED170BD2DE9F041044616460D464769A5
:101F7000007B80072ED0384603F0DCFB50BB3EB31D
:101F8000012E02D0022E25D104E0204600F031F9C6
:101F900005441DE0384603F0CBFBE168002841F022
:101FA0001001E16005DA204600F058F80120BDE894
:101FB000F081C9030BD56268E16A914200D81146ED
:101FC000A26911442269891A814200DD084605444C
:101FD000002D01DA0220EAE7E16A6068E2688142E6
:101FE00006D29103E06203D522F4003141F01002E1
:101FF000A6690027AE4213DCE16A814201D90B4693
:1020000000E0034603EB060C2369ACEB030CAC4584
:1020100006DD814201D98C4600E084469C4505D10D
:10202000A760276042F02000A5620DE0AD1BE669C5
:10203000AE1B8142A66000D90846C01A281A20604B
:102040005819606022F0200003490840E060002039
:1020500084F84870ABE70000BFCFD7FFC16821F418
:10206000001141F08001C160002181600160704772
:102070002DE9F74F15460C464FF0FF3B3848D7681F
:10208000D2F814A0074209D05046A96903F08CFB8E
:10209000002819DB3248C0430740EF604FF0004989
:1020A0006FF000484C4501D3464600E026460099B3
:1020B0003B465046324603F07BFBA96920F00042C4
:1020C000B21A1144A96128B12846FFF7C7FF584644
:1020D000BDE8FE8FA41BE5D10020F9E770B50446EA
:1020E0000569C06A6168884200D80846E16821F441
:1020F0002011E160C90312D5A84208D02246411B35
:102100002846FFF7B5FF10B14FF0FF3070BD00203B
:10211000E562C4E90150E06820F48030E06000200E
:1021200070BD10B50446C06820F02000E060A16AD0
:10213000A06988420DD02046FFF7D0FFE06820F468
:10214000405040F01000E060A06AA0612069E062A9
:10215000606044F24001E0688843E06010BD000028
:1021600010000200002801D000F01CB870470000E9
:1021700010B5014602A000F05DF8012010BD00007E
:1021800053494752545245443A2052656469726536
:1021900063743A2063616E2774206F70656E3A2015
:1021A0000000000001491820ABBEFEE72600020037
:1021B00000210160C0E901107047102070470346FC
:1021C00040688C46002818BF88423CBF03464068E0
:1021D000F8D318681844884207D00CF1030020F0A7
:1021E0000700001D411A521A0146081D0A60FFF738
:1021F0000EBB10B50146C268900703D0900607D504
:10220000886A0AE0FEF7B6FA01210160881E10BD57
:102210008B69486818440B69C01A91F848301BB1A3
:1022200091F84910401A10BD1103FCD50028FADDC1
:10223000401E10BD70B505460C460A2000E06D1C1E
:1022400003F0D6FA35B128780028F8D102E0641CF2
:1022500003F0CEFA14B120780028F8D1BDE8704020
:102260000A2003F0C5BA10B500F006F8BDE810402A
:10227000FFF778BF7047000010B5012805D0002196
:1022800003A0FFF7D7FF012010BD09A1F8E7000068
:1022900053494752544D454D3A204F7574206F664F
:1022A0002068656170206D656D6F727900000000B7
:1022B0003A2048656170206D656D6F727920636F9B
:1022C0007272757074656400FEE70000704700006C
:1022D000082000F07FB80000102000F07BB800005C
:1022E000202000F077B80000EFF3108072B600BF36
:1022F000FEE7000070B5866D044600F051F994F8D1
:102300003510022928D105462068216C026822F088
:1023100016020260426922F08002426109B9A16C92
:1023200019B1016821F008010160016821F0010183
:10233000016000BF20680068C00715D000F030F9C8
:10234000401B0628F6D320206065032084F8350062
:10235000002184F8341070BD8020606501200021C8
:1023600084F8341070BD00BFE06D3F2101FA00F029
:10237000B060012084F835000020002184F834107A
:1023800070BD000090F83510022909D1052180F8B0
:1023900035100068016821F00101016000207047DC
:1023A0008021416501207047B0B5044600F0F8F87F
:1023B000054640F20C00C2F200000078611C18BF14
:1023C000044400BF00F0ECF8401BA042FAD3B0BDBB
:1023D0007047000043F61441C4F201010A6802424A
:1023E00014BF08607047FFF7F3BF00002DE9F04FFE
:1023F00082B000F13E4242F2004502F1FF77C4F2A2
:1024000002050A2243F6004E4FEAB726A84208BF4B
:102410000922C4F2010E092E38BF4FEAB722012566
:10242000002600274FF00008009208E008F101089C
:102430000437B8F1100F06F1020600F0A7800C680F
:1024400005FA08F914EA090FF0D0D1F804B0032214
:102450000BF0030CACF10104B240012C6FEA020A4C
:1024600010D88268CC6802EA0A02B4402243826033
:102470004268CBF3001422EA090204FA08F422436A
:10248000426005E0BCF1030F02D14FF0030C20E0E5
:10249000C2688C6802EA0A02B4402243BCF1020F0F
:1024A000C26016D16FF0030202EA58020244D2F869
:1024B00020C007F01C050F230C69AB402CEA030376
:1024C00004FA05F52B431362D1F804B001250BF093
:1024D000030C02680CFA06F302EA0A021A431BF420
:1024E000403F0260A2D0002243F644030192C4F2AE
:1024F00002031A684FF6084C42F480421A601A68C8
:10250000CFF6FF7C02F480420192019A28F0030288
:10251000724452F80C3007F00C050F24AC40A34372
:10252000009C04FA05F52B4342F80C30DEF8082035
:102530004B6842EA090543F60C4CDC0258BF22EA1C
:102540000905CEF80850C4F2010CDCF800209C020A
:1025500042EA090558BF22EA0905CCF80050DEF826
:1025600004209C0342EA090558BF22EA0905CEF877
:102570000450DEF80020DB0342EA090558BF22EAD6
:102580000905CEF80050012550E700BF02B0BDE8B4
:10259000F08F0000002A08BF090481617047000025
:1025A00044F68800C2F200000068704790F83D20B1
:1025B000202A1CBF02207047242280F83D20026898
:1025C000136823F001031360536A23F0100353626E
:1025D000536A19435162116841F0010111602021D1
:1025E00080F83D100020704790F83D20202A1CBF45
:1025F00002207047242280F83D20026889B21368C7
:1026000023F001031360D2F824C04FF6F07303EAFD
:102610000C0319435162116841F00101116020213E
:1026200080F83D100020704770B5B8B3044690F8AC
:102630003D0028B9002084F83C00204600F0B0F8A6
:10264000242084F83D002068016821F00101016028
:10265000016841F400410160016821F4004101601A
:1026600000F09AFA48F28041C0F21E0140F60013D1
:10267000D4F804E088424FF00001C0F23D0348F274
:10268000A16C4FF0000238BF01219842C0F2010C4A
:1026900038BF0122E64538BF0A460AB1012070BDA5
:1026A0004DF68361C4F21B31A0FB01122168950C29
:1026B0004B684FF4967623F03F0343EA9243754309
:1026C00044F6D3564B60C1F262060B6AA5FB065670
:1026D000B50923F03F03E64538BF950C6A1C1A4341
:1026E0000A62CA6948F2A0664CF6FF73C0F201069E
:1026F000B64522EA03020BD801384FEA4E03B0FB7D
:10270000F3F001306FF31F30042898BF04201EE05F
:10271000A368013863B119230EFB03F3B0FBF3F098
:1027200001306FF31F3078B100F5804008E000BF42
:102730000EEB4E03B0FBF3F001306FF31F3028B106
:1027400000F5004003E000BF012000E0012010433D
:10275000C8610868D4E9072320F0C000104318437B
:102760000860886848F2FF3204F10C0690434CCEB2
:1027700018431043A5698860C86820F0FF00304303
:102780002843C860086840F001000860002020214C
:10279000206484F83D10206384F83E0070BD000082
:1027A000B0B586B0016845F20040C4F20000814235
:1027B00002D006B0B0BD00BF002443F6300501943E
:1027C000C4F20205296800F5D83041F00201296001
:1027D000296801F00201019101994FF440710191C2
:1027E0001221CDE90214032104910421059101A9CC
:1027F000FFF7FCFD0094286940F400102861286967
:1028000000F400100090009806B0B0BD40F20C003B
:1028100044F68801C2F20000C2F2000100780A68A2
:10282000104408607047000080B543F60040C4F2D1
:102830000200016841F400710160016841F48061A7
:102840000160016841F480710160032000F0C4F868
:102850000F2000F005F800F05DF8002080BD0000BA
:10286000B0B586B0002543F644010195C4F20201DB
:102870000A68044642F001020A60096801A801F0F2
:10288000010101910199694600F066F900F098F99B
:102890004DF683614000C4F21B31A0FB01014FF0F3
:1028A000FF3000EB914140F2D8400022C2F200001C
:1028B000C4F2010240F2E733C0E90021C0E902534B
:1028C0000561856100F0E0FB054618B1284606B0B9
:1028D000B0BD00BF40F2D840C2F2000000F024FCBE
:1028E00005460028F2D1192000F036F80F2C0DD83B
:1028F000192021460022002500F042F840F2100085
:10290000C2F200000460284606B0B0BD012528468A
:1029100006B0B0BD82B0002043F640010190C4F281
:1029200002014A6842F480424A604A6802F48042E6
:102930000192019A00900868002240F080500860DF
:1029400008680F2100F08050009000986FF001009F
:1029500002B000F015B80000002848BF7047C1B2AF
:1029600000F01F00012202FA00F04EF20012CEF237
:10297000000242EAD10121F0030108607047000023
:1029800010B54EF60C5CCEF2000CDCF80030C3F350
:10299000022E8EF00704042C28BF0424BEF103038A
:1029A0004FF0FF3E0EFA04F438BF0023A1439940D4
:1029B0000EFA03F39A43114300F00F0200F1604353
:1029C0000901043A03F564436244002848BF02F158
:1029D0000C03197010BD00004EF60C51CEF2000130
:1029E0000A684FF6FF031A4060F30A2242F0806043
:1029F00040F0FD70086070472DE9F041002800F0BC
:102A00008B8043F60808C4F202080446D8F8F8039D
:102A10000D4600F00F00884207D288F8F853D8F826
:102A2000F80300F00F00A84276D12068810717D57F
:102A3000410705D5D8F8001041F4E051C8F800105E
:102A4000010705D5D8F8001041F46041C8F800101E
:102A5000D8F80010A26821F0F0011143C8F8001066
:102A6000C0073FD1D8F8F80300F00F00A84207D9FB
:102A700088F8F853D8F8F80300F00F00A8424BD1BB
:102A80002068410707D5D8F80010E26821F4E0512A
:102A90001143C8F80010000708D5D8F800002169D4
:102AA00020F4604040EAC100C8F8000000F09CF843
:102AB000D8F8001049F26C02C1F30311C0F600020D
:102AC000515C40F2140220FA01F140F21000C2F20F
:102AD00000000068C2F200021160FFF7C1FE002092
:102AE000BDE8F0816068811E022907D258F8081CF1
:102AF00089015CBF0120BDE8F08111E0012807D108
:102B000058F8081C89035CBF0120BDE8F08107E08C
:102B100058F8081C890703D40120BDE8F08100BFE4
:102B2000D8F8001021F003010843C8F80000FFF7AF
:102B300037FD064641F28837D8F80000616800F09A
:102B40000C00B0EB810F8DD0FFF72AFD801BB8423F
:102B5000F2D90320BDE8F0810F22026043F608029B
:102B6000C4F20202136803F003034360136803F026
:102B7000F0038360136803F4E053C360D2F800C02D
:102B80004FF4E05303EADC030361D2F8F80300F0EA
:102B90000F0008607047000040F2140043F608017F
:102BA000C2F20000C4F202010068096849F27C0226
:102BB000C1F38221C0F60002515CC840704700009A
:102BC00040F2140043F60801C2F20000C4F2020110
:102BD0000068096849F27C02C1F34231C0F6000284
:102BE000515CC8407047000010B543F60404C4F2BD
:102BF0000204606800F00C0142F200400829C0F2B3
:102C0000F40007D0042918BF10BD41F20020C0F223
:102C10007A0010BD216801F03F0221682368490253
:102C2000C3F3881106D4A1FB00010023FDF74EFB7E
:102C300007E000BF41F20020C0F27A004843B0FB39
:102C4000F2F021680222C1F3014102EB4101B0FB25
:102C5000F1F010BD2DE9F04182B0002868D00446A3
:102C6000007843F60006C007C4F202060BD0B06835
:102C700000F00C00042840F09F803068800302D5EB
:102C80006068002854D0207880071AD5B06810F00A
:102C90000C0F09D0B06800F00C00082840F0A680A6
:102CA0007068400200F1A2803068800702D5E068B9
:102CB00001283DD13068216920F0F80040EAC100C8
:102CC00030602078000737D4207840074CD4A569BD
:102CD00055B3B06800F00C00082840F0BB80012D0F
:102CE00026D07068E16900F480028A4220D1216A0E
:102CF00000F03F028A421BD147F6C071626A014070
:102D0000B1EB821F14D1A16A4FF6FF73C903994337
:102D100000F44032A1F580318A4209D1E16A00F025
:102D20007060B0EB016F03D1002002B0BDE8F0810C
:102D3000012002B0BDE8F0816069002840F2000087
:102D4000C4F2472076D00121C0F8801EFFF728FC8E
:102D5000054600BF706F8007B6D4FFF721FC401B0B
:102D60000228F7D9DDE000BF306C10F080580AD19E
:102D700000200190306C40F080503064306C00F0E6
:102D800080500190019847F20007C4F200073868AC
:102D9000C00541D4386840F480703860FFF700FC0B
:102DA000054600BF3868C00536D4FFF7F9FB401B65
:102DB0000228F7D9B5E000BFB06800F00C00082881
:102DC00003D1706840023FF558AF6068B0F5803FAE
:102DD00007D0B0F5A02F40F08D80306840F48020FF
:102DE0003060306840F4803030608DE0E06800286A
:102DF00052D00020C4F2472001210160FFF7D0FB30
:102E0000054600BF306880073FF554AFFFF7C8FBA9
:102E1000401B0228F6D984E0A068012805D00528C7
:102E20004ED1306F40F004003067306F40F0010049
:102E300030674FE00021C0F8801EFFF7B1FB054668
:102E4000706F80077FF540AFFFF7AAFB401B022899
:102E5000F6D966E00027C4F2472700203866FFF75E
:102E60009FFB022D05460BD1306880015ED5FFF730
:102E700097FB401B02284FF00300F5D955E700BF30
:102E8000306880017FF550AFFFF78AFB401B0228B6
:102E90004FF00300F4D948E70020C4F24720002196
:102EA0000160FFF77DFB0546306880077FF509AFBD
:102EB000FFF776FB401B02284FF00300F4D934E7FC
:102EC000316F002821F001013167316F21F00401D9
:102ED00031674DD0FFF764FB054641F2883700BFEC
:102EE000306F800756D4FFF75BFB401BB842F7D921
:102EF00017E000BF3168002821F48031316031686B
:102F000021F4802131604FD0FFF74AFB054600BF16
:102F1000306880033FF5B7AEFFF742FB401B6428E3
:102F2000F6D9032002B0BDE8F08100BF04F11C0512
:102F30002FCD084340EA8210D9034FF6FF72914328
:102F4000A1F5803140EA05600843706001203866D1
:102F5000FFF726FB044600BF306880013FF5E4AE72
:102F6000FFF71EFB001B02284FF00300F4D9DCE63C
:102F7000FFF716FB054641F2883700BF306F800728
:102F800008D5FFF70DFB401BB8424FF00300F5D901
:102F9000CBE600BFB8F1000F7FF499AE306C20F0A3
:102FA0008050306493E600BFFFF7FAFA054600BF91
:102FB000306880037FF567AEFFF7F2FA401B6428A4
:102FC0004FF00300F4D9B0E67047000070470000EE
:102FD00010B590F83C20012A4FF0020251D080F841
:102FE0003D200268D2F804E0D2F808C00C682EF048
:102FF0007003234341F2FF74C4F20004A242536001
:103000000EDC40F2FF73C4F200039A4216DCB2F108
:10301000804F2BD040F20043C4F2000324E000BFF5
:1030200040F2FF33C4F201039A4213DC41F600037D
:10303000C4F200039A4219D0002313E040F60003C3
:10304000C4F200039A4211D040F60043C4F20003D8
:103050000AE000BF44F20003C4F201039A4205D023
:1030600040F20043C4F201039A4204D149682CF0B3
:103070008003194391600121002280F83D1080F8FF
:103080003C20104610BD0000002804BF01207047FE
:1030900010B5044690F83D0028B9002084F83C00A3
:1030A000204600F01FF8022084F83D002068211D12
:1030B00002F08AF9012084F8460084F83E0084F882
:1030C0003F0084F8400084F8410084F8420084F80E
:1030D000430084F8440084F8450084F83D00002053
:1030E00010BD000080B582B00068B0F1804F1CBFF9
:1030F00002B080BD0020019043F64000C4F20200FF
:103100000168002241F0010101600068052100F022
:103110000100019001981C20FFF732FC1C2002B036
:10312000BDE88040FFF718BC90F83D1001291CBF96
:1031300001207047022180F83D10006841F2FF72C3
:10314000C168C4F20002904241F00101C1600DDC8F
:1031500040F2FF71C4F20001884215DCB0F1804FEB
:103160002AD040F20041C4F2000123E040F2FF31D6
:10317000C4F20101884213DC41F60001C4F20001EF
:10318000884219D0002113E040F60001C4F200018A
:10319000884211D040F60041C4F200010AE000BFAD
:1031A00044F20001C4F20101884205D040F200411E
:1031B000C4F20101884206D1816801F007010629A5
:1031C00004BF00207047016841F001010160002048
:1031D0007047000080B590F83C20012A4FF00202B1
:1031E00000F0C28080F83D20D0F800C04FF6777222
:1031F000DCF8083023EA0202CCF808200B684F2BD9
:1032000028DC1F2B44DD202B45D0302B43D0402B16
:1032100040F0AC80D1F804E0C968DCF82030DCF87C
:10322000202022F00102CCF82020DCF8182022F027
:10323000F00242EA011123F00A0242EA0E02CCF83F
:103240001810CCF82020DCF8081041F0470121F0DC
:10325000300180E06F2B27DDB3F5005F48D0B3F578
:10326000805F7AD0702B40F08180D1E901E3C9689A
:10327000DCF8082043EA0E0322F47F4243EA0121EE
:103280001143CCF80810DCF8081041F0770162E037
:103290000BB1102B6AD1DCF8081021F07001194332
:1032A00041F0070157E000BF502B35D0602B5DD1B6
:1032B000D1F804E0C968DCF8203023F01003CCF822
:1032C0002030DCF81830DCF8202023F4704322F0A2
:1032D000A00243EA013142EA0E12CCF81810CCF8F1
:1032E0002020DCF8081041F0670121F0100132E0E5
:1032F000D1E901E3C968DCF8082043EA0E0322F4AF
:103300007F4243EA01211143CCF80810DCF8081091
:1033100041F480411FE000BFD1F804E0C968DCF847
:103320002030DCF8202022F00102CCF82020DCF84C
:10333000182022F0F00242EA011123F00A0242EAC8
:103340000E02CCF81810CCF82020DCF8081041F060
:10335000570121F02001CCF808100022012180F84B
:103360003D10002180F83C10104680BD0122F5E799
:103370007047000010B5016804460869800744BF23
:10338000C8685FEA807039D40869400744BFC868DC
:103390005FEA40703ED40869000744BFC8685FEA2E
:1033A000007045D40869C00644BFC8685FEAC060C1
:1033B0004AD40869C0071CBFC8685FEAC07051D111
:1033C0000869000644BFC8685FEA006052D4086913
:1033D000400644BFC8685FEA406053D4086980066D
:1033E00046BFC8685FEA806010BD6FF020022046CB
:1033F0000A61BDE81040FFF7E9BD00BF6FF00200B1
:103400000861012020778869800743D02046FFF7B4
:10341000AFFF45E06FF00400086102202077886963
:1034200010F4407F40D02046FFF7A2FF42E000BFEB
:103430006FF00800086104202077C86980073DD03C
:103440002046FFF795FF3FE06FF01000086108206D
:103450002077C86910F4407F3AD02046FFF788FFF4
:103460003CE000BF6FF001000861204600F03EF82C
:103470002168A5E76FF0800008612046FFF7A4FDF2
:103480002168A4E76FF040000861204600F038F89A
:103490002168A3E7204600F025F8204600F024F834
:1034A0002168002020776FE7204600F01BF82046B7
:1034B00000F01AF82168002020776CE7204600F021
:1034C00011F8204600F010F821680020207769E705
:1034D000204600F007F8204600F006F8216800209A
:1034E000207766E770470000704700000068002101
:1034F000C4F20101884218BF7047FFF787B9000086
:10350000704700007047000070470000B0B582B0FF
:10351000044600680168C368426901F02F05202D48
:1035200003F0200506D12DB1204602B0BDE8B04021
:1035300001F0EEBF5FEA017C1EBF02F0010E03F452
:10354000907212EB0E0253D1226B012A05D111F0B9
:10355000100218BF13F0100236D10A0622D513F05C
:1035600080021FD094F83D1021293FD1A168B1F508
:10357000805F03D12169002900F07282216A4A1C10
:10358000226209784160E18C01390A04E1842DD17D
:10359000C16821F08001C160C16841F04001C16093
:1035A00002B0B0BD490621D513F040011ED0C1685C
:1035B00021F04001C1602021204684F83D1002B076
:1035C000BDE8B04000F096BB002101910168019177
:1035D0004168019101994069400613D4A08DE18DA5
:1035E000E28D002A18BF884240F0BE8102B0B0BD13
:1035F000CA0718BF13F4807240F0BA804A0700F17E
:10360000BD80C2E0A16B0868426893B2002BEDD088
:10361000A08D8342EAD2E285C969B1F5807F00F0CE
:103620009D80206850E8030F216820F4807041E8F5
:103630000302DAB1206850E8030F216820F480709B
:1036400041E8030292B1206850E8030F216820F49A
:10365000807041E803024AB1206850E8030F2168F6
:1036600020F4807041E80302002ADAD1206850E893
:10367000050F216820F0010041E80502DAB1206859
:1036800050E8050F216820F0010041E8050292B1E1
:10369000206850E8050F216820F0010041E805028C
:1036A0004AB1206850E8050F216820F0010041E888
:1036B0000502002ADAD1206850E8050F216820F0C1
:1036C000400041E80502DAB1206850E8050F2168A2
:1036D00020F0400041E8050292B1206850E8050F53
:1036E000216820F0400041E805024AB1206850E816
:1036F000050F216820F0400041E80502002ADAD1D8
:10370000202084F83E0000202063206850E8030F4A
:10371000216820F0100041E80302DAB1206850E887
:10372000030F216820F0100041E8030292B12068E5
:1037300050E8030F216820F0100041E803024AB16D
:10374000206850E8030F216820F0100041E80302D0
:10375000002ADAD1A06BFEF7CDFDA08DE18D401AD5
:1037600081B2204602B0BDE8B040FFF7CBBE00BF3B
:10377000226C42F0010222644A0706D5BEF1000F16
:1037800003D0226C42F0020222648A0706D5BEF101
:10379000000F03D0226C42F004022264BCF1000F3F
:1037A00009D545EA0E02B2FA82F2520903D1226C1F
:1037B00042F008022264226C002A3FF417AF11F095
:1037C000200118BF002D03D0204601F0A1FE206883
:1037D0004069216C00F0400001F00801401800F041
:1037E000B58000BF206850E8030F216820F4907076
:1037F00041E80302BAB3206850E8030F216820F4BF
:10380000907041E8030272B3206850E8030F21680A
:1038100020F4907041E803022AB3206850E8030FB7
:10382000216820F4907041E80302002ADAD11AE0FE
:10383000206850E8050F216820F0010041E80502EA
:10384000DAB1206850E8050F216820F0010041E856
:10385000050292B1206850E8050F216820F00100B0
:1038600041E805024AB1206850E8050F216820F0C0
:10387000010041E80502002ADAD1206B012824D199
:10388000206850E8030F216820F0100041E803028F
:10389000DAB1206850E8030F216820F0100041E8F9
:1038A000030292B1206850E8030F216820F0100055
:1038B00041E803024AB1206850E8030F216820F074
:1038C000100041E80302002ADAD1202084F83E00EB
:1038D000002020632068406940063FD5206850E8FA
:1038E000050F216820F0400041E80502DAB12068A8
:1038F00050E8050F216820F0400041E8050292B130
:10390000206850E8050F216820F0400041E80502DA
:103910004AB1206850E8050F216820F0400041E8D6
:103920000502002ADAD1A06BC0B145F20551C0F6FC
:1039300000010165FEF726FD00283FF457AEA06B9D
:10394000016D02B0BDE8B040084700BF2046FFF758
:10395000DBFD0020206402B0B0BD00BF204602B0F5
:10396000BDE8B040FFF7D0BD401A216851E8031F01
:10397000226821F4907142E80313DBB1216851E819
:10398000031F226821F4907142E8031393B1216868
:1039900051E8031F226821F4907142E803134BB1F0
:1039A000216851E8031F226821F4907142E8031353
:1039B000002BDAD1216851E8051F226821F00101AE
:1039C00042E80513DBB1216851E8051F226821F0A8
:1039D000010142E8051393B1216851E8051F2268EF
:1039E00021F0010142E805134BB1216851E8051FA0
:1039F000226821F0010142E80513002BDAD12021D1
:103A000084F83E1000212163216851E8031F2268D9
:103A100021F0100142E80313002B3FF4A1AE21680E
:103A200051E8031F226821F0100142E80313002B24
:103A30003FF496AE216851E8031F226821F010017F
:103A400042E80313002B3FF48BAE216851E8031FBB
:103A5000226821F0100142E80313002BD4D17FE645
:103A6000216A31F8022B6FF35F22426021628AE5FE
:103A7000002804BF0120704710B5044690F83D00AF
:103A800028B9002084F83C00204600F021F82420CA
:103A900084F83D002068C16821F40051C1602046CF
:103AA00001F0B6FD2068016921F49041016141698E
:103AB00021F02A014161C16841F40051C160002038
:103AC0002021206484F83D1084F83E1010BD0000D1
:103AD00080B586B0006841F20042C4F201020021C4
:103AE0009042CDE90411CDE9021101913ED044F696
:103AF0000001C4F2000188426CD044F20041C4F2DB
:103B00000001884264D1002043F630010090C4F2E5
:103B100002010A6942F400320A610A6902F40032C1
:103B20000092009A00900A6842F008020A60096850
:103B300001F0080100910099602101910221CDE975
:103B40000210032004900720059040F60040C4F2C4
:103B5000020001A9FEF74AFC262005210022FEF7FB
:103B60000FFF2620FEF7F8FE06B080BD43F63000BA
:103B70000091C4F20200426942F0200242614269AF
:103B800002F020020092009A0091026842F00402C2
:103B90000260006800F0040000900098C0200190CE
:103BA0000220CDE90201032004900820059040F690
:103BB0000040C4F20200A0F5806001A9FEF716FCE7
:103BC000472005210022FEF7DBFE4720FEF7C4FE5A
:103BD00006B080BD002043F630010090C4F202011F
:103BE0000A6942F480220A610A6902F48022009282
:103BF000009A00900A6842F008020A60096801F021
:103C00000801009100994FF4407101910221CDE922
:103C10000210032004900720059040F60040C4F2F3
:103C2000020001A9FEF7E2FB06B080BD90F83E302D
:103C3000202B0BD100294FF0010318BF002A01D11E
:103C40001846704790F83C30012B01D10220704794
:103C500000230363816222218285C285036480F888
:103C60003E100269016880F83C301AB1C86840F41F
:103C70008070C8604869002340F001004861C8684E
:103C800040F02000C860184670470000016844F208
:103C90000042C4F2000291420CD040F2F051C2F254
:103CA0000001884218BF704740F29020C2F2000025
:103CB00001F066BA40F27C10C2F2000042784388FC
:103CC00040F68831C2F20001CA5443880D2A03F13C
:103CD0000103438001D00A2A04D1428800238B5477
:103CE00001210170411C40F26850C2F20000012223
:103CF000FFF79CBF70470000FEE700002DE9F0438E
:103D000081B00024C4F202041646894607462046C4
:103D1000102100229846FEF73DFC04F580652846F8
:103D200020210022FEF736FC2A2000F093FC2046DA
:103D300010210122FEF72EFC284620210122FEF749
:103D400029FC204610210022FEF724FC380A00F04E
:103D500081FCF8B200F07EFC204610210122FEF723
:103D600019FC204610210022FEF714FC300A00F056
:103D700071FCF0B200F06EFC204610210122FEF72B
:103D800009FC204610210022FEF704FC28462021D1
:103D90000022FEF7FFFB2B2000F05CFC20461021E8
:103DA0000122FEF7F7FB284620210122FEF7F2FB55
:103DB000204610210022FEF7EDFB4FEA192000F00B
:103DC00049FC5FFA89F000F045FC204610210122F1
:103DD000FEF7E0FB204610210022FEF7DBFB4FEA56
:103DE000182000F037FC5FFA88F000F033FC204622
:103DF00010210122FEF7CEFB204610210022FEF703
:103E0000C9FB284620210022FEF7C4FB2C2000F02D
:103E100021FC204610210122FEF7BCFB2846202170
:103E2000012201B0BDE8F043FEF7B4BBB0B50024F9
:103E3000C4F2020404F5406528464FF48041002294
:103E4000FEF7A8FB3220FEF7AFFA28464FF4804178
:103E50000122FEF79FFB3220FEF7A6FA28464FF418
:103E600000410122FEF796FB3220FEF79DFA204624
:103E700010210022FEF78EFB204610210022FEF7C3
:103E800089FB04F58065284620210022FEF782FB8D
:103E9000112000F0DFFB204610210122FEF77AFB03
:103EA000284620210122FEF775FB20461021002222
:103EB000FEF770FB284620210022FEF76BFB112045
:103EC00000F0C8FB204610210122FEF763FB2846C4
:103ED00020210122FEF75EFB3220FEF765FA204624
:103EE00010210022FEF756FB284620210022FEF773
:103EF00051FB362000F0AEFB204610210122FEF7D8
:103F000049FB284620210122FEF744FB20461021D0
:103F10000022FEF73FFB002000F09CFB2046102112
:103F20000122FEF737FB204610210022FEF732FB6C
:103F3000284620210022FEF72DFB3A2000F08AFBC4
:103F4000204610210122FEF725FB284620210122D0
:103F5000FEF720FB204610210022FEF71BFB552018
:103F600000F078FB204610210122FEF713FB2046CB
:103F700010210022FEF70EFB284620210022FEF72A
:103F800009FBB22000F066FB204610210122FEF75B
:103F900001FB284620210122FEF7FCFA20461021D1
:103FA0000022FEF7F7FA1F2000F054FB20461021F4
:103FB0000122FEF7EFFA204610210022FEF7EAFA6E
:103FC0001F2000F047FB204610210122FEF7E2FAF5
:103FD000204610210022FEF7DDFA002000F03AFB17
:103FE000204610210122FEF7D5FA2046102100229A
:103FF000FEF7D0FA332000F02DFB204610210122DD
:10400000FEF7C8FA204610210022FEF7C3FA33203B
:1040100000F020FB204610210122FEF7BBFA2046CB
:1040200010210022FEF7B6FA284620210022FEF7D2
:10403000B1FAB72000F00EFB204610210122FEF756
:10404000A9FA284620210122FEF7A4FA20461021D1
:104050000022FEF79FFA352000F0FCFA20461021DE
:104060000122FEF797FA204610210022FEF792FA6D
:10407000284620210022FEF78DFABB2000F0EAFA44
:10408000204610210122FEF785FA28462021012230
:10409000FEF780FA204610210022FEF77BFA2B2043
:1040A00000F0D8FA204610210122FEF773FA2046CC
:1040B00010210022FEF76EFA284620210022FEF78A
:1040C00069FAC02000F0C6FA204610210122FEF74E
:1040D00061FA284620210122FEF75CFA20461021D1
:1040E0000022FEF757FA2C2000F0B4FA20461021E7
:1040F0000122FEF74FFA204610210022FEF74AFA6D
:10410000284620210022FEF745FAC22000F0A2FA3C
:10411000204610210122FEF73DFA284620210122E7
:10412000FEF738FA204610210022FEF733FA01206C
:1041300000F090FA204610210122FEF72BFA2046CB
:1041400010210022FEF726FA284620210022FEF741
:1041500021FAC32000F07EFA204610210122FEF74A
:1041600019FA284620210122FEF714FA20461021D0
:104170000022FEF70FFA0F2000F06CFA2046102103
:104180000122FEF707FA204610210022FEF702FA6C
:10419000284620210022FEF7FDF9C42000F05AFA3B
:1041A000204610210122FEF7F5F9284620210122A0
:1041B000FEF7F0F9204610210022FEF7EBF920204F
:1041C00000F048FA204610210122FEF7E3F92046CC
:1041D00010210022FEF7DEF9284620210022FEF7FA
:1041E000D9F9C62000F036FA204610210122FEF748
:1041F000D1F9284620210122FEF7CCF920461021D2
:104200000022FEF7C7F90F2000F024FA2046102103
:104210000122FEF7BFF9204610210022FEF7BAF96D
:10422000284620210022FEF7B5F9D02000F012FA2E
:10423000204610210122FEF7ADF928462021012257
:10424000FEF7A8F9204610210022FEF7A3F9A420CA
:1042500000F000FA204610210122FEF79BF92046CB
:1042600010210022FEF796F9A12000F0F3F9204674
:1042700010210122FEF78EF9204610210022FEF7C0
:1042800089F9284620210022FEF784F9D62000F083
:10429000E1F9204610210122FEF77CF92846202171
:1042A0000122FEF777F9204610210022FEF772F96D
:1042B000A12000F0CFF9204610210122FEF76AF973
:1042C000204610210022FEF765F928462021002211
:1042D000FEF760F9E02000F0BDF920461021012230
:1042E000FEF758F9284620210122FEF753F920460F
:1042F00010210022FEF74EF9F02000F0ABF9204625
:1043000010210122FEF746F9204610210022FEF777
:1043100041F9042000F09EF9204610210122FEF709
:1043200039F9204610210022FEF734F9072000F069
:1043300091F9204610210122FEF72CF92046102188
:104340000022FEF727F9042000F084F9204610210E
:104350000122FEF71FF9204610210022FEF71AF96C
:10436000042000F077F9204610210122FEF712F90F
:10437000204610210022FEF70DF9042000F06AF912
:10438000204610210122FEF705F9204610210022C7
:10439000FEF700F9252000F05DF9204610210122EA
:1043A000FEF7F8F8204610210022FEF7F3F833203C
:1043B00000F050F9204610210122FEF7EBF82046CC
:1043C00010210022FEF7E6F83C2000F043F92046D9
:1043D00010210122FEF7DEF8204610210022FEF710
:1043E000D9F8362000F036F9204610210122FEF7D8
:1043F000D1F8204610210022FEF7CCF8142000F05E
:1044000029F9204610210122FEF7C4F82046102188
:104410000022FEF7BFF8122000F01CF92046102100
:104420000122FEF7B7F8204610210022FEF7B2F86D
:10443000292000F00FF9204610210122FEF7AAF8EA
:10444000204610210022FEF7A5F8302000F002F9E6
:10445000204610210122FEF79DF82046102100225F
:10446000FEF798F8284620210022FEF793F8E12075
:1044700000F0F0F8204610210122FEF78BF82846C4
:1044800020210122FEF786F8204610210022FEF7A7
:1044900081F8F02000F0DEF8204610210122FEF71E
:1044A00079F8204610210022FEF774F8022000F06F
:1044B000D1F8204610210122FEF76CF82046102189
:1044C0000022FEF767F8042000F0C4F8204610210F
:1044D0000122FEF75FF8204610210022FEF75AF86D
:1044E000052000F0B7F8204610210122FEF752F80F
:1044F000204610210022FEF74DF8052000F0AAF812
:10450000204610210122FEF745F820461021002206
:10451000FEF740F8212000F09DF8204610210122EE
:10452000FEF738F8204610210022FEF733F8252048
:1045300000F090F8204610210122FEF72BF82046CB
:1045400010210022FEF726F8322000F083F82046E2
:1045500010210122FEF71EF8204610210022FEF74E
:1045600019F83B2000F076F8204610210122FEF7D2
:1045700011F8204610210022FEF70CF8382000F038
:1045800069F8204610210122FEF704F82046102188
:104590000022FDF7FFFF122000F05CF820461021FA
:1045A0000122FDF7F7FF204610210022FDF7F2FF60
:1045B000142000F04FF8204610210122FDF7EAFFF9
:1045C000204610210022FDF7E5FF272000F042F8E9
:1045D000204610210122FDF7DDFF20461021002298
:1045E000FDF7D8FF312000F035F8204610210122D8
:1045F000FDF7D0FF204610210022FDF7CBFF284613
:1046000020210022FDF7C6FF212000F023F82046DC
:1046100010210122FDF7BEFF284620210122FDF7CF
:10462000B9FF204610210022FDF7B4FF28462021C3
:104630000022FDF7AFFF292000F00CF820461021E2
:104640000122FDF7A7FF284620210122BDE8B04046
:10465000FDF7A0BFB0B540F20044C4F20204054625
:10466000204608210022FDF795FFEA092046102187
:10467000FDF790FF204608210122FDF78BFF204621
:1046800008210022FDF786FFC5F380122046102185
:10469000FDF780FF204608210122FDF77BFF204621
:1046A00008210022FDF776FFC5F3401220461021B5
:1046B000FDF770FF204608210122FDF76BFF204621
:1046C00008210022FDF766FFC5F3001220461021E5
:1046D000FDF760FF204608210122FDF75BFF204621
:1046E00008210022FDF756FFC5F3C0022046102125
:1046F000FDF750FF204608210122FDF74BFF204621
:1047000008210022FDF746FFC5F380022046102154
:10471000FDF740FF204608210122FDF73BFF204620
:1047200008210022FDF736FFC5F340022046102184
:10473000FDF730FF204608210122FDF72BFF204620
:1047400008210022FDF726FF05F001022046102176
:10475000FDF720FF204608210122BDE8B040FDF70B
:1047600019BF000080B545F2C52049F29C02C0F691
:104770000000C0F60002002101F020F940F2804163
:10478000C2F20001086080BD2DE9F04F87B000241F
:1047900043F63000CDE905440194C4F202000168FB
:1047A000002641F0100101600168C4F2020601F028
:1047B00010010191019901940168002241F0040166
:1047C00001600168102501F0040101910199019433
:1047D000016841F080010160016801F080010191F0
:1047E00001990194016841F001010160016801F043
:1047F0000101019101990194016841F020010160DA
:10480000016801F02001019101990194016841F0D2
:1048100002010160016801F0020101910199019416
:10482000016841F0080101600068102100F00800F3
:10483000019001983046FDF7ADFE06F5806B5846B5
:1048400044F2B801002244F2B80AFDF7A3FE06F5CF
:10485000406840464FF4404100224FF44049FDF784
:1048600099FE382002904FF4881002AFCDE903047E
:1048700006F580503946FDF7B9FD02950125304611
:104880003946CDE903540594FDF7B0FD202002A977
:1048900031C130463946FDF7A9FD4FF48050CDE9CE
:1048A000020406F5A05039460494FDF79FFD5846D2
:1048B0003946CDE902A5CDE90444FDF797FD404610
:1048C0003946CDE90295CDE90444FDF78FFD092075
:1048D00005210022FEF754F80920FEF73DF80A20D2
:1048E00005210022FEF74CF80A20FEF735F81720C4
:1048F00005210022FEF744F81720FEF72DF807B037
:10490000BDE8F08F80B540F2844045F20041C2F22C
:104910000000C4F2000141F6802200234FF4804CD5
:10492000C0F2060280E80E00C0E9033CC0E905338E
:10493000C0E90733FDF778FE002818BFFDF7D4FC67
:1049400040F28440C2F200000021FDF72FFE002853
:1049500018BFFDF7C9FC40F28440C2F200000021FC
:10496000FDF742FE002808BF80BDBDE88040FDF78E
:10497000BBBC000080B586B040F220500021C2F2DE
:1049800000004FF0804253234FF0FF3C0591CDE9EA
:104990000311CDE90011C0E90023C0E9021C016147
:1049A0008161FEF771FB002818BFFDF79DFC4FF4F5
:1049B0008050029040F22050C2F2000002A9FEF79F
:1049C00009FC002818BFFDF78FFC40F22050C2F20E
:1049D00000006946FEF7FCFA002818BFFDF784FCCA
:1049E00006B080BD80B540F2685044F20041C2F28A
:1049F0000000C4F2000100234FF00C0C4FF41652DB
:104A000080E80E00C0E90333C0E905C3C361FFF7C6
:104A10002FF8002808BF80BDBDE88040FDF764BCCA
:104A200080B540F2AC5044F60001C2F20000C4F27E
:104A3000000100234FF00C0C4FF4E13280E80E002F
:104A4000C0E90333C0E905C3C361FFF711F80028CB
:104A500008BF80BDBDE88040FDF746BC80B540F290
:104A6000F05041F20041C2F20000C4F20101002303
:104A70004FF00C0C4FF4165280E80E00C0E90333DF
:104A8000C0E905C3C361FEF7F3FF002808BF80BD7E
:104A9000BDE88040FDF728BCFEE700004FF0000CA9
:104AA0000A4603460160A0F804C180F806C1C0E9C7
:104AB00064CCC0F887C1A0F88BC1302040F27C41A3
:104AC00083F8980183F8A801C2F200011046012280
:104AD000C3E968CCC3E96ECCC3E970CCA3F8C8C104
:104AE000C3E974CCC3E976CCC3F8E0C1C3F8E4C130
:104AF000FFF79CB890F8C90170470000F0B581B08D
:104B000040F68437C2F2000739680446B1B308465C
:104B10002C21FBF76FFD4FF00005386078B300F8EB
:104B2000015B2C21FBF766FD386040B3002500F8DF
:104B3000015B2C21FBF75EFD386000B300F8015BE0
:104B40002C21FBF757FD3860F0B1002500F8015B20
:104B50002C21FBF74FFD386088B1064606F8015B53
:104B600030462C21FBF746FD386070B1451C002112
:104B70003D600170307850B90EE000BF002500267E
:104B8000307820B908E000BF0026307820B13046E8
:104B9000FBF70DFD84F8C90165B328462C21FBF70E
:104BA00029FD4FF00006386018B1411C39600670CD
:104BB0000E46287820B12846FBF7F9FC84F8C80196
:104BC000F6B130462C21FBF715FD0546386000286C
:104BD0004FF000001ED005F8010B28462C21FBF7F2
:104BE00009FD386068B1411C3960002101702878E6
:104BF00048B90DE0002628780028DCD1E0E700BFA6
:104C00000025287820B1284603F0F6FA84ED6C0BD5
:104C100001B0F0BD002528780028F4D1F8E70000A5
:104C2000F0B581B040F68437C2F200073968044617
:104C3000D1B108462C21FBF7DDFC00284FF0000520
:104C4000386000F0CD80064606F8015B30462C2126
:104C5000FBF7D0FC386048B1451C00213D60017075
:104C6000307828B909E000BF00250026307820B14F
:104C70003046FBF79CFC84F8CA01002D78D028460A
:104C80002C21FBF7B7FC00284FF0000538606BD0F3
:104C900000F8015B2C21FBF7ADFC0028386063D0E5
:104CA000002500F8015B2C21FBF7A4FC00283860EC
:104CB0005AD000F8015B2C21FBF79CFC00283860DF
:104CC00052D0002500F8015B2C21FBF793FC002853
:104CD000386049D000F8015B2C21FBF78BFC0028E1
:104CE000386041D0002500F8015B2C21FBF782FCE5
:104CF0003860C8B300F8015B2C21FBF77BFC3860FF
:104D000090B3002500F8015B2C21FBF773FC3860A1
:104D100050B300F8015B2C21FBF76CFC4FF0000650
:104D2000386038B300F8016B2C21FBF763FC0028D6
:104D300038605BD000F8016B2C21FBF75BFC00288E
:104D4000386053D00546002605F8016B28462C2113
:104D5000FBF750FC386068B1411C396006700E46A4
:104D6000287848B90DE000BF0026287820B908E06F
:104D700000250026287820B1284603F03DFA84ED6E
:104D8000740B3EB330462C21FBF734FC4FF000058A
:104D9000386018B1411C396005700D46307820B17B
:104DA000304603F029FA84ED760B4DB128462C21CC
:104DB000FBF720FC386018B1411C396000210170FC
:104DC000287820B1284603F017FA84ED780B01B05B
:104DD000F0BD00BF002530780028E1D1E5E700BF35
:104DE0000026307800287FF443AF46E70025287876
:104DF0000028C1D1C5E700002DE9F04F81B040F691
:104E0000843AC2F2000ADAF80060834676B130468E
:104E10002C21FBF7EFFB4FF00005CAF8000030B182
:104E2000411CCAF8001005700D4600E000253078DE
:104E300048F21F5941F25978C5F2EB19CDF2B71873
:104E4000E8B13046FBF7B3FBA0FB09125109A1FB07
:104E50000936A0FB0837642301FB1300790B8BF89C
:104E6000890170095843A1FB0914C0EB52108BF85B
:104E7000880160095843C0EB57308BF88701EDB1CA
:104E800028462C21FBF7B6FB00284FF00005CAF896
:104E9000000000F0AF80064606F8015B30462C218A
:104EA000FBF7A8FBCAF8000050B1451C0021CAF866
:104EB00000500170307828B909E000BF00250026B5
:104EC000307820B1304603F097F98BED640B7DB15B
:104ED00028462C21FBF78EFB4FF00006CAF8000095
:104EE00038B1411CCAF8001006700E4601E000BF40
:104EF00000262878002818BF8BF8980136B3304672
:104F00002C21FBF777FB4FF00005CAF8000020B119
:104F1000411CCAF8001005700D46307820B13046AB
:104F200003F06AF98BED680BB5B128462C21FBF72D
:104F300061FB0146CAF8000000284FF000000CD0C9
:104F40004A1CCAF800200870104606E00025307898
:104F50000028E4D1E8E700BF00202978002918BF25
:104F60008BF8A81110B32C21FBF744FB4FF0000184
:104F7000CAF80000D0B100F8011B2C21FBF73AFB66
:104F8000CAF8000090B10546002605F8016B2846D6
:104F90002C21FBF72FFB0028CAF800001EBF411C84
:104FA000CAF800100670287818B920E00025287883
:104FB000E8B12846FBF7FBFAA0FB09125109A1FB57
:104FC0000937A0FB0836642301FB1300710B8BF833
:104FD0008C0178095843A1FB0915C0EB52108BF8DE
:104FE0008B0168095843C0EB56308BF88A0101B039
:104FF000BDE8F08F0026307800287FF463AF66E7C5
:10500000F0B581B040F68437C2F200073968044633
:1050100071B308462C21FBF7EDFA4FF0000538601C
:1050200038B300F8015B2C21FBF7E4FA386000B3D9
:10503000002500F8015B2C21FBF7DCFA3860E8B1B1
:1050400000F8015B2C21FBF7D5FA386088B10646E1
:10505000002506F8015B30462C21FBF7CBFA3860BF
:1050600068B1411C396005700D46307848B90DE0D3
:1050700000250026307820B908E000BF00263078EF
:1050800020B1304603F0B8F884ED6E0BC5B1284668
:105090002C21FBF7AFFA0546386000284FF00000DE
:1050A00018D005F8010B28462C21FBF7A3FA38602D
:1050B00038B1411C396000210170287818B907E027
:1050C0000025287820B1284603F096F884ED700B6F
:1050D00001B0F0BD002528780028F4D1F8E70000E1
:1050E000B0B500F20715044628462C21FBF782FADA
:1050F00040F68431C2F20001086018B1421C0A6017
:105100000021017016A12846FBF7F2FAB0B116A1F2
:105110002846FBF7EDFAB8B115A12846FBF7E8FAE7
:10512000C0B115A12846FBF7E3FA002818BFB0BDAF
:105130002046BDE8B040FFF773BD00BF2046BDE884
:10514000B040FFF759BE00BF2046BDE8B040FFF7B2
:1051500057BF00BF2046BDE8B040FFF7CFBC00BF3F
:10516000244750524D4300002447505654470000F6
:10517000244750474741000024475047534100000F
:1051800090F8041190F805314A1CD1B299421AD016
:1051900040F27C4CC2F2000C9CF800300D2B05D183
:1051A00090F80631013380F8063106E09CF80030B3
:1051B0004BB19CF800300A2B05D080F804219CF8F4
:1051C000002001440A71006840F27C41C2F20001F3
:1051D0000122FEF72BBD000090F80611002908BF40
:1051E000704740F2071101E04254013190F8043158
:1051F00090F80521934203D14FF0FF3206E000BF43
:10520000531C50FA83F2127980F80531D3B2002B87
:1052100018BF0D2BE8D10022425490F80611013935
:1052200080F80611FFF75CBFFEE7000000000000F9
:10523000EFF30980BFF36F8F154B1A681EF0100F44
:1052400008BF20ED108A20E9F04F10602DE9090019
:105250004FF0500080F31188BFF34F8FBFF36F8F73
:1052600001F0CAFC4FF0000080F31188BDE809008E
:1052700019680868B0E8F04F1EF0100F08BFB0ECD6
:10528000108A80F30988BFF36F8F704700BF00BF9B
:105290008C01002000000000000000000000000061
:1052A000074B19680868B0E8F04F80F30988BFF32E
:1052B0006F8F4FF0000080F31188704700BF00BF70
:1052C0008C010020012000F037FBFBE780B54EF297
:1052D0001000CEF20000006802F0DCF8012808BFE0
:1052E00080BDBDE8804001F0A7BD0000B0B592B020
:1052F000002443F64000CDE90A44CDE90844059472
:10530000CDE90344CDE901440094C4F202000168F0
:10531000022541F080510160006800F0805000904B
:10532000009847F200000094C4F20000016841F4C4
:1053300040410160006800F4404000900098012066
:1053400006904FF4803007904FF480000D900420B9
:105350000E90A820CDE90F050720119006A80C9506
:10536000FDF778FC20B1EFF3108072B6FEE700BFC6
:105370000F20CDE901054FF4A05004904FF4805068
:10538000059001A805210394FDF736FB20B1EFF34A
:10539000108072B6FEE700BF12B0B0BD4EF6885066
:1053A000CEF20000016841F4700101607047000016
:1053B00040F2D840C2F20000FDF7DCBF40F22050BE
:1053C000C2F20000FDF7D6BF10B540F6FF3E0368FD
:1053D000C4F2000E40F2004C7045C4F2010C27DC10
:1053E000B0F1804F31D040F20042C4F2000290424E
:1053F0002BD040F60002C4F20002904225D041F6C4
:10540000FF72C4F20002904229DC70453CDCB0F12E
:10541000804F5FD040F20042C4F20002904259D067
:1054200040F60002C4F20002904253D056E000BFA2
:1054300040F60042C4F20002904206D0604504D01B
:105440000022C4F201029042D9D14A6823F07003CD
:10545000134341F6FF72C4F200029042D5DD43F6D9
:10546000FF72C4F20102904222DC42F20002C4F256
:10547000000290422ED00022C4F20102904229D0B4
:10548000604527D02AE000BF40F60042C4F2000287
:1054900090421FD041F60002C4F20002904219D09F
:1054A00041F60042C4F20002904213D016E000BF61
:1054B00044F20002C4F2010290420BD044F6000212
:1054C000C4F20102904205D044F20042C4F201024B
:1054D000904203D1CA6823F44073134323F080023F
:1054E0004B69D1F800E08C681A430260C46240F452
:1054F0008062C0F828E0624504BF096901630121A8
:10550000416110BD806B0021C185C184FDF7FCBFE6
:1055100081B090F83E10222921D183680246B3F56C
:10552000805F09D152F8281F52F8183C002B63D035
:1055300003685B680AE000BF52F8281F13B90369CB
:10554000002BF5D003685B6803F07F030B701168D4
:1055500001311160C18D01390A04C18502D001B049
:10556000704700BF0168CA6822F02002CA60CA689A
:1055700022F48072CA604A6922F001024A61202145
:1055800080F83E10016B01293ED10021016300BF6C
:10559000016851E8031F026821F0100142E803137B
:1055A000DBB1016851E8031F026821F0100142E8F5
:1055B000031393B1016851E8031F026821F0100141
:1055C00042E803134BB1016851E8031F026821F060
:1055D000100142E80313002BDAD101680A68D206F1
:1055E00006D5002200920A6800924968009100994D
:1055F000818D01B0FDF786BF026852686FF35F22AC
:1056000021F8022B8162A5E701B0FEF73FBB000045
:1056100010B504460068D4E902C22369016921F487
:10562000405111430161626943EA0C01E36911438E
:10563000C268194349F20C639A431143C16041693E
:10564000A26921F4407141F20043114340F48062A9
:10565000C4F201039A42416102D1FDF7B1FA01E0BF
:10566000FDF79AFAE16963681922B1F5004FA0FBD2
:10567000020123D15A00DB0FFAF728FE48F21F512E
:10568000C5F2EB11A0FB01235A094FF69C73C0F63B
:10569000FF7303F1805302FB0300322303EBC000CE
:1056A000A0FB01014FF4F87000EA111000EB0210AA
:1056B000C1F3421108442168886010BD9A009B0F15
:1056C000FAF704FE48F21F51C5F2EB11A0FB0123CB
:1056D0005A094FF69C73C0F6FF7302FB0300322396
:1056E00003EB0010A0FB0101F02000EA511000EBD9
:1056F0000210C1F3431108442168886010BD000006
:1057000040F26850C2F20000FDF700BF40F2F050D6
:10571000C2F20000FDF7FABEFEE7000048F2040105
:10572000411A002011F1030F38BF4FF0FF307047CE
:105730000020704748F20101411A0020032938BFB8
:105740000120704710B518B3044600783A281FD1DD
:1057500049F28C01C0F600012046FAF7C9FFD8B122
:1057600049F29301C0F600012046FAF7C1FFB8B133
:1057700049F28401C0F600012046FAF7B9FF01465C
:105780004FF0FF30002908BF48F2030010BD00BFF2
:105790004FF0FF3010BD00BF48F2010010BD00BF48
:1057A00048F2020010BD00004FF0FF3070470000CB
:1057B00048F20301884211D048F2020188421CBF1E
:1057C0004FF0FF307047002A04BF0020704700BF31
:1057D000013A00BEFCD10020704700BF002A04BF80
:1057E00000207047013A00BEFCD100207047000045
:1057F00000BE704744F60001C4F200010A68520678
:1058000009D40A6852065CBF0A685FEA426202D4A1
:105810000A685206F2D5C2B24A60704782B0FDF7FC
:1058200003F8FFF763FDFEF7AFFFFFF76BF8FFF735
:10583000F7F8FFF79FF8FFF7D5F8FFF70FF9FEF736
:10584000F5FA0020C4F20200102100220024FCF727
:10585000A1FE00200021F022F023FEF74FFA40F2D3
:10586000902040F2F051C2F20000C2F20001FFF7B6
:1058700015F946F2B9500425C0F600000EA14FF408
:10588000806200230095019401F098FD46F2455096
:10589000C0F600000AA14FF4806200230095019435
:1058A00001F08CFD01F028F900F056F8FEF75AFFE0
:1058B00000F066F8FEE700BF47505352656376007C
:1058C0004750534576616C00F0B581B09FED161BD3
:1058D00054EC105B53EC112B2846214602F0ACFE31
:1058E00003F040F806466420704303F06AF802466D
:1058F0000B462846214603F0EBF9044630460D4698
:1059000003F05FF89FED0A0B06460F4653EC102B91
:105910002046294602F090FE32463B4602F0D0FD7A
:1059200041EC100B01B0F0BD000000000000594038
:105930000000000000004E40EFF3058100291CBF6D
:105940006FF005007047002804BF0020704780B545
:1059500001F008F8002080BDEFF3058000281CBF8F
:105960006FF00500704740F27840C2F20000016815
:10597000002911BF4FF0FF30012101600020704766
:1059800010B5EFF3058000281CBF6FF0050010BDB7
:1059900040F27840C2F20000016801291CBF4FF0BC
:1059A000FF3010BD4EF61F51CEF2000100240C70E6
:1059B0000221016001F0A0F8204610BD2DE9F04160
:1059C00084B08E4600240394EFF3058150B149B9A9
:1059D0004FF0000452B19369002B08BF1823382BF5
:1059E00016D90024204604B0BDE8F0818025182394
:1059F000002103AF0093AAB27346019701F0DEFCC9
:105A00000399012808BF0C46204604B0BDE8F08188
:105A10001179C90724D15769D2E902864FEA970C58
:105A20001168002F654608BF8025B8F1000F13D01C
:105A30005C2E15D312690024002A18BF002FD1D084
:105A4000CDE9003262467346CDF8088001F0E6FCED
:105A500004B0BDE8F08100BF16B91269002AC8D0B1
:105A60000024204604B0BDE8F08100002DE9F0419B
:105A7000044600F035FE40F28C16C2F20006F068D3
:105A800040F224750130F0603068C2F2000558B170
:105A90003069002840F007813068E16AC06A8842B6
:105AA00098BF3460FFE000BF3460F068012840F028
:105AB000FA80284600F0BAFD05F1140000F0B6FDAA
:105AC00005F1280000F0B2FD05F13C0000F0AEFD4C
:105AD00005F1500000F0AAFD05F1640000F0A6FDFC
