:020000040800F2
:10000000D85100204D020008E1150008D91500085C
:10001000DD1500084505000815180008000000005F
:100020000000000000000000000000006116000851
:100030007905000800000000F11500089516000879
:1000400067020008670200086702000867020008EC
:1000500067020008670200086702000867020008DC
:10006000670200087D050008850500086702000892
:1000700049050008670200085505000867020008E6
:10008000610500086D0500086702000867020008A6
:10009000670200086702000867020008670200089C
:1000A000670200086702000867020008670200088C
:1000B000670200086702000867020008670200087C
:1000C000670200086702000867020008670200086C
:1000D0006702000867020008FD17000809180008F9
:1000E000670200086702000867020008670200084C
:1000F000670200086702000867020008670200083C
:10010000670200086702000867020008670200082B
:10011000670200086702000867020008670200081B
:10012000670200086702000867020008670200080B
:1001300067020008670200086702000867020008FB
:1001400067020008670200086702000867020008EB
:1001500067020008670200086702000867020008DB
:1001600067020008670200086702000867020008CB
:10017000670200086702000867020008000000002C
:1001800067020008670200086702000867020008AB
:10019000670200086702000867020008670200089B
:1001A00067020008670200086702000800F002F812
:1001B00000F03CF80AA090E8000C82448344AAF1C5
:1001C0000107DA4501D100F031F8AFF2090EBAE8C3
:1001D0000F0013F0010F18BFFB1A43F0010318477B
:1001E0003444000054440000103A24BF78C878C159
:1001F000FAD8520724BF30C830C144BF04680C602D
:10020000704700000023002400250026103A28BF74
:1002100078C1FBD8520728BF30C148BF0B60704778
:100220001FB504F0EAF91FBD10B510BD00F031F89C
:100230001146FFF7F5FF01F0EFFA00F04FF803B4B5
:10024000FFF7F2FF03BC00F057F8000009488047B1
:1002500009480047FEE7FEE7FEE7FEE7FEE7FEE7A8
:10026000FEE7FEE7FEE7FEE704480549054A064BC0
:1002700070470000ED160008AD010008D84B0020C3
:10028000D8510020D84D0020D84D0020704770472D
:100290007047754600F02CF8AE4605006946534697
:1002A00020F00700854618B020B5FFF7DDFFBDE858
:1002B00020404FF000064FF000074FF000084FF0CD
:1002C000000BAC46ACE8C009ACE8C009ACE8C0091A
:1002D000ACE8C00921F007018D46704710B504460F
:1002E000AFF300802046BDE81040FFF7A8BF000034
:1002F000004870470800002001491820ABBEFEE707
:1003000026000200704753EA020C00F069802DE9D4
:10031000F04B4FF00006002B1FBFB3FA83F503FA32
:1003200005F424FA05F65E4012BF1643B2FA82F5D0
:1003300002FA05F4C5F120051EBF22FA05FC44EAC5
:100340000C04203556EA044C4FEA144418BF641CD0
:100350004FF000084FF00009904271EB030C39D3C5
:10036000002919BFB1FA81F701FA07F6B0FA80F750
:1003700000FA07F6C7F120071EBF20FA07FC46EA7D
:100380000C062037B6FBF4FCA7EB0507103F07F07F
:100390001F0BCBF120062CFA06F60CFA0BFB44BF20
:1003A000B3460026202FA4BF5E464FF0000B5BEA49
:1003B000060C08BF4FF0010B19EB0B0948EB0608C0
:1003C000ABFB027C06FB02CC0BFB03CCC01B71EB2E
:1003D0000C01C1E70B46024641464846BDE8F08B9A
:1003E00013B5084318BF4FF0FF300146AFF300804C
:1003F000BDE81C407047032A40F2308010F0030C27
:1004000000F0158011F8013BBCF1020F624498BF67
:1004100011F801CB00F8013B38BF11F8013BA2F104
:10042000040298BF00F801CB38BF00F8013B11F07F
:10043000030300F02D80083AC0F0088051F8043B17
:10044000083A51F804CBA0E80810F5E7121D5CBF8C
:1004500051F8043B40F8043BAFF30080D20724BFBF
:1004600011F8013B11F801CB48BF11F8012B24BF53
:1004700000F8013B00F801CB48BF00F8012B7047A2
:1004800002F0FF0343EA032242EA024200F034B8DA
:1004900010B5203AC0F00B80B1E81850A0E8185011
:1004A000B1E81850A0E81850203ABFF4F5AF5FEA61
:1004B000027C24BFB1E81850A0E8185044BF18C906
:1004C00018C0BDE810405FEA827C24BF51F8043BAD
:1004D00040F8043B08BF7047D20728BF31F8023B01
:1004E00048BF11F8012B28BF20F8023B48BF00F895
:1004F000012B70474FF0000200B513469446964614
:10050000203922BFA0E80C50A0E80C50B1F1200126
:10051000BFF4F7AF090728BFA0E80C5048BF0CC0D4
:100520005DF804EB890028BF40F8042B08BF704732
:1005300048BF20F8022B11F0804F18BF00F8012BA4
:1005400070470000FEE7000040F23410C2F20000E5
:1005500000F072B840F29410C2F2000000F06CB8E3
:1005600040F27400C2F2000000F066B840F2D4001D
:10057000C2F2000000F060B870470000082000F0F0
:10058000F5B90000102000F0F1B9000010B544F2F8
:10059000F432C2F20002D0F858C0136890F8351057
:1005A000022939D10168D0F840E00C68BEF1000F93
:1005B00024F016040C604C6924F080044C6101D1D5
:1005C000846C1CB10C6824F008040C600C6824F0E6
:1005D00001040C600C68E40721D01468E41A052CAF
:1005E00014D80C68E4071AD01468E41A052C0DD846
:1005F0000C68E40713D01468E41A052C06D80C68BC
:10060000E4070CD01468E41A062CE3D320214165DA
:10061000032180F835100BE08021416508E0C16DB1
:100620003F2202FA01F1CCF80810012180F83510C0
:10063000002180F8341010BDF0B581B004460020D0
:10064000009040F20000C2F200000268D4E9166097
:1006500048F2B51337680821C1F64E33814039425C
:10066000A2FB03250CD0226813685B0708D513682A
:1006700023F004031360B160616D41F00101616515
:1006800001218140394208D022685269120604D5FE
:10069000B160616D41F00201616504218140394220
:1006A00008D022681268920704D5B160616D41F0EC
:1006B00004016165102101FA00F23A4216D0216866
:1006C0000B681B0712D5B2600B680A685B0306D47F
:1006D000D20506D40A6822F008020A6001E011037C
:1006E00040D4216C11B120468847E06D202101FAE9
:1006F00000F23A4242D021680B68DB063ED5B26078
:1007000094F835300A68052B1CD122F016020A60D5
:100710004A6922F080024A61226C0AB9A26C1AB1BD
:100720000A6822F008020A603F2101FA00F0B06076
:10073000012084F83500216D0020002984F8340060
:1007400052D156E00868520310D4C00512D408688C
:1007500020F010000860012084F83500002084F8A3
:10076000340007E0A16C0029BDD1BFE7000301D42C
:10077000616C00E0E16B09B120468847606DC0B351
:10078000606DC0072ED0052084F835002068A90AC6
:10079000026822F001020260009A01328A4200924D
:1007A0001AD80268D20717D0009A01328A42009202
:1007B00012D80268D2070FD0009A01328A42009202
:1007C0000AD80268D20707D0009A01328A42009202
:1007D00002D80268D207DFD1012084F8350000205A
:1007E00084F83400E16C21B1204601B0BDE8F0404E
:1007F000084701B0F0BD00002DE9F04144F2F431AA
:10080000C2F200010B6850B3022280F835200025A7
:10081000026880F83450156825F0010515601568E8
:10082000ED071FD00D68ED1A052D14D81568ED07DA
:1008300018D00D68ED1A052D0DD81568ED0711D0EB
:100840000D68ED1A052D06D81568ED070AD00D685C
:10085000ED1A052DE3D903232024032161E00120B3
:10086000BDE8F081116848F23F03CFF21003D0E9F0
:10087000015401EA030C00F10C0898E8C20145EAB2
:100880000C0525432943D0E9073E31433943194339
:10089000456A41EA0E01042D41EA08031CD1016BAF
:1008A000D0E90A5E41EA0E01194311605169BEF1B7
:1008B000000F21F0030141EA050141F0040C11D0C1
:1008C000B8F5005F33D0B8F1000F40D1022D41D010
:1008D000012D36D035B93DE01360516921F0070193
:1008E00041EA050C02F0F8014AF6AB231039CAF6CA
:1008F000AA23A1FB03373B091AA7FB5C40F2FF3791
:100900005F294FF03F01C2F814C022EA070201FA42
:1009100003F188BF0432C0E916239160002401234B
:100920000021446580F835300846BDE8F081032D8C
:10093000D8D8012340240121DFE805F0020C02038E
:10094000EFE7AEF1C071B1FA81F1490904E0032D7E
:1009500004D3C7D1CEF300610029C3D001234024C2
:100960000121DEE70006101600061016F0B581B072
:1009700043F61441C4F201010A68024200F0978074
:10098000102808600CD0082840F0918041F2100037
:10099000C4F202000068000740F18980012008E0ED
:1009A00041F21000C4F202000068C00640F17F80EE
:1009B000022040F2E871C2F200010C688DF80300D9
:1009C0008CB3EFF30580102815D34EF2F031CEF240
:1009D0000001405C44F2EC31C2F200010978884227
:1009E00009D24FF0500080F31188BFF36F8FBFF32F
:1009F0004F8F00BFFEE74EF60C50CEF2000044F2DF
:100A0000F0310068C2F20001096800F4E060884239
:100A100013D94FF0500080F31188BFF36F8FBFF3ED
:100A20004F8F00BFFEE74FF0500080F31188BFF3F7
:100A30006F8FBFF34F8F00BFFEE7EFF311854FF0CD
:100A4000500080F31188BFF36F8FBFF34F8FA06BFF
:100A5000E16B884229D294F84560A06BA76B226CA9
:100A600072B160680DF10301FFF7C5FC216CD4E998
:100A7000010208446060904224BF2068606006E084
:100A8000206820B9A06803F097FB0020A060781CC4
:100A9000FF2EA06306D1606A38B1206BC06803F0F6
:100AA000F1FB02E0701C84F8450085F3118801B069
:100AB000F0BD00002DE9F04F82B000F13E4242F25D
:100AC000004502F1FF77C4F202050A2243F6004E08
:100AD0004FEAB726A84208BF0922C4F2010E092E28
:100AE00038BF4FEAB7220125002600274FF0000843
:100AF000009208E008F101080437B8F1100F06F180
:100B0000020600F0A6800C6805FA08F914EA090F3D
:100B1000F0D0D1F804B003220BF0030CACF10104C7
:100B2000B240012C6FEA020A10D88268CC6802EA4F
:100B30000A02B440224382604268CBF3001422EAE6
:100B4000090204FA08F42243426005E0BCF1030FF5
:100B500002D14FF0030C20E0C2688C6802EA0A025E
:100B6000B4402243BCF1020FC26016D16FF0030201
:100B700002EA58020244D2F820C007F01C050F23F5
:100B80000C69AB402CEA030304FA05F52B4313620E
:100B9000D1F804B001250BF0030C02680CFA06F33F
:100BA00002EA0A021A431BF4403F0260A2D000226C
:100BB00043F644030192C4F202031A684FF6084C4C
:100BC00042F480421A601A68CFF6FF7C02F4804239
:100BD0000192019A28F00302724452F80C3007F097
:100BE0000C050F24AC40A343009C04FA05F52B43ED
:100BF00042F80C30DEF808204B6842EA090543F65B
:100C00000C4CDC0258BF22EA0905CEF80850C4F2A9
:100C1000010CDCF800209C0242EA090558BF22EAD8
:100C20000905CCF80050DEF804209C0342EA0905CF
:100C300058BF22EA0905CEF80450DEF80020DB0395
:100C400042EA090558BF22EA0905CEF800500125FD
:100C500050E702B0BDE8F08FB0B582B0044600683E
:100C60000168C368426901F02F05202D03F02005BB
:100C700006D12DB1204602B0BDE8B04000F046BD1F
:100C80005FEA017C1EBF02F0010E03F4907212EBCA
:100C90000E0240F0C980226B012A05D111F010022A
:100CA00018BF13F0100232D10A0622D513F08002C9
:100CB0001FD094F83D10212927D1A168B1F5805F9C
:100CC00003D12169002900F06082216A4A1C226256
:100CD00009784160E18C01390A04E18415D1C168C9
:100CE00021F08001C160C16841F04001C16002B0E3
:100CF000B0BD490609D513F0400106D0C16821F006
:100D00004001C160202084F83D0002B0B0BD002148
:100D10000191016801914168019101994069400682
:100D200000F18C80A08DE18DE28D002A18BF8842F1
:100D3000EBD0206850E8030F216820F4907041E860
:100D40000302BAB3206850E8030F216820F49070C2
:100D500041E8030272B3206850E8030F216820F4D1
:100D6000907041E803022AB3206850E8030F21681D
:100D700020F4907041E80302002ADAD11AE02068DA
:100D800050E8050F216820F0010041E80502DAB1C2
:100D9000206850E8050F216820F0010041E80502B5
:100DA00092B1206850E8050F216820F0010041E869
:100DB00005024AB1206850E8050F216820F00100C3
:100DC00041E80502002ADAD1202084F83E00002004
:100DD0002063206850E8030F216820F0100041E8EC
:100DE0000302002A91D0206850E8030F216820F008
:100DF000100041E80302002A3FF487AF206850E862
:100E0000030F216820F0100041E80302002A3FF49C
:100E10007CAF206850E8030F216820F0100041E803
:100E20000302002AD5D170E7CA0718BF13F48072F5
:100E300040F0B4804A0700F1B780BCE0A06B0168C5
:100E400049688AB2002A3FF460AFA38D9A42BFF48A
:100E50005CAFE185C069B0F5807F00F09C802068C0
:100E600050E8030F216820F4807041E80302DAB1F2
:100E7000206850E8030F216820F4807041E80302E5
:100E800092B1206850E8030F216820F4807041E897
:100E900003024AB1206850E8030F216820F48070F3
:100EA00041E80302002ADAD1206850E8050F2168E2
:100EB00020F0010041E80502DAB1206850E8050F92
:100EC000216820F0010041E8050292B1206850E855
:100ED000050F216820F0010041E805024AB12068B1
:100EE00050E8050F216820F0010041E80502002AC2
:100EF000DAD1206850E8050F216820F0400041E871
:100F00000502DAB1206850E8050F216820F04000A2
:100F100041E8050292B1206850E8050F216820F0F1
:100F2000400041E805024AB1206850E8050F2168F9
:100F300020F0400041E80502002ADAD1202084F8A0
:100F40003E0000202063206850E8030F216820F055
:100F5000100041E80302DAB1206850E8030F21686D
:100F600020F0100041E8030292B1206850E8030F1E
:100F7000216820F0100041E803024AB1206850E8DF
:100F8000030F216820F0100041E80302002ADAD1A3
:100F9000A06BFFF7FBFAE08D02B0B0BD226C42F00F
:100FA000010222644A0706D5BEF1000F03D0226C6D
:100FB00042F0020222648A0706D5BEF1000F03D078
:100FC000226C42F004022264BCF1000F09D545EA0C
:100FD0000E02B2FA82F2520903D1226C42F00802E8
:100FE0002264226C002A3FF490AE11F0200118BF59
:100FF000002D03D0204600F089FB20684069216C59
:1010000000F0400001F00801401800F0BA8000BF75
:10101000206850E8030F216820F4907041E8030233
:10102000BAB3206850E8030F216820F4907041E8BB
:10103000030272B3206850E8030F216820F4907017
:1010400041E803022AB3206850E8030F216820F426
:10105000907041E80302002ADAD11AE0206850E8D3
:10106000050F216820F0010041E80502DAB120688F
:1010700050E8050F216820F0010041E8050292B117
:10108000206850E8050F216820F0010041E80502C2
:101090004AB1206850E8050F216820F0010041E8BE
:1010A0000502002ADAD1206B012824D1206850E8FB
:1010B000030F216820F0100041E80302DAB1206834
:1010C00050E8030F216820F0100041E8030292B1BC
:1010D000206850E8030F216820F0100041E8030267
:1010E0004AB1206850E8030F216820F0100041E861
:1010F0000302002ADAD1202084F83E000020206379
:101100002068406940067FF500AE206850E8050F72
:10111000216820F0400041E80502DAB1206850E87B
:10112000050F216820F0400041E8050292B12068D7
:1011300050E8050F216820F0400041E805024AB15F
:10114000206850E8050F216820F0400041E80502C2
:10115000002ADAD1A06B00283FF4D7AD41F201712B
:10116000C0F60001016590F83510022915D105215E
:1011700080F835100068016821F00101016002B0BB
:10118000B0BD0020206402B0B0BD216A31F8022B4E
:101190006FF35F22426021629CE58021416502B0CD
:1011A000BDE8B04000F0ACBA2DE9F04F87B00028A0
:1011B0006CD0044690F83D0043F6300740F60048F6
:1011C000C4F202070028C4F2020800F0988024202C
:1011D00084F83D002668D4E90212E069F36823F43C
:1011E0000053F360336923F440531A433261D4E966
:1011F00004231143F268194349F20C639A431143E3
:101200000143F1607169A26921F440711143716178
:1012100026F48061A8F57C42914240F20001C2F2BE
:101220000001096857F8282C4FF00A0308BF0D2366
:10123000DA4002F00702B5A39A5C6368D140192234
:10124000B0F5004FA1FB020124D15A00DB0FFFF7DC
:101250005AF848F21F51C5F2EB11A0FB01235A09BD
:101260004FF69C73C0F6FF7303F1805302FB03003B
:10127000322303EBC000A0FB01014FF4F87000EA39
:10128000111000EB0210C1F3421120E0012007B061
:10129000BDE8F08F9A009B0FFFF735F848F21F5119
:1012A000C5F2EB11A0FB01235A094FF69C73C0F65F
:1012B000FF7302FB0300322303EB0010A0FB0101CC
:1012C000F02000EA511000EB0210C1F34311084472
:1012D000B0603069202120F490403061706920F0C6
:1012E0002A007061F06840F40050F0600020206433
:1012F00084F83D1084F83E1007B0BDE8F08F2068F8
:1013000044F60001C4F200010025884284F83C50F4
:10131000CDE90555CDE9035502954AD044F2004187
:10132000C4F2000188427FF452AF0025019538696C
:1013300046F2280940F400303861386902A900F407
:1013400000300190019801953868C4F2020940F01C
:1013500008003860386800F00800019001986020AB
:1013600002900220CDE90305032005900720069096
:101370004046FFF79FFB40F2740609F16000C2F29D
:1013800000064FF0006B4FF4806AC6E9000B304650
:10139000C6E90255C6E904A5C6E90655C6E90855D9
:1013A000FFF72AFA002848D0EFF3108072B600BF8A
:1013B000FEE70195386946F2280940F4802038613B
:1013C000386902A900F480200190019801953868DD
:1013D000C4F2020940F008003860386800F00800E4
:1013E000019001984FF4407002900220CDE903056E
:1013F00003200590072006904046FFF75BFB40F274
:10140000941609F13000C2F200064FF0006B402143
:10141000C6E9000B06F108004FF4806A80E8220458
:101420003046C6E90555C6E907557562FFF7E4F988
:10143000F8B1EFF3108072B6FEE7A663B46340F232
:10144000D40609F17800C2F200064021C6E9000B7B
:1014500006F1080080E822043046C6E90555C6E9D1
:1014600007557562FFF7C8F9E8B1EFF3108072B65F
:10147000FEE76663B46340F23416C2F20006002051
:10148000C6E90200C6E904A0C6E90600C6E90800EC
:101490003046C6E9009BFFF7AFF948B1EFF3108083
:1014A00072B600BFFEE7666306F13801262003E04E
:1014B00006F138012720A6630C604EF60C51CEF2DF
:1014C000000109684FF0FF33C1F3022181F00702E8
:1014D000042A28BF0422033903FA02F24FF005035D
:1014E00038BF002123EA020202FA01F14EF204128F
:1014F000CEF200020901831883F8FC1200F0070005
:10150000012101FA00F0106061E600BF0000000058
:101510000102030410B540F2F412C2F2000292F884
:101520003CC092F83D30202B54D1002852D0BCF161
:10153000010F08BF10BD4FF0000C2123C2F840C0BE
:1015400082F83D3044F2F433C2F200031B68918408
:10155000D18482F83CC011689368D2F810E0D48C32
:101560005CB383F4805353EA0E030CBF84460346F6
:1015700003E000BF0868000609D40868000606D426
:10158000086800065CBF08685FEA0060F2D51BB11E
:1015900013F8010B05E000BF3CF8020B00236FF3CA
:1015A0005F204860D08C0138D084D08C0028E4D1F2
:1015B00003E000BF0868400609D40868400606D466
:1015C000086840065CBF08685FEA4060F2D52020EA
:1015D00082F83D0010BD0000FEE70000FEE70000BD
:1015E000FEE7000000000000000000000000000016
:1015F000EFF30980BFF36F8F154B1A681EF0100FC1
:1016000008BF20ED108A20E9F04F10602DE9090095
:101610004FF0500080F31188BFF34F8FBFF36F8FEF
:1016200002F050FB4FF0000080F31188BDE8090084
:1016300019680868B0E8F04F1EF0100F08BFB0EC52
:10164000108A80F30988BFF36F8F704700BF00BF17
:1016500070030020000000000000000000000000F7
:10166000074B19680868B0E8F04F80F30988BFF3AA
:101670006F8F4FF0000080F31188704700BF00BFEC
:1016800070030020EFF305800028FBD1012001F05A
:10169000A7FFF7E780B544F2F430C2F2000001681A
:1016A0000131016044F69030C2F200000068002869
:1016B00008BF80BD44F20440C2F2000000684FF051
:1016C000500080F31188BFF36F8FBFF34F8F02F08C
:1016D00099FC30B14EF60450CEF200004FF080512C
:1016E0000160002080F3118880BD00004EF6885014
:1016F000CEF20000016841F4700101607047000003
:10170000806B0021C185C1847047000081B090F8D2
:101710003E10222920D183680246B3F5805F08D1AC
:1017200052F8281F52F8183C002B5FD003685B6802
:1017300009E052F8281F13B90369002BF6D003689B
:101740005B6803F07F030B70116801311160C18D7C
:1017500001390A04C18501D001B070470168CA6827
:1017600022F02002CA60CA6822F48072CA604A6904
:1017700022F001024A61202180F83E10016B01290C
:10178000EAD10021016300BF016851E8031F02682C
:1017900021F0100142E80313DBB1016851E8031F97
:1017A000026821F0100142E8031393B1016851E887
:1017B000031F026821F0100142E803134BB10168D6
:1017C00051E8031F026821F0100142E80313002BC7
:1017D000DAD100680168C906BED500210091016810
:1017E000009140680090009801B07047026852680C
:1017F0006FF35F2221F8022B8162A8E740F2F41018
:10180000C2F20000FFF728BA40F23820C2F200000E
:10181000FFF722BAFEE7000088B043F60805C4F2DD
:101820000205D5F8F8034EF60C5740F40070C5F8E1
:10183000F803D5F8F803CEF2000740F48060C5F84D
:10184000F803D5F8F8034FF6FF0140F48070C5F8AF
:10185000F803386840F20008084040F20031C0F256
:10186000FA5108433860C2F20008D8F8000044F684
:10187000D354C1F26204A0FB04024FF0FF3101EB2C
:1018800092120020B0EB126F24D14EF20013CEF270
:10189000000343F8EC2CF022FA75072243F8E80C19
:1018A00043F8F02C3A68C2F3022282F00703042BBB
:1018B00028BF0423033A01FA03F338BF0246DB438F
:1018C00003FA02F21201FA7544F2F832C2F200028F
:1018D000012313700390EA6B47F2000642F4804242
:1018E000EA63EA6BC4F2000602F480420392039AB0
:1018F0000390AA6B42F08052AA63AA6B02F0805256
:101900000392039A3A68C2F3022282F00703042B7F
:1019100028BF04239940033A6FEA010138BF024609
:1019200091400901B9750390A96B41F08051A963F9
:10193000A96B01F08051039103990390306840F442
:1019400040403060306800F44040039003982868BD
:1019500000F00C00042837D0286800F00C0008289C
:1019600003D155F8040C40022ED455F8080C40F46D
:10197000803045F8080C44F2F430C2F200000168EF
:1019800055F8082C920321D40268521A642A00F2F6
:10199000A88055F8082C920318D40268521A642AB9
:1019A00000F29F8055F8082C92030FD40268521A57
:1019B000642A00F2968055F8082C920306D4026837
:1019C000521A642ADCD98CE055F8080C286800F01B
:1019D0000C0008282FD155F8040C47F6FF71C0F60B
:1019E0004371084042F60421C0F24071884278D128
:1019F000D5F8F80300F00F00042808D8052085F872
:101A0000F803D5F8F80300F00F0005280FD1286877
:101A100040F4E0502860286840F46040286028685E
:101A200020F0F000286055F8080C80015DD4EFF339
:101A3000108072B6FEE76021C4F2472100200860E2
:101A400044F2F430C2F20000026855F8083C9B01F1
:101A50001CD503689B1A022B43D855F8083C9B0100
:101A600014D503689B1A022B3BD855F8083C9B0100
:101A70000CD503689B1A022B33D855F8083C9B0100
:101A800004D503689B1A022BDFD92AE042F6042210
:101A9000C0F2407245F8042C01220A60016855F832
:101AA000082C9201A4D40268521A022A19D855F8B7
:101AB000082C92019CD40268521A022A11D855F8B7
:101AC000082C92013FF594AF0268521A022A08D8F6
:101AD00055F8082C92013FF58BAF0268521A022A82
:101AE000DDD9EFF3108072B6FEE72868022161F3BA
:101AF0000100286044F2F430C2F20000016841F2B3
:101B000088322B6803F00C03082B22D003685B1A81
:101B100093423FF68CAF2B6803F00C03082B18D0D0
:101B200003685B1A93423FF682AF2B6803F00C0305
:101B3000082B0ED003685B1A93423FF678AF2B68F0
:101B400003F00C03082B04D003685B1A9342D8D926
:101B50006DE7D5F8F80300F00E00062809D305203C
:101B600085F8F803D5F8F80300F00F0005287FF496
:101B70005EAF2868052161F38C2028602868042165
:101B800061F34F302860286800F00C0142F20040F9
:101B90000829C0F2F40006D0042926D141F2002021
:101BA000C0F27A0021E055F8041C01F03F0255F81C
:101BB000041C55F8043C4902C3F3881105D4A1FB69
:101BC00000010023FEF79FFB06E041F20020C0F277
:101BD0007A004843B0FBF2F055F8041C0222C1F32E
:101BE000014102EB4101B0FBF1F029680FF288429C
:101BF000C1F30311515C4FF0FF3AC840A0FB04123F
:101C00004EF200190AEB92110024CEF20009B4EB57
:101C1000116FC8F8000025D144F2F830C2F200007C
:101C2000027849F8EC1CF021F9750721012A49F8DE
:101C3000E84C49F8F01C15D139684FF0FF33C1F377
:101C4000022181F00702042A28BF0422033903FA83
:101C500002F238BF0021D24302FA01F10901F975FD
:101C600001210170CDE906440294A86A4FF0804139
:101C700040F01000A862A86A0DF10C0B00F01000F3
:101C8000029002980294A86A40F00400A862A86A30
:101C900000F00400029002980294A86A40F08000CC
:101CA000A862A86A00F08000029002980294A86AD4
:101CB00040F00200A862A86A00F0020002900298B8
:101CC0000294A86A40F00800A862A86A00F0080020
:101CD000029002980294A86A40F00100A862A86AE3
:101CE00000F001000290029840F21840C4F2020095
:101CF0000160182003904FF48810CDE9040441F2EC
:101D00000000C4F202005946FEF7D4FE01204FF451
:101D10008048CDE9040406F5CA305946CDF80C8058
:101D20000694FEF7C7FE3868C0F3022181F007026F
:101D30000420042A28BF0246CB1E0AFA02F24FF002
:101D4000050121EA020238BF23469A4013014EF2F0
:101D50000942CEF2000213704FF40073C9F800304C
:101D60003B68C3F3022383F00706042E28BF064610
:101D7000033B0AFA06F638BF234621EA060606FAAE
:101D800003F31B0153704FF48063C9F800300394D0
:101D9000AB6A43F40013AB62AB6A0C2503F4001387
:101DA0000393039B3B68C3F3022383F00706042ECF
:101DB00028BF0646033B0AFA06F638BF234621EA47
:101DC000060606FA03F31B01D3704FF48053C9F8DB
:101DD00000303B68C3F3022383F00706042E28BFBC
:101DE0000646033B0AFA06F638BF234621EA0606F2
:101DF00006FA03F31B015371C9F800803B6844F2F3
:101E00000048C3F3022383F00706042E28BF0646CA
:101E1000033B0AFA06F638BF234621EA060606FA0D
:101E200003F31B01D3714FF48033C9F800303B68D2
:101E3000C4F20008C3F3022383F00706042E38BF60
:101E400030460AFA00F0033B21EA000038BF23467F
:101E50009840000110724FF40030C9F8000040F2C1
:101E6000382008F58061C2F200004FF4E136C0E985
:101E70000016C0E90244C0E90445C0E90644FFF782
:101E800093F920B1EFF3108072B600BFFEE740F285
:101E9000F410C2F200000021C0E90086C0E902117E
:101EA000C0E90415C0E90611FFF77EF918B1EFF398
:101EB000108072B6FEE7532001F0C6F900284CD01E
:101EC00000F150024FF0000E02600322012380F85F
:101ED00046E0C0E90F2340F2040C4FF0500282F3B9
:101EE0001188BFF36F8FBFF34F8FC2F2000CDCF885
:101EF00000305E1C002BCCF8006057D00568D0E99C
:101F00000F42C0F838E002FB0451013C04FB0252CE
:101F1000C0E90151FF21C26080F8441080F84510EB
:101F20004FF0FF31024642F8181F4261C0E9072214
:101F30000246C0F810E042F82C1F002E8262C0E971
:101F40000C22C0F824E03ED0CCF8003013B90021B8
:101F500081F31188002180F84C1040F2E871C2F240
:101F6000000108604FF4805001F06EF9002837D06E
:101F700006465C2001F068F978B305460663002048
:101F800085F8590040F27000C2F20000009043F260
:101F90006940C0F600003CA14FF480620123019526
:101FA00000F0ACFB284600F07BF819E057F8085C1D
:101FB0002D06A3D04FF0500080F31188BFF36F8F30
:101FC000BFF34F8FFEE74FF0500080F31188BFF34F
:101FD0006F8FBFF34F8F00BFFEE7304601F084FAEA
:101FE00001F0C0FB40F26804C2F20004EFF3058088
:101FF0002168084304BF0120206000200390EFF314
:10200000058191B140F26C01C2F200010860EFF36A
:10201000058048B92068012806D10020F874022004
:10202000206001F09FFB00BFFEE74FF4007001F05D
:102030000BF9D0B106465C2001F006F9B8B10546AF
:102040000663002085F8590041F28560C0F6000063
:1020500010A180221823CDF800B0019500F04EFBAE
:10206000284600F01DF80398CCE70020CAE7304668
:1020700001F03AFA0020C5E700000000000000006F
:10208000010203040607080954545320536572766D
:102090006963650064656661756C745461736B0097
:1020A0002DE9F04140F204084FF0500181F311880E
:1020B000BFF36F8FBFF34F8FC2F20008D8F8002034
:1020C000531CC8F8003022B344F2FC32C2F20002C2
:1020D000136840F2703E01331360C2F2000EDEF866
:1020E000003044F6903C002B40F28833C2F2000CE2
:1020F000C2F200031DD0DCF80010002940F01C8261
:10210000DEF80010C26AC96A914298BFCEF800009A
:1021100012E24EF60452CEF2000212681206D3D03A
:102120004FF0500080F31188BFF36F8FBFF34F8FD4
:10213000FEE7CEF800001268012A40F0FD814FF062
:10214000FF321C4644F8082F5C60C3E903440024B6
:102150001D461C6045F81C2F9D61C3E908551D46AE
:102160005C6145F8302FDD62C3E90D551D469C6268
:1021700045F8442F1D64C3E912551D46DC6345F83C
:10218000582F5D65C3E917551D461C6545F86C2F32
:102190009D66C3E91C551D465C6645F8802FDD67CA
:1021A000C3E921551D469C6745F8942FC3F890500C
:1021B000C3E926551D46C3F88C4045F8A82FC3F83F
:1021C000A450C3E92B551D46C3F8A04045F8BC2FC9
:1021D000C3F8B850C3E930551D46C3F8B44045F8BC
:1021E000D02FC3F8CC50C3E935551D46C3F8C840BD
:1021F00045F8E42FC3F8E050C3E93A551D46C3F84B
:10220000DC4045F8F82F05F1140645F8045CC5E9F3
:10221000015545F8084CC5E90462C5E9066605F1B3
:102220002806EC60C5E90962C5E90B6605F13C06C4
:102230002C62C5E90E62C5E9106605F150066C63B3
:10224000C5E91362C5E9156605F16406AC64C5E924
:102250001862C5E91A6605F17806EC65C5E91D62E4
:10226000C5E91F6605F18C062C67C5E92262C5E940
:10227000246605F1A006C5F88440C5E92762C5E9D2
:10228000296605F1B406C5F89840C5E92C62C5E990
:102290002E6605F1C806C5F8AC40C5E93162C5E94E
:1022A000336605F1DC06C5F8C040C5E93662C5E90C
:1022B000386605F1F006C5F8D440C5E93B62C5E9CA
:1022C0003D6605F58276C5F8E840C5E94062C5E996
:1022D000426605F58C76C5F8FC40C5E94562C5E95E
:1022E000476605F59676C5F81041C5E94A62C5E925
:1022F0004C6605F5A076C5F82441C5E94F62C5E9ED
:10230000516605F5AA76C5F83841C5E95462C5E9B4
:10231000566605F5B476C5F84C41C5E95962C5E97C
:102320005B6605F5BE76C5F86041C5E95E62C5E944
:10233000606605F5C876C5F87441C5E96362C5E90C
:10234000656605F5D276C5F88841C5E96862C5E9D4
:102350006A6605F5DC76C5F89C41C5E96D62C5E99C
:102360006F6605F5E676C5F8B041C5E97262C5E964
:10237000746605F5F076C5F8C441C5E97762C5E92C
:10238000796605F5FA76C5F8D841C5E97C62C5E9F4
:102390007E6605F50276C5F8EC41C5E98162C5E9BE
:1023A000836605F50776C5F80042C5E98662C5E98A
:1023B000886605F50C76C5F81442C5E98B62C5E957
:1023C0008D6605F51176C5F82842C5E99062C5E924
:1023D000926605F51676C5F83C42C5E99562C5E9F1
:1023E000976605F51B76C5F85042C5E99A62C5E9BE
:1023F0009C6605F52076C5F86442C5E99F62C5E98B
:10240000A16605F52576C5F87842C5E9A462C5E957
:10241000A66605F52A76C5F88C42C5E9A962C5E924
:10242000AB6605F52F76C5F8A042C5E9AE62C5E9F1
:10243000B06605F53476C5F8B442C5E9B362C5E9BE
:10244000B56605F53976C5F8C842C5E9B862C5E98B
:10245000BA6605F53E76C5F8DC42C5E9BD62C5E958
:10246000BF6605F54376C5F8F042C5E9C262C5E925
:10247000C46605F54876C5F80443C5E9C762C5E9F1
:10248000C96605F54D76C5F81843C5E9CC62C5E9BE
:10249000CE6605F55276C5F82C43C5E9D162C5E98B
:1024A000D36605F55776C5F84043C5E9D662C5E958
:1024B000D866C5F8544344F6F425C2F200052E460A
:1024C00046F8082F6E60C5E9036644F60836C2F286
:1024D0000006374644F63C312C6047F8082FC2F21C
:1024E00000017760C6E903770F46346047F8082F8C
:1024F0004F60C1E903770C6044F6B031C2F20001CD
:102500000F4647F8082F4F60C1E903770C6044F687
:102510009C31C2F200010F4647F8082F4F60C1E915
:1025200003770C6040F27831C2F200010D6040F296
:102530008031C2F200010E6044F20841C2F2000193
:102540000A6844F20C4401320A604264C2F2000498
:10255000C26A2168061D8A4202EB820188BF22609E
:1025600003EB810254684261A5688460C560A56878
:10257000A6606E6053F82120013243F82120D8F87C
:102580000020F2B1511EC8F8001002D1002181F3E1
:102590001188DCF8001091B1DEF80010C06AC96A39
:1025A000814228BFBDE8F0814EF60450CEF2000013
:1025B0004FF080510160BFF34F8FBFF36F8FBDE8C5
:1025C000F0814FF0500080F31188BFF36F8FBFF39D
:1025D0004F8F00BFFEE7000044F2004B40F2040AB8
:1025E00044F2FC38C2F2000BC2F2000A4FF00009BC
:1025F000C2F2000803E000BF204600F075FFDBF8E0
:102600000000002849D04FF0500080F31188BFF33C
:102610006F8FBFF34F8FDAF80000411CCAF800102B
:1026200030B94EF60452CEF200021268120650D1B2
:1026300044F6B032C2F20002D268D468D4E9027320
:102640006269BB605668E368251DAE425F6008BFE3
:102650005360C4F814901368A3F101031360126867
:10266000D8F80020A2F10102C8F80020DBF8002011
:10267000A2F10102CBF8002011B3CAF8000008B99A
:1026800089F3118894F859000228B8D00128B3D0F2
:1026900048BB206B00F028FFAEE740F28830C2F262
:1026A000000000680228AAD34EF60450CEF20000C3
:1026B0004FF080510160BFF34F8FBFF36F8F9EE7E4
:1026C0004FF0500080F31188BFF36F8FBFF34F8F2F
:1026D000FEE74FF0500080F31188BFF36F8FBFF318
:1026E0004F8F00BFFEE74FF0500080F31188BFF31B
:1026F0006F8FBFF34F8F00BFFEE700002DE9F0435F
:1027000081B0DDE908948046206B17460E469100A3
:10271000A5221D46FDF7B4FE206B002E00EB8700BE
:10272000A0F1040020F0070055D0317884F834106F
:10273000317800294BD0717884F8351071780029F0
:1027400045D0B17884F83610B17800293FD0F178BF
:1027500084F83710F178D1B3317984F838103179B1
:10276000A9B3717984F83910717981B3B17984F89A
:102770003A10B17959B3F17984F83B10F17931B35A
:10278000317A84F83C10317A09B3717A84F83D10BB
:10279000717AE1B1B17A84F83E10B17AB9B1F17AC7
:1027A00084F83F10F17A91B1317B84F84010317B8D
:1027B00069B1717B84F84110717B41B1B17B84F8C0
:1027C0004210B17B00291CBFF17B84F8431000212B
:1027D00084F8431002E0002184F83410372D28BF1C
:1027E0003725C5F138020021A2614FF0807242F610
:1027F0005D07C4E91351C4E90441C4E90941E56234
:10280000616584F8581028F00103C0F6000740F80D
:10281000042C6FF0020240E9037340E909214438B7
:10282000B9F1000F206018BFC9F8004001B0BDE841
:10283000F083000008480068006880F308884FF0C3
:10284000000080F3148862B661B6BFF34F8FBFF308
:102850006F8F00DF00BF000008ED00E081B00020B6
:10286000009040F20400C2F2000000684FF05001F6
:1028700081F31188BFF36F8FBFF34F8F013007D003
:10288000FEE700BF009830B9009820B9009810B951
:1028900000980028F6D001B0704700008AB040F2DE
:1028A000743A44F6C43BC2F2000AC2F2000B4FF085
:1028B0000008DAF8001040F204060868C2F20006C8
:1028C00010B1C9680C6800E0002444F20442C2F26E
:1028D000000211680131116040F26C32C2F2000254
:1028E000DBF800901168894536D30028C2F80090C3
:1028F00000F0A480A145C0F0A18001F03DFDDAF810
:102900000000C168CE68D6E9021372698B60F36873
:1029100059605768311D8F4208BF5360C6F8148054
:102920001368013B1360126896F82820530700F1E2
:10293000898040F26C3402F0FE00C2F2000486F896
:102940002800C2E101694F68B760BC60F1604C606B
:102950007061016801310160DAF800000168002946
:102960005AD0C068C6680768D6E9022170699160CC
:10297000F168341D4A604268A24208BF4160C6F84F
:1029800014800168013901600068316A3046884767
:1029900096F828004007DFD5B069C219BA4219D9A4
:1029A000DAF80000511C72603661CBD000F10803E8
:1029B00059680F68974229D84B681F68974228D8F2
:1029C00059680F68974221D84B681F6897421F4685
:1029D000EED9B9E744F6C830C2F20000006800281A
:1029E00000F04D8344F69031CDE906870896C2F297
:1029F0000001096821B144F20441C2F200010968F2
:102A000006A901F0C3F90028A6D138E30F461946FC
:102A10009AE71F4698E700BF40F28432C2F20002F4
:102A2000116840F26C34C2F20004CAF80010106061
:102A3000C4F8009001F0A0FCA7E100BFA8B34FF0DC
:102A4000000E3CE0B36936611A194A45726009D834
:102A5000A9EB0400984280F0E68040F28430C2F294
:102A600000000068531C00F0AD8040F26C3400F1AF
:102A70000807C2F2000400BF7B681D68954200F29F
:102A800011815C682768974200F20F8163681F68B4
:102A9000974200F20C815F6840F26C343D68C2F2EC
:102AA000000495423D46E7D907E140F28430C2F286
:102AB000000000680068B0FA80F04FEA501E44F64B
:102AC000C830C2F2000000684FF0500282F3118853
:102AD000BFF36F8FBFF34F8F3268531C33603AB927
:102AE0004EF60457CEF200073F683F0640F0EF82F3
:102AF00040F21C35C2F2000595F84470FF2F08BF64
:102B000085F8448095F84570FF2F05D140F21C37B9
:102B1000C2F2000787F84580002B00F0CE823260B9
:102B20000AB988F3118840F21C36C2F20006B26B73
:102B3000002A40F0078140F2703CC2F2000CDCF841
:102B40000020B36A3146D3619F6800F12406176202
:102B50009F6802F1180501907D609D6096624A6A47
:102B600001324A62DBF80000DCF80030D3E902569B
:102B70005F69AE60DE681A1D75607D68954208BFAA
:102B80007E60C3F814803A68BEF1000FA2F1010222
:102B90003A603A6819D040F2703144F69C30C2F283
:102BA0000001C2F20000096842680F1D8A60936844
:102BB000CB6093685F609760486101680131016094
:102BC0000198BFE003695D6873E040F27033C2F2C0
:102BD0000003A4EB09011A6810EB010CC2F804C051
:102BE00040D340F28030C2F20000D0F800C01A6832
:102BF000134653F8046F711C6BD001980CF1080454
:102C000067683968B14270D879680D68B5426FD885
:102C10004F683D68B54200F288807C68216825468F
:102C2000B142EDD983E044F6C830C2F2000000683A
:102C3000002800F0568244F69031CDE906840896CB
:102C4000C2F20001096821B144F20441C2F200015C
:102C5000096806A901F09AF840F26C34C2F2000447
:102C600098BB3EE240F27830C2F20000D0F800E0BB
:102C70001F683B4653F8044F611C2FD00EF108012A
:102C80004E683268A2422DD871680A68A24231D8D3
:102C90004E683268A24225D871680A68A2420A4684
:102CA000EED928E01D463B4607E0254601E01D46DB
:102CB000234640F26C34C2F20004B560A960F360B0
:102CC00059607061016801310160316A304688479E
:102CD0005BE0DCF8107001987D6828E0DEF8106099
:102CE000726808E032460E4605E03D4627461EE083
:102CF0000D461CE00A46BA609360FE607360C7F838
:102D000014E0DEF8001044F628300131CEF800104F
:102D1000C2F20000016801988C4513D244F62830B5
:102D2000C2F20000C0F800C04AE73D460F46956079
:102D3000AB60D7607B60C2F814C0DCF800100131D2
:102D4000CCF8001000F0D8F901F016FB40F26C341A
:102D5000C2F20004C8B94EF60450CEF200004FF0A3
:102D600080510160BFF34F8FBFF36F8F0DE00B6990
:102D70005C68B460A060F36058607161086840F2FC
:102D80006C3401300860C2F2000444F6C830C2F26C
:102D90000000006802A901F0AFF800283FF489ADF7
:102DA0000298B0F1FF3F06DCDDE90320059990476A
:102DB00002980028E9D4049E716979B1D6E90232FB
:102DC000371D9A60F26853604B68BB4208BF4A6087
:102DD000C6F814800A68013A0A600968DBF80090B6
:102DE0002168894580F08280DAF800100A687AB993
:102DF00074E001694D68BD60AC60F9604C60786159
:102E0000016801310160DAF80010086800285CD020
:102E1000C868C768D0F800B0D7E902217869916026
:102E2000F9683C1D4A604268A24208BF4160C7F889
:102E300014800168013901600068396A38468847A2
:102E400097F828004007DED5B86900EB0B025A4519
:102E50001AD9DAF80000511C7A603F61C9D000F13C
:102E6000080300BF59680D68954229D84B681D6852
:102E7000954228D859680D68954221D84B681D683D
:102E800095421D46EED9B6E744F6C830C2F20000BE
:102E90000068002800F0EA8044F69031CDE9068B06
:102EA0000897C2F20001096821B144F20441C2F25C
:102EB0000001096806A900F069FF0028A3D1D5E048
:102EC0000D46194697E71D4695E7029844F6C43B20
:102ED00040F26C34C2F2000BC2F2000440F28433C0
:102EE000C2F200031A681960CAF800200928C4F861
:102EF00000903FF64AAFDFE800F00505054A518132
:102F000005054A5196F828000399B36940F001007D
:102F100086F828005A18304640F8042F4A45366192
:102F200005D9894575D28A42514608D272E0A9EB8B
:102F30000101994240F28431C2F200016AD3316A40
:102F40003046884796F8280040077FF51EAF44F6C4
:102F5000C830C2F200000068002800F09A8003998F
:102F6000B26908961144CDE9068144F69031C2F267
:102F70000001096821B144F20441C2F2000109686C
:102F800006A900F003FF00287FF4FFAE81E096F869
:102F9000280000F0FE0086F82800F6E696F82800E3
:102FA00040F00101039886F828100028B06100F075
:102FB0007A8040F2843100EB09033046C2F200010E
:102FC00040F8043F36614B4588BF514609685A1C9A
:102FD0001CD001F1080700BF7A6815689D4239D8F6
:102FE00055682F689F4238D86A6817689F4236D85C
:102FF00057683D683C469D42EED932E096F828007D
:103000008107C6D4304600F06FFABEE60A695468FC
:1030100027E051460968531C3FF4A9AE01F10807A7
:103020007B681D6895420DD85D682F6897420CD863
:103030006B681F6897420AD85F683D683C469542B6
:10304000EED996E61C463B4693E62C4691E61C4696
:103050002B468EE614463A4603E02C4601E0144621
:103060002A46B460A060F260506086E64FF05000DF
:1030700080F31188BFF36F8FBFF34F8FFEE74FF0E0
:10308000500080F31188BFF36F8FBFF34F8F00BFE5
:10309000FEE74FF0500080F31188BFF36F8FBFF34E
:1030A0004F8F00BFFEE74FF0500080F31188BFF351
:1030B0006F8FBFF34F8F00BFFEE74FF0500080F3DC
:1030C0001188BFF36F8FBFF34F8F00BFFEE74FF044
:1030D000500080F31188BFF36F8FBFF34F8F00BF95
:1030E000FEE74FF0500080F31188BFF36F8FBFF3FE
:1030F0004F8F00BFFEE700002DE9F04140F20408C9
:103100004FF0500181F31188BFF36F8FBFF34F8FE2
:10311000C2F20008D8F800100446481C0029C8F87C
:1031200000005CD094F94560012E14DB44F6D037E2
:10313000C2F20007012500BF606A50B1206BC06871
:1031400001F0A0F80028F0B218BF3D60013E012850
:10315000F2D8D8F80000FF21002884F845104ED09E
:103160000138C8F8000002D1002080F311884FF028
:10317000500080F31188BFF36F8FBFF34F8FD8F8E3
:103180000010481C0029C8F8000042D094F944609F
:10319000012E14DB44F6D037C2F20007012500BF30
:1031A000206950B1E069C06801F06CF80028F0B205
:1031B00018BF3D60013E0128F2D8D8F80000FF2179
:1031C000002884F8441034D00138C8F8000018BF33
:1031D000BDE8F081002080F31188BDE8F0814EF653
:1031E0000451CEF20001096809069BD04FF050004F
:1031F00080F31188BFF36F8FBFF34F8FFEE74FF05F
:10320000500080F31188BFF36F8FBFF34F8F00BF63
:10321000FEE74EF60451CEF2000109680906B5D06A
:103220004FF0500080F31188BFF36F8FBFF34F8FC3
:10323000FEE74FF0500080F31188BFF36F8FBFF3AC
:103240004F8F00BFFEE700002DE9F04144F204413A
:10325000C2F200010A6844F6F02801320A6040F226
:103260007C32C2F200021168C2F2000831B198F853
:103270000010002918BF4FF0004133E040F2EC711C
:10328000C2F20001CF1D27F0070711F00703A1EBE1
:10329000070618BF394644F69437C2F200070025E6
:1032A000C7E900154FF47057002B18BF06F570578B
:1032B000CB1923F00703A3F10807176043E9025570
:1032C0007B1AC1E9007344F62431C2F200010B609D
:1032D00044F61C31C2F200010B60012188F8001095
:1032E0004FF0004100284FF0000400F0AC80014096
:1032F00040F0A98020F0070144F61C3E01F11004C3
:103300004107C2F2000EDEF8001008BF00F1080409
:103310008C4246D844F69435C2F2000529684B68C1
:10332000A34228D20868B8B10E464368A34218D217
:103330000768B7B17B68A34216D23D68A5B16B6838
:10334000A34214D22E6896B17368A34212D2306899
:1033500031460028E9D10EE044F69435C2F200056A
:1033600009E00146354606E03946054603E02946B0
:103370003D4600E031461068814212D0D5F800C0C9
:103380000E68181B11282E603CD30B195D070AD05C
:103390004FF0500080F31188BFF36F8FBFF34F8F52
:1033A000FEE700244FE058604C6044F69434C2F2CB
:1033B000000400BF206898420AD204689C420AD2E6
:1033C0002068984204D2046805469C42F2D303E088
:1033D0002546044600E005466E685868AF199F42CE
:1033E00002D130442B4668601E18A64206D11268EE
:1033F000944203D0D4E90042104458609D421C60BE
:1034000018BF2B6044F624324868DEF80030C2F260
:10341000000214681B1AA342CEF8003038BF1360B4
:1034200098F800200CF10804002A4FF0000218BFA1
:1034300040F000400A6044F63032C2F200021368E5
:103440004860581C106000F097FF600709D04FF0EB
:10345000500080F31188BFF36F8FBFF34F8F00BF11
:10346000FEE72046BDE8F08182B040F2E877002018
:10347000C2F200070DF107040FA513A68DF807008F
:1034800002E0C82000F0ACF83868214600F034FDB6
:103490000128F9D19DF80700022804D00128F0D1B5
:1034A0003046092101E028460C21FEF733F84FF49D
:1034B000FA7000F095F8E7E748656C6C6F20576F7D
:1034C000726C6421000000004231313131373035F7
:1034D00034000000DFF80C00016841F47001016065
:1034E0007047000088ED00E080B5002808BF80BD6F
:1034F00044F6F021C2F200010A7850F804CC002A08
:1035000018BF4FF0004212EA0C0F0CD0A0F10801D6
:103510000B6893B14FF0500080F31188BFF36F8FA9
:10352000BFF34F8FFEE74FF0500080F31188BFF3D9
:103530006F8FBFF34F8F00BFFEE72CEA020240F807
:10354000042C44F20442C2F20002136801331360F7
:1035500050F804CC44F61C30C2F200000268624409
:10356000026044F69430C2F2000000BF03688B4250
:103570000AD2186888420AD203688B4204D21868BB
:103580001A468842F2D303E00246184600E01A4683
:10359000D2F804E002EB0E038B4203D1F44411464F
:1035A000C2F804C001EB0C0383420AD140F27C3321
:1035B000C2F200031B68984203D0D0E900036344C1
:1035C0004B60086044F634308A4218BF1160C2F282
:1035D0000000016801310160BDE8804000F0CCBE10
:1035E0002DE9F04144F20441C2F200010A6842B1FF
:1035F0004FF0500080F31188BFF36F8FBFF34F8FF0
:10360000FEE70A6840F2703801320A6044F6C431BD
:10361000C2F20001C2F200080968D8F80030D3E90C
:1036200002645D69B4606F681A1DDC6897424FF0F0
:103630000002666008BF6C605A612A6811EB000CDA
:10364000A2F101022A602A68D8F80020C2F804C05A
:1036500020D340F28030C2F20000D0F800C0D8F889
:1036600000E0724652F8040F411C35D00CF10804FA
:1036700063681968814237D85C682168814239D80B
:103680006368196881422FD85C68216881422146AD
:10369000EED930E040F27830C2F20000D0F800E01D
:1036A000D8F80020134653F8041F481C18D00EF118
:1036B000080500BF686804688C4218D845682C6803
:1036C0008C4226D8686804688C4210D845682C68FB
:1036D0008C422C46EED91DE0DCF8103059680AE027
:1036E000DEF81000446815E01946234603E004465E
:1036F00028460FE02146CEF808108A60CEF80C303C
:103700005A60CEF814C0DCF800000130CCF800009C
:1037100014E02C469460A360D0604360C2F814E0CB
:10372000DEF800000130CEF8000044F62830C2F286
:10373000000001688C4538BFC0F800C000F01CFED6
:10374000002818BFBDE8F0814EF60450CEF200000C
:103750004FF080510160BFF34F8FBFF36F8FBDE813
:10376000F08100002DE9F04184B05C2003900398C3
:103770005C2840F0B280039844F2106444F2104098
:10378000C2F20004C2F200002063022084F8590053
:1037900042F2D95003AEC0F600000FF21051802261
:1037A000002300960194FEF7A9FF2046FEF778FC5F
:1037B000039844F62031C2F200010028086000F0AE
:1037C000658240F204084FF0500080F31188BFF387
:1037D0006F8FBFF34F8FC2F20008D8F80000411C72
:1037E0000028C8F8001000F0828044F6C83CC2F2FD
:1037F000000CDCF80010002900F08B80D8F80020C5
:10380000002A00F03B81501EC8F8000004D10020BF
:1038100080F31188DCF80010002900F038815C206A
:10382000039003985C2840F04681039844F66C248A
:1038300044F26C60C2F20004C2F200002063022075
:1038400084F8590042F69D00C0F600000FF26C416A
:103850004FF48072022300960194FEF74FFF20463A
:10386000FEF71EFC039844F6CC31C2F2000100289A
:10387000086000F00C814FF0500282F31188BFF312
:103880006F8FBFF34F8F44F62832C2F200024FF021
:10389000FF33136044F69032C2F20002012313603A
:1038A00044F6C4324EF20040C2F200020023CEF2CF
:1038B00000004CF270211360C4F20F11D0F80029FF
:1038C0004B1C9A4240F01D814FF0500080F311884C
:1038D000BFF36F8FBFF34F8FFEE74FF0500080F3C1
:1038E0001188BFF36F8FBFF34F8F00BFFEE74EF617
:1038F0002050CEF2000050F81C0C00063FF475AFCB
:103900004FF0500080F31188BFF36F8FBFF34F8FDC
:10391000FEE744F6C821C2F200014FF0FF320B4629
:1039200044F6DC2043F8082FC2F200004B60C1E9E6
:103930000333002304460B6044F8082F40F274322E
:10394000C2F200024460C0E903440360116040F227
:103950008431C2F20001086050200390039850287F
:1039600040F09F80039840F21C31C2F20001012018
:1039700081F8460040F27C20C2F2000008600A2074
:103980001022C1E90F024FF0500080F31188BFF3FD
:103990006F8FBFF34F8FD8F80020531C002AC8F850
:1039A000003000F092800868D1E90F454FF0000E1A
:1039B00005FB0407013C04FB0504C1F838E0C1E93C
:1039C0000107FF20CC6081F8440081F845004FF0EA
:1039D000FF300C4644F8180F4C61C1E907440C460F
:1039E000C1F810E044F82C0F002B8C62C1E90C44A4
:1039F000C1F824E000F07B80C8F8002012B9002054
:103A000080F3118844F65032C2F20002106800249C
:103A10000028134681F84C40CCF8001000F040819B
:103A200053F8080F002800F0C780134653F8100F12
:103A3000002800F0C380134653F8180F002800F048
:103A4000BF80134653F8200F002800F02281134650
:103A500053F8280F002800F01E81134653F8300F4A
:103A6000002800F01A81134653F8380F002800F0A0
:103A7000168140F21C31C2F20001BFE64FF0500047
:103A800080F31188BFF36F8FBFF34F8FFEE74FF0C6
:103A9000500080F31188BFF36F8FBFF34F8F00BFCB
:103AA000FEE74FF0500080F31188BFF36F8FBFF334
:103AB0004F8F00BFFEE74FF0500080F31188BFF337
:103AC0006F8FBFF34F8F00BFFEE74EF62050CEF250
:103AD000000050F81C0C00063FF465AF4FF050009A
:103AE00080F31188BFF36F8FBFF34F8FFEE74FF066
:103AF000500080F31188BFF36F8FBFF34F8F00BF6B
:103B0000FEE7D0F800298A4209D14FF0500080F337
:103B10001188BFF36F8FBFF34F8F00BFFEE70178AF
:103B200044F2EC320391FF2101700178C2F20002ED
:103B30008DF80B109DF80B1001F05001117044F23C
:103B4000F031C2F2000107220A609DF90B20B2F1A8
:103B5000FF3F00F388800722531E0B609DF80B7017
:103B60007F008DF80B709DF90B70B7F1FF3F29DCDA
:103B7000931E0B609DF80B707F008DF80B709DF904
:103B80000B70B7F1FF3F1DDCD31E0B609DF80B706F
:103B90007F008DF80B709DF90B70B7F1FF3F11DCC2
:103BA000043A0A609DF80B305B008DF80B309DF9EC
:103BB0000B30002BD0D406E0012471E002246FE02A
:103BC00003246DE01A46032A4DD14FF440720A6077
:103BD00003994EF620540170CEF2000421684FF68E
:103BE000184241F4700121602168002541F07041C4
:103BF00021604FF61041CFF6FF71CFF6FF724550AE
:103C0000855040F20002C2F20002126844F6D3531B
:103C1000C1F26203A2FB03234FF0FF3202EB9312C7
:103C20004FF61443CFF6FF73C25007224250C8F834
:103C30000050FFF74FFCD4F8140240F04040C4F8A5
:103C40001402FEF7F7FD00F03DF80395D8F80000E8
:103C50004FF0500181F31188BFF36F8FBFF34F8F87
:103C600001300AD0FEE74FF0500080F31188BFF317
:103C70006F8FBFF34F8F00BFFEE7039830B90398F3
:103C800020B9039810B903980028F6D004B0BDE815
:103C9000F081042404E0052402E0062400E0072467
:103CA00004A0186002EBC4004160A7E549444C45FC
:103CB00000000000546D725100000000546D72202D
:103CC0005376630044F20440C2F20000006830B151
:103CD00044F6D030C2F2000001210160704744F682
:103CE000D030C2F20000002144F20C4C0160C2F25C
:103CF000000CDCF8001040F2883201EB8103C2F2C4
:103D0000000252F82300A8B101EB810002EB80030E
:103D100053F8040F4268181D82421A6001D152689C
:103D20001A60D06840F27032C2F200021060CCF823
:103D30000010704702EB83000139A0F12803481CF2
:103D400015D058690028DFD189B11868C8B9012990
:103D50000DD053F8140CB0B9022908D053F8280C30
:103D600004390028A3F15003E9D00131CCE74FF02A
:103D7000500080F31188BFF36F8FBFF34F8F00BFE8
:103D8000FEE70139C0E70239BEE70000F0B581B0B7
:103D900098B3044600293AD044F69030C2F20000AD
:103DA000006820B144F20440C2F20000006840F212
:103DB00004054FF0500080F31188BFF36F8FBFF3FD
:103DC0004F8FC2F200052868421C2A6058B3A36BCB
:103DD000E76BBB4237D2A66B226C002A39D06068F1
:103DE000FCF709FB216CD4E901020027084460605C
:103DF000904224BF2068606033E04FF0500080F3B1
:103E00001188BFF36F8FBFF34F8F00BFFEE7206CA9
:103E10000028C1D04FF0500080F31188BFF36F8F9E
:103E2000BFF34F8FFEE74EF60452CEF20002126847
:103E300012064CD04FF0500080F31188BFF36F8F03
:103E4000BFF34F8FFEE7002A4CD02860002001B05E
:103E5000F0BD2068002720B9A06800F0ADF9A76088
:103E60000746701CA063606A80B1206BC06800F0D8
:103E700009FAB8B14EF60450CEF200004FF080516E
:103E80000160BFF34F8FBFF36F8F0BE057B14EF65A
:103E90000450CEF200004FF080510160BFF34F8F0D
:103EA000BFF36F8F286840B10138286002D100202D
:103EB00080F31188012001B0F0BD4FF0500080F375
:103EC0001188BFF36F8FBFF34F8F00BFFEE7A26B68
:103ED000E36B9A42FFF47FAF2860002080F31188E3
:103EE00001B0F0BD4FF0500080F31188BFF36F8F29
:103EF000BFF34F8FFEE70000F0B581B0002845D03A
:103F0000044600294BD044F69030C2F2000000680D
:103F100020B144F20440C2F20000006840F20407FD
:103F20004FF0500080F31188BFF36F8FBFF34F8FB6
:103F3000C2F200073868421C00283A603BD0A66BEA
:103F4000002E48D0226C5AB1D4E902508318E360A5
:103F5000AB4224BF2368E36008461946FCF74BFADE
:103F6000701EA063206978B1E069C06800F08AF92A
:103F700050B14EF60450CEF200004FF08051016077
:103F8000BFF34F8FBFF36F8F012025E04FF050003C
:103F900080F31188BFF36F8FBFF34F8FFEE7206C64
:103FA0000028B0D04FF0500080F31188BFF36F8F1E
:103FB000BFF34F8FFEE74EF60450CEF200000068CC
:103FC0000006BCD04FF0500080F31188BFF36F8F14
:103FD000BFF34F8FFEE70020396821B10139396006
:103FE0000BD001B0F0BD4FF0500080F31188BFF34B
:103FF0006F8FBFF34F8F00BFFEE7002181F3118861
:1040000001B0F0BD2DE9F04F44F20440C2F20000CF
:10401000006848B144F63830C2F20000016801314E
:1040200001600020BDE8F08F44F6C430C2F2000009
:10403000016811F1010BC0F800B02ED340F27830C6
:10404000C2F20000026812684AB14FF0500080F3DB
:104050001188BFF36F8FBFF34F8F00BFFEE740F2B1
:104060008033C2F2000302681F6807601A6044F6DA
:104070002C32C2F200021368013313600268126826
:1040800022B10068C068C068406801E04FF0FF30AE
:1040900044F62832C2F20002106044F62831C2F21F
:1040A0000001086840F2703E40F288388345C2F251
:1040B000000EC2F2000801D2002068E040F2783A17
:1040C000C2F2000ADAF800000068002854D044F276
:1040D0000C49C2F20009002022E000BFF46AD9F8BE
:1040E00000108C4204EB840188BFC9F8004008EB43
:1040F00081035D687361AA68B560F260AA68AF6009
:10410000576058F82120013248F82120DEF80010CD
:10411000C96ADAF800208C4228BF0120116879B3FF
:10412000DAF80040E468E668374657F8044FA345DC
:1041300028D3D6E9023574699D606168F568B94293
:104140006B6008BF65602168013921602168B46A2D
:10415000002CC3D0D6E9071306F1180C8B60356A22
:10416000636869600021634508BF6560B1622168CA
:10417000013921602168B1E74FF0FF34002005E0EC
:104180004FF0FF3444F62831C2F200010C60DEF833
:104190000010C96A01EB810158F82110012944F689
:1041A000D031C2F2000188BF01200968002918BF80
:1041B0000120BDE8F08F000010B580B140F27031F1
:1041C000C2F20001096881420BD04FF0500080F329
:1041D0001188BFF36F8FBFF34F8F00BFFEE7002042
:1041E00010BD016D002942D04B1EC16AC26C03652F
:1041F00091424FF0000138D0BBBBD0E9021E4369A9
:10420000C1F808E05C68D0F80CE000F1040C6445EB
:10421000CEF8041008BFC3F804E0196840F2883EE5
:10422000013919601968C2F1380144F20C43C262C5
:104230008161C2F200031968C2F2000E8A4202EBE9
:10424000820188BF1A600EEB81035C684361A2683B
:104250008460C260A268C4F808C0C2F804C05EF8F6
:10426000210001304EF821000121084610BD4FF019
:10427000500080F31188BFF36F8FBFF34F8F00BFE3
:10428000FEE70000B0B558B3D0E90713826A8B602F
:10429000036AD2F804E000F1180C59600021E645E9
:1042A00008BF53608162116801391160116844F2DE
:1042B0000441C2F200010968D9B144F63C31C2F2AE
:1042C00000010A684B6801329D68C36105629D6800
:1042D000C3F808C0C5F804C081620A60C26A39E048
:1042E0004FF0500080F31188BFF36F8FBFF34F8FF3
:1042F000FEE7D0E9021342698B60D2F804E0C3689C
:1043000000F1040CE645596008BF5360116844F29F
:104310000C43013911601168C2F20003C26A1968C6
:1043200040F2883E8A4202EB8201C2F2000E88BF50
:104330001A600EEB81035C684361A5688460C56008
:10434000A568C4F808C0C5F804C05EF821000130B3
:104350004EF8210040F27030C2F200000068C06ADE
:10436000824291BF002044F6D031C2F20001012008
:1043700088BF0860B0BD00002DE9F04F81B044F265
:104380000440C2F2000001684FF0500282F311882D
:10439000BFF36F8FBFF34F8FC1B140F20407C2F27A
:1043A000000739684A1C3A6089B101680139016027
:1043B0000068E0B100203968002900F0D18001399F
:1043C000396000F0D68001B0BDE8F08FFEE74EF610
:1043D0000451CEF2000109680906E6D04FF0500002
:1043E00080F31188BFF36F8FBFF34F8FFEE744F266
:1043F000FC30C2F2000000680028DBD044F63C32FA
:10440000C2F20002106844F6D0340028C2F2000460
:1044100000F0D080D06844F20C4BC168C2F2000BAF
:10442000D1E90763886AB36043680F6A01F118082D
:1044300043457E6008BF476000278F6207680B1DF9
:10444000013F07600068D1E902674869B7604568C5
:10445000CF689D427E6008BF4760076840F2883998
:10446000013F07600068D1F82CE0DBF80070C2F271
:104470000009BE450EEB8E0788BFCBF800E009EBC4
:1044800087056C684D61A0688C60C860A068A360F7
:10449000436059F827009246013049F8270040F25E
:1044A0007030C2F200000068C06A864506D344F648
:1044B000D0320120C2F2000210605246106800287B
:1044C0005DD04FF0040C002505E000BF5046DAF83F
:1044D0000000002853D0D1E90747DCF800E0A760CE
:1044E0000F6AC6457C6008BFCCF800708D622F68EB
:1044F000013F2F602F68D1E902244F6994607868EA
:10450000CC689842626008BF7C60386801383860C7
:104510003868CF6ADBF80000874207EB870088BF66
:10452000CBF8007009EB800254684A61A6688C6081
:10453000CE60A668A360736059F82020013249F864
:10454000202040F27030C2F200000068C06A87424A
:10455000BCD344F6D030C2F2000001220260B5E7BD
:104560004FF0500080F31188BFF36F8FBFF34F8F70
:10457000FEE7002181F3118801B0BDE8F08F40F221
:104580007830C2F200000168096821B10068C06893
:10459000C068406801E04FF0FF3040F2040744F685
:1045A000D03444F62831C2F20007C2F20004C2F24D
:1045B0000001086044F63838C2F20008D8F800500C
:1045C00055B10126FFF71EFD002818BF2660013DEA
:1045D000F8D10020C8F80000206800283FF4EAAEB7
:1045E0004EF60450CEF200004FF080510160BFF350
:1045F0004F8F0120BFF36F8FDDE6F1EE100A4FF60B
:10460000FF71C0F2C03120EA010040F04070E1EEDD
:10461000100A70473846000800000020080000001B
:10462000E80100084046000808000020D0510000C2
:1046300004020008000000000024F400AAAAAAAAAC
:04000005080001AD41
:00000001FF
