:020000040800F2
:10000000584E0020C10100081126000825240008D0
:100010000D260008B10F0008E529000800000000C7
:100020000000000000000000000000009126000811
:10003000391300080000000021260008BD26000832
:10004000DB010008DB010008DB010008DB01000820
:10005000DB010008DB010008DB010008DB01000810
:10006000DB0100083D13000845130008DB01000810
:10007000DB010008DB010008DB010008DB010008F0
:10008000DB010008DB010008DB010008DB010008E0
:10009000DB010008DB010008DB0100084D1300084C
:1000A000DB010008A1270008DB010008DB010008D4
:1000B000AD270008DB010008DB010008DB010008B8
:1000C000DB010008DB010008DB010008DB010008A0
:1000D000DB010008DB010008DB010008DB01000890
:1000E000DB010008DB010008DB010008DB01000880
:1000F000DB010008DB010008DB010008DB01000870
:10010000DB010008DB010008DB010008DB0100085F
:10011000DB010008DB010008DB010008DB0100084F
:10012000DB010008DB010008DB010008DB0100083F
:10013000DB010008DB010008DB010008DB0100082F
:10014000DB010008DB010008DB010008DB0100081F
:10015000DB010008DB010008DB010008DB0100080F
:10016000DB010008DB010008DB010008DB010008FF
:10017000DB010008DB010008DB01000800000000D3
:10018000DB010008DB010008DB010008DB010008DF
:10019000DB010008DB010008DB010008DB010008CF
:1001A000DB010008DB010008DB010008DFF80CD0F0
:1001B00000F096FC00480047112C0008584E002023
:1001C0000648804706480047FEE7FEE7FEE7FEE7F1
:1001D000FEE7FEE7FEE7FEE7FEE7FEE78D27000805
:1001E000AD0100082DE9F05F0546002092469B46D0
:1001F00088460646814640241BE02846414647463D
:10020000224600F049FA53465A46C01A914110D38B
:1002100011461846224600F030FA2D1A67EB010805
:100220004F4622460120002100F027FA17EB000973
:100230004E41201EA4F10104DFDC484631462A4627
:100240004346BDE8F09F40EA01039B0703D009E065
:1002500008C9121F08C0042AFAD203E011F8013BB2
:1002600000F8013B521EF9D27047D2B201E000F80B
:10027000012B491EFBD270470022F6E710B513464A
:100280000A4604461946FFF7F0FF204610BD00005D
:100290000FB400B58DB010A909900B9000914FF0EC
:1002A000FF300A9000200C90054806900548079002
:1002B0006A4609A80F9900F005FA0DB05DF814FB25
:1002C000E1060008FF0600082DE9FF4F087883B01B
:1002D0009946FF2805D0491C2D2804D00024002071
:1002E00008E000200BE00124F9E700EB800003EBBD
:1002F0004000491C0B78FF2BF7D104B1404200238A
:100300000293147819461D462D2C01D02B2C04D1B4
:10031000521C2D2C13D000240294AA461478FF2CD2
:100320000FD00A25A3FB057801FB05814FF0000CD7
:1003300003FB0C11521CE3194AEB0101EEE7012407
:10034000EAE7814453EA010002D019F5C87F06DAD2
:1003500003980021C0E9001107B0BDE8F08F002527
:10036000AE4E2F46DFF8B882184600F061FBCDE9AB
:100370000001B9F1000002DAC9F1000400E004460E
:100380000023A74A1AEB030B42EB045A12E0E007E2
:1003900007D02A4633463846414600F068FA0746F9
:1003A00088462A4633461046194600F060FA05464C
:1003B0000E466410002CEAD1DDE90001B9F1000F0E
:1003C0005A46534606DA00F0C4FA3A46434600F06D
:1003D000C0FA05E000F04BFA3A46434600F047FA0F
:1003E000029A0AB181F00041039AC2E90001B3E721
:1003F0002DE9FF4F1F468DB0D7E901464FF0FF387A
:100400002E2045464FF000090B90B9696D1C0E98DF
:100410008847396A824688470028F6D1BAF1FF3FFB
:100420000AD024F4D064002E11DDBAF12B0F08D0CD
:10043000BAF12D0F0BD102E0404611B08DE744F424
:100440008064B9696D1C0E9888478246761E69469D
:10045000600501D52D2000E02B208DF8000001F172
:10046000010B0DF1200809E0B9696D1C0E98884751
:1004700082460F9844F40074761E0560002E02DD5B
:10048000BAF1300FF0D00B998A453ED144F0800488
:1004900006E00F99681CA9F1010944F40074086092
:1004A000B9696D1C761E0E98884782463028F0D0B8
:1004B0002BE00B998A4505D1200603D444F0800433
:1004C000761E18E0504604F081FD08B30DF11302CA
:1004D000761EAAF1300044F40074934506D20BF85E
:1004E000010B200607D5A9F1010003E0200602D484
:1004F00009F101008146A00502D50F99681C08602A
:10050000B9696D1C0E9888478246002ED1DC53E0F5
:10051000002E51DDBAF1650F02D0BAF1450F4BD173
:10052000A00549D5B9696D1C24F44074761E0E9857
:1005300088478246002E0CDD2B2804D0BAF12D0FFF
:1005400007D144F48074B9696D1C0E9888478246BF
:10055000761EE00501D52D2100E02B2108F8011BB6
:10056000CDF82C8021E00DF12901761E44F40074B1
:1005700088450CD2AAF1300010F0FF0088F8000086
:1005800002D10B99884509D908F1010806E0E00578
:1005900001D5244801E042F20F708146B9696D1C13
:1005A0000E98884782460F980560002E04DD50465D
:1005B00004F00CFD0028D6D1F9690E988847FF2079
:1005C0008BF8000088F800000020069007904B464A
:1005D0006A4608A906A8FFF777FEA00502D46FF0C7
:1005E00001002AE714F0240F0AD0E00714D1DDE956
:1005F00006123868031D3B600068C0E900120BE07A
:10060000DDE9060100F050FA0146E00704D1386840
:10061000021D3A600068016028460EE700001440A1
:100620000000F03FF1D8FFFF00F0004230F0004042
:100630000AD0C10D01F56071C0F3160042EA015104
:10064000C20840071143704700200146704730B58B
:100650000B46014600202022012409E021FA02F580
:100660009D4205D303FA02F5491B04FA02F528441A
:10067000151EA2F10102F1DC30BD202A04DB203A74
:1006800000FA02F1002070479140C2F1200320FAE5
:1006900003F3194390407047202A04DB203A21FAE3
:1006A00002F00021704721FA02F3D040C2F120028B
:1006B000914008431946704702681144137801605D
:1006C00018467047D1600449516104491162002104
:1006D0001161114600F02EBAB9060008290B000876
:1006E000426842B1016811F8013B23B1521EC0E9D2
:1006F0000012184670470121C160881E7047426889
:100700005AB1C368016843B983688B4205D0491E5A
:10071000521CC0E90012002070474FF0FF307047B4
:100720002DE9FE4F804681EA0300C00F0C46009081
:1007300021F0004123F00045B8EB0200A94105D2A9
:100740004046214690461C460B46024623F0004098
:10075000104347D0270DC7F30A00C3F30A51029094
:10076000401A019040286BDAC3F3130040F4801B59
:100770000098924620B10023D2EB030A63EB0B0BE7
:1007800001985946C0F140025046FFF776FF0646F1
:100790000D4650465946019A00F0B4F910EB080096
:1007A0006141002487EA115284EAE7731A4340D07A
:1007B000009A62B3019A012A4FEA075215DC001B26
:1007C00061EB02014FF0004202EA0752CDE900421C
:1007D000001C41F5801132462B4600F087FB03B028
:1007E000BDE8F08F40462146F9E7001B61EB0201AE
:1007F000001C41F5801300185B412018A2F500177A
:1008000047EB030140EAD570B6196D4111E06D0860
:100810004FEA360645EAC0754FEA0752001B61EB06
:100820000201001C41F5801149084FEA300000190F
:10083000514132462B4603B0BDE8F04F00F047BBB4
:100840000098012240000023D0EB020263EBE0732A
:10085000009821464FEAE074B8EB000061EB040118
:10086000E9E783F000435BE781F0004158E72DE9B9
:10087000FE4F81EA030404F0004421F0004100949B
:100880004FF0000B23F0004350EA01045ED052EA1F
:1008900003045BD0C3F30A54C1F30A552C44A4F2F9
:1008A000F3340194A0FB0254C1F3130141F480110D
:1008B000C3F3130343F4801301FB024400FB034E14
:1008C000840A970A44EA815447EA8357A4FB0768DD
:1008D00002958D0A05FB07854FEA932C04FB0C5407
:1008E0002705029D4FEA065847EA1637B5EB08057B
:1008F0006EEB070C870E920E47EA811742EA8312CD
:10090000A7FB0201B6EB0B0164EB00042B0D43EADD
:100910000C335E1844EB1C50DA465146E7FB0201EB
:10092000C5F313044FEA0B3343EA14534FEA04327E
:10093000019C43EA0603A4F10C040294009CCDE957
:1009400000B400F0D3FA03B0BDE8F08F00200146F8
:10095000F9E72DE9F04D81EA030404F0004B21F0A2
:10096000004514464FF0000A23F0004150EA05020A
:1009700020D054EA01021DD0C5F30A570246C5F340
:100980001303C1F31300C1F30A5640F4801543F476
:100990008013A7EB0608101BD64608F2FD3873EB50
:1009A000050002D308F1010801E092185B41B8F19B
:1009B000000F03DA00200146BDE8F08D00204FF45F
:1009C0008011064684460EE0171B73EB050705D31E
:1009D000121B63EB050306434CEA010C49084FEA7E
:1009E000300092185B4150EA0107EDD152EA030052
:1009F00012D082EA040083EA0501084305D0101BE7
:100A0000AB4106D20122002306E000224FF0004352
:100A100002E06FF0010253101AEB06004CEB085194
:100A200010EB0A0041EB0B01BDE8F04D00F04FBAAE
:100A30000EB540F2334202920022CDE90022134665
:100A400000F054FA03B000BDC1F30A52C1F3130120
:100A500040F2FF3341F480119A4202DA002001464D
:100A6000704740F233439A42A2F2334202DC5242D0
:100A7000FFF712BEFFF701BE30B5041E71F100048E
:100A800004DB4FF00044404264EB0101141E73F19B
:100A9000000405DB1C464FF00043524263EB0403A5
:100AA000994208BF904230BD01F0004330B421F0BC
:100AB000004150EA010206D00A0DA2F56072C1F3AE
:100AC0001301002A02DC30BC00207047440F44EAC6
:100AD000C104C100E01830BC00EBC25000F0C0B946
:100AE000064C074D06E0E06840F0010394E807007B
:100AF00098471034AC42F6D3FFF75CFBDC57000894
:100B0000FC570008202A06DBCB17203A41FA02F0F6
:100B100043EAE07306E041FA02F3D040C2F120025A
:100B20009140084319467047C0B24FF4F05100F0AD
:100B30002BBA00002DE9F34F8BB04FF0000801F104
:100B40000C000C464FF0010B46460DF1080A0190CF
:100B50006269012101989047051E2DD0252D2CD0CA
:100B6000216A8847C0B16269012101989047216AD2
:100B700088470028F7D1411E62690198904700E03C
:100B8000761CA1690B988847216A88470028F7D10D
:100B9000E1690B988847DBE7A1690B98884707460E
:100BA000A84201D1761CD3E7E1690B9888477F1CE6
:100BB00002D1B8F1000F6FD046E1002762693D46CF
:100BC0003946019890472A2804D162690121019889
:100BD00090470125DFF884926269012101989047CE
:100BE000A0F130010A290AD24F45E5DC07EB870165
:100BF00000EB4107303FDFD445F01005ECE7E90694
:100C000001D46FF000476C280AD04C2814D0682813
:100C100015D06A280DD074281CD07A281AD01DE06F
:100C200062690121019890476C2802D045F00405C3
:100C300014E045F002050DE045F020050AE0626988
:100C4000012101989047682802D045F0080505E089
:100C500045F400656269012101989047C4E9015794
:100C600065283DD019DC58287AD00CDC452837D0CF
:100C700004DC252826D0412831D131E046282FD068
:100C800047282CD12CE05B2877D0612828D0632816
:100C90007CD0642823D15AE0D0E06F2848D008DC0B
:100CA00066281DD067281BD0692821D06E2816D150
:100CB00027E0702845D0732868D0752847D0782859
:100CC0000DD14DE0A1690B988847054625283FF4D2
:100CD00069AFE1690B9888476D1C3FF46AAFB3E0D8
:100CE00023466A466FF001000B99FFF781FB9EE0F7
:100CF00045F040006060A80723464FF0000236D45C
:100D00003EE0E8077FF447AF2068011D21600068DE
:100D1000290501D506701BE7290701D5068017E7CD
:100D2000A90703D5F117C0E9006111E706600FE7D5
:100D300045F040006060A80723464FF0080216D433
:100D40001EE040F60E0125EA0100606016E045F065
:100D500040006060A80723464FF00A0207D40FE066
:100D600045F040006060A80708D5234610226FF0C8
:100D700001000B99AFF3008059E007E023461022F1
:100D80006FF001000B99AFF3008050E04FF00009C5
:100D90004F464B46632802D05B2806D040E0E80669
:100DA00001D40120A06001273AE062690121019885
:100DB00090475E2805D14FF00109626949460198C4
:100DC0009047216939B900210A46534643F821204A
:100DD000491C0829FADBB0B3216969B9C11700EBD6
:100DE000D16253110AEB830122F01F02821A012003
:100DF0000B68904003430B606269012101989047A2
:100E00005D28E8D1B9F1000F09D00020514651F812
:100E10002020D24341F82020401C0828F7DB02ABF9
:100E2000224600976FF001000B99AFF30080002875
:100E30000CDA401C08D1BBF1000F05D04FF0FF3099
:100E40000DB0BDE8F08FFFE74046F9E7E90701D1B3
:100E500008F1010806444FF0000B79E6CCCCCC0C2D
:100E60000029A8BF7047401C490008BF20F00100BE
:100E7000704710B4B0FA80FC00FA0CF050EA01049C
:100E800004BF10BC704749B1CCF1200421FA04F42E
:100E900011FA0CF118BF012121430843A3EB0C0107
:100EA000CB1D4FEA00614FEA102042BF002010BC6A
:100EB000704700EBC35010440029A4BF10BC70471A
:100EC000401C490008BF20F0010010BC704710B55D
:100ED000141E73F1000408DA401C41F1000192185D
:100EE0005B411A4301D120F0010010BD2DE9F04D06
:100EF00092469B4611B1B1FA81F202E0B0FA80F25B
:100F000020329046FFF7B9FB04460F4640EA0A003C
:100F100041EA0B0153465A46084313D0114653EA9F
:100F2000010019D0C8F140025046FFF7B5FB054655
:100F30000E46504659464246FFF79FFB084305D0F0
:100F4000012004E020463946BDE8F08D002005432D
:100F500046EAE0762C4337430A986305E40AA0EB9F
:100F600008000022FD0A44EA47540A3002D5002056
:100F70000146E9E7010510196941DDE90845001955
:100F80006941BDE8F04DA2E77F2801D9002208E0C1
:100F9000064A02EB5002C007127800D1120902F093
:100FA0000F0201209040084070470000445700089D
:100FB000FEE700002DE9F04F87B00C46054601F032
:100FC00013FD002800F0AE8141F2004640F2801A85
:100FD000CDE901540024C4F20206C2F2000A41F233
:100FE000111540F24448002712E000BF016A29426F
:100FF00032D030464FF4805100F020FB002807F13A
:10100000010718BF0120082F40EA4B0B2ED000BF6C
:1010100030464FF4805100F011FB0028F8D100BF9A
:1010200030464FF4805100F009FB0028F8D0DAF880
:1010300000004462016841F001010160416A272912
:10104000D4D8416A2729D1D8416A2729CED8416A04
:101050002829F3D3CAE700BF016A11EA080FC8D1F3
:10106000016821F001010160C3E700BF4FF00009F2
:1010700041F2111540F24448002411E0016A29426E
:1010800034D030464FF4805100F0D8FA002804F1F3
:10109000010418BF0120082C40EA470730D000BFE8
:1010A00030464FF4805100F0C9FA0028F8D100BF53
:1010B00030464FF4805100F0C1FA0028F8D0DAF839
:1010C0000000C0F82490016841F00101016000BFF8
:1010D000416A2729D2D8416A2729CFD8416A2729CE
:1010E000CCD8416A2829F3D3C8E700BF016A11EAC6
:1010F000080FC6D1016821F001010160C1E700BFFE
:101100004FF0000841F211144FF0000912E000BF47
:10111000016A214234D030464FF4805100F08EFAFB
:10112000002809F1010918BF0120B9F1080F40EAB0
:1011300045052FD030464FF4805100F07FFA00284B
:10114000F8D100BF30464FF4805100F077FA002804
:10115000F8D0DAF80000C0F82480016841F00101FD
:10116000016000BF416A2729D2D8416A2729CFD818
:10117000416A2729CCD8416A2829F3D3C8E700BFA0
:10118000016A40F244421142C5D1016821F00101D7
:101190000160C0E741F211194FF0000814E000BFF0
:1011A000016A11EA090F35D030464FF4805100F042
:1011B00045FA002808F1010818BF0120B8F1080F0E
:1011C00040EA440430D000BF30464FF4805100F074
:1011D00035FA0028F8D100BF30464FF4805100F0B6
:1011E0002DFA0028F8D0DAF80000002141620168E9
:1011F00041F00101016000BF416A2729D0D8416A4E
:101200002729CDD8416A2729CAD8416A2829F3D38A
:10121000C6E700BF016A40F244421142C4D10168EE
:1012200021F001010160BFE74FF0000814E000BFAA
:10123000016A41F21112114234D030464FF480510C
:1012400000F0FCF9002808F1010818BF0120B8F1EE
:10125000080F40EA49092FD030464FF4805100F082
:10126000EDF90028F8D100BF30464FF4805100F06E
:10127000E5F90028F8D0DAF80000002141620168A1
:1012800041F00101016000BF416A2729D0D8416ABD
:101290002729CDD8416A2729CAD8416A2829F3D3FA
:1012A000C6E700BF016A40F244421142C5D101685D
:1012B00021F001010160C0E7FFB257FA8BF050FA4C
:1012C00085F050FA84F05FFA89F1884225D145F221
:1012D000C079C0F600090DF114085FFA8BF340469F
:1012E00008214A46EEB2E4B2009703F083FD03AD55
:1012F000284608214A463346009403F07BFD45F218
:10130000C676C0F60006019A40463146FEF7C0FF99
:10131000029A28463146FEF7BBFF002007B0BDE821
:10132000F08F00BF0020C4F2C62028602060FF209C
:1013300007B0BDE8F08F000070470000082000F003
:101340009DB80000102000F099B80000202000F0A7
:1013500095B80000EFF3108072B600BFFEE7000002
:1013600080B582B0202811D0102819D0082825D1A6
:1013700041F20000C4F20200082100F05FF90128E8
:101380000CD100208DF807002EA02FE041F20000C4
:10139000C4F20200202100F051F918B302B080BD60
:1013A00041F20000C4F20200102100F047F90128C8
:1013B000F4D101208DF807001BA017E040F21800BF
:1013C000C2F20000002100688DF807100DF107013E
:1013D0000022002303F0D8F824A004F0A1F902B001
:1013E00080BD00BF02208DF8070008A004F098F926
:1013F00040F21800C2F2000000680DF1070100225F
:10140000002303F0C1F802B080BD00BF64697370AF
:101410006C6179206D6F64653A73686F77207069CD
:101420006374757265200D00646973706C61792056
:101430006D6F64653A73747564656E7420696420B9
:101440000D000000646973706C6179206D6F6465D4
:101450003A74656D706572617475726520616E6451
:101460002068756D69646974790D0000756E6B6E26
:101470006F776E20697271200D00000043F61441F1
:10148000C4F201010A68024214BF08607047FFF706
:1014900067BF00002DE9F04F82B000F13E4242F2FA
:1014A000004502F1FF77C4F202050A2243F6004E1E
:1014B0004FEAB726A84208BF0922C4F2010E092E3E
:1014C00038BF4FEAB7220125002600274FF0000859
:1014D000009208E008F101080437B8F1100F06F196
:1014E000020600F0A7800C6805FA08F914EA090F53
:1014F000F0D0D1F804B003220BF0030CACF10104DE
:10150000B240012C6FEA020A10D88268CC6802EA65
:101510000A02B440224382604268CBF3001422EAFC
:10152000090204FA08F42243426005E0BCF1030F0B
:1015300002D14FF0030C20E0C2688C6802EA0A0274
:10154000B4402243BCF1020FC26016D16FF0030217
:1015500002EA58020244D2F820C007F01C050F230B
:101560000C69AB402CEA030304FA05F52B43136224
:10157000D1F804B001250BF0030C02680CFA06F355
:1015800002EA0A021A431BF4403F0260A2D0002282
:1015900043F644030192C4F202031A684FF6084C62
:1015A00042F480421A601A68CFF6FF7C02F480424F
:1015B0000192019A28F00302724452F80C3007F0AD
:1015C0000C050F24AC40A343009C04FA05F52B4303
:1015D00042F80C30DEF808204B6842EA090543F671
:1015E0000C4CDC0258BF22EA0905CEF80850C4F2C0
:1015F000010CDCF800209C0242EA090558BF22EAEF
:101600000905CCF80050DEF804209C0342EA0905E5
:1016100058BF22EA0905CEF80450DEF80020DB03AB
:1016200042EA090558BF22EA0905CEF80050012513
:1016300050E700BF02B0BDE8F08F0000006908402D
:1016400018BF012070470000002A08BF090481610B
:101650007047000044F25C30C2F20000006870473E
:1016600040F2040044F25C31C2F20000C2F2000118
:1016700000780A68104408607047000080B543F69F
:101680000040C4F20200016841F400710160016889
:1016900041F480610160016841F4807101600320C0
:1016A00000F0C4F80F2000F005F800F05DF800200D
:1016B00080BD0000B0B586B0002543F64401019519
:1016C000C4F202010A68044642F001020A60096895
:1016D00001A801F0010101910199694600F066F944
:1016E00000F098F94DF683614000C4F21B31A0FB75
:1016F00001014FF0FF3000EB914140F23810002221
:10170000C2F20000C4F2010240F2E733C0E9002156
:10171000C0E902530561856100F0E0FB054618B1A0
:10172000284606B0B0BD00BF40F23810C2F200003B
:1017300000F024FC05460028F2D1192000F036F80C
:101740000F2C0DD8192021460022002500F042F868
:1017500040F20800C2F200000460284606B0B0BDA6
:101760000125284606B0B0BD82B0002043F64001F6
:101770000190C4F202014A6842F480424A604A6819
:1017800002F480420192019A00900868002240F021
:101790008050086008680F2100F080500090009889
:1017A0006FF0010002B000F015B80000002848BF3B
:1017B0007047C1B200F01F00012202FA00F04EF2A1
:1017C0000012CEF2000242EAD10121F003010860CA
:1017D0007047000010B54EF60C5CCEF2000CDCF841
:1017E0000030C3F3022E8EF00704042C28BF04241B
:1017F000BEF103034FF0FF3E0EFA04F438BF00239E
:10180000A14399400EFA03F39A43114300F00F02EB
:1018100000F160430901043A03F56443624400287F
:1018200048BF02F10C03197010BD00004EF60C51B8
:10183000CEF200010A684FF6FF031A4060F30A2255
:1018400042F0806040F0FD70086070472DE9F04183
:10185000002800F08B8043F60808C4F20208044612
:10186000D8F8F8030D4600F00F00884207D288F838
:10187000F853D8F8F80300F00F00A84276D120689A
:10188000810717D5410705D5D8F8001041F4E0517C
:10189000C8F80010010705D5D8F8001041F46041E0
:1018A000C8F80010D8F80010A26821F0F001114328
:1018B000C8F80010C0073FD1D8F8F80300F00F00B7
:1018C000A84207D988F8F853D8F8F80300F00F00B9
:1018D000A8424BD12068410707D5D8F80010E2682C
:1018E00021F4E0511143C8F80010000708D5D8F8DA
:1018F0000000216920F4604040EAC100C8F80000FF
:1019000000F09CF8D8F8001045F28472C1F303117E
:10191000C0F60002515C40F20C0220FA01F140F2E4
:101920000800C2F200000068C2F200021160FFF776
:10193000C1FE0020BDE8F0816068811E022907D247
:1019400058F8081C89015CBF0120BDE8F08111E056
:10195000012807D158F8081C89035CBF0120BDE8A5
:10196000F08107E058F8081C890703D40120BDE87E
:10197000F08100BFD8F8001021F003010843C8F837
:101980000000FFF767FE064641F28837D8F80000EE
:10199000616800F00C00B0EB810F8DD0FFF75AFEAC
:1019A000801BB842F2D90320BDE8F0810F2202600B
:1019B00043F60802C4F20202136803F00303436013
:1019C000136803F0F0038360136803F4E053C3600B
:1019D000D2F800C04FF4E05303EADC030361D2F80D
:1019E000F80300F00F0008607047000040F20C00A0
:1019F00043F60801C2F20000C4F20201006809685F
:101A000045F29472C1F38221C0F60002515CC840D5
:101A10007047000040F20C0043F60801C2F20000DB
:101A2000C4F202010068096845F29472C1F34231C0
:101A3000C0F60002515CC8407047000010B543F684
:101A40000404C4F20204606800F00C0142F2004099
:101A50000829C0F2F40007D0042918BF10BD41F2D4
:101A60000020C0F27A0010BD216801F03F02216819
:101A700023684902C3F3881106D4A1FB00010023A7
:101A8000FEF7B0FB07E000BF41F20020C0F27A0091
:101A90004843B0FBF2F021680222C1F3014102EB9E
:101AA0004101B0FBF1F010BD2DE9F04182B00028FA
:101AB00068D00446007843F60006C007C4F2020668
:101AC0000BD0B06800F00C00042840F09F80306814
:101AD000800302D56068002854D0207880071AD58A
:101AE000B06810F00C0F09D0B06800F00C000828A6
:101AF00040F0A6807068400200F1A2803068800744
:101B000002D5E06801283DD13068216920F0F80055
:101B100040EAC10030602078000737D420784007C1
:101B20004CD4A56955B3B06800F00C00082840F00B
:101B3000BB80012D26D07068E16900F480028A42E2
:101B400020D1216A00F03F028A421BD147F6C071C2
:101B5000626A0140B1EB821F14D1A16A4FF6FF7394
:101B6000C903994300F44032A1F580318A4209D17A
:101B7000E16A00F07060B0EB016F03D1002002B0A9
:101B8000BDE8F081012002B0BDE8F0816069002865
:101B900040F20000C4F2472076D00121C0F8801E38
:101BA000FFF758FD054600BF706F8007B6D4FFF7FA
:101BB00051FD401B0228F7D9DDE000BF306C10F06A
:101BC00080580AD100200190306C40F08050306481
:101BD000306C00F080500190019847F20007C4F289
:101BE00000073868C00541D4386840F48070386018
:101BF000FFF730FD054600BF3868C00536D4FFF753
:101C000029FD401B0228F7D9B5E000BFB06800F0FD
:101C10000C00082803D1706840023FF558AF606897
:101C2000B0F5803F07D0B0F5A02F40F08D80306830
:101C300040F480203060306840F4803030608DE0C7
:101C4000E068002852D00020C4F247200121016042
:101C5000FFF700FD054600BF306880073FF554AF31
:101C6000FFF7F8FC401B0228F6D984E0A0680128A1
:101C700005D005284ED1306F40F004003067306F3A
:101C800040F0010030674FE00021C0F8801EFFF7F0
:101C9000E1FC0546706F80077FF540AFFFF7DAFC87
:101CA000401B0228F6D966E00027C4F2472700202F
:101CB0003866FFF7CFFC022D05460BD13068800156
:101CC0005ED5FFF7C7FC401B02284FF00300F5D993
:101CD00055E700BF306880017FF550AFFFF7BAFCD1
:101CE000401B02284FF00300F4D948E70020C4F25B
:101CF000472000210160FFF7ADFC054630688007F2
:101D00007FF509AFFFF7A6FC401B02284FF0030048
:101D1000F4D934E7316F002821F001013167316FC8
:101D200021F0040131674DD0FFF794FC054641F2E4
:101D3000883700BF306F800756D4FFF78BFC401BFD
:101D4000B842F7D917E000BF3168002821F480318C
:101D50003160316821F4802131604FD0FFF77AFC87
:101D6000054600BF306880033FF5B7AEFFF772FC51
:101D7000401B6428F6D9032002B0BDE8F08100BF03
:101D800004F11C052FCD084340EA8210D9034FF619
:101D9000FF729143A1F5803140EA0560084370600D
:101DA00001203866FFF756FC044600BF306880010A
:101DB0003FF5E4AEFFF74EFC001B02284FF0030096
:101DC000F4D9DCE6FFF746FC054641F2883700BF50
:101DD000306F800708D5FFF73DFC401BB8424FF03D
:101DE0000300F5D9CBE600BFB8F1000F7FF499AE40
:101DF000306C20F08050306493E600BFFFF72AFC7F
:101E0000054600BF306880037FF567AEFFF722FC10
:101E1000401B64284FF00300F4D9B0E6704700007F
:101E20007047000010B590F83C20012A4FF00202E4
:101E300051D080F83D200268D2F804E0D2F808C002
:101E40000C682EF07003234341F2FF74C4F20004C7
:101E5000A24253600EDC40F2FF73C4F200039A42C8
:101E600016DCB2F1804F2BD040F20043C4F20003E5
:101E700024E000BF40F2FF33C4F201039A4213DCB6
:101E800041F60003C4F200039A4219D0002313E084
:101E900040F60003C4F200039A4211D040F600431A
:101EA000C4F200030AE000BF44F20003C4F20103DD
:101EB0009A4205D040F20043C4F201039A4204D191
:101EC00049682CF08003194391600121002280F8B9
:101ED0003D1080F83C20104610BD0000002804BFD3
:101EE0000120704710B5044690F83D0028B9002045
:101EF00084F83C00204600F01FF8022084F83D00E2
:101F00002068211D00F058FC012084F8460084F868
:101F10003E0084F83F0084F8400084F8410084F8D3
:101F2000420084F8430084F8440084F8450084F8B3
:101F30003D00002010BD000080B582B00068B0F107
:101F4000804F1CBF02B080BD0020019043F64000CE
:101F5000C4F202000168002241F001010160006842
:101F6000052100F00100019001981C20FFF732FCD0
:101F70001C2002B0BDE88040FFF718BC90F83D106F
:101F800001291CBF01207047022180F83D10006824
:101F900041F2FF72C168C4F20002904241F00101B7
:101FA000C1600DDC40F2FF71C4F20001884215DC13
:101FB000B0F1804F2AD040F20041C4F2000123E08A
:101FC00040F2FF31C4F20101884213DC41F6000106
:101FD000C4F20001884219D0002113E040F600014C
:101FE000C4F20001884211D040F60041C4F2000161
:101FF0000AE000BF44F20001C4F20101884205D0AA
:1020000040F20041C4F20101884206D1816801F02A
:102010000701062904BF00207047016841F0010153
:10202000016000207047000080B590F83C20012A34
:102030004FF0020200F0C28080F83D20D0F800C0CE
:102040004FF67772DCF8083023EA0202CCF8082059
:102050000B684F2B28DC1F2B44DD202B45D0302B69
:1020600043D0402B40F0AC80D1F804E0C968DCF8E4
:102070002030DCF8202022F00102CCF82020DCF80F
:10208000182022F0F00242EA011123F00A0242EA8B
:102090000E02CCF81810CCF82020DCF8081041F023
:1020A000470121F0300180E06F2B27DDB3F5005FA1
:1020B00048D0B3F5805F7AD0702B40F08180D1E9B1
:1020C00001E3C968DCF8082043EA0E0322F47F42EA
:1020D00043EA01211143CCF80810DCF8081041F064
:1020E000770162E00BB1102B6AD1DCF8081021F007
:1020F0007001194341F0070157E000BF502B35D064
:10210000602B5DD1D1F804E0C968DCF8203023F001
:102110001003CCF82030DCF81830DCF8202023F451
:10212000704322F0A00243EA013142EA0E12CCF8D9
:102130001810CCF82020DCF8081041F0670121F0DD
:10214000100132E0D1E901E3C968DCF8082043EA74
:102150000E0322F47F4243EA01211143CCF8081018
:10216000DCF8081041F480411FE000BFD1F804E022
:10217000C968DCF82030DCF8202022F00102CCF81D
:102180002020DCF8182022F0F00242EA011123F0AE
:102190000A0242EA0E02CCF81810CCF82020DCF833
:1021A000081041F0570121F02001CCF8081000225E
:1021B000012180F83D10002180F83C10104680BDC0
:1021C0000122F5E77047000010B501680446086970
:1021D000800744BFC8685FEA807039D40869400747
:1021E00044BFC8685FEA40703ED40869000744BF36
:1021F000C8685FEA007045D40869C00644BFC86873
:102200005FEAC0604AD40869C0071CBFC8685FEABB
:10221000C07051D10869000644BFC8685FEA006019
:1022200052D40869400644BFC8685FEA406053D48E
:102230000869800646BFC8685FEA806010BD6FF01D
:10224000200220460A61BDE81040FFF7E9BD00BF4B
:102250006FF002000861012020778869800743D071
:102260002046FFF7AFFF45E06FF004000861022051
:102270002077886910F4407F40D02046FFF7A2FF06
:1022800042E000BF6FF00800086104202077C869B1
:1022900080073DD02046FFF795FF3FE06FF010002C
:1022A000086108202077C86910F4407F3AD02046A2
:1022B000FFF788FF3CE000BF6FF001000861204697
:1022C00000F03EF82168A5E76FF080000861204625
:1022D000FFF7A4FD2168A4E76FF0400008612046E5
:1022E00000F038F82168A3E7204600F025F82046E2
:1022F00000F024F82168002020776FE7204600F0E6
:102300001BF8204600F01AF82168002020776CE7BF
:10231000204600F011F8204600F010F82168002057
:10232000207769E7204600F007F8204600F006F81D
:1023300021680020207766E77047000070470000A2
:1023400000680021C4F20101884218BF7047FFF7FE
:1023500087B9000070470000002804BF01207047C3
:1023600010B5044690F83D0028B9002084F83C00E0
:10237000204600F021F8242084F83D002068C16840
:1023800021F40051C160204600F0B4FA20680169D0
:1023900021F490410161416921F02A014161C16844
:1023A00041F40051C16000202021206484F83D10D8
:1023B00084F83E1010BD000080B586B0016844F678
:1023C0000000C4F20000814202D006B080BD00BF10
:1023D000002143F630020191C4F20202136900F5B4
:1023E000E23043F480231361136903F480230193E3
:1023F000019B0191136843F008031360126802F017
:1024000008020192019A4FF4407201920222CDE932
:102410000221032104910721059101A9FFF73AF850
:1024200006B080BDFEE7000080B542F2B56045F21F
:102430009C72C0F60000C0F60002002100F07AFC99
:1024400040F23011C2F20001086080BDF0B587B0E3
:10245000002643F63000CDE905660196C4F202007D
:10246000016840F2004441F0100101600168C4F2CB
:10247000020401F010010191019901960168002206
:1024800041F08001016001684FF4814701F0800153
:10249000019101990196016841F0200101600168F4
:1024A00001F02001019101990196016841F00201BA
:1024B0000160016801F00201019101990196016832
:1024C00041F008010160016801F0080101910199E2
:1024D0000196016841F00101016000684FF48141FB
:1024E00000F00100019001982046FFF7ADF8382078
:1024F00002904FF4881002ADCDE9030604F5406068
:102500002946FEF7C7FF4FF48050CDE9020604F5D7
:10251000805029460496FEF7BDFF0120CDE9030651
:102520002046294602970596FEF7B4FF09200521AB
:102530000022FFF74FF90920FFF738F90A2005219B
:102540000022FFF747F90A20FFF730F9172005218D
:102550000022FFF73FF91720FFF728F907B0F0BD79
:1025600080B586B040F280100021C2F200004FF02A
:10257000804253234FF0FF3C0591CDE90311CDE993
:102580000011C0E90023C0E9021C01618161FFF76D
:10259000A5FC002818BFFEF7DDFE4FF48050029026
:1025A00040F28010C2F2000002A9FFF73DFD0028B2
:1025B00018BFFEF7CFFE40F28010C2F2000069465D
:1025C000FFF730FC002818BFFEF7C4FE06B080BD40
:1025D00080B540F2C81044F60001C2F20000C4F217
:1025E000000100234FF00C0C4FF4E13280E80E00A4
:1025F000C0E90333C0E905C3C361FFF7ADFE00289E
:1026000008BF80BDBDE88040FEF7A4BEFEE7000025
:10261000FEE70000000000000000000000000000D5
:10262000EFF30980BFF36F8F154B1A681EF0100F80
:1026300008BF20ED108A20E9F04F10602DE9090055
:102640004FF0500080F31188BFF34F8FBFF36F8FAF
:1026500001F0DCFC4FF0000080F31188BDE80900B8
:1026600019680868B0E8F04F1EF0100F08BFB0EC12
:10267000108A80F30988BFF36F8F704700BF00BFD7
:102680002800002000000000000000000000000002
:10269000074B19680868B0E8F04F80F30988BFF36A
:1026A0006F8F4FF0000080F31188704700BF00BFAC
:1026B00028000020012000F0FBFAFBE780B54EF275
:1026C0001000CEF20000006802F09AF9012808BF5D
:1026D00080BDBDE8804001F0B9BD0000B0B592B04A
:1026E000002443F64000CDE90A44CDE908440594AE
:1026F000CDE90344CDE901440094C4F2020001682D
:10270000022541F080510160006800F08050009087
:10271000009847F200000094C4F20000016841F400
:1027200040410160006800F44040009000980120A2
:1027300006904FF4803007904FF480000D900420F5
:102740000E90A820CDE90F050720119006A80C9542
:10275000FFF7AAF920B1EFF3108072B6FEE700BFD1
:102760000F20CDE901054FF4A05004904FF48050A4
:10277000059001A805210394FFF768F820B1EFF355
:10278000108072B6FEE700BF12B0B0BD4EF68850A2
:10279000CEF20000016841F4700101607047000052
:1027A00040F23810C2F20000FFF70EBD40F2801078
:1027B000C2F20000FFF708BD10B540F6FF3E036807
:1027C000C4F2000E40F2004C7045C4F2010C27DC4C
:1027D000B0F1804F31D040F20042C4F2000290428A
:1027E0002BD040F60002C4F20002904225D041F600
:1027F000FF72C4F20002904229DC70453CDCB0F16B
:10280000804F5FD040F20042C4F20002904259D0A3
:1028100040F60002C4F20002904253D056E000BFDE
:1028200040F60042C4F20002904206D0604504D057
:102830000022C4F201029042D9D14A6823F0700309
:10284000134341F6FF72C4F200029042D5DD43F615
:10285000FF72C4F20102904222DC42F20002C4F292
:10286000000290422ED00022C4F20102904229D0F0
:10287000604527D02AE000BF40F60042C4F20002C3
:1028800090421FD041F60002C4F20002904219D0DB
:1028900041F60042C4F20002904213D016E000BF9D
:1028A00044F20002C4F2010290420BD044F600024E
:1028B000C4F20102904205D044F20042C4F2010287
:1028C000904203D1CA6823F44073134323F080027B
:1028D0004B69D1F800E08C681A430260C46240F48E
:1028E0008062C0F828E0624504BF096901630121E4
:1028F000416110BD10B504460068D4E902C22369E5
:10290000016921F4405111430161626943EA0C01FC
:10291000E3691143C268194349F20C639A431143B6
:10292000C1604169A26921F4407141F20043114341
:1029300040F48062C4F201039A42416102D1FFF780
:1029400069F801E0FFF752F8E16963681922B1F50F
:10295000004FA0FB020123D15A00DB0FFDF742FC20
:1029600048F21F51C5F2EB11A0FB01235A094FF6A3
:102970009C73C0F6FF7303F1805302FB0300322304
:1029800003EBC000A0FB01014FF4F87000EA111046
:1029900000EB0210C1F3421108442168886010BDA9
:1029A0009A009B0FFDF71EFC48F21F51C5F2EB1178
:1029B000A0FB01235A094FF69C73C0F6FF7302FB7C
:1029C0000300322303EB0010A0FB0101F02000EA1A
:1029D000511000EB0210C1F34311084421688860D4
:1029E00010BD0000FEE700002DE9F04786B04FF46F
:1029F000805041F2004A01901120C4F2020A029074
:102A00000220049001A95046FEF744FD50464FF4C1
:102A1000805100220024FEF717FE40F28019C2F216
:102A20000009D9F8000044F620624462016841F0D0
:102A30000101016044F61F61436A8B4208D8436A72
:102A40008B4205D8436A8B4202D8436A9342F3D340
:102A5000016A41F21112114208D1016A40F2444266
:102A6000114203D1016821F00101016050464FF489
:102A700080510122FEF7E8FDD9F8000000214162F3
:102A8000016841F001010160416A1D2908D8416ACD
:102A90001D2905D8416A1D2902D8416A1E29F3D390
:102AA000016A41F21112114208D1016A40F2444216
:102AB000114203D1016821F0010101604FF48050FF
:102AC000019001200025039001A950460295FEF7D0
:102AD000E1FC50464FF48051FEF7B0FD20B128468E
:102AE00006B0BDE8F08700BF41F2111740F244483C
:102AF000002609E0016A39421CD050464FF480514B
:102B0000661CFEF79BFDF8B9D9F800003446456213
:102B1000016841F001010160416A0029EAD1416A7E
:102B20000029E7D1416A0029E4D1416A0029F3D0A4
:102B3000E0E700BF016A11EA080FDED1016821F069
:102B400001010160D9E700BFA4F16400C0B2AF2861
:102B500004D20025284606B0BDE8F08750464FF461
:102B60008051FEF76BFD00284FF00005B7D041F211
:102B7000111740F2444800240AE000BF016A3942BC
:102B80001CD050464FF48051741CFEF757FDF8B12D
:102B9000D9F8000026464562016841F00101016054
:102BA000416A0029EAD1416A0029E7D1416A002936
:102BB000E4D1416A0029F3D0E0E700BF016A11EADD
:102BC000080FDED1016821F001010160D9E700BFE3
:102BD000A6F11300C0B20025512838BF01252846B0
:102BE00006B0BDE8F087000044F60001C4F2000121
:102BF0000A68520609D40A6852065CBF0A685FEA8E
:102C0000426202D40A685206F2D5C2B24A607047E4
:102C100082B0FEF733FDFFF761FDFFF717FCFFF70A
:102C20009FFCFFF7D5FC0420009043F665104FF0A1
:102C3000000CC0F6000013A14FF400620023CDF891
:102C400004C001F071FE052040F2341C009043F6F0
:102C5000BD00C2F2000CC0F600000CA14FF40062EF
:102C60000023CDF804C001F05FFE0AA002F058FD79
:102C700001F04CF900F02CF8FFF7D6FB00F03CF81F
:102C8000FEE700BF546573740000000044485431EF
:102C900031000000526561647920746F20737461A3
:102CA0007274205363686564756C6572200D000052
:102CB000EFF3058100291CBF6FF005007047002865
:102CC00004BF0020704780B501F056F8002080BD99
:102CD000EFF3058000281CBF6FF00500704740F23D
:102CE0002C10C2F200000168002911BF4FF0FF3024
:102CF000012101600020704710B5EFF30580002826
:102D00001CBF6FF0050010BD40F22C10C2F2000095
:102D1000016801291CBF4FF0FF3010BD4EF61F5156
:102D2000CEF2000100240C700221016001F0EEF8E7
:102D3000204610BD2DE9F04184B08E460024039456
:102D4000EFF3058150B149B94FF0000452B19369D6
:102D5000002B08BF1823382B16D90024204604B0B6
:102D6000BDE8F08180251823002103AF0093AAB2AB
:102D70007346019701F0D8FD0399012808BF0C465E
:102D8000204604B0BDE8F0811179C90724D1576904
:102D9000D2E902864FEA970C1168002F654608BFFA
:102DA0008025B8F1000F13D05C2E15D312690024D2
:102DB000002A18BF002FD1D0CDE9003262467346F9
:102DC000CDF8088001F0E0FD04B0BDE8F08100BF5F
:102DD00016B91269002AC8D00024204604B0BDE804
:102DE000F08100002DE9F041044600F053FE40F26E
:102DF0002806C2F20006F06840F2FC250130F060BF
:102E00003068C2F2000558B13069002840F00781EF
:102E10003068E16AC06A884298BF3460FFE000BF52
:102E20003460F068012840F0FA80284600F0D8FDB0
:102E300005F1140000F0D4FD05F1280000F0D0FDEC
:102E400005F13C0000F0CCFD05F1500000F0C8FD9C
:102E500005F1640000F0C4FD05F1780000F0C0FD4C
:102E600005F18C0000F0BCFD05F1A00000F0B8FDFC
:102E700005F1B40000F0B4FD05F1C80000F0B0FDAC
:102E800005F1DC0000F0ACFD05F1F00000F0A8FD5C
:102E900005F5827000F0A4FD05F58C7000F0A0FD32
:102EA00005F5967000F09CFD05F5A07000F098FD0A
:102EB00005F5AA7000F094FD05F5B47000F090FDE2
:102EC00005F5BE7000F08CFD05F5C87000F088FDBA
:102ED00005F5D27000F084FD05F5DC7000F080FD92
:102EE00005F5E67000F07CFD05F5F07000F078FD6A
:102EF00005F5FA7000F074FD05F5027000F070FD44
:102F000005F5077000F06CFD05F50C7000F068FD2C
:102F100005F5117000F064FD05F5167000F060FD18
:102F200005F51B7000F05CFD05F5207000F058FD04
:102F300005F5257000F054FD05F52A7000F050FDF0
:102F400005F52F7000F04CFD05F5347000F048FDDC
:102F500005F5397000F044FD05F53E7000F040FDC8
:102F600005F5437000F03CFD05F5487000F038FDB4
:102F700005F54D7000F034FD05F5527000F030FDA0
:102F800005F5577000F02CFD05F55C7000F028FD8C
:102F900005F5617000F024FD05F5667000F020FD78
:102FA00005F56B7000F01CFD05F5707000F018FD64
:102FB00005F5757000F014FD05F57A7000F010FD50
:102FC00005F57F7000F00CFD05F5826000F008FD4E
:102FD00005F2244000F004FD05F5876000F000FDD7
:102FE00005F24C4000F0FCFC40F20418C2F200086C
:102FF000404600F0F5FC08F11407384600F0F0FCFC
:1030000006F1640000F0ECFC06F13C0000F0E8FC86
:1030100006F1500000F0E4FCC6F81C8037627068CE
:10302000716A421CE06A72608842626488BF7062A2
:1030300000EB800005EB8000211D00F013FD00F087
:103040004DFD306988B13068E16AC06A884228BFA6
:10305000BDE8F0814EF60450CEF200004FF08051F2
:103060000160BFF34F8FBFF36F8FBDE8F0810000A9
:1030700040F2280540F2FC264EF60458C2F2000544
:10308000C2F20006CEF200084FF0805703E000BF06
:10309000204600F03BFDA868D0B100F0FBFCA86C16
:1030A000C468201D00F06EFCE8680138E860A8687C
:1030B0000138A86000F012FD94F859000228EAD007
:1030C0000128E5D070B9206B00F020FDE0E700BFDB
:1030D00030680228DFD3C8F80070BFF34F8FBFF30A
:1030E0006F8FD8E74FF0500080F31188BFF36F8FD8
:1030F000BFF34F8FFEE700002DE9F0470A9C8246A0
:10310000206B16460F46DDE908599100A522984626
:10311000FDF7ABF8206B002F00EB8600A0F1040058
:1031200020F0070656D0387884F834003878002824
:103130004BD0787884F835007878002845D0B87876
:1031400084F83600B87800283FD0F87884F8370043
:10315000F878D0B3387984F838003879A8B378791A
:1031600084F83900787980B3B87984F83A00B8796E
:1031700058B3F87984F83B00F87930B3387A84F89A
:103180003C00387A08B3787A84F83D00787AE0B168
:10319000B87A84F83E00B87AB8B1F87A84F83F007B
:1031A000F87A90B1387B84F84000387B68B1787B3E
:1031B00084F84100787B40B1B87B84F84200B87B4A
:1031C00000281CBFF87B84F84300002084F84300EB
:1031D00003E000BF002084F834000027201D372DB5
:1031E00028BF3725E562C4E9135700F005FC04F158
:1031F000180000F001FCC5F13800A06130465146CE
:10320000424624616462676584F8587000F042FBAE
:10321000B9F1000F206018BFC9F80040BDE8F08781
:1032200008480068006880F308884FF0000080F3C9
:10323000148862B661B6BFF34F8FBFF36F8F00DFA4
:1032400000BF000008ED00E081B00020009040F2D7
:103250001000C2F2000000684FF0500181F31188A5
:10326000BFF36F8FBFF34F8F013007D0FEE700BF72
:10327000009830B9009820B9009810B9009800283B
:10328000F6D001B07047000088B040F2A00AC2F248
:10329000000A0DF11009EB46DAF8080005681DB1C7
:1032A000C068046801E000BF002400F0A7FE01F040
:1032B000B7FBDAF810100646884220D3002DCAF872
:1032C000106051D0A6424FD301F0B2FCDAF80800EA
:1032D000C068C7683D1D284600F054FB97F82800D9
:1032E000410745D400F0FE0087F8280084E000BFC5
:1032F0006860DAF8080039462D6100F081FBDAF8E1
:103300000800016831B3C068C56804682F1D3846DD
:1033100000F038FB296A2846884795F828004007BE
:10332000EDD5A8692044A042E2D8DAF800000028D0
:1033300000F04881002004A931C101F061FBDAF8F6
:10334000000049460022002301F008F80028D6D1E9
:1033500038E100BFDAF80C10CAF81060CAE90210B0
:1033600001F066FC1AE100BF65B1002210E000BF69
:10337000B8693F610119B14279601FD90AF10800AB
:1033800021E000BFDAF80C000068B0FA80F04209D2
:10339000DAF80000A11B00F0C5FC01F049FC002890
:1033A00040F0FC804EF60450CEF200004FF0805109
:1033B0000160BFF34F8FBFF36F8FEFE0311B81428E
:1033C00006D20AF10C000068294600F019FB13E050
:1033D000DAF80000002800F01381002004A991C150
:1033E00001F00EFBDAF8000049460022002300F04D
:1033F000B5FF002800F00481396A38468847CDE0DF
:103400000098B0F1FF3F07DCDDE901200399904708
:103410000098002800F1C280029E706910B1301D32
:1034200000F0B0FA01F0FCFADAF810100746884212
:103430000DD30098CAF8107009283FD9AEE000BF3C
:103440006860DAF8080021462D6100F0D9FADAF850
:103450000800016841B3C068C568D0F800802C1D21
:10346000204600F08FFA296A2846884795F82800F8
:103470004007ECD5A86940444045E1D8DAF800009F
:10348000002800F095800020CDE90408069501F0A1
:10349000B7FADAF8000049460022002300F05EFF88
:1034A0000028D4D184E000BFDAF80C10CAE9021079
:1034B0000098CAF81070092800F27080DFE800F068
:1034C0000606064448620606444800BF96F82800EF
:1034D000019A40F00101B06986F82810831831463E
:1034E00041F8043FBB42366106D997420AF1080011
:1034F00007D293420AD204E0BA1A824206D20AF1F3
:103500000C00006800F07CFA48E000BF316A3046E9
:10351000884796F82800400740D5DAF800000028D0
:103520005AD00198B169069608440021CDE90410EB
:1035300001F066FADAF8000049460022002300F0A4
:103540000DFF58BB48E000BF96F8280022E000BFFE
:1035500096F8280040F00101019886F8281000280C
:10356000B06143D0384431460AF10C0241F8040FEF
:103570003661B84288BF0AF10802106800F040FACC
:103580000CE000BF96F82800810703D4304600F015
:10359000BDFA03E000F0FE0086F82800DAF800002B
:1035A0005946002201F09CF800287FF429AF73E609
:1035B0004FF0500080F31188BFF36F8FBFF34F8F30
:1035C000FEE700BF4FF0500080F31188BFF36F8F0C
:1035D000BFF34F8FFEE700BF4FF0500080F311881C
:1035E000BFF36F8FBFF34F8FFEE700BF4FF0500068
:1035F00080F31188BFF36F8FBFF34F8FFEE700BFDB
:103600004FF0500080F31188BFF36F8FBFF34F8FDF
:10361000FEE70000F0B581B0044600F03BFA94F9F3
:103620004560012E0FDB04F1240500BF286850B16E
:10363000284601F0C3FA002818BF00F0E7FBF0B2FB
:10364000013E0128F2D8FF2684F8456000F046FAD2
:1036500000F020FA94F94470012F0EDB04F11005FC
:10366000286850B1284601F0A9FA002818BF00F0D8
:10367000CDFBF8B2013F0128F2D884F8446001B0D4
:10368000BDE8F04000F02ABA70B5044600F0B6FC80
:1036900040F2DC0CC2F2000CDCF8040050B19CF8E3
:1036A0000000002818BF4FF000404FF0000574BB29
:1036B0008DE000BF40F25C70C2F20000C21D22F03B
:1036C000070210F00701A0EB020318BF104600220A
:1036D0004FF47055CCE90602002918BF03F5705568
:1036E000411921F00701A1F10803CCF8043041E9A8
:1036F0000222191AC0E9003101208CF800004FF0B5
:103700000040CCE90211002C4FF000055FD02040B2
:103710005DD124F0070000F11002600708BF04F13A
:103720000802002A4FF0000551D0DCF80800824260
:103730004DD8604650F818EFDEF8045095422CD270
:10374000DEF80010C1B174464D68954218D20B687E
:10375000B3B15D68954217D21868A8B14568954223
:1037600016D20468A4B16568954215D22168A646B0
:103770000029E9D111E000BF0CF118000DE000BFF5
:103780008E46204609E000BF9E46084605E000BF81
:103790008646184601E000BFA646DCF804108E45B8
:1037A00014D00168DEF80040AB1A112B04604DD331
:1037B0000EEB0205680719D04FF0500080F3118816
:1037C000BFF36F8FBFF34F8FFEE700BF002501F0FF
:1037D0002FFA68075BD04FF0500080F31188BFF3D9
:1037E0006F8FBFF34F8F00BFFEE700BF0CF11800D3
:1037F0006B60CEF8042000BF0368AB420AD21868A1
:10380000A8420BD20368AB4204D218681A46A842F9
:10381000F2D304E00246184601E000BF1A4653689E
:103820006C68D618AE4202D11C44154654602B1960
:10383000834207D1DCF80430984203D0D0E900037A
:1038400023446B60AA42286018BF156001F1080587
:10385000DEF80400DCE90212091A9142CCF80810E3
:1038600038BFCCF80C109CF80010002918BF40F0AD
:103870000040CEF80400DCF8100000210130CEF842
:103880000010CCF8100001F0D3F96807A3D1284646
:1038900070BD0000034643F24920C0F600004FF01F
:1038A000807C21F0010103E903106FF0020043F86E
:1038B000240CA3F1440043F8202C704740F2180771
:1038C000C2F200079FED268A40F2004607F10C0481
:1038D00007F108050FF26C080FF27409C4F2020632
:1038E00012E000BF97ED030A0022B4EE480A30460A
:1038F0004FF48041F1EE10FAC8BF0122FDF7A4FE9B
:1039000040F6B83000F038FA20462946FDF752FB61
:103910000028E7D1786829460022002300F01EFD28
:10392000B868FCF781FE024640460B4601F052FAA9
:10393000F868FCF779FE024648460B4601F04AFA61
:10394000D0E700BF54656D703A252E3166204300E4
:103950002C48756D693A252E31662025250D0A0003
:103960000000704204A400BF204601F0D9FE4FF4CD
:103970007A7000F001FAF7E7496E20546573740D10
:1039800000000000D0E9013201699A60D1F804C05A
:1039900082688445536008BF4A600022026108685B
:1039A000013808600868704744F26053C2F20003AF
:1039B000036044F26030C2F20000086080201060B2
:1039C0007047000044F6BC13C2F20003036044F2E7
:1039D000BC50C2F2000008604FF480701060704765
:1039E0004FF0FF31024642F8081F00214260C0E953
:1039F0000322016070470000002101617047000050
:103A000010B5D1F800E01EF1010213D000F1080456
:103A100062681368734511D853681C68744511D8DF
:103A20005A68146874450FD854682368A4467345CF
:103A3000EED90BE00269D2F804C007E094462246B2
:103A400004E000BF9C4601E094461A46C1F804C059
:103A5000CCF808108A60516008610168013101608A
:103A600010BD0000D0F800C0436808619A684B6040
:103A70008A609A68996051600CF101010160704799
:103A8000DFF80C00016841F470010160704700002C
:103A900088ED00E04FF0500080F31188BFF36F8F86
:103AA000BFF34F8F40F21000C2F2000001684A1CC1
:103AB000026009B1704700BF4EF60450CEF200001C
:103AC0000068000608BF70474FF0500080F311886F
:103AD000BFF36F8FBFF34F8FFEE7000040F210007F
:103AE000C2F20000016839B10139016018BF7047A6
:103AF000002080F3118870474FF0500080F3118848
:103B0000BFF36F8FBFF34F8FFEE7000070B5002843
:103B100008BF70BD40F2DC05C2F2000504462878FB
:103B200054F8041C002818BF4FF0004008420DD084
:103B3000A4F1080632689AB14FF0500080F3118862
:103B4000BFF36F8FBFF34F8FFEE700BF4FF0500002
:103B500080F31188BFF36F8FBFF34F8FFEE700BF75
:103B600021EA000044F8040C00F048FA54F8041C60
:103B7000A8680844A86005F1180000BF0368B342B4
:103B80000AD21868B04225D20368B34204D218683A
:103B90001A46B042F2D301E0024618465368D418E0
:103BA000B44202D11944164651607318834206D1BB
:103BB0006B68984203D0D0E9000319447160B242A7
:103BC000306018BF1660686901306861BDE87040F8
:103BD00001F02EB81A465368D418B442E5D1E1E793
:103BE0004EF21000CEF2000000210160816040F230
:103BF0000C01C2F20001096844F6D352C1F262021C
:103C0000A1FB02124FF0FF3101EB9211416007213D
:103C10000160704740F2FC00EFF305811029C2F209
:103C2000000011D34EF2F032CEF20002895C02782D
:103C3000914209D24FF0500080F31188BFF36F8F8B
:103C4000BFF34F8FFEE700BF4EF60C51CEF20001DE
:103C50000968406801F4E061814298BF70474FF005
:103C6000500080F31188BFF36F8FBFF34F8F00BFF9
:103C7000FEE7000044F6182CC2F2000CDCF800202D
:103C800022B3634653F8082F42B3634653F8102F0C
:103C900052B3634653F8182F62B3634653F8202F8C
:103CA00072B3634653F8282F82B3634653F8302F1C
:103CB00092B3634653F8382F002A18BF7047072283
:103CC00019600CEBC2014860704700BF00226346D8
:103CD00019600CEBC2014860704700BF01221960F7
:103CE0000CEBC20148607047022219600CEBC20164
:103CF00048607047032219600CEBC20148607047AE
:103D0000042219600CEBC20148607047052219605B
:103D10000CEBC20148607047062219600CEBC2012F
:103D20004860704770B515460E460446FFF7B2FE70
:103D300094F84400FF2804BF002084F8440094F85D
:103D40004500FF2804BF002084F84500FFF7C6FEA9
:103D5000A06B28B12046BDE87040FFF75BBC00BFF8
:103D600004F1240031462A4600F092F82046BDE8CE
:103D70007040FFF74FBC000070B588B340F22805D3
:103D8000C2F200050446686950B14FF0500080F35C
:103D90001188BFF36F8FBFF34F8F00BFFEE700BFE7
:103DA000686901306861AE6928680430FFF7EAFD90
:103DB0002868A419446005D3286A29680431FFF7EC
:103DC0001FFE08E0E86929680431FFF719FEE86A78
:103DD000844238BFEC6200F02BFF002818BF70BD92
:103DE0004EF60450CEF200004FF080510160BFF358
:103DF0004F8FBFF36F8F70BD40F22801C2F20001F8
:103E00008A6B0260896941607047000040F22800B7
:103E1000C2F20000012101637047000070B5D8B103
:103E200040F22804C2F200040D4621681831FFF761
:103E3000E7FDA66920680430FFF7A4FD681C15D0D3
:103E40002068AD19456019D3206A21680431BDE8A6
:103E50007040FFF7D5BD00BF4FF0500080F31188D0
:103E6000BFF36F8FBFF34F8FFEE700BF54F8500BC7
:103E7000011D2046BDE87040FFF7F4BDE0692168F0
:103E80000431FFF7BDFDE06A854238BFE56270BDD1
:103E9000F0B581B0C0B140F22804C2F200040D4672
:103EA000216816461831FFF7DDFDA7692068043048
:103EB000FFF768FD96B154F8500B011D204601B084
:103EC000BDE8F040FFF7CEBD4FF0500080F3118801
:103ED000BFF36F8FBFF34F8FFEE700BF2068ED1970
:103EE000456007D3206A2168043101B0BDE8F04085
:103EF000FFF786BDE06921680431FFF781FDE06AC4
:103F0000854238BFE56201B0F0BD000010B588B051
:103F10000020CDE9050006A805A904AAFFF744FD85
:103F2000059800283ED0069C002C45D05C21049AC0
:103F3000079107995C2949D107992063022084F8E9
:103F4000590007A80021CDE9001043F27100C0F626
:103F5000000028A100230294FFF7CEF82046FEF7C8
:103F600041FF079840F22804C2F20004A062B0B1F9
:103F700000F0D6FE411C33D0012810D14FF0500084
:103F800080F31188BFF36F8FBFF34F8F4FF0FF3077
:103F9000E062012020610020A06100F095F808B0E7
:103FA00010BD00BF4FF0500080F31188BFF36F8F3A
:103FB000BFF34F8FFEE700BF4FF0500080F3118832
:103FC000BFF36F8FBFF34F8FFEE700BF4FF050007E
:103FD00080F31188BFF36F8FBFF34F8FFEE700BFF1
:103FE0004FF0500080F31188BFF36F8FBFF34F8FF6
:103FF000FEE700BF49444C450000000040F22800A5
:10400000C2F20000416901314161704780B540F260
:10401000280EC2F2000EDEF8141019B10121CEF8FC
:10402000301080BD0021CEF83010DEF8241040F2B0
:10403000FC2C01EB8103C2F2000C5CF823208AB156
:1040400001EB81020CEB820353F8042F5268181D18
:1040500082421A6020D0D068CEF80000CEF824103A
:1040600080BD00BF0CEB8302A2F12803E1B15A69C5
:1040700022BB012918D01A6812BB022914D053F8A8
:10408000142CFAB903290FD053F8282C0439002A2C
:10409000A3F15003EAD0D3E752681A60D068CEF893
:1040A0000000CEF8241080BD4FF0500080F311883E
:1040B000BFF36F8FBFF34F8FFEE700BF0139BFE73C
:1040C0000239BDE70339BBE7B0B584B04EF2004C0E
:1040D000CEF2000C4CF27021C4F20F11DCF8002972
:1040E0004B1C9A420AD14FF0500080F31188BFF365
:1040F0006F8FBFF34F8F00BFFEE700BFDCF80029D2
:104100008A4209D14FF0500080F31188BFF36F8FBE
:10411000BFF34F8FFEE700BF9CF800100291FF2114
:104120008CF800109CF800108DF807109DF807100F
:1041300001F0500240F2FC01C2F200010A700722B5
:104140004A609DF90720B2F1FF3F69DC032200BFFE
:10415000D31C4B609DF8070040008DF807009DF9C7
:104160000700B0F1FF3F23DC931C4B609DF8070074
:1041700040008DF807009DF90700B0F1FF3F17DC04
:10418000531C4B609DF8070040008DF807009DF917
:104190000700B0F1FF3F0BDC4A609DF80700043ACE
:1041A00040008DF807009DF907000028D0D4131DAA
:1041B000032B35D14FF44070486002988CF8000012
:1041C000DCF8200940F47000CCF82009DCF8200964
:1041D00040F07040CCF82009FFF702FD40F21004D7
:1041E000C2F2000400252560FFF74AFC4EF6347049
:1041F000CEF20000016841F040410160FFF710F885
:10420000FFF704FF039520684FF0500181F31188F8
:10421000BFF36F8FBFF34F8F013011D0FEE700BFA8
:104220004FF0500080F31188BFF36F8FBFF34F8FB3
:10423000FEE700BF039830B9039820B9039810B97E
:1042400003980028F6D0002004B0B0BD80B54FF030
:10425000500080F31188BFF36F8FBFF34F8F00F0D2
:10426000E5FB30B14EF60450CEF200004FF0805125
:104270000160002080F3118880BD000070B582B01D
:1042800070B11C46B3B1F9B9F2B14FF0500080F3F0
:104290001188BFF36F8FBFF34F8F00BFFEE700BFE2
:1042A0004FF0500080F31188BFF36F8FBFF34F8F33
:1042B000FEE700BF4FF0500080F31188BFF36F8F0F
:1042C000BFF34F8FFEE700BF51B14AB94FF0500026
:1042D00080F31188BFF36F8FBFF34F8FFEE700BFEE
:1042E00050230193019B502B2ED1019B069E01234D
:1042F00084F84630002908BF22462260C4E90F0135
:10430000FFF7C8FB2068D4E90F12002502FB010368
:10431000013901FB0201A563C4E90103FF20E1604B
:1043200084F8440084F8450004F11000FFF758FBBE
:1043300004F12400FFF754FBFFF7D0FB204684F87C
:104340004C6002B070BD00BF4FF0500080F3118888
:10435000BFF36F8FBFF34F8FFEE700002DE9F04FE3
:1043600083B00292C0B11D4617460E460446E9B11D
:10437000022D03D1E06B012840F0888000F040FB63
:1043800010BB0FB34FF0500080F31188BFF36F8F55
:10439000BFF34F8FFEE700BF4FF0500080F311884E
:1043A000BFF36F8FBFF34F8FFEE700BF206C002875
:1043B000DED04FF0500080F31188BFF36F8FBFF352
:1043C0004F8F00BFFEE700BFFFF764FBA06B022D1D
:1043D00066D0E16B884263D304F1100801206F4678
:1043E0000DF108090DE000BF2046FFF713F900F0BA
:1043F0001FFCFFF74FFBA06BE16B88424FF0000002
:104400004ED30299002973D0C00702D03846FFF777
:10441000F3FCFFF763FBFFF7F1FDFFF73BFB94F8BD
:104420004400FF2804BF002084F8440094F84500AD
:10443000FF2804BF002084F84500FFF74FFB3846F3
:10444000494600F01FFA002858D1FFF723FBD4F8A3
:1044500038A0D4F83CB0FFF741FBDA45C4D102994B
:104460004046FFF7DBFC2046FFF7D4F800F0E0FB06
:104470000028BED14EF60450CEF200004FF080511D
:104480000160BFF34F8FBFF36F8FB2E74FF0500063
:1044900080F31188BFF36F8FBFF34F8FFEE700BF2C
:1044A000A76B226CD2B19DB3E0683146FBF7CBFE1F
:1044B000E168206C2268091A9142E16003D2A16888
:1044C00040420844E060A81EB0FA80F04009394636
:1044D000002F18BF012108403F1A26E02068002560
:1044E00020BBA06800F024FBA56005461EE000BFCD
:1044F000FFF7F4FA002003B0BDE8F08F2046FFF785
:1045000089F800F095FB002003B0BDE8F08F00BFF4
:1045100060683146FBF797FE216CD4E9010208443C
:104520009042606001D3206860600025781CA06321
:1045300054F8240FA0B1204600F040FB50B14EF6D5
:104540000450CEF200004FF080510160BFF34F8F56
:10455000BFF36F8FFFF7C2FA012003B0BDE8F08F01
:10456000002DF7D04EF60450CEF200004FF08051EF
:104570000160BFF34F8FBFF36F8FFFF7AFFA0120DA
:1045800003B0BDE8F08F00002DE9F04700B31E46F0
:10459000144605460F4629B3022E02D1E86B0128C6
:1045A00052D1FFF737FBEFF311884FF0500080F343
:1045B0001188BFF36F8FBFF34F8FA86B022E1FD0F0
:1045C000E96B88421CD3002088F31188BDE8F0878E
:1045D0004FF0500080F31188BFF36F8FBFF34F8F00
:1045E000FEE700BF286C0028D6D04FF0500080F3C3
:1045F0001188BFF36F8FBFF34F8F00BFFEE700BF7F
:1046000095F84590A86BD5F838A02A6C32B36EB3F4
:10461000E8683946FBF717FEE968286C2A68091A2A
:104620009142E96003D2A96840420844E860B01EA4
:10463000B0FA80F040095146BAF1000F18BF0121CD
:104640000840AAEB000A1EE04FF0500080F31188EA
:10465000BFF36F8FBFF34F8FFEE700BF286890B99D
:10466000A86800F065FA0020A8600CE06868394688
:10467000FBF7E9FD296CD5E9010208449042686026
:1046800001D3286868600AF10100B9F1FF0FA8633F
:1046900010D155F8240FB8B1284600F08FFA014622
:1046A000002C4FF0010018BF002913D188F31188A6
:1046B000BDE8F08709F1010085F84500012088F385
:1046C0001188BDE8F08700BF012088F31188BDE89C
:1046D000F08700BF0120206088F31188BDE8F087D3
:1046E0002DE9F04F83B0029290B116460D46044674
:1046F000002947D000F084F9A0B99EB14FF05000D6
:1047000080F31188BFF36F8FBFF34F8FFEE700BFB9
:104710004FF0500080F31188BFF36F8FBFF34F8FBE
:10472000FEE700BFFFF7B6F9D4F838A0BAF1000FE2
:1047300036D0226C52B1D4E902308118E16099423E
:1047400024BF2168E1602846FBF77DFDAAF1010046
:10475000A06354F8100F70B1204600F02FFA50B14A
:104760004EF60450CEF200004FF080510160BFF3CE
:104770004F8FBFF36F8F0124FFF7B0F9204603B0CE
:10478000BDE8F08F206C0028B4D04FF0500080F3CB
:104790001188BFF36F8FBFF34F8F00BFFEE700BFDD
:1047A00004F1240801206F464FF000090DF1080BB9
:1047B0002EE000BFFFF792F9FFF720FCFFF76AF940
:1047C00094F84400FF2808BF84F8449094F845000A
:1047D000FF2808BF84F84590FFF780F9384659460E
:1047E00000F050F8E0B12046FEF714FF00F020FA88
:1047F000FFF750F9A66BFFF771F9002E3CD0FFF7D9
:1048000049F9D4F838A00020BAF1000F7FF491AF35
:10481000029949B3C007CDD03846FFF7EDFAC9E792
:10482000FFF738F9A66BFFF759F92EB12046FEF7CE
:10483000F1FE00F0FDF9E2E702994046FFF7EEFADB
:104840002046FEF7E7FE00F0F3F90028D7D14EF638
:104850000450CEF200004FF080510160BFF34F8F43
:10486000BFF36F8FCBE700BF0024FFF737F9204677
:1048700003B0BDE8F08F00BF0024204603B0BDE8C0
:10488000F08F0000B0B5D8B10D4619B30446FFF75C
:1048900001F940F2280CC2F2000CDCF8182029685B
:1048A0004B1C21D0D4E9000EDCF83830834221D0F3
:1048B00072451FD30124FFF711F92046B0BD00BF98
:1048C0004FF0500080F31188BFF36F8FBFF34F8F0D
:1048D000FEE700BF4FF0500080F31188BFF36F8FE9
:1048E000BFF34F8FFEE700BF0024FFF7F7F8204625
:1048F000B0BD00BFA2EB0E0291420DD9881A28600C
:10490000DCF838002060DCF8180060600024FFF755
:10491000E5F82046B0BD00BF002001242860FFF765
:10492000DDF82046B0BD00002DE9F04383B0074616
:104930009000984615468946FEF7A6FEF8B1064651
:104940005C20FEF7A1FEB8B10446DDE90A100022A2
:10495000266384F85920CDE90010384649462A4696
:1049600043460294FEF7C8FB2046FEF73BFA0120BF
:1049700003B0BDE8F08300BF3046FFF7C7F84FF043
:10498000FF3003B0BDE8F08370B586B00B9CCCB1AE
:104990000C9E0EB35C250495049D5C2D26D1049DD0
:1049A000DDF828C0022586F8595005AD3463CDE9FD
:1049B00000C50296FEF7A0FB3046FEF713FA0598F5
:1049C00006B070BD4FF0500080F31188BFF36F8FB9
:1049D000BFF34F8FFEE700BF4FF0500080F3118808
:1049E000BFF36F8FBFF34F8FFEE700BF4FF0500054
:1049F00080F31188BFF36F8FBFF34F8FFEE7000086
:104A000040F22800C2F20000016900290FBF012016
:104A10004069B0FA80F0400918BF400070470000BC
:104A200040F22800C2F20000806970472DE9F0438F
:104A300081B040F22806C2F20006706940B1706B86
:104A4000002401307063204601B0BDE8F08300BF50
:104A5000B06910F10109C6F8189020D3F069006818
:104A600050B14FF0500080F31188BFF36F8FBFF348
:104A70004F8F00BFFEE700BFF069316AF16130621D
:104A8000B06B0130B063F069006828B1F069C068AC
:104A9000C068406802E000BF4FF0FF30F062F06A8B
:104AA00040F2FC288145C2F2000801D200242EE029
:104AB000F0690024006813E0F86A716A884288BFD0
:104AC000706200EB800008EB80002946FEF7CAFF09
:104AD000F86A3168C96AF269884228BF01241068FF
:104AE00090B1F069C068C7683D4655F8040F81452C
:104AF0000CD32846FEF746FFB86A0028DCD007F141
:104B00001800FEF73FFFD7E74FF0FF30F062306844
:104B1000C06A00EB800058F82000012888BF0124FB
:104B2000306B002818BF0124204601B0BDE8F08397
:104B300070B588B140F22806C2F20006044630681B
:104B4000A0420BD04FF0500080F31188BFF36F8F5D
:104B5000BFF34F8FFEE700BF002070BD206D18B37C
:104B6000411EE06AE26C216590424FF0000008BFF0
:104B700070BDC1B9251D2846FEF704FFE06CC0F1E9
:104B80003801E062A161716A884240F2FC2188BF6D
:104B9000706200EB8000C2F2000101EB8000294648
:104BA000FEF760FF012070BD4FF0500080F31188C8
:104BB000BFF36F8FBFF34F8FFEE7000070B5C06883
:104BC000C5686DB105F118042046FEF7DBFE40F222
:104BD0002806C2F20006706960B106F164001AE0AE
:104BE0004FF0500080F31188BFF36F8FBFF34F8FEA
:104BF000FEE700BF2C1D2046FEF7C4FEE86A716A7E
:104C0000884240F2FC2188BF706200EB8000C2F253
:104C1000000101EB80002146FEF724FFE86A3168BD
:104C2000C96A884292BF00200120306370BD000035
:104C30002DE9F04140F22805C2F20005686968B12B
:104C4000FEF728FF686901386861686980B100244F
:104C5000FEF744FF2046BDE8F08100BF4FF0500052
:104C600080F31188BFF36F8FBFF34F8FFEE700BF54
:104C7000E8680028EBD0686E88B340F2FC26C2F2E8
:104C800000064FF0010800BF286FC76807F1180041
:104C9000FEF778FE3C1D2046FEF774FEF86A696A4E
:104CA000884288BF686200EB800006EB80002146E6
:104CB000FEF7D8FEF86A2968C96A884228BFC5F895
:104CC0003080686E0028DFD1E869006820B1E869AB
:104CD000C068C068406801E04FF0FF30E8626C6B6C
:104CE0004CB10126FFF7A2FE002818BF2E63013C3D
:104CF000F8D100206863286B0028A8D04EF6045035
:104D0000CEF200004FF080510160BFF34F8F0124BD
:104D1000BFF36F8FFEF7E2FE2046BDE8F081000092
:104D200070B586B0FEF7B6FE40F2A006C2F20006ED
:104D3000306808BB06F114042046FEF751FE06F168
:104D400028052846FEF74CFE40F20C2240F2AC2328
:104D5000C6E902450025C2F20002C2F200030A20A1
:104D600010210095FFF78AFA306028B145F2D5711D
:104D7000C0F60001FEF77EFFFEF7B0FE3068D8B146
:104D80000020CDE9040005A804A903AAFEF71AFE35
:104D9000DDE903200221059DCDE9001043F28920C1
:104DA000C0F6000009A100230295FFF7EDFD706039
:104DB00010B1012006B070BD4FF0500080F3118893
:104DC000BFF36F8FBFF34F8FFEE700BF546D7220AC
:104DD000537663000FB4054B10B503A9044A02983B
:104DE00000F0FCF810BC5DF814FB0000E92B000893
:104DF000000000200FB47CB50C0009AD01D0611E8D
:104E000000E00021CDE90001064B6A4629460898DA
:104E100000F0E4F8002C02D0009A002111707CBC54
:104E20005DF814FB0B57000802E008C8121F08C108
:104E3000002AFAD170477047002001E001C1121F1B
:104E4000002AFBD1704700002DE9FF5F82B00021EE
:104E5000DDE90430020DDDF840B0034318D044F61C
:104E60001050A2F2FF3242431514119801281FD0AE
:104E7000A5EB0B00401C5FEA000A4FF000064E4F06
:104E8000DFF83891B046504615D5CAF1000413E05A
:104E9000119801244AA3012801D16FEA0B0102985D
:104EA000119AC0E90031C0E9024206B0BDE8F09FA6
:104EB000CBF10000DFE704460021404A491842EBED
:104EC0000450CDE9001012E0E00707D032463B461F
:104ED00040464946FBF7CBFC8046894632463B4676
:104EE00010461946FBF7C3FC06460F466410002C1B
:104EF000EAD1DDE90401DDE90023BAF1000F06DAA9
:104F0000FBF7B5FC42464B46FBF7B1FC05E0FBF76F
:104F100020FD42464B46FBF71CFD04460E46002290
:104F2000284BFBF7A9FD03D84FF0FF30014607E0FF
:104F30000022254B20463146FBF7F2FBFBF784FDB0
:104F4000102409E0002C0ADB0A220023FBF74AF9AF
:104F5000039B30321A55641E50EA0102F2D1641CE0
:104F6000039AC4F111031444119A012A03D00122B7
:104F700008430DD10AE0084304D000204FF0110B84
:104F8000119072E7A3EB0B056D1E0DE05B4504DD90
:104F90004FF0000205F1010504E003DA4FF00002D2
:104FA000A5F10105002AECD002981199C0E902315F
:104FB000C0E9004579E70000000014400000F03F20
:104FC000300000000000F0430000E03F30380A28C5
:104FD00001D2012070470020704700002DE9FF4FEB
:104FE00095B09B468946064600250FE2252877D1D5
:104FF00000242746F84A0121059400E0044316F8EE
:10500000013F203B01FA03F01042F7D130782A2803
:1050100011D06FF02F033078A0F13002092A16D892
:10502000059A44F0020402EB820203EB42021044B0
:10503000761C0590EFE759F8042B0592002A03DA55
:10504000504244F40054059044F00204761C307839
:105050002E2816D116F8010F44F004042A280DD08A
:105060006FF02F023078A0F13003092B09D807EB3D
:10507000870302EB4303C718761CF3E759F8047B58
:10508000761C30786C280FD006DC4C2817D06828A6
:105090000DD06A2814D104E0742810D07A280FD1DA
:1050A0000DE044F400140AE044F4801401E044F4F8
:1050B00040147278824202D104F58014761C761C6A
:1050C000307866280BD013DC582877D009DC00280C
:1050D00075D04528F6D04628F4D047281AD19DE14E
:1050E00018E0632835D0642879D0652812D195E17D
:1050F000702873D008DC6728F1D069286FD06E283B
:105100000DD06F2806D1B5E073282CD0752875D046
:10511000782874D05A46179990476D1C75E1C4F3EE
:105120000250022809D003280DD0D9F80010042815
:105130000DD00D6009F1040967E1D9F80010EA17F4
:10514000C1E90052F6E7D9F800100D80F2E70D70C2
:10515000F0E719F8041B8DF8001000208DF801000D
:10516000EA46012003E059F804AB4FF0FF30610735
:105170004FF0000102D40DE008F101018846B94268
:105180000FDA8045F8DB1AF808100029F4D108E09E
:1051900008F1010188468142FADB1AF8081000295B
:1051A000F6D105985B46A0EB080721463846179ACA
:1051B00000F094FA284400EB080507E04DE029E1EF
:1051C0000DE01AF8010B5A4617999047B8F10108FB
:1051D000F7D25B4621463846179A13E142E00A228D
:1051E0000092C4F302524FF0000A022A08D059F884
:1051F00004CB032A4FEAEC710AD00DE029E02AE043
:1052000009F1070121F00702F2E802C1914609E025
:105210000FFA8CFC4FEAEC71042A03D14FFA8CFC94
:105220004FEAEC71002907DA0A460021DCF1000C94
:1052300061EB02012D2202E0220504D52B228DF81C
:105240000420012203E0E20701D02022F7E7904684
:1052500059E00A2102E010220DE010214FF0000A6F
:1052600000910BE010224FF0000A44F004040827DC
:10527000009203E008224FF0000A0092C4F30252A9
:10528000022A05D059F804CB0021032A08D009E0EE
:1052900009F1070121F00702F2E802C1914605E099
:1052A0001FFA8CFC042A01D10CF0FF0C4FF000080F
:1052B000220728D5702806D0009B83F0100353EAFC
:1052C0000A0305D00EE040228DF80420012208E0F8
:1052D0005CEA010206D030228DF804208DF805002A
:1052E00002229046009B83F0080353EA0A030AD186
:1052F0005CEA010201D1620705D530228DF8042055
:105300004FF001087F1E582804D034A003900EA847
:1053100002900DE036A0F9E753466046009AFAF78E
:1053200061FF84460398825C0298401E02900270DE
:105330005CEA0100F0D1029806A9081A00F1200ADF
:10534000600702D524F4803400E00127574502DDD0
:10535000A7EB0A0000E0002000EB0A01009005988E
:105360004144401A0590E00306D45B462146179A53
:10537000059800F0B3F90544002706E001A85A4655
:10538000C05D179990476D1C7F1C4745F6DBE00315
:105390000CD55B462146179A059800F09FF9054405
:1053A00004E030205A46179990476D1C0099481E1A
:1053B00000900029F5DC08E0029802995A4600782E
:1053C000491C0291179990476D1CBAF10001AAF18E
:1053D000010AF1DC65E100000928010030313233B7
:1053E0003435363738396162636465660000000021
:1053F000303132333435363738394142434445460B
:105400000000000000F058F90544761C30780028B0
:105410007FF4ECAD19B02846BDE8F08F620700D4E8
:10542000062709F1070222F0070CFCE80223E146F7
:1054300003F000485FEA080C02D00FF2702C0DE078
:105440005FEA045C02D50FF2682C07E05FEAC47CD7
:1054500002D00FF2602C01E0AFF2700C4FF0FF3879
:1054600023F00043CDF850C065280CD006DC452859
:1054700009D046281DD047283DD13DE0662818D0E8
:1054800067287ED138E00021112F01DB112000E0D8
:10549000781CCDE9000106A90EA8FFF7D5FCDDE9CF
:1054A0000F010E9A03910021009207F1010A049165
:1054B0004DE04FF000400097CDE9011006A90EA87D
:1054C000FFF7C2FCDDE90F0203920E9B1199002247
:1054D000DDF80CA00093049211B9791C00EB010ACD
:1054E000B7EB0A0004D4C0F1FF3007F1010A0490C1
:1054F000AAEB0700019044E0012F00DA0127002108
:10550000112F01DD112000E03846CDE9000106A988
:105510000EA8FFF799FCDDE90F010E9A0391002117
:1055200004910092BA4621070CD40399514500DA40
:105530008A46BAF1010F05DD009AAAF10101515C1A
:10554000302908D0B84202DA10F1040F06DA01213E
:10555000CDE9011015E0AAF10101E9E7002805DC19
:10556000049901440491AAEB000102E0411C514559
:1055700000DD8A460499401A401C01904FF000401B
:105580000290200704D40198504501DBCDF8048037
:1055900000208DF84F0002980DF14F07B0F1004F39
:1055A00025D02B200E9002984FF0020800280CDA2C
:1055B000404202902D200E9007E00A210298FBF74E
:1055C00046F83031029007F8011DB8F10001A8F14A
:1055D0000108F2DC02980028EFD1791E0E980870BD
:1055E000307800F0200040F0450007F8020D12A8C6
:1055F000C01B00F107081498007800B1012000EBEF
:105600000A01019801EBE07105984144401A401EDF
:105610000590E00306D45B462146179A059800F0F2
:105620005DF805441498007818B15A4617999047C8
:105630006D1CE00324D55B462146179A059800F0BF
:105640004DF805441CE00498002807DBDDE9030160
:10565000884203DD0098405C179901E017993020DB
:105660005A469047049805F10105401C04900198A2
:10567000401E019004D12E205A46179990476D1C68
:10568000BAF10001AAF1010ADDDC05E017F8010B0F
:105690005A46179990476D1CB8F10001A8F101080E
:1056A000F4DC5B462146179A0598ABE62D00000016
:1056B0002B000000200000002DE9F04104460025E9
:1056C0001E461746880404D405E039462020B0471A
:1056D0006D1C641EF9D52846BDE8F0812DE9F04126
:1056E000044600251E469046C80301D5302700E039
:1056F0002027880404D505E041463846B0476D1C94
:10570000641EF9D52846BDE8F0814A68002A06D013
:105710000A68531C0B6010704868401E4860704750
:1057200010B5044601E0FDF75FFA14F8010B0449D7
:105730000028F8D1BDE810400A20FDF755BA000056
:1057400000000020DDDDDDDDDCBBBBDDDDDDDDDD22
:10575000DDDDDDDD988888888888888877777777A9
:105760007788888885555556666666666666666675
:105770006668888883333332222222222222222220
:105780002228888D000000000000000001020304B0
:10579000060708090000000001020304C9570008B9
:1057A00000000000000000000000000000000000F9
:1057B00000020000180000000000000000000000CF
:1057C00025642E25640025660064656661756C7429
:1057D0005461736B00546D72510000000058000852
:1057E0000000002018000000284E0008185800088B
:1057F00018000020404E0000384E00080000000055
:105800000000000001000000100000000024F4006F
:08581000AAAAAAAA00000000E8
:04000005080001AD41
:00000001FF
